{
    "contractName": "EasyAsset",
    "abi": [
        {
            "inputs": [
                {
                    "internalType": "string",
                    "name": "_name",
                    "type": "string"
                },
                {
                    "internalType": "string",
                    "name": "_symbol",
                    "type": "string"
                }
            ],
            "stateMutability": "nonpayable",
            "type": "constructor"
        },
        {
            "anonymous": false,
            "inputs": [
                {
                    "indexed": false,
                    "internalType": "address",
                    "name": "buyer",
                    "type": "address"
                },
                {
                    "indexed": false,
                    "internalType": "address",
                    "name": "seller",
                    "type": "address"
                },
                {
                    "indexed": false,
                    "internalType": "uint256",
                    "name": "timestamp",
                    "type": "uint256"
                },
                {
                    "indexed": false,
                    "internalType": "uint256",
                    "name": "amount",
                    "type": "uint256"
                },
                {
                    "indexed": false,
                    "internalType": "bool",
                    "name": "paid",
                    "type": "bool"
                }
            ],
            "name": "Action",
            "type": "event"
        },
        {
            "anonymous": false,
            "inputs": [
                {
                    "indexed": true,
                    "internalType": "address",
                    "name": "owner",
                    "type": "address"
                },
                {
                    "indexed": true,
                    "internalType": "address",
                    "name": "approved",
                    "type": "address"
                },
                {
                    "indexed": true,
                    "internalType": "uint256",
                    "name": "tokenId",
                    "type": "uint256"
                }
            ],
            "name": "Approval",
            "type": "event"
        },
        {
            "anonymous": false,
            "inputs": [
                {
                    "indexed": true,
                    "internalType": "address",
                    "name": "owner",
                    "type": "address"
                },
                {
                    "indexed": true,
                    "internalType": "address",
                    "name": "operator",
                    "type": "address"
                },
                {
                    "indexed": false,
                    "internalType": "bool",
                    "name": "approved",
                    "type": "bool"
                }
            ],
            "name": "ApprovalForAll",
            "type": "event"
        },
        {
            "anonymous": false,
            "inputs": [
                {
                    "indexed": true,
                    "internalType": "address",
                    "name": "from",
                    "type": "address"
                },
                {
                    "indexed": true,
                    "internalType": "address",
                    "name": "to",
                    "type": "address"
                },
                {
                    "indexed": true,
                    "internalType": "uint256",
                    "name": "tokenId",
                    "type": "uint256"
                }
            ],
            "name": "Transfer",
            "type": "event"
        },
        {
            "anonymous": false,
            "inputs": [
                {
                    "indexed": false,
                    "internalType": "address",
                    "name": "owner",
                    "type": "address"
                },
                {
                    "indexed": true,
                    "internalType": "uint256",
                    "name": "id",
                    "type": "uint256"
                },
                {
                    "indexed": false,
                    "internalType": "string",
                    "name": "credential",
                    "type": "string"
                },
                {
                    "indexed": false,
                    "internalType": "uint256",
                    "name": "timestamp",
                    "type": "uint256"
                },
                {
                    "indexed": false,
                    "internalType": "uint256",
                    "name": "price",
                    "type": "uint256"
                }
            ],
            "name": "assetCreation",
            "type": "event"
        },
        {
            "anonymous": false,
            "inputs": [
                {
                    "indexed": false,
                    "internalType": "address",
                    "name": "from",
                    "type": "address"
                },
                {
                    "indexed": false,
                    "internalType": "address",
                    "name": "to",
                    "type": "address"
                },
                {
                    "indexed": false,
                    "internalType": "uint256",
                    "name": "tokenId",
                    "type": "uint256"
                },
                {
                    "indexed": false,
                    "internalType": "string",
                    "name": "credential",
                    "type": "string"
                },
                {
                    "indexed": false,
                    "internalType": "uint256",
                    "name": "timestamp",
                    "type": "uint256"
                }
            ],
            "name": "assetTransfer",
            "type": "event"
        },
        {
            "anonymous": false,
            "inputs": [
                {
                    "indexed": false,
                    "internalType": "enum EasyAsset.assetStatus",
                    "name": "",
                    "type": "uint8"
                },
                {
                    "indexed": false,
                    "internalType": "enum EasyAsset.assetStatus",
                    "name": "",
                    "type": "uint8"
                }
            ],
            "name": "refundAction",
            "type": "event"
        },
        {
            "anonymous": false,
            "inputs": [
                {
                    "indexed": false,
                    "internalType": "bool",
                    "name": "confirm",
                    "type": "bool"
                },
                {
                    "indexed": false,
                    "internalType": "enum EasyAsset.assetStatus",
                    "name": "status",
                    "type": "uint8"
                }
            ],
            "name": "sold",
            "type": "event"
        },
        {
            "inputs": [
                {
                    "internalType": "uint256",
                    "name": "id",
                    "type": "uint256"
                }
            ],
            "name": "Probe",
            "outputs": [],
            "stateMutability": "nonpayable",
            "type": "function"
        },
        {
            "inputs": [
                {
                    "internalType": "address",
                    "name": "to",
                    "type": "address"
                },
                {
                    "internalType": "uint256",
                    "name": "tokenId",
                    "type": "uint256"
                }
            ],
            "name": "approve",
            "outputs": [],
            "stateMutability": "nonpayable",
            "type": "function"
        },
        {
            "inputs": [
                {
                    "internalType": "address",
                    "name": "owner",
                    "type": "address"
                }
            ],
            "name": "balanceOf",
            "outputs": [
                {
                    "internalType": "uint256",
                    "name": "",
                    "type": "uint256"
                }
            ],
            "stateMutability": "view",
            "type": "function"
        },
        {
            "inputs": [
                {
                    "internalType": "uint256",
                    "name": "id",
                    "type": "uint256"
                }
            ],
            "name": "buyAsset",
            "outputs": [],
            "stateMutability": "payable",
            "type": "function"
        },
        {
            "inputs": [
                {
                    "internalType": "uint256",
                    "name": "id",
                    "type": "uint256"
                }
            ],
            "name": "confirm",
            "outputs": [],
            "stateMutability": "nonpayable",
            "type": "function"
        },
        {
            "inputs": [
                {
                    "internalType": "string",
                    "name": "title",
                    "type": "string"
                },
                {
                    "internalType": "string",
                    "name": "description",
                    "type": "string"
                },
                {
                    "internalType": "string",
                    "name": "credential",
                    "type": "string"
                },
                {
                    "internalType": "uint256",
                    "name": "price",
                    "type": "uint256"
                }
            ],
            "name": "createAsset",
            "outputs": [
                {
                    "internalType": "bool",
                    "name": "",
                    "type": "bool"
                }
            ],
            "stateMutability": "nonpayable",
            "type": "function"
        },
        {
            "inputs": [
                {
                    "internalType": "uint256",
                    "name": "tokenId",
                    "type": "uint256"
                }
            ],
            "name": "getApproved",
            "outputs": [
                {
                    "internalType": "address",
                    "name": "",
                    "type": "address"
                }
            ],
            "stateMutability": "view",
            "type": "function"
        },
        {
            "inputs": [
                {
                    "internalType": "uint256",
                    "name": "_id",
                    "type": "uint256"
                }
            ],
            "name": "getAsset",
            "outputs": [
                {
                    "components": [
                        {
                            "internalType": "address",
                            "name": "seller",
                            "type": "address"
                        },
                        {
                            "internalType": "uint256",
                            "name": "id",
                            "type": "uint256"
                        },
                        {
                            "internalType": "string",
                            "name": "title",
                            "type": "string"
                        },
                        {
                            "internalType": "string",
                            "name": "description",
                            "type": "string"
                        },
                        {
                            "internalType": "string",
                            "name": "credential",
                            "type": "string"
                        },
                        {
                            "internalType": "uint256",
                            "name": "timestamp",
                            "type": "uint256"
                        },
                        {
                            "internalType": "uint256",
                            "name": "price",
                            "type": "uint256"
                        },
                        {
                            "internalType": "bool",
                            "name": "probe",
                            "type": "bool"
                        },
                        {
                            "internalType": "bool",
                            "name": "bought",
                            "type": "bool"
                        },
                        {
                            "internalType": "enum EasyAsset.assetStatus",
                            "name": "status",
                            "type": "uint8"
                        }
                    ],
                    "internalType": "struct EasyAsset.Asset",
                    "name": "",
                    "type": "tuple"
                }
            ],
            "stateMutability": "view",
            "type": "function"
        },
        {
            "inputs": [],
            "name": "getAssets",
            "outputs": [
                {
                    "components": [
                        {
                            "internalType": "address",
                            "name": "seller",
                            "type": "address"
                        },
                        {
                            "internalType": "uint256",
                            "name": "id",
                            "type": "uint256"
                        },
                        {
                            "internalType": "string",
                            "name": "title",
                            "type": "string"
                        },
                        {
                            "internalType": "string",
                            "name": "description",
                            "type": "string"
                        },
                        {
                            "internalType": "string",
                            "name": "credential",
                            "type": "string"
                        },
                        {
                            "internalType": "uint256",
                            "name": "timestamp",
                            "type": "uint256"
                        },
                        {
                            "internalType": "uint256",
                            "name": "price",
                            "type": "uint256"
                        },
                        {
                            "internalType": "bool",
                            "name": "probe",
                            "type": "bool"
                        },
                        {
                            "internalType": "bool",
                            "name": "bought",
                            "type": "bool"
                        },
                        {
                            "internalType": "enum EasyAsset.assetStatus",
                            "name": "status",
                            "type": "uint8"
                        }
                    ],
                    "internalType": "struct EasyAsset.Asset[]",
                    "name": "",
                    "type": "tuple[]"
                }
            ],
            "stateMutability": "view",
            "type": "function"
        },
        {
            "inputs": [
                {
                    "internalType": "uint256",
                    "name": "buyerId",
                    "type": "uint256"
                }
            ],
            "name": "getBuyer",
            "outputs": [
                {
                    "components": [
                        {
                            "internalType": "uint256",
                            "name": "id",
                            "type": "uint256"
                        },
                        {
                            "internalType": "address",
                            "name": "owner",
                            "type": "address"
                        },
                        {
                            "internalType": "uint256",
                            "name": "amountpaid",
                            "type": "uint256"
                        },
                        {
                            "internalType": "uint256",
                            "name": "timestamp",
                            "type": "uint256"
                        },
                        {
                            "internalType": "bool",
                            "name": "paid",
                            "type": "bool"
                        },
                        {
                            "internalType": "bool",
                            "name": "checked",
                            "type": "bool"
                        },
                        {
                            "internalType": "string",
                            "name": "credential",
                            "type": "string"
                        },
                        {
                            "internalType": "enum EasyAsset.assetStatus",
                            "name": "status",
                            "type": "uint8"
                        }
                    ],
                    "internalType": "struct EasyAsset.buyer",
                    "name": "",
                    "type": "tuple"
                }
            ],
            "stateMutability": "view",
            "type": "function"
        },
        {
            "inputs": [
                {
                    "internalType": "uint256",
                    "name": "_id",
                    "type": "uint256"
                }
            ],
            "name": "getRefundedBuyers",
            "outputs": [
                {
                    "components": [
                        {
                            "internalType": "uint256",
                            "name": "id",
                            "type": "uint256"
                        },
                        {
                            "internalType": "address",
                            "name": "owner",
                            "type": "address"
                        },
                        {
                            "internalType": "uint256",
                            "name": "amountpaid",
                            "type": "uint256"
                        },
                        {
                            "internalType": "uint256",
                            "name": "timestamp",
                            "type": "uint256"
                        },
                        {
                            "internalType": "bool",
                            "name": "paid",
                            "type": "bool"
                        },
                        {
                            "internalType": "bool",
                            "name": "checked",
                            "type": "bool"
                        },
                        {
                            "internalType": "string",
                            "name": "credential",
                            "type": "string"
                        },
                        {
                            "internalType": "enum EasyAsset.assetStatus",
                            "name": "status",
                            "type": "uint8"
                        }
                    ],
                    "internalType": "struct EasyAsset.buyer",
                    "name": "",
                    "type": "tuple"
                }
            ],
            "stateMutability": "view",
            "type": "function"
        },
        {
            "inputs": [
                {
                    "internalType": "address",
                    "name": "owner",
                    "type": "address"
                },
                {
                    "internalType": "address",
                    "name": "operator",
                    "type": "address"
                }
            ],
            "name": "isApprovedForAll",
            "outputs": [
                {
                    "internalType": "bool",
                    "name": "",
                    "type": "bool"
                }
            ],
            "stateMutability": "view",
            "type": "function"
        },
        {
            "inputs": [],
            "name": "name",
            "outputs": [
                {
                    "internalType": "string",
                    "name": "",
                    "type": "string"
                }
            ],
            "stateMutability": "view",
            "type": "function"
        },
        {
            "inputs": [],
            "name": "owner",
            "outputs": [
                {
                    "internalType": "address",
                    "name": "",
                    "type": "address"
                }
            ],
            "stateMutability": "view",
            "type": "function"
        },
        {
            "inputs": [
                {
                    "internalType": "uint256",
                    "name": "tokenId",
                    "type": "uint256"
                }
            ],
            "name": "ownerOf",
            "outputs": [
                {
                    "internalType": "address",
                    "name": "",
                    "type": "address"
                }
            ],
            "stateMutability": "view",
            "type": "function"
        },
        {
            "inputs": [
                {
                    "internalType": "uint256",
                    "name": "id",
                    "type": "uint256"
                }
            ],
            "name": "refund",
            "outputs": [],
            "stateMutability": "nonpayable",
            "type": "function"
        },
        {
            "inputs": [
                {
                    "internalType": "uint256",
                    "name": "id",
                    "type": "uint256"
                }
            ],
            "name": "releaseAsset",
            "outputs": [],
            "stateMutability": "nonpayable",
            "type": "function"
        },
        {
            "inputs": [
                {
                    "internalType": "address",
                    "name": "from",
                    "type": "address"
                },
                {
                    "internalType": "address",
                    "name": "to",
                    "type": "address"
                },
                {
                    "internalType": "uint256",
                    "name": "tokenId",
                    "type": "uint256"
                }
            ],
            "name": "safeTransferFrom",
            "outputs": [],
            "stateMutability": "nonpayable",
            "type": "function"
        },
        {
            "inputs": [
                {
                    "internalType": "address",
                    "name": "from",
                    "type": "address"
                },
                {
                    "internalType": "address",
                    "name": "to",
                    "type": "address"
                },
                {
                    "internalType": "uint256",
                    "name": "tokenId",
                    "type": "uint256"
                },
                {
                    "internalType": "bytes",
                    "name": "data",
                    "type": "bytes"
                }
            ],
            "name": "safeTransferFrom",
            "outputs": [],
            "stateMutability": "nonpayable",
            "type": "function"
        },
        {
            "inputs": [
                {
                    "internalType": "address",
                    "name": "operator",
                    "type": "address"
                },
                {
                    "internalType": "bool",
                    "name": "approved",
                    "type": "bool"
                }
            ],
            "name": "setApprovalForAll",
            "outputs": [],
            "stateMutability": "nonpayable",
            "type": "function"
        },
        {
            "inputs": [
                {
                    "internalType": "bytes4",
                    "name": "interfaceId",
                    "type": "bytes4"
                }
            ],
            "name": "supportsInterface",
            "outputs": [
                {
                    "internalType": "bool",
                    "name": "",
                    "type": "bool"
                }
            ],
            "stateMutability": "view",
            "type": "function"
        },
        {
            "inputs": [],
            "name": "symbol",
            "outputs": [
                {
                    "internalType": "string",
                    "name": "",
                    "type": "string"
                }
            ],
            "stateMutability": "view",
            "type": "function"
        },
        {
            "inputs": [
                {
                    "internalType": "uint256",
                    "name": "tokenId",
                    "type": "uint256"
                }
            ],
            "name": "tokenURI",
            "outputs": [
                {
                    "internalType": "string",
                    "name": "",
                    "type": "string"
                }
            ],
            "stateMutability": "view",
            "type": "function"
        },
        {
            "inputs": [
                {
                    "internalType": "address",
                    "name": "from",
                    "type": "address"
                },
                {
                    "internalType": "address",
                    "name": "to",
                    "type": "address"
                },
                {
                    "internalType": "uint256",
                    "name": "tokenId",
                    "type": "uint256"
                }
            ],
            "name": "transferFrom",
            "outputs": [],
            "stateMutability": "nonpayable",
            "type": "function"
        }
    ],
    "bytecode": "60806040523480156200001157600080fd5b5060405162003b7838038062003b7883398101604081905262000034916200013f565b8181600062000044838262000238565b50600162000053828262000238565b505060016006555050600060075550600f80546001600160a01b0319163317905562000304565b634e487b7160e01b600052604160045260246000fd5b600082601f830112620000a257600080fd5b81516001600160401b0380821115620000bf57620000bf6200007a565b604051601f8301601f19908116603f01168101908282118183101715620000ea57620000ea6200007a565b816040528381526020925086838588010111156200010757600080fd5b600091505b838210156200012b57858201830151818301840152908201906200010c565b600093810190920192909252949350505050565b600080604083850312156200015357600080fd5b82516001600160401b03808211156200016b57600080fd5b620001798683870162000090565b935060208501519150808211156200019057600080fd5b506200019f8582860162000090565b9150509250929050565b600181811c90821680620001be57607f821691505b602082108103620001df57634e487b7160e01b600052602260045260246000fd5b50919050565b601f8211156200023357600081815260208120601f850160051c810160208610156200020e5750805b601f850160051c820191505b818110156200022f578281556001016200021a565b5050505b505050565b81516001600160401b038111156200025457620002546200007a565b6200026c81620002658454620001a9565b84620001e5565b602080601f831160018114620002a457600084156200028b5750858301515b600019600386901b1c1916600185901b1785556200022f565b600085815260208120601f198616915b82811015620002d557888601518255948401946001909101908401620002b4565b5085821015620002f45787850151600019600388901b60f8161c191681555b5050505050600190811b01905550565b61386480620003146000396000f3fe60806040526004361061014b5760003560e01c80636352211e116100b6578063a22cb4651161006f578063a22cb465146103c6578063b88d4fde146103e6578063ba0179b514610406578063c87b56dd14610426578063e985e9c514610446578063eac8f5b81461046657600080fd5b80636352211e1461030157806367e4ac2c1461032157806370a08231146103435780638da5cb5b146103715780639010ce971461039157806395d89b41146103b157600080fd5b806323b872dd1161010857806323b872dd14610234578063278ecde114610254578063369d81381461027457806342842e0e146102945780634dcfd945146102b45780635bf608b8146102e157600080fd5b806301ffc9a71461015057806304e98cef1461018557806306fdde03146101a7578063081812fc146101c9578063095ea7b314610201578063110d35b814610221575b600080fd5b34801561015c57600080fd5b5061017061016b366004612dc0565b610493565b60405190151581526020015b60405180910390f35b34801561019157600080fd5b506101a56101a0366004612ddd565b6104e5565b005b3480156101b357600080fd5b506101bc6106c2565b60405161017c9190612e46565b3480156101d557600080fd5b506101e96101e4366004612ddd565b610754565b6040516001600160a01b03909116815260200161017c565b34801561020d57600080fd5b506101a561021c366004612e75565b61077b565b6101a561022f366004612ddd565b610890565b34801561024057600080fd5b506101a561024f366004612e9f565b610c7b565b34801561026057600080fd5b506101a561026f366004612ddd565b610cac565b34801561028057600080fd5b5061017061028f366004612f87565b6110a5565b3480156102a057600080fd5b506101a56102af366004612e9f565b6115ad565b3480156102c057600080fd5b506102d46102cf366004612ddd565b6115c8565b60405161017c919061304f565b3480156102ed57600080fd5b506102d46102fc366004612ddd565b611708565b34801561030d57600080fd5b506101e961031c366004612ddd565b61178e565b34801561032d57600080fd5b506103366117ee565b60405161017c919061318d565b34801561034f57600080fd5b5061036361035e3660046131ef565b611a8a565b60405190815260200161017c565b34801561037d57600080fd5b50600f546101e9906001600160a01b031681565b34801561039d57600080fd5b506101a56103ac366004612ddd565b611b10565b3480156103bd57600080fd5b506101bc611c04565b3480156103d257600080fd5b506101a56103e136600461320a565b611c13565b3480156103f257600080fd5b506101a5610401366004613246565b611c22565b34801561041257600080fd5b506101a5610421366004612ddd565b611c5a565b34801561043257600080fd5b506101bc610441366004612ddd565b612120565b34801561045257600080fd5b506101706104613660046132c2565b612194565b34801561047257600080fd5b50610486610481366004612ddd565b6121c2565b60405161017c91906132f5565b60006001600160e01b031982166380ac58cd60e01b14806104c457506001600160e01b03198216635b5e139f60e01b145b806104df57506301ffc9a760e01b6001600160e01b03198316145b92915050565b600f546001600160a01b0316331480156105265750600a818154811061050d5761050d613308565b600091825260209091206007600890920201015460ff16155b6105a75760405162461bcd60e51b815260206004820152604160248201527f4f6e6c79204f776e6572206861732074686520617574686f7269747920746f2060448201527f63616e2070726f62652041737365742c2050726f6365737320526576657273656064820152601960fa1b608482015260a4015b60405180910390fd5b6001600a82815481106105bc576105bc613308565b60009182526020909120600890910201600701805460ff19169115159190911790556001600a82815481106105f3576105f3613308565b906000526020600020906008020160070160029054906101000a900460ff16600481111561062357610623613017565b0361067457600081815260096020526040902060010154600a8054610674926001600160a01b031691908490811061065d5761065d613308565b906000526020600020906008020160060154612437565b6002600a828154811061068957610689613308565b60009182526020909120600760089092020101805462ff00001916620100008360048111156106ba576106ba613017565b021790555050565b6060600080546106d19061331e565b80601f01602080910402602001604051908101604052809291908181526020018280546106fd9061331e565b801561074a5780601f1061071f5761010080835404028352916020019161074a565b820191906000526020600020905b81548152906001019060200180831161072d57829003601f168201915b5050505050905090565b600061075f826124d1565b506000908152600460205260409020546001600160a01b031690565b60006107868261178e565b9050806001600160a01b0316836001600160a01b0316036107f35760405162461bcd60e51b815260206004820152602160248201527f4552433732313a20617070726f76616c20746f2063757272656e74206f776e656044820152603960f91b606482015260840161059e565b336001600160a01b038216148061080f575061080f8133612194565b6108815760405162461bcd60e51b815260206004820152603d60248201527f4552433732313a20617070726f76652063616c6c6572206973206e6f7420746f60448201527f6b656e206f776e6572206f7220617070726f76656420666f7220616c6c000000606482015260840161059e565b61088b8383612530565b505050565b61089861259e565b6000600a82815481106108ad576108ad613308565b906000526020600020906008020160070160029054906101000a900460ff1660048111156108dd576108dd613017565b1461092a5760405162461bcd60e51b815260206004820152601e60248201527f417373657420697320756e6465676f696e67204e65676f74696174696f6e0000604482015260640161059e565b600a818154811061093d5761093d613308565b60009182526020909120600890910201546001600160a01b031633036109a55760405162461bcd60e51b815260206004820152601960248201527f596f752063616e6e6f742062757920796f757220417373657400000000000000604482015260640161059e565b6000818152600e602052604090205460ff166109fa5760405162461bcd60e51b8152602060048201526014602482015273105cdcd95d08191bd95cc81b9bdd08115e1a5cdd60621b604482015260640161059e565b600a8181548110610a0d57610a0d613308565b9060005260206000209060080201600601543414610a6d5760405162461bcd60e51b815260206004820152601860248201527f496e636f7272656374207061796d656e7420616d6f756e740000000000000000604482015260640161059e565b604080516101008082018352838252336020808401918252348486019081524260608601908152600160808701818152600060a089018181528a518088018c5282815260c08b0190815260e08b018590528c8352600990975299902088518155955191860180546001600160a01b0319166001600160a01b03909316929092179091559151600285015551600384015551600483018054965161ffff1990971691151561ff001916919091179515159093029490941790915591519091906005820190610b3a90826133a6565b5060e082015160068201805460ff19166001836004811115610b5e57610b5e613017565b02179055509050506001600a8281548110610b7b57610b7b613308565b906000526020600020906008020160070160016101000a81548160ff0219169083151502179055507f2018a69277a3b64014d178d92da02c971e68f2f7d89f996327e9757f49c433ba33600a8381548110610bd857610bd8613308565b600091825260209182902060089091020154604080516001600160a01b039485168152939091169183019190915242908201523460608201526001608082015260a00160405180910390a16001600a8281548110610c3857610c38613308565b60009182526020909120600760089092020101805462ff0000191662010000836004811115610c6957610c69613017565b0217905550610c786001600655565b50565b610c8533826125f7565b610ca15760405162461bcd60e51b815260040161059e90613466565b61088b838383612655565b6000818152600960205260409020600101546001600160a01b03163314610d0d5760405162461bcd60e51b81526020600482015260156024820152743cb7ba9030b932903737ba103a343290313abcb2b960591b604482015260640161059e565b600160008281526009602052604090206006015460ff166004811115610d3557610d35613017565b14610d825760405162461bcd60e51b815260206004820152601f60248201527f796f752068617665206e6f74207061696420666f722074686520617373657400604482015260640161059e565b6000818152600960209081526040808320600681018054600360ff1991821681179092556008909452919093208354815560018085015490820180546001600160a01b0319166001600160a01b0390921691909117905560028085015490820155818401549181019190915560048084018054918301805460ff938416151595811686178255915461010090819004909316151590920261ff001990941661ffff199091161792909217909155600580820190610e41908401826134b3565b50600682810154908201805460ff9092169160ff19166001836004811115610e6b57610e6b613017565b0217905550506040805161010080820183526000808352602080840182815284860183815242606087019081526080870185815260a0880186815289518087018b5287815260c08a0190815260e08a018890528c88526009909652989095208751815592516001840180546001600160a01b0319166001600160a01b03909216919091179055905160028301555160038201559151600483018054965161ffff1990971691151561ff001916919091179515159093029490941790915591519092506005820190610f3c90826133a6565b5060e082015160068201805460ff19166001836004811115610f6057610f60613017565b02179055505050600081815260096020526040902060010154600a8054610f9c926001600160a01b031691908490811061065d5761065d613308565b6000600a8281548110610fb157610fb1613308565b906000526020600020906008020160070160016101000a81548160ff0219169083151502179055506000600a8281548110610fee57610fee613308565b60009182526020909120600760089092020101805462ff000019166201000083600481111561101f5761101f613017565b02179055507f84d7f04dfb80e682ae7d14070ec2154d4184eae42887cb5fe7747d6ccbadc21c600a828154811061105857611058613308565b6000918252602080832060076008909302019190910154848352600990915260409182902060060154915161109a9260ff62010000909304831692169061358e565b60405180910390a150565b6000808551116110f75760405162461bcd60e51b815260206004820152601c60248201527f5469746c65206d7573742062652067726561746572207468616e203000000000604482015260640161059e565b60008451116111485760405162461bcd60e51b815260206004820152601b60248201527f4465736372697074696f6e2063616e6e6f7420626520656d7074790000000000604482015260640161059e565b60008351116111915760405162461bcd60e51b8152602060048201526015602482015274496d6167652063616e6e6f7420626520656d70747960581b604482015260640161059e565b600082116111e15760405162461bcd60e51b815260206004820152601b60248201527f636f7374206d7573742062652067726561746572207468616e20300000000000604482015260640161059e565b600d836040516111f191906135a9565b9081526040519081900360200190205460ff16156112475760405162461bcd60e51b8152602060048201526013602482015272105cdcd95d08185b1c9958591e48195e1a5cdd606a1b604482015260640161059e565b6007805460009182611258836135db565b919050559050604051806101400160405280336001600160a01b03168152602001828152602001878152602001868152602001858152602001428152602001848152602001600015158152602001600015158152602001600060048111156112c2576112c2613017565b90526000828152600b6020908152604091829020835181546001600160a01b0319166001600160a01b0390911617815590830151600182015590820151600282019061130e90826133a6565b506060820151600382019061132390826133a6565b506080820151600482019061133890826133a6565b5060a0820151600582015560c0820151600682015560e08201516007820180546101008086015115150261ff00199315159390931661ffff199091161791909117808255610120840151919062ff00001916620100008360048111156113a0576113a0613017565b021790555050506000818152600b60205260408120600a80546001818101835591909352815460089093027fc65a7bb8d6351c1cf70c95a316cc6a92839c986682d98bc35f958f4883f9d2a8810180546001600160a01b0319166001600160a01b03909516949094178455908201547fc65a7bb8d6351c1cf70c95a316cc6a92839c986682d98bc35f958f4883f9d2a98201559091907fc65a7bb8d6351c1cf70c95a316cc6a92839c986682d98bc35f958f4883f9d2aa0161146560028401826134b3565b50600381810190611478908401826134b3565b5060048181019061148b908401826134b3565b50600582810154908201556006808301549082015560078083018054918301805460ff938416151560ff19821681178355835461010090819004861615150261ff001990911661ffff1990921691909117178082559154620100009081900490931692909162ff000019169083600481111561150957611509613017565b021790555050506001600d8560405161152291906135a9565b908152604080519182900360209081018320805494151560ff199586161790556000858152600e90915220805490921660011790915581907f1bd34f5070969faf7c075ecf37c24f973b7c3a11714bbb362e90c5284f96cf5b9061158d9033908890429089906135f4565b60405180910390a261159f33826127b9565b60019150505b949350505050565b61088b83838360405180602001604052806000815250611c22565b6115d0612cfb565b600082815260086020908152604091829020825161010080820185528254825260018301546001600160a01b03169382019390935260028201549381019390935260038101546060840152600481015460ff80821615156080860152929004909116151560a083015260058101805460c08401919061164e9061331e565b80601f016020809104026020016040519081016040528092919081815260200182805461167a9061331e565b80156116c75780601f1061169c576101008083540402835291602001916116c7565b820191906000526020600020905b8154815290600101906020018083116116aa57829003601f168201915b5050509183525050600682015460209091019060ff1660048111156116ee576116ee613017565b60048111156116ff576116ff613017565b90525092915050565b611710612cfb565b600082815260096020908152604091829020825161010080820185528254825260018301546001600160a01b03169382019390935260028201549381019390935260038101546060840152600481015460ff80821615156080860152929004909116151560a083015260058101805460c08401919061164e9061331e565b6000818152600260205260408120546001600160a01b0316806104df5760405162461bcd60e51b8152602060048201526018602482015277115490cdcc8c4e881a5b9d985b1a59081d1bdad95b88125160421b604482015260640161059e565b6060600a805480602002602001604051908101604052809291908181526020016000905b82821015611a8157600084815260209081902060408051610140810182526008860290920180546001600160a01b03168352600181015493830193909352600283018054929392918401916118669061331e565b80601f01602080910402602001604051908101604052809291908181526020018280546118929061331e565b80156118df5780601f106118b4576101008083540402835291602001916118df565b820191906000526020600020905b8154815290600101906020018083116118c257829003601f168201915b505050505081526020016003820180546118f89061331e565b80601f01602080910402602001604051908101604052809291908181526020018280546119249061331e565b80156119715780601f1061194657610100808354040283529160200191611971565b820191906000526020600020905b81548152906001019060200180831161195457829003601f168201915b5050505050815260200160048201805461198a9061331e565b80601f01602080910402602001604051908101604052809291908181526020018280546119b69061331e565b8015611a035780601f106119d857610100808354040283529160200191611a03565b820191906000526020600020905b8154815290600101906020018083116119e657829003601f168201915b50505091835250506005820154602082015260068201546040820152600782015460ff80821615156060840152610100820481161515608084015260a09092019162010000909104166004811115611a5d57611a5d613017565b6004811115611a6e57611a6e613017565b8152505081526020019060010190611812565b50505050905090565b60006001600160a01b038216611af45760405162461bcd60e51b815260206004820152602960248201527f4552433732313a2061646472657373207a65726f206973206e6f7420612076616044820152683634b21037bbb732b960b91b606482015260840161059e565b506001600160a01b031660009081526003602052604090205490565b600f546001600160a01b031633148015611b6c57506002600a8281548110611b3a57611b3a613308565b906000526020600020906008020160070160029054906101000a900460ff166004811115611b6a57611b6a613017565b145b611bb85760405162461bcd60e51b815260206004820181905260248201527f6f6e6c7920746865206f776e65722063616e2072656c65617365204173736574604482015260640161059e565b6000600a8281548110611bcd57611bcd613308565b60009182526020822060089190910201600701805460ff191692151592909217909155600a80548390811061068957610689613308565b6060600180546106d19061331e565b611c1e3383836127d3565b5050565b611c2c33836125f7565b611c485760405162461bcd60e51b815260040161059e90613466565b611c54848484846128a1565b50505050565b6000818152600e602052604090205460ff16611caf5760405162461bcd60e51b8152602060048201526014602482015273105cdcd95d08191bd95cc81b9bdd08115e1a5cdd60621b604482015260640161059e565b6001600a8281548110611cc457611cc4613308565b906000526020600020906008020160070160029054906101000a900460ff166004811115611cf457611cf4613017565b14611d415760405162461bcd60e51b815260206004820152601f60248201527f417373657420697320756e646572676f696e67204e65676f74696174696f6e00604482015260640161059e565b6000818152600960205260409020600101546001600160a01b031633148015611d815750600081815260096020526040902060040154610100900460ff16155b611ddb5760405162461bcd60e51b815260206004820152602560248201527f4f6e6c79207468652062757965722063616e2063616c6c20746869732066756e60448201526431ba34b7b760d91b606482015260840161059e565b6000818152600960205260409020600401805461ff001916610100179055600a8054611e43919083908110611e1257611e12613308565b6000918252602090912060089091020154600a80546001600160a01b03909216918490811061065d5761065d613308565b600081815260096020526040902060020154600a805483908110611e6957611e69613308565b90600052602060002090600802016006016000828254611e89919061362b565b925050819055506004600a8281548110611ea557611ea5613308565b60009182526020909120600760089092020101805462ff0000191662010000836004811115611ed657611ed6613017565b0217905550611f41600a8281548110611ef157611ef1613308565b906000526020600020906008020160000160009054906101000a90046001600160a01b031633600a8481548110611f2a57611f2a613308565b906000526020600020906008020160010154612655565b600a8181548110611f5457611f54613308565b9060005260206000209060080201600401600960008381526020019081526020016000206005019081611f8791906134b3565b5033600a8281548110611f9c57611f9c613308565b906000526020600020906008020160000160006101000a8154816001600160a01b0302191690836001600160a01b031602179055507f8eac340af35af673875d62f0b4eeaa6928b83ecb2f0f45ef9b6d1cba38b00661600a828154811061200557612005613308565b600091825260208083206008909202909101548483526009909152604090912060010154600a80546001600160a01b039384169392909216918590811061204e5761204e613308565b906000526020600020906008020160010154600960008681526020019081526020016000206005014260405161208895949392919061363e565b60405180910390a1600081815260096020526040902060068101805460ff191660049081179091550154600a80547f91530a5dd22aa84df44ea20c894ccdca804d5359f6f90d0f9eba007c278122659260ff610100909104169190849081106120f3576120f3613308565b906000526020600020906008020160070160029054906101000a900460ff1660405161109a9291906136f8565b606061212b826124d1565b600061214260408051602081019091526000815290565b90506000815111612162576040518060200160405280600081525061218d565b8061216c846128d4565b60405160200161217d92919061370e565b6040516020818303038152906040525b9392505050565b6001600160a01b03918216600090815260056020908152604080832093909416825291909152205460ff1690565b6121ca612d3f565b600a82815481106121dd576121dd613308565b9060005260206000209060080201604051806101400160405290816000820160009054906101000a90046001600160a01b03166001600160a01b03166001600160a01b03168152602001600182015481526020016002820180546122409061331e565b80601f016020809104026020016040519081016040528092919081815260200182805461226c9061331e565b80156122b95780601f1061228e576101008083540402835291602001916122b9565b820191906000526020600020905b81548152906001019060200180831161229c57829003601f168201915b505050505081526020016003820180546122d29061331e565b80601f01602080910402602001604051908101604052809291908181526020018280546122fe9061331e565b801561234b5780601f106123205761010080835404028352916020019161234b565b820191906000526020600020905b81548152906001019060200180831161232e57829003601f168201915b505050505081526020016004820180546123649061331e565b80601f01602080910402602001604051908101604052809291908181526020018280546123909061331e565b80156123dd5780601f106123b2576101008083540402835291602001916123dd565b820191906000526020600020905b8154815290600101906020018083116123c057829003601f168201915b50505091835250506005820154602082015260068201546040820152600782015460ff80821615156060840152610100820481161515608084015260a090920191620100009091041660048111156116ee576116ee613017565b6000826001600160a01b03168260405160006040518083038185875af1925050503d8060008114612484576040519150601f19603f3d011682016040523d82523d6000602084013e612489565b606091505b505090508061088b5760405162461bcd60e51b81526020600482015260146024820152732330b4b632b2103a379039b2b7321022ba3432b960611b604482015260640161059e565b6000818152600260205260409020546001600160a01b0316610c785760405162461bcd60e51b8152602060048201526018602482015277115490cdcc8c4e881a5b9d985b1a59081d1bdad95b88125160421b604482015260640161059e565b600081815260046020526040902080546001600160a01b0319166001600160a01b03841690811790915581906125658261178e565b6001600160a01b03167f8c5be1e5ebec7d5bd14f71427d1e84f3dd0314c0f7b2291e5b200ac8c7c3b92560405160405180910390a45050565b6002600654036125f05760405162461bcd60e51b815260206004820152601f60248201527f5265656e7472616e637947756172643a207265656e7472616e742063616c6c00604482015260640161059e565b6002600655565b6000806126038361178e565b9050806001600160a01b0316846001600160a01b0316148061262a575061262a8185612194565b806115a55750836001600160a01b031661264384610754565b6001600160a01b031614949350505050565b826001600160a01b03166126688261178e565b6001600160a01b03161461268e5760405162461bcd60e51b815260040161059e9061373d565b6001600160a01b0382166126f05760405162461bcd60e51b8152602060048201526024808201527f4552433732313a207472616e7366657220746f20746865207a65726f206164646044820152637265737360e01b606482015260840161059e565b826001600160a01b03166127038261178e565b6001600160a01b0316146127295760405162461bcd60e51b815260040161059e9061373d565b600081815260046020908152604080832080546001600160a01b03199081169091556001600160a01b0387811680865260038552838620805460001901905590871680865283862080546001019055868652600290945282852080549092168417909155905184937fddf252ad1be2c89b69c2b068fc378daa952ba7f163c4a11628f55a4df523b3ef91a4505050565b611c1e828260405180602001604052806000815250612967565b816001600160a01b0316836001600160a01b0316036128345760405162461bcd60e51b815260206004820152601960248201527f4552433732313a20617070726f766520746f2063616c6c657200000000000000604482015260640161059e565b6001600160a01b03838116600081815260056020908152604080832094871680845294825291829020805460ff191686151590811790915591519182527f17307eab39ab6107e8899845ad3d59bd9653f200f220920489ca2b5937696c31910160405180910390a3505050565b6128ac848484612655565b6128b88484848461299a565b611c545760405162461bcd60e51b815260040161059e90613782565b606060006128e183612a98565b600101905060008167ffffffffffffffff81111561290157612901612edb565b6040519080825280601f01601f19166020018201604052801561292b576020820181803683370190505b5090508181016020015b600019016f181899199a1a9b1b9c1cb0b131b232b360811b600a86061a8153600a850494508461293557509392505050565b6129718383612b70565b61297e600084848461299a565b61088b5760405162461bcd60e51b815260040161059e90613782565b60006001600160a01b0384163b15612a9057604051630a85bd0160e11b81526001600160a01b0385169063150b7a02906129de9033908990889088906004016137d4565b6020604051808303816000875af1925050508015612a19575060408051601f3d908101601f19168201909252612a1691810190613811565b60015b612a76573d808015612a47576040519150601f19603f3d011682016040523d82523d6000602084013e612a4c565b606091505b508051600003612a6e5760405162461bcd60e51b815260040161059e90613782565b805181602001fd5b6001600160e01b031916630a85bd0160e11b1490506115a5565b5060016115a5565b60008072184f03e93ff9f4daa797ed6e38ed64bf6a1f0160401b8310612ad75772184f03e93ff9f4daa797ed6e38ed64bf6a1f0160401b830492506040015b6d04ee2d6d415b85acef81000000008310612b03576d04ee2d6d415b85acef8100000000830492506020015b662386f26fc100008310612b2157662386f26fc10000830492506010015b6305f5e1008310612b39576305f5e100830492506008015b6127108310612b4d57612710830492506004015b60648310612b5f576064830492506002015b600a83106104df5760010192915050565b6001600160a01b038216612bc65760405162461bcd60e51b815260206004820181905260248201527f4552433732313a206d696e7420746f20746865207a65726f2061646472657373604482015260640161059e565b6000818152600260205260409020546001600160a01b031615612c2b5760405162461bcd60e51b815260206004820152601c60248201527f4552433732313a20746f6b656e20616c7265616479206d696e74656400000000604482015260640161059e565b6000818152600260205260409020546001600160a01b031615612c905760405162461bcd60e51b815260206004820152601c60248201527f4552433732313a20746f6b656e20616c7265616479206d696e74656400000000604482015260640161059e565b6001600160a01b038216600081815260036020908152604080832080546001019055848352600290915280822080546001600160a01b0319168417905551839291907fddf252ad1be2c89b69c2b068fc378daa952ba7f163c4a11628f55a4df523b3ef908290a45050565b604080516101008101825260008082526020820181905291810182905260608082018390526080820183905260a0820183905260c08201529060e08201905b905290565b60405180610140016040528060006001600160a01b0316815260200160008152602001606081526020016060815260200160608152602001600081526020016000815260200160001515815260200160001515815260200160006004811115612d3a57612d3a613017565b6001600160e01b031981168114610c7857600080fd5b600060208284031215612dd257600080fd5b813561218d81612daa565b600060208284031215612def57600080fd5b5035919050565b60005b83811015612e11578181015183820152602001612df9565b50506000910152565b60008151808452612e32816020860160208601612df6565b601f01601f19169290920160200192915050565b60208152600061218d6020830184612e1a565b80356001600160a01b0381168114612e7057600080fd5b919050565b60008060408385031215612e8857600080fd5b612e9183612e59565b946020939093013593505050565b600080600060608486031215612eb457600080fd5b612ebd84612e59565b9250612ecb60208501612e59565b9150604084013590509250925092565b634e487b7160e01b600052604160045260246000fd5b600067ffffffffffffffff80841115612f0c57612f0c612edb565b604051601f8501601f19908116603f01168101908282118183101715612f3457612f34612edb565b81604052809350858152868686011115612f4d57600080fd5b858560208301376000602087830101525050509392505050565b600082601f830112612f7857600080fd5b61218d83833560208501612ef1565b60008060008060808587031215612f9d57600080fd5b843567ffffffffffffffff80821115612fb557600080fd5b612fc188838901612f67565b95506020870135915080821115612fd757600080fd5b612fe388838901612f67565b94506040870135915080821115612ff957600080fd5b5061300687828801612f67565b949793965093946060013593505050565b634e487b7160e01b600052602160045260246000fd5b6005811061304b57634e487b7160e01b600052602160045260246000fd5b9052565b602081528151602082015260018060a01b03602083015116604082015260408201516060820152606082015160808201526080820151151560a0820152600060a08301516130a160c084018215159052565b5060c08301516101008060e08501526130be610120850183612e1a565b915060e08501516130d18286018261302d565b5090949350505050565b80516001600160a01b03168252600061014060208301516020850152604083015181604086015261310e82860182612e1a565b915050606083015184820360608601526131288282612e1a565b915050608083015184820360808601526131428282612e1a565b91505060a083015160a085015260c083015160c085015260e083015161316c60e086018215159052565b5061010083810151151590850152610120808401516130d18287018261302d565b6000602080830181845280855180835260408601915060408160051b870101925083870160005b828110156131e257603f198886030184526131d08583516130db565b945092850192908501906001016131b4565b5092979650505050505050565b60006020828403121561320157600080fd5b61218d82612e59565b6000806040838503121561321d57600080fd5b61322683612e59565b91506020830135801515811461323b57600080fd5b809150509250929050565b6000806000806080858703121561325c57600080fd5b61326585612e59565b935061327360208601612e59565b925060408501359150606085013567ffffffffffffffff81111561329657600080fd5b8501601f810187136132a757600080fd5b6132b687823560208401612ef1565b91505092959194509250565b600080604083850312156132d557600080fd5b6132de83612e59565b91506132ec60208401612e59565b90509250929050565b60208152600061218d60208301846130db565b634e487b7160e01b600052603260045260246000fd5b600181811c9082168061333257607f821691505b60208210810361335257634e487b7160e01b600052602260045260246000fd5b50919050565b601f82111561088b57600081815260208120601f850160051c8101602086101561337f5750805b601f850160051c820191505b8181101561339e5782815560010161338b565b505050505050565b815167ffffffffffffffff8111156133c0576133c0612edb565b6133d4816133ce845461331e565b84613358565b602080601f83116001811461340957600084156133f15750858301515b600019600386901b1c1916600185901b17855561339e565b600085815260208120601f198616915b8281101561343857888601518255948401946001909101908401613419565b50858210156134565787850151600019600388901b60f8161c191681555b5050505050600190811b01905550565b6020808252602d908201527f4552433732313a2063616c6c6572206973206e6f7420746f6b656e206f776e6560408201526c1c881bdc88185c1c1c9bdd9959609a1b606082015260800190565b8181036134be575050565b6134c8825461331e565b67ffffffffffffffff8111156134e0576134e0612edb565b6134ee816133ce845461331e565b6000601f821160018114613522576000831561350a5750848201545b600019600385901b1c1916600184901b178455613587565b600085815260209020601f19841690600086815260209020845b8381101561355c578286015482556001958601959091019060200161353c565b508583101561357a5781850154600019600388901b60f8161c191681555b50505060018360011b0184555b5050505050565b6040810161359c828561302d565b61218d602083018461302d565b600082516135bb818460208701612df6565b9190910192915050565b634e487b7160e01b600052601160045260246000fd5b6000600182016135ed576135ed6135c5565b5060010190565b6001600160a01b038516815260806020820181905260009061361890830186612e1a565b6040830194909452506060015292915050565b818103818111156104df576104df6135c5565b6001600160a01b03868116825285166020808301919091526040820185905260a06060830152835460009182916136748161331e565b8060a087015260c060018084166000811461369657600181146136b0576136de565b60ff1985168984015283151560051b8901830196506136de565b8a6000528560002060005b858110156136d65781548b82018601529083019087016136bb565b8a0184019750505b505050505050809150508260808301529695505050505050565b82151581526040810161218d602083018461302d565b60008351613720818460208801612df6565b835190830190613734818360208801612df6565b01949350505050565b60208082526025908201527f4552433732313a207472616e736665722066726f6d20696e636f72726563742060408201526437bbb732b960d91b606082015260800190565b60208082526032908201527f4552433732313a207472616e7366657220746f206e6f6e20455243373231526560408201527131b2b4bb32b91034b6b83632b6b2b73a32b960711b606082015260800190565b6001600160a01b038581168252841660208201526040810183905260806060820181905260009061380790830184612e1a565b9695505050505050565b60006020828403121561382357600080fd5b815161218d81612daa56fea26469706673582212208f50a2ed1b1b239af27fa2b4a96669a72ba9573b6436abcabd508f3ad71513c864736f6c63430008130033",
    "sourcePath": "c:/Users/LAMSY/Projects/EasyAsset/contracts/EasyAsset.sol",
    "compiler": {
        "name": "solc",
        "version": "0.8.19+commit.7dd6d404"
    },
    "functionHashes": {
        "Probe(uint256)": "04e98cef",
        "approve(address,uint256)": "095ea7b3",
        "balanceOf(address)": "70a08231",
        "buyAsset(uint256)": "110d35b8",
        "confirm(uint256)": "ba0179b5",
        "createAsset(string,string,string,uint256)": "369d8138",
        "getApproved(uint256)": "081812fc",
        "getAsset(uint256)": "eac8f5b8",
        "getAssets()": "67e4ac2c",
        "getBuyer(uint256)": "5bf608b8",
        "getRefundedBuyers(uint256)": "4dcfd945",
        "isApprovedForAll(address,address)": "e985e9c5",
        "name()": "06fdde03",
        "owner()": "8da5cb5b",
        "ownerOf(uint256)": "6352211e",
        "refund(uint256)": "278ecde1",
        "releaseAsset(uint256)": "9010ce97",
        "safeTransferFrom(address,address,uint256)": "42842e0e",
        "safeTransferFrom(address,address,uint256,bytes)": "b88d4fde",
        "setApprovalForAll(address,bool)": "a22cb465",
        "supportsInterface(bytes4)": "01ffc9a7",
        "symbol()": "95d89b41",
        "tokenURI(uint256)": "c87b56dd",
        "transferFrom(address,address,uint256)": "23b872dd"
    },
    "gasEstimates": {
        "creation": {
            "codeDepositCost": "2887200",
            "executionCost": "infinite",
            "totalCost": "infinite"
        },
        "external": {
            "Probe(uint256)": "infinite",
            "approve(address,uint256)": "infinite",
            "balanceOf(address)": "2656",
            "buyAsset(uint256)": "infinite",
            "confirm(uint256)": "infinite",
            "createAsset(string,string,string,uint256)": "infinite",
            "getApproved(uint256)": "4814",
            "getAsset(uint256)": "infinite",
            "getAssets()": "infinite",
            "getBuyer(uint256)": "infinite",
            "getRefundedBuyers(uint256)": "infinite",
            "isApprovedForAll(address,address)": "infinite",
            "name()": "infinite",
            "owner()": "2426",
            "ownerOf(uint256)": "2561",
            "refund(uint256)": "infinite",
            "releaseAsset(uint256)": "59834",
            "safeTransferFrom(address,address,uint256)": "infinite",
            "safeTransferFrom(address,address,uint256,bytes)": "infinite",
            "setApprovalForAll(address,bool)": "26705",
            "supportsInterface(bytes4)": "534",
            "symbol()": "infinite",
            "tokenURI(uint256)": "infinite",
            "transferFrom(address,address,uint256)": "infinite"
        },
        "internal": {
            "pay(address,uint256)": "infinite"
        }
    }
}