{
  "_format": "hh-sol-artifact-1",
  "contractName": "EasyAsset",
  "sourceName": "contracts/EasyAsset.sol",
  "abi": [
    {
      "inputs": [
        {
          "internalType": "string",
          "name": "_name",
          "type": "string"
        },
        {
          "internalType": "string",
          "name": "_symbol",
          "type": "string"
        }
      ],
      "stateMutability": "nonpayable",
      "type": "constructor"
    },
    {
      "anonymous": false,
      "inputs": [
        {
          "indexed": false,
          "internalType": "address",
          "name": "buyer",
          "type": "address"
        },
        {
          "indexed": false,
          "internalType": "address",
          "name": "seller",
          "type": "address"
        },
        {
          "indexed": false,
          "internalType": "uint256",
          "name": "timestamp",
          "type": "uint256"
        },
        {
          "indexed": false,
          "internalType": "uint256",
          "name": "amount",
          "type": "uint256"
        },
        {
          "indexed": false,
          "internalType": "bool",
          "name": "paid",
          "type": "bool"
        }
      ],
      "name": "Action",
      "type": "event"
    },
    {
      "anonymous": false,
      "inputs": [
        {
          "indexed": true,
          "internalType": "address",
          "name": "owner",
          "type": "address"
        },
        {
          "indexed": true,
          "internalType": "address",
          "name": "approved",
          "type": "address"
        },
        {
          "indexed": true,
          "internalType": "uint256",
          "name": "tokenId",
          "type": "uint256"
        }
      ],
      "name": "Approval",
      "type": "event"
    },
    {
      "anonymous": false,
      "inputs": [
        {
          "indexed": true,
          "internalType": "address",
          "name": "owner",
          "type": "address"
        },
        {
          "indexed": true,
          "internalType": "address",
          "name": "operator",
          "type": "address"
        },
        {
          "indexed": false,
          "internalType": "bool",
          "name": "approved",
          "type": "bool"
        }
      ],
      "name": "ApprovalForAll",
      "type": "event"
    },
    {
      "anonymous": false,
      "inputs": [
        {
          "indexed": true,
          "internalType": "address",
          "name": "from",
          "type": "address"
        },
        {
          "indexed": true,
          "internalType": "address",
          "name": "to",
          "type": "address"
        },
        {
          "indexed": true,
          "internalType": "uint256",
          "name": "tokenId",
          "type": "uint256"
        }
      ],
      "name": "Transfer",
      "type": "event"
    },
    {
      "anonymous": false,
      "inputs": [
        {
          "indexed": false,
          "internalType": "address",
          "name": "owner",
          "type": "address"
        },
        {
          "indexed": true,
          "internalType": "uint256",
          "name": "id",
          "type": "uint256"
        },
        {
          "indexed": false,
          "internalType": "string",
          "name": "credential",
          "type": "string"
        },
        {
          "indexed": false,
          "internalType": "uint256",
          "name": "timestamp",
          "type": "uint256"
        },
        {
          "indexed": false,
          "internalType": "uint256",
          "name": "price",
          "type": "uint256"
        }
      ],
      "name": "assetCreation",
      "type": "event"
    },
    {
      "anonymous": false,
      "inputs": [
        {
          "indexed": false,
          "internalType": "address",
          "name": "from",
          "type": "address"
        },
        {
          "indexed": false,
          "internalType": "address",
          "name": "to",
          "type": "address"
        },
        {
          "indexed": false,
          "internalType": "uint256",
          "name": "tokenId",
          "type": "uint256"
        },
        {
          "indexed": false,
          "internalType": "string",
          "name": "credential",
          "type": "string"
        },
        {
          "indexed": false,
          "internalType": "uint256",
          "name": "timestamp",
          "type": "uint256"
        }
      ],
      "name": "assetTransfer",
      "type": "event"
    },
    {
      "anonymous": false,
      "inputs": [
        {
          "indexed": false,
          "internalType": "bool",
          "name": "confirm",
          "type": "bool"
        },
        {
          "indexed": false,
          "internalType": "enum EasyAsset.assetStatus",
          "name": "status",
          "type": "uint8"
        }
      ],
      "name": "sold",
      "type": "event"
    },
    {
      "inputs": [
        {
          "internalType": "uint256",
          "name": "id",
          "type": "uint256"
        }
      ],
      "name": "Probe",
      "outputs": [],
      "stateMutability": "nonpayable",
      "type": "function"
    },
    {
      "inputs": [
        {
          "internalType": "address",
          "name": "to",
          "type": "address"
        },
        {
          "internalType": "uint256",
          "name": "tokenId",
          "type": "uint256"
        }
      ],
      "name": "approve",
      "outputs": [],
      "stateMutability": "nonpayable",
      "type": "function"
    },
    {
      "inputs": [],
      "name": "balance",
      "outputs": [
        {
          "internalType": "uint256",
          "name": "",
          "type": "uint256"
        }
      ],
      "stateMutability": "view",
      "type": "function"
    },
    {
      "inputs": [
        {
          "internalType": "address",
          "name": "owner",
          "type": "address"
        }
      ],
      "name": "balanceOf",
      "outputs": [
        {
          "internalType": "uint256",
          "name": "",
          "type": "uint256"
        }
      ],
      "stateMutability": "view",
      "type": "function"
    },
    {
      "inputs": [
        {
          "internalType": "uint256",
          "name": "id",
          "type": "uint256"
        }
      ],
      "name": "buyAsset",
      "outputs": [],
      "stateMutability": "payable",
      "type": "function"
    },
    {
      "inputs": [
        {
          "internalType": "uint256",
          "name": "id",
          "type": "uint256"
        }
      ],
      "name": "confirm",
      "outputs": [],
      "stateMutability": "nonpayable",
      "type": "function"
    },
    {
      "inputs": [
        {
          "internalType": "string",
          "name": "title",
          "type": "string"
        },
        {
          "internalType": "string",
          "name": "description",
          "type": "string"
        },
        {
          "internalType": "string",
          "name": "credential",
          "type": "string"
        },
        {
          "internalType": "uint256",
          "name": "price",
          "type": "uint256"
        }
      ],
      "name": "createAsset",
      "outputs": [
        {
          "internalType": "bool",
          "name": "",
          "type": "bool"
        }
      ],
      "stateMutability": "nonpayable",
      "type": "function"
    },
    {
      "inputs": [
        {
          "internalType": "uint256",
          "name": "tokenId",
          "type": "uint256"
        }
      ],
      "name": "getApproved",
      "outputs": [
        {
          "internalType": "address",
          "name": "",
          "type": "address"
        }
      ],
      "stateMutability": "view",
      "type": "function"
    },
    {
      "inputs": [
        {
          "internalType": "uint256",
          "name": "_id",
          "type": "uint256"
        }
      ],
      "name": "getAsset",
      "outputs": [
        {
          "components": [
            {
              "internalType": "address",
              "name": "holder",
              "type": "address"
            },
            {
              "internalType": "uint256",
              "name": "id",
              "type": "uint256"
            },
            {
              "internalType": "string",
              "name": "title",
              "type": "string"
            },
            {
              "internalType": "string",
              "name": "description",
              "type": "string"
            },
            {
              "internalType": "string",
              "name": "credential",
              "type": "string"
            },
            {
              "internalType": "uint256",
              "name": "timestamp",
              "type": "uint256"
            },
            {
              "internalType": "uint256",
              "name": "price",
              "type": "uint256"
            },
            {
              "internalType": "bool",
              "name": "probe",
              "type": "bool"
            },
            {
              "internalType": "enum EasyAsset.assetStatus",
              "name": "status",
              "type": "uint8"
            }
          ],
          "internalType": "struct EasyAsset.Asset",
          "name": "",
          "type": "tuple"
        }
      ],
      "stateMutability": "view",
      "type": "function"
    },
    {
      "inputs": [],
      "name": "getAssets",
      "outputs": [
        {
          "components": [
            {
              "internalType": "address",
              "name": "holder",
              "type": "address"
            },
            {
              "internalType": "uint256",
              "name": "id",
              "type": "uint256"
            },
            {
              "internalType": "string",
              "name": "title",
              "type": "string"
            },
            {
              "internalType": "string",
              "name": "description",
              "type": "string"
            },
            {
              "internalType": "string",
              "name": "credential",
              "type": "string"
            },
            {
              "internalType": "uint256",
              "name": "timestamp",
              "type": "uint256"
            },
            {
              "internalType": "uint256",
              "name": "price",
              "type": "uint256"
            },
            {
              "internalType": "bool",
              "name": "probe",
              "type": "bool"
            },
            {
              "internalType": "enum EasyAsset.assetStatus",
              "name": "status",
              "type": "uint8"
            }
          ],
          "internalType": "struct EasyAsset.Asset[]",
          "name": "",
          "type": "tuple[]"
        }
      ],
      "stateMutability": "view",
      "type": "function"
    },
    {
      "inputs": [
        {
          "internalType": "uint256",
          "name": "buyerId",
          "type": "uint256"
        }
      ],
      "name": "getBuyer",
      "outputs": [
        {
          "components": [
            {
              "internalType": "uint256",
              "name": "id",
              "type": "uint256"
            },
            {
              "internalType": "address",
              "name": "owner",
              "type": "address"
            },
            {
              "internalType": "uint256",
              "name": "amountpaid",
              "type": "uint256"
            },
            {
              "internalType": "uint256",
              "name": "timestamp",
              "type": "uint256"
            },
            {
              "internalType": "bool",
              "name": "refunded",
              "type": "bool"
            },
            {
              "internalType": "bool",
              "name": "paid",
              "type": "bool"
            },
            {
              "internalType": "bool",
              "name": "checked",
              "type": "bool"
            },
            {
              "internalType": "string",
              "name": "credential",
              "type": "string"
            }
          ],
          "internalType": "struct EasyAsset.buyer",
          "name": "",
          "type": "tuple"
        }
      ],
      "stateMutability": "view",
      "type": "function"
    },
    {
      "inputs": [],
      "name": "getBuyers",
      "outputs": [
        {
          "components": [
            {
              "internalType": "uint256",
              "name": "id",
              "type": "uint256"
            },
            {
              "internalType": "address",
              "name": "owner",
              "type": "address"
            },
            {
              "internalType": "uint256",
              "name": "amountpaid",
              "type": "uint256"
            },
            {
              "internalType": "uint256",
              "name": "timestamp",
              "type": "uint256"
            },
            {
              "internalType": "bool",
              "name": "refunded",
              "type": "bool"
            },
            {
              "internalType": "bool",
              "name": "paid",
              "type": "bool"
            },
            {
              "internalType": "bool",
              "name": "checked",
              "type": "bool"
            },
            {
              "internalType": "string",
              "name": "credential",
              "type": "string"
            }
          ],
          "internalType": "struct EasyAsset.buyer[]",
          "name": "",
          "type": "tuple[]"
        }
      ],
      "stateMutability": "view",
      "type": "function"
    },
    {
      "inputs": [
        {
          "internalType": "address",
          "name": "owner",
          "type": "address"
        },
        {
          "internalType": "address",
          "name": "operator",
          "type": "address"
        }
      ],
      "name": "isApprovedForAll",
      "outputs": [
        {
          "internalType": "bool",
          "name": "",
          "type": "bool"
        }
      ],
      "stateMutability": "view",
      "type": "function"
    },
    {
      "inputs": [],
      "name": "name",
      "outputs": [
        {
          "internalType": "string",
          "name": "",
          "type": "string"
        }
      ],
      "stateMutability": "view",
      "type": "function"
    },
    {
      "inputs": [],
      "name": "owner",
      "outputs": [
        {
          "internalType": "address",
          "name": "",
          "type": "address"
        }
      ],
      "stateMutability": "view",
      "type": "function"
    },
    {
      "inputs": [
        {
          "internalType": "uint256",
          "name": "tokenId",
          "type": "uint256"
        }
      ],
      "name": "ownerOf",
      "outputs": [
        {
          "internalType": "address",
          "name": "",
          "type": "address"
        }
      ],
      "stateMutability": "view",
      "type": "function"
    },
    {
      "inputs": [
        {
          "internalType": "uint256",
          "name": "id",
          "type": "uint256"
        }
      ],
      "name": "refund",
      "outputs": [],
      "stateMutability": "nonpayable",
      "type": "function"
    },
    {
      "inputs": [
        {
          "internalType": "uint256",
          "name": "id",
          "type": "uint256"
        }
      ],
      "name": "releaseAsset",
      "outputs": [],
      "stateMutability": "nonpayable",
      "type": "function"
    },
    {
      "inputs": [
        {
          "internalType": "address",
          "name": "from",
          "type": "address"
        },
        {
          "internalType": "address",
          "name": "to",
          "type": "address"
        },
        {
          "internalType": "uint256",
          "name": "tokenId",
          "type": "uint256"
        }
      ],
      "name": "safeTransferFrom",
      "outputs": [],
      "stateMutability": "nonpayable",
      "type": "function"
    },
    {
      "inputs": [
        {
          "internalType": "address",
          "name": "from",
          "type": "address"
        },
        {
          "internalType": "address",
          "name": "to",
          "type": "address"
        },
        {
          "internalType": "uint256",
          "name": "tokenId",
          "type": "uint256"
        },
        {
          "internalType": "bytes",
          "name": "data",
          "type": "bytes"
        }
      ],
      "name": "safeTransferFrom",
      "outputs": [],
      "stateMutability": "nonpayable",
      "type": "function"
    },
    {
      "inputs": [
        {
          "internalType": "address",
          "name": "operator",
          "type": "address"
        },
        {
          "internalType": "bool",
          "name": "approved",
          "type": "bool"
        }
      ],
      "name": "setApprovalForAll",
      "outputs": [],
      "stateMutability": "nonpayable",
      "type": "function"
    },
    {
      "inputs": [
        {
          "internalType": "bytes4",
          "name": "interfaceId",
          "type": "bytes4"
        }
      ],
      "name": "supportsInterface",
      "outputs": [
        {
          "internalType": "bool",
          "name": "",
          "type": "bool"
        }
      ],
      "stateMutability": "view",
      "type": "function"
    },
    {
      "inputs": [],
      "name": "symbol",
      "outputs": [
        {
          "internalType": "string",
          "name": "",
          "type": "string"
        }
      ],
      "stateMutability": "view",
      "type": "function"
    },
    {
      "inputs": [
        {
          "internalType": "uint256",
          "name": "tokenId",
          "type": "uint256"
        }
      ],
      "name": "tokenURI",
      "outputs": [
        {
          "internalType": "string",
          "name": "",
          "type": "string"
        }
      ],
      "stateMutability": "view",
      "type": "function"
    },
    {
      "inputs": [
        {
          "internalType": "address",
          "name": "from",
          "type": "address"
        },
        {
          "internalType": "address",
          "name": "to",
          "type": "address"
        },
        {
          "internalType": "uint256",
          "name": "tokenId",
          "type": "uint256"
        }
      ],
      "name": "transferFrom",
      "outputs": [],
      "stateMutability": "nonpayable",
      "type": "function"
    },
    {
      "stateMutability": "payable",
      "type": "receive"
    }
  ],
  "bytecode": "0x60806040523480156200001157600080fd5b506040516200654c3803806200654c833981810160405281019062000037919062000243565b818181600090816200004a919062000513565b5080600190816200005c919062000513565b505050600160068190555033600f60006101000a81548173ffffffffffffffffffffffffffffffffffffffff021916908373ffffffffffffffffffffffffffffffffffffffff1602179055505050620005fa565b6000604051905090565b600080fd5b600080fd5b600080fd5b600080fd5b6000601f19601f8301169050919050565b7f4e487b7100000000000000000000000000000000000000000000000000000000600052604160045260246000fd5b6200011982620000ce565b810181811067ffffffffffffffff821117156200013b576200013a620000df565b5b80604052505050565b600062000150620000b0565b90506200015e82826200010e565b919050565b600067ffffffffffffffff821115620001815762000180620000df565b5b6200018c82620000ce565b9050602081019050919050565b60005b83811015620001b95780820151818401526020810190506200019c565b60008484015250505050565b6000620001dc620001d68462000163565b62000144565b905082815260208101848484011115620001fb57620001fa620000c9565b5b6200020884828562000199565b509392505050565b600082601f830112620002285762000227620000c4565b5b81516200023a848260208601620001c5565b91505092915050565b600080604083850312156200025d576200025c620000ba565b5b600083015167ffffffffffffffff8111156200027e576200027d620000bf565b5b6200028c8582860162000210565b925050602083015167ffffffffffffffff811115620002b057620002af620000bf565b5b620002be8582860162000210565b9150509250929050565b600081519050919050565b7f4e487b7100000000000000000000000000000000000000000000000000000000600052602260045260246000fd5b600060028204905060018216806200031b57607f821691505b602082108103620003315762000330620002d3565b5b50919050565b60008190508160005260206000209050919050565b60006020601f8301049050919050565b600082821b905092915050565b6000600883026200039b7fffffffffffffffffffffffffffffffffffffffffffffffffffffffffffffffff826200035c565b620003a786836200035c565b95508019841693508086168417925050509392505050565b6000819050919050565b6000819050919050565b6000620003f4620003ee620003e884620003bf565b620003c9565b620003bf565b9050919050565b6000819050919050565b6200041083620003d3565b620004286200041f82620003fb565b84845462000369565b825550505050565b600090565b6200043f62000430565b6200044c81848462000405565b505050565b5b8181101562000474576200046860008262000435565b60018101905062000452565b5050565b601f821115620004c3576200048d8162000337565b62000498846200034c565b81016020851015620004a8578190505b620004c0620004b7856200034c565b83018262000451565b50505b505050565b600082821c905092915050565b6000620004e860001984600802620004c8565b1980831691505092915050565b6000620005038383620004d5565b9150826002028217905092915050565b6200051e82620002c8565b67ffffffffffffffff8111156200053a5762000539620000df565b5b62000546825462000302565b6200055382828562000478565b600060209050601f8311600181146200058b576000841562000576578287015190505b620005828582620004f5565b865550620005f2565b601f1984166200059b8662000337565b60005b82811015620005c5578489015182556001820191506020850194506020810190506200059e565b86831015620005e55784890151620005e1601f891682620004d5565b8355505b6001600288020188555050505b505050505050565b615f42806200060a6000396000f3fe60806040526004361061016a5760003560e01c806367e4ac2c116100d1578063b69ef8a81161008a578063c87b56dd11610064578063c87b56dd14610548578063e985e9c514610585578063eac8f5b8146105c2578063f64bfaba146105ff57610171565b8063b69ef8a8146104cb578063b88d4fde146104f6578063ba0179b51461051f57610171565b806367e4ac2c146103bb57806370a08231146103e65780638da5cb5b146104235780639010ce971461044e57806395d89b4114610477578063a22cb465146104a257610171565b806323b872dd1161012357806323b872dd14610289578063278ecde1146102b2578063369d8138146102db57806342842e0e146103185780635bf608b8146103415780636352211e1461037e57610171565b806301ffc9a71461017657806304e98cef146101b357806306fdde03146101dc578063081812fc14610207578063095ea7b314610244578063110d35b81461026d57610171565b3661017157005b600080fd5b34801561018257600080fd5b5061019d60048036038101906101989190613c0f565b61062a565b6040516101aa9190613c57565b60405180910390f35b3480156101bf57600080fd5b506101da60048036038101906101d59190613ca8565b61070c565b005b3480156101e857600080fd5b506101f161093a565b6040516101fe9190613d65565b60405180910390f35b34801561021357600080fd5b5061022e60048036038101906102299190613ca8565b6109cc565b60405161023b9190613dc8565b60405180910390f35b34801561025057600080fd5b5061026b60048036038101906102669190613e0f565b610a12565b005b61028760048036038101906102829190613ca8565b610b29565b005b34801561029557600080fd5b506102b060048036038101906102ab9190613e4f565b611088565b005b3480156102be57600080fd5b506102d960048036038101906102d49190613ca8565b6110e8565b005b3480156102e757600080fd5b5061030260048036038101906102fd9190613fd7565b61133c565b60405161030f9190613c57565b60405180910390f35b34801561032457600080fd5b5061033f600480360381019061033a9190613e4f565b611793565b005b34801561034d57600080fd5b5061036860048036038101906103639190613ca8565b6117b3565b60405161037591906141b9565b60405180910390f35b34801561038a57600080fd5b506103a560048036038101906103a09190613ca8565b611947565b6040516103b29190613dc8565b60405180910390f35b3480156103c757600080fd5b506103d06119cd565b6040516103dd91906143e7565b60405180910390f35b3480156103f257600080fd5b5061040d60048036038101906104089190614409565b611cad565b60405161041a9190614445565b60405180910390f35b34801561042f57600080fd5b50610438611d64565b6040516104459190613dc8565b60405180910390f35b34801561045a57600080fd5b5061047560048036038101906104709190613ca8565b611d8a565b005b34801561048357600080fd5b5061048c611f0a565b6040516104999190613d65565b60405180910390f35b3480156104ae57600080fd5b506104c960048036038101906104c4919061448c565b611f9c565b005b3480156104d757600080fd5b506104e0611fb2565b6040516104ed9190614445565b60405180910390f35b34801561050257600080fd5b5061051d6004803603810190610518919061456d565b611fba565b005b34801561052b57600080fd5b5061054660048036038101906105419190613ca8565b61201c565b005b34801561055457600080fd5b5061056f600480360381019061056a9190613ca8565b612684565b60405161057c9190613d65565b60405180910390f35b34801561059157600080fd5b506105ac60048036038101906105a791906145f0565b6126ec565b6040516105b99190613c57565b60405180910390f35b3480156105ce57600080fd5b506105e960048036038101906105e49190613ca8565b612780565b6040516105f69190614703565b60405180910390f35b34801561060b57600080fd5b50610614612a3d565b6040516106219190614897565b60405180910390f35b60007f80ac58cd000000000000000000000000000000000000000000000000000000007bffffffffffffffffffffffffffffffffffffffffffffffffffffffff1916827bffffffffffffffffffffffffffffffffffffffffffffffffffffffff191614806106f557507f5b5e139f000000000000000000000000000000000000000000000000000000007bffffffffffffffffffffffffffffffffffffffffffffffffffffffff1916827bffffffffffffffffffffffffffffffffffffffffffffffffffffffff1916145b80610705575061070482612bf4565b5b9050919050565b600f60009054906101000a900473ffffffffffffffffffffffffffffffffffffffff1673ffffffffffffffffffffffffffffffffffffffff163373ffffffffffffffffffffffffffffffffffffffff161480156107995750600a8181548110610778576107776148b9565b5b906000526020600020906008020160070160009054906101000a900460ff16155b6107d8576040517f08c379a00000000000000000000000000000000000000000000000000000000081526004016107cf90614980565b60405180910390fd5b6001600a82815481106107ee576107ed6148b9565b5b906000526020600020906008020160070160006101000a81548160ff0219169083151502179055506001600581111561082a57610829614207565b5b600a828154811061083e5761083d6148b9565b5b906000526020600020906008020160070160019054906101000a900460ff16600581111561086f5761086e614207565b5b036108e9576108e86008828154811061088b5761088a6148b9565b5b906000526020600020906006020160010160009054906101000a900473ffffffffffffffffffffffffffffffffffffffff16600a83815481106108d1576108d06148b9565b5b906000526020600020906008020160060154612c5e565b5b6005600a82815481106108ff576108fe6148b9565b5b906000526020600020906008020160070160016101000a81548160ff0219169083600581111561093257610931614207565b5b021790555050565b606060008054610949906149cf565b80601f0160208091040260200160405190810160405280929190818152602001828054610975906149cf565b80156109c25780601f10610997576101008083540402835291602001916109c2565b820191906000526020600020905b8154815290600101906020018083116109a557829003601f168201915b5050505050905090565b60006109d782612d0f565b6004600083815260200190815260200160002060009054906101000a900473ffffffffffffffffffffffffffffffffffffffff169050919050565b6000610a1d82611947565b90508073ffffffffffffffffffffffffffffffffffffffff168373ffffffffffffffffffffffffffffffffffffffff1603610a8d576040517f08c379a0000000000000000000000000000000000000000000000000000000008152600401610a8490614a72565b60405180910390fd5b8073ffffffffffffffffffffffffffffffffffffffff16610aac612d5a565b73ffffffffffffffffffffffffffffffffffffffff161480610adb5750610ada81610ad5612d5a565b6126ec565b5b610b1a576040517f08c379a0000000000000000000000000000000000000000000000000000000008152600401610b1190614b04565b60405180910390fd5b610b248383612d62565b505050565b610b31612e1b565b60006005811115610b4557610b44614207565b5b600a8281548110610b5957610b586148b9565b5b906000526020600020906008020160070160019054906101000a900460ff166005811115610b8a57610b89614207565b5b14610bca576040517f08c379a0000000000000000000000000000000000000000000000000000000008152600401610bc190614b70565b60405180910390fd5b600a8181548110610bde57610bdd6148b9565b5b906000526020600020906008020160000160009054906101000a900473ffffffffffffffffffffffffffffffffffffffff1673ffffffffffffffffffffffffffffffffffffffff163373ffffffffffffffffffffffffffffffffffffffff1603610c7d576040517f08c379a0000000000000000000000000000000000000000000000000000000008152600401610c7490614bdc565b60405180910390fd5b600e600082815260200190815260200160002060009054906101000a900460ff16610cdd576040517f08c379a0000000000000000000000000000000000000000000000000000000008152600401610cd490614c48565b60405180910390fd5b600a8181548110610cf157610cf06148b9565b5b9060005260206000209060080201600601543414610d44576040517f08c379a0000000000000000000000000000000000000000000000000000000008152600401610d3b90614cb4565b60405180910390fd5b600060096000600a8481548110610d5e57610d5d6148b9565b5b90600052602060002090600802016001015481526020019081526020016000209050600a8281548110610d9457610d936148b9565b5b9060005260206000209060080201600101548160000181905550338160010160006101000a81548173ffffffffffffffffffffffffffffffffffffffff021916908373ffffffffffffffffffffffffffffffffffffffff16021790555034816002018190555042816003018190555060008160040160006101000a81548160ff02191690831515021790555060018160040160016101000a81548160ff02191690831515021790555060008160040160026101000a81548160ff0219169083151502179055506008819080600181540180825580915050600190039060005260206000209060060201600090919091909150600082015481600001556001820160009054906101000a900473ffffffffffffffffffffffffffffffffffffffff168160010160006101000a81548173ffffffffffffffffffffffffffffffffffffffff021916908373ffffffffffffffffffffffffffffffffffffffff16021790555060028201548160020155600382015481600301556004820160009054906101000a900460ff168160040160006101000a81548160ff0219169083151502179055506004820160019054906101000a900460ff168160040160016101000a81548160ff0219169083151502179055506004820160029054906101000a900460ff168160040160026101000a81548160ff02191690831515021790555060058201816005019081610fa69190614e96565b5050507f2018a69277a3b64014d178d92da02c971e68f2f7d89f996327e9757f49c433ba33600a8481548110610fdf57610fde6148b9565b5b906000526020600020906008020160000160009054906101000a900473ffffffffffffffffffffffffffffffffffffffff1642346001604051611026959493929190614f7e565b60405180910390a16001600a8381548110611044576110436148b9565b5b906000526020600020906008020160070160016101000a81548160ff0219169083600581111561107757611076614207565b5b021790555050611085612e6a565b50565b611099611093612d5a565b82612e74565b6110d8576040517f08c379a00000000000000000000000000000000000000000000000000000000081526004016110cf90615043565b60405180910390fd5b6110e3838383612f09565b505050565b600160058111156110fc576110fb614207565b5b600a82815481106111105761110f6148b9565b5b906000526020600020906008020160070160019054906101000a900460ff16600581111561114157611140614207565b5b1480156111be57506008818154811061115d5761115c6148b9565b5b906000526020600020906006020160010160009054906101000a900473ffffffffffffffffffffffffffffffffffffffff1673ffffffffffffffffffffffffffffffffffffffff163373ffffffffffffffffffffffffffffffffffffffff16145b80156111fa5750600881815481106111d9576111d86148b9565b5b906000526020600020906006020160040160009054906101000a900460ff16155b611239576040517f08c379a0000000000000000000000000000000000000000000000000000000008152600401611230906150d5565b60405180910390fd5b6112ad600882815481106112505761124f6148b9565b5b906000526020600020906006020160010160009054906101000a900473ffffffffffffffffffffffffffffffffffffffff16600a8381548110611296576112956148b9565b5b906000526020600020906008020160060154612c5e565b6000600a82815481106112c3576112c26148b9565b5b906000526020600020906008020160070160016101000a81548160ff021916908360058111156112f6576112f5614207565b5b0217905550600160088281548110611311576113106148b9565b5b906000526020600020906006020160040160006101000a81548160ff02191690831515021790555050565b600080855111611381576040517f08c379a000000000000000000000000000000000000000000000000000000000815260040161137890615141565b60405180910390fd5b60008451116113c5576040517f08c379a00000000000000000000000000000000000000000000000000000000081526004016113bc906151ad565b60405180910390fd5b6000835111611409576040517f08c379a000000000000000000000000000000000000000000000000000000000815260040161140090615219565b60405180910390fd5b6000821161144c576040517f08c379a000000000000000000000000000000000000000000000000000000000815260040161144390615285565b60405180910390fd5b600d8360405161145c91906152e1565b908152602001604051809103902060009054906101000a900460ff16156114b8576040517f08c379a00000000000000000000000000000000000000000000000000000000081526004016114af90615344565b60405180910390fd5b6000600760008154809291906114cd90615393565b9190505590506000600b60008381526020019081526020016000209050338160000160006101000a81548173ffffffffffffffffffffffffffffffffffffffff021916908373ffffffffffffffffffffffffffffffffffffffff1602179055508181600101819055508681600201908161154791906153db565b508581600301908161155991906153db565b508481600401908161156b91906153db565b50428160050181905550838160060181905550600a8190806001815401808255809150506001900390600052602060002090600802016000909190919091506000820160009054906101000a900473ffffffffffffffffffffffffffffffffffffffff168160000160006101000a81548173ffffffffffffffffffffffffffffffffffffffff021916908373ffffffffffffffffffffffffffffffffffffffff160217905550600182015481600101556002820181600201908161162f9190614e96565b50600382018160030190816116449190614e96565b50600482018160040190816116599190614e96565b5060058201548160050155600682015481600601556007820160009054906101000a900460ff168160070160006101000a81548160ff0219169083151502179055506007820160019054906101000a900460ff168160070160016101000a81548160ff021916908360058111156116d3576116d2614207565b5b021790555050506001600d866040516116ec91906152e1565b908152602001604051809103902060006101000a81548160ff0219169083151502179055506001600e600084815260200190815260200160002060006101000a81548160ff021916908315150217905550817f1bd34f5070969faf7c075ecf37c24f973b7c3a11714bbb362e90c5284f96cf5b3387428860405161177394939291906154ad565b60405180910390a26117853383613202565b600192505050949350505050565b6117ae83838360405180602001604052806000815250611fba565b505050565b6117bb613acc565b600882815481106117cf576117ce6148b9565b5b906000526020600020906006020160405180610100016040529081600082015481526020016001820160009054906101000a900473ffffffffffffffffffffffffffffffffffffffff1673ffffffffffffffffffffffffffffffffffffffff1673ffffffffffffffffffffffffffffffffffffffff16815260200160028201548152602001600382015481526020016004820160009054906101000a900460ff161515151581526020016004820160019054906101000a900460ff161515151581526020016004820160029054906101000a900460ff161515151581526020016005820180546118be906149cf565b80601f01602080910402602001604051908101604052809291908181526020018280546118ea906149cf565b80156119375780601f1061190c57610100808354040283529160200191611937565b820191906000526020600020905b81548152906001019060200180831161191a57829003601f168201915b5050505050815250509050919050565b60008061195383613220565b9050600073ffffffffffffffffffffffffffffffffffffffff168173ffffffffffffffffffffffffffffffffffffffff16036119c4576040517f08c379a00000000000000000000000000000000000000000000000000000000081526004016119bb90615545565b60405180910390fd5b80915050919050565b6060600a805480602002602001604051908101604052809291908181526020016000905b82821015611ca45783829060005260206000209060080201604051806101200160405290816000820160009054906101000a900473ffffffffffffffffffffffffffffffffffffffff1673ffffffffffffffffffffffffffffffffffffffff1673ffffffffffffffffffffffffffffffffffffffff16815260200160018201548152602001600282018054611a85906149cf565b80601f0160208091040260200160405190810160405280929190818152602001828054611ab1906149cf565b8015611afe5780601f10611ad357610100808354040283529160200191611afe565b820191906000526020600020905b815481529060010190602001808311611ae157829003601f168201915b50505050508152602001600382018054611b17906149cf565b80601f0160208091040260200160405190810160405280929190818152602001828054611b43906149cf565b8015611b905780601f10611b6557610100808354040283529160200191611b90565b820191906000526020600020905b815481529060010190602001808311611b7357829003601f168201915b50505050508152602001600482018054611ba9906149cf565b80601f0160208091040260200160405190810160405280929190818152602001828054611bd5906149cf565b8015611c225780601f10611bf757610100808354040283529160200191611c22565b820191906000526020600020905b815481529060010190602001808311611c0557829003601f168201915b5050505050815260200160058201548152602001600682015481526020016007820160009054906101000a900460ff161515151581526020016007820160019054906101000a900460ff166005811115611c7f57611c7e614207565b5b6005811115611c9157611c90614207565b5b81525050815260200190600101906119f1565b50505050905090565b60008073ffffffffffffffffffffffffffffffffffffffff168273ffffffffffffffffffffffffffffffffffffffff1603611d1d576040517f08c379a0000000000000000000000000000000000000000000000000000000008152600401611d14906155d7565b60405180910390fd5b600360008373ffffffffffffffffffffffffffffffffffffffff1673ffffffffffffffffffffffffffffffffffffffff168152602001908152602001600020549050919050565b600f60009054906101000a900473ffffffffffffffffffffffffffffffffffffffff1681565b600f60009054906101000a900473ffffffffffffffffffffffffffffffffffffffff1673ffffffffffffffffffffffffffffffffffffffff163373ffffffffffffffffffffffffffffffffffffffff16148015611e3c5750600580811115611df557611df4614207565b5b600a8281548110611e0957611e086148b9565b5b906000526020600020906008020160070160019054906101000a900460ff166005811115611e3a57611e39614207565b5b145b611e7b576040517f08c379a0000000000000000000000000000000000000000000000000000000008152600401611e7290615643565b60405180910390fd5b6000600a8281548110611e9157611e906148b9565b5b906000526020600020906008020160070160006101000a81548160ff0219169083151502179055506000600a8281548110611ecf57611ece6148b9565b5b906000526020600020906008020160070160016101000a81548160ff02191690836005811115611f0257611f01614207565b5b021790555050565b606060018054611f19906149cf565b80601f0160208091040260200160405190810160405280929190818152602001828054611f45906149cf565b8015611f925780601f10611f6757610100808354040283529160200191611f92565b820191906000526020600020905b815481529060010190602001808311611f7557829003601f168201915b5050505050905090565b611fae611fa7612d5a565b838361325d565b5050565b600047905090565b611fcb611fc5612d5a565b83612e74565b61200a576040517f08c379a000000000000000000000000000000000000000000000000000000000815260040161200190615043565b60405180910390fd5b612016848484846133c9565b50505050565b600e600082815260200190815260200160002060009054906101000a900460ff1661207c576040517f08c379a000000000000000000000000000000000000000000000000000000000815260040161207390614c48565b60405180910390fd5b600160058111156120905761208f614207565b5b600a82815481106120a4576120a36148b9565b5b906000526020600020906008020160070160019054906101000a900460ff1660058111156120d5576120d4614207565b5b14612115576040517f08c379a000000000000000000000000000000000000000000000000000000000815260040161210c906156af565b60405180910390fd5b60088181548110612129576121286148b9565b5b906000526020600020906006020160010160009054906101000a900473ffffffffffffffffffffffffffffffffffffffff1673ffffffffffffffffffffffffffffffffffffffff163373ffffffffffffffffffffffffffffffffffffffff16146121c8576040517f08c379a00000000000000000000000000000000000000000000000000000000081526004016121bf906150d5565b60405180910390fd5b600881815481106121dc576121db6148b9565b5b906000526020600020906006020160040160029054906101000a900460ff161561223b576040517f08c379a000000000000000000000000000000000000000000000000000000000815260040161223290615741565b60405180910390fd5b600160088281548110612251576122506148b9565b5b906000526020600020906006020160040160026101000a81548160ff0219169083151502179055506000600a828154811061228f5761228e6148b9565b5b90600052602060002090600802016006015490506122f2600a83815481106122ba576122b96148b9565b5b906000526020600020906008020160000160009054906101000a900473ffffffffffffffffffffffffffffffffffffffff1682612c5e565b60088281548110612306576123056148b9565b5b906000526020600020906006020160020154600a838154811061232c5761232b6148b9565b5b9060005260206000209060080201600601600082825461234c9190615761565b925050819055506004600a8381548110612369576123686148b9565b5b906000526020600020906008020160070160016101000a81548160ff0219169083600581111561239c5761239b614207565b5b0217905550612416600a83815481106123b8576123b76148b9565b5b906000526020600020906008020160000160009054906101000a900473ffffffffffffffffffffffffffffffffffffffff1633600a85815481106123ff576123fe6148b9565b5b906000526020600020906008020160010154612f09565b600a828154811061242a576124296148b9565b5b90600052602060002090600802016004016008838154811061244f5761244e6148b9565b5b9060005260206000209060060201600501908161246c91906157c0565b5033600a8381548110612482576124816148b9565b5b906000526020600020906008020160000160006101000a81548173ffffffffffffffffffffffffffffffffffffffff021916908373ffffffffffffffffffffffffffffffffffffffff1602179055507f8eac340af35af673875d62f0b4eeaa6928b83ecb2f0f45ef9b6d1cba38b00661600a8381548110612506576125056148b9565b5b906000526020600020906008020160000160009054906101000a900473ffffffffffffffffffffffffffffffffffffffff166008848154811061254c5761254b6148b9565b5b906000526020600020906006020160010160009054906101000a900473ffffffffffffffffffffffffffffffffffffffff16600a8581548110612592576125916148b9565b5b906000526020600020906008020160010154600886815481106125b8576125b76148b9565b5b9060005260206000209060060201600501426040516125db95949392919061592c565b60405180910390a17f91530a5dd22aa84df44ea20c894ccdca804d5359f6f90d0f9eba007c2781226560088381548110612618576126176148b9565b5b906000526020600020906006020160040160029054906101000a900460ff16600a848154811061264b5761264a6148b9565b5b906000526020600020906008020160070160019054906101000a900460ff16604051612678929190615995565b60405180910390a15050565b606061268f82612d0f565b6000612699613425565b905060008151116126b957604051806020016040528060008152506126e4565b806126c38461343c565b6040516020016126d49291906159be565b6040516020818303038152906040525b915050919050565b6000600560008473ffffffffffffffffffffffffffffffffffffffff1673ffffffffffffffffffffffffffffffffffffffff16815260200190815260200160002060008373ffffffffffffffffffffffffffffffffffffffff1673ffffffffffffffffffffffffffffffffffffffff16815260200190815260200160002060009054906101000a900460ff16905092915050565b612788613b2d565b600a828154811061279c5761279b6148b9565b5b9060005260206000209060080201604051806101200160405290816000820160009054906101000a900473ffffffffffffffffffffffffffffffffffffffff1673ffffffffffffffffffffffffffffffffffffffff1673ffffffffffffffffffffffffffffffffffffffff16815260200160018201548152602001600282018054612826906149cf565b80601f0160208091040260200160405190810160405280929190818152602001828054612852906149cf565b801561289f5780601f106128745761010080835404028352916020019161289f565b820191906000526020600020905b81548152906001019060200180831161288257829003601f168201915b505050505081526020016003820180546128b8906149cf565b80601f01602080910402602001604051908101604052809291908181526020018280546128e4906149cf565b80156129315780601f1061290657610100808354040283529160200191612931565b820191906000526020600020905b81548152906001019060200180831161291457829003601f168201915b5050505050815260200160048201805461294a906149cf565b80601f0160208091040260200160405190810160405280929190818152602001828054612976906149cf565b80156129c35780601f10612998576101008083540402835291602001916129c3565b820191906000526020600020905b8154815290600101906020018083116129a657829003601f168201915b5050505050815260200160058201548152602001600682015481526020016007820160009054906101000a900460ff161515151581526020016007820160019054906101000a900460ff166005811115612a2057612a1f614207565b5b6005811115612a3257612a31614207565b5b815250509050919050565b60606008805480602002602001604051908101604052809291908181526020016000905b82821015612beb578382906000526020600020906006020160405180610100016040529081600082015481526020016001820160009054906101000a900473ffffffffffffffffffffffffffffffffffffffff1673ffffffffffffffffffffffffffffffffffffffff1673ffffffffffffffffffffffffffffffffffffffff16815260200160028201548152602001600382015481526020016004820160009054906101000a900460ff161515151581526020016004820160019054906101000a900460ff161515151581526020016004820160029054906101000a900460ff16151515158152602001600582018054612b5a906149cf565b80601f0160208091040260200160405190810160405280929190818152602001828054612b86906149cf565b8015612bd35780601f10612ba857610100808354040283529160200191612bd3565b820191906000526020600020905b815481529060010190602001808311612bb657829003601f168201915b50505050508152505081526020019060010190612a61565b50505050905090565b60007f01ffc9a7000000000000000000000000000000000000000000000000000000007bffffffffffffffffffffffffffffffffffffffffffffffffffffffff1916827bffffffffffffffffffffffffffffffffffffffffffffffffffffffff1916149050919050565b60008273ffffffffffffffffffffffffffffffffffffffff1682604051612c8490615a13565b60006040518083038185875af1925050503d8060008114612cc1576040519150601f19603f3d011682016040523d82523d6000602084013e612cc6565b606091505b5050905080612d0a576040517f08c379a0000000000000000000000000000000000000000000000000000000008152600401612d0190615a74565b60405180910390fd5b505050565b612d188161350a565b612d57576040517f08c379a0000000000000000000000000000000000000000000000000000000008152600401612d4e90615545565b60405180910390fd5b50565b600033905090565b816004600083815260200190815260200160002060006101000a81548173ffffffffffffffffffffffffffffffffffffffff021916908373ffffffffffffffffffffffffffffffffffffffff160217905550808273ffffffffffffffffffffffffffffffffffffffff16612dd583611947565b73ffffffffffffffffffffffffffffffffffffffff167f8c5be1e5ebec7d5bd14f71427d1e84f3dd0314c0f7b2291e5b200ac8c7c3b92560405160405180910390a45050565b600260065403612e60576040517f08c379a0000000000000000000000000000000000000000000000000000000008152600401612e5790615ae0565b60405180910390fd5b6002600681905550565b6001600681905550565b600080612e8083611947565b90508073ffffffffffffffffffffffffffffffffffffffff168473ffffffffffffffffffffffffffffffffffffffff161480612ec25750612ec181856126ec565b5b80612f0057508373ffffffffffffffffffffffffffffffffffffffff16612ee8846109cc565b73ffffffffffffffffffffffffffffffffffffffff16145b91505092915050565b8273ffffffffffffffffffffffffffffffffffffffff16612f2982611947565b73ffffffffffffffffffffffffffffffffffffffff1614612f7f576040517f08c379a0000000000000000000000000000000000000000000000000000000008152600401612f7690615b72565b60405180910390fd5b600073ffffffffffffffffffffffffffffffffffffffff168273ffffffffffffffffffffffffffffffffffffffff1603612fee576040517f08c379a0000000000000000000000000000000000000000000000000000000008152600401612fe590615c04565b60405180910390fd5b612ffb838383600161354b565b8273ffffffffffffffffffffffffffffffffffffffff1661301b82611947565b73ffffffffffffffffffffffffffffffffffffffff1614613071576040517f08c379a000000000000000000000000000000000000000000000000000000000815260040161306890615b72565b60405180910390fd5b6004600082815260200190815260200160002060006101000a81549073ffffffffffffffffffffffffffffffffffffffff02191690556001600360008573ffffffffffffffffffffffffffffffffffffffff1673ffffffffffffffffffffffffffffffffffffffff168152602001908152602001600020600082825403925050819055506001600360008473ffffffffffffffffffffffffffffffffffffffff1673ffffffffffffffffffffffffffffffffffffffff16815260200190815260200160002060008282540192505081905550816002600083815260200190815260200160002060006101000a81548173ffffffffffffffffffffffffffffffffffffffff021916908373ffffffffffffffffffffffffffffffffffffffff160217905550808273ffffffffffffffffffffffffffffffffffffffff168473ffffffffffffffffffffffffffffffffffffffff167fddf252ad1be2c89b69c2b068fc378daa952ba7f163c4a11628f55a4df523b3ef60405160405180910390a46131fd8383836001613551565b505050565b61321c828260405180602001604052806000815250613557565b5050565b60006002600083815260200190815260200160002060009054906101000a900473ffffffffffffffffffffffffffffffffffffffff169050919050565b8173ffffffffffffffffffffffffffffffffffffffff168373ffffffffffffffffffffffffffffffffffffffff16036132cb576040517f08c379a00000000000000000000000000000000000000000000000000000000081526004016132c290615c70565b60405180910390fd5b80600560008573ffffffffffffffffffffffffffffffffffffffff1673ffffffffffffffffffffffffffffffffffffffff16815260200190815260200160002060008473ffffffffffffffffffffffffffffffffffffffff1673ffffffffffffffffffffffffffffffffffffffff16815260200190815260200160002060006101000a81548160ff0219169083151502179055508173ffffffffffffffffffffffffffffffffffffffff168373ffffffffffffffffffffffffffffffffffffffff167f17307eab39ab6107e8899845ad3d59bd9653f200f220920489ca2b5937696c31836040516133bc9190613c57565b60405180910390a3505050565b6133d4848484612f09565b6133e0848484846135b2565b61341f576040517f08c379a000000000000000000000000000000000000000000000000000000000815260040161341690615d02565b60405180910390fd5b50505050565b606060405180602001604052806000815250905090565b60606000600161344b84613739565b01905060008167ffffffffffffffff81111561346a57613469613eac565b5b6040519080825280601f01601f19166020018201604052801561349c5781602001600182028036833780820191505090505b509050600082602001820190505b6001156134ff578080600190039150507f3031323334353637383961626364656600000000000000000000000000000000600a86061a8153600a85816134f3576134f2615d22565b5b049450600085036134aa575b819350505050919050565b60008073ffffffffffffffffffffffffffffffffffffffff1661352c83613220565b73ffffffffffffffffffffffffffffffffffffffff1614159050919050565b50505050565b50505050565b613561838361388c565b61356e60008484846135b2565b6135ad576040517f08c379a00000000000000000000000000000000000000000000000000000000081526004016135a490615d02565b60405180910390fd5b505050565b60006135d38473ffffffffffffffffffffffffffffffffffffffff16613aa9565b1561372c578373ffffffffffffffffffffffffffffffffffffffff1663150b7a026135fc612d5a565b8786866040518563ffffffff1660e01b815260040161361e9493929190615da6565b6020604051808303816000875af192505050801561365a57506040513d601f19601f820116820180604052508101906136579190615e07565b60015b6136dc573d806000811461368a576040519150601f19603f3d011682016040523d82523d6000602084013e61368f565b606091505b5060008151036136d4576040517f08c379a00000000000000000000000000000000000000000000000000000000081526004016136cb90615d02565b60405180910390fd5b805181602001fd5b63150b7a0260e01b7bffffffffffffffffffffffffffffffffffffffffffffffffffffffff1916817bffffffffffffffffffffffffffffffffffffffffffffffffffffffff191614915050613731565b600190505b949350505050565b600080600090507a184f03e93ff9f4daa797ed6e38ed64bf6a1f0100000000000000008310613797577a184f03e93ff9f4daa797ed6e38ed64bf6a1f010000000000000000838161378d5761378c615d22565b5b0492506040810190505b6d04ee2d6d415b85acef810000000083106137d4576d04ee2d6d415b85acef810000000083816137ca576137c9615d22565b5b0492506020810190505b662386f26fc10000831061380357662386f26fc1000083816137f9576137f8615d22565b5b0492506010810190505b6305f5e100831061382c576305f5e100838161382257613821615d22565b5b0492506008810190505b612710831061385157612710838161384757613846615d22565b5b0492506004810190505b60648310613874576064838161386a57613869615d22565b5b0492506002810190505b600a8310613883576001810190505b80915050919050565b600073ffffffffffffffffffffffffffffffffffffffff168273ffffffffffffffffffffffffffffffffffffffff16036138fb576040517f08c379a00000000000000000000000000000000000000000000000000000000081526004016138f290615e80565b60405180910390fd5b6139048161350a565b15613944576040517f08c379a000000000000000000000000000000000000000000000000000000000815260040161393b90615eec565b60405180910390fd5b61395260008383600161354b565b61395b8161350a565b1561399b576040517f08c379a000000000000000000000000000000000000000000000000000000000815260040161399290615eec565b60405180910390fd5b6001600360008473ffffffffffffffffffffffffffffffffffffffff1673ffffffffffffffffffffffffffffffffffffffff16815260200190815260200160002060008282540192505081905550816002600083815260200190815260200160002060006101000a81548173ffffffffffffffffffffffffffffffffffffffff021916908373ffffffffffffffffffffffffffffffffffffffff160217905550808273ffffffffffffffffffffffffffffffffffffffff16600073ffffffffffffffffffffffffffffffffffffffff167fddf252ad1be2c89b69c2b068fc378daa952ba7f163c4a11628f55a4df523b3ef60405160405180910390a4613aa5600083836001613551565b5050565b6000808273ffffffffffffffffffffffffffffffffffffffff163b119050919050565b60405180610100016040528060008152602001600073ffffffffffffffffffffffffffffffffffffffff1681526020016000815260200160008152602001600015158152602001600015158152602001600015158152602001606081525090565b604051806101200160405280600073ffffffffffffffffffffffffffffffffffffffff16815260200160008152602001606081526020016060815260200160608152602001600081526020016000815260200160001515815260200160006005811115613b9d57613b9c614207565b5b81525090565b6000604051905090565b600080fd5b600080fd5b60007fffffffff0000000000000000000000000000000000000000000000000000000082169050919050565b613bec81613bb7565b8114613bf757600080fd5b50565b600081359050613c0981613be3565b92915050565b600060208284031215613c2557613c24613bad565b5b6000613c3384828501613bfa565b91505092915050565b60008115159050919050565b613c5181613c3c565b82525050565b6000602082019050613c6c6000830184613c48565b92915050565b6000819050919050565b613c8581613c72565b8114613c9057600080fd5b50565b600081359050613ca281613c7c565b92915050565b600060208284031215613cbe57613cbd613bad565b5b6000613ccc84828501613c93565b91505092915050565b600081519050919050565b600082825260208201905092915050565b60005b83811015613d0f578082015181840152602081019050613cf4565b60008484015250505050565b6000601f19601f8301169050919050565b6000613d3782613cd5565b613d418185613ce0565b9350613d51818560208601613cf1565b613d5a81613d1b565b840191505092915050565b60006020820190508181036000830152613d7f8184613d2c565b905092915050565b600073ffffffffffffffffffffffffffffffffffffffff82169050919050565b6000613db282613d87565b9050919050565b613dc281613da7565b82525050565b6000602082019050613ddd6000830184613db9565b92915050565b613dec81613da7565b8114613df757600080fd5b50565b600081359050613e0981613de3565b92915050565b60008060408385031215613e2657613e25613bad565b5b6000613e3485828601613dfa565b9250506020613e4585828601613c93565b9150509250929050565b600080600060608486031215613e6857613e67613bad565b5b6000613e7686828701613dfa565b9350506020613e8786828701613dfa565b9250506040613e9886828701613c93565b9150509250925092565b600080fd5b600080fd5b7f4e487b7100000000000000000000000000000000000000000000000000000000600052604160045260246000fd5b613ee482613d1b565b810181811067ffffffffffffffff82111715613f0357613f02613eac565b5b80604052505050565b6000613f16613ba3565b9050613f228282613edb565b919050565b600067ffffffffffffffff821115613f4257613f41613eac565b5b613f4b82613d1b565b9050602081019050919050565b82818337600083830152505050565b6000613f7a613f7584613f27565b613f0c565b905082815260208101848484011115613f9657613f95613ea7565b5b613fa1848285613f58565b509392505050565b600082601f830112613fbe57613fbd613ea2565b5b8135613fce848260208601613f67565b91505092915050565b60008060008060808587031215613ff157613ff0613bad565b5b600085013567ffffffffffffffff81111561400f5761400e613bb2565b5b61401b87828801613fa9565b945050602085013567ffffffffffffffff81111561403c5761403b613bb2565b5b61404887828801613fa9565b935050604085013567ffffffffffffffff81111561406957614068613bb2565b5b61407587828801613fa9565b925050606061408687828801613c93565b91505092959194509250565b61409b81613c72565b82525050565b6140aa81613da7565b82525050565b6140b981613c3c565b82525050565b600082825260208201905092915050565b60006140db82613cd5565b6140e581856140bf565b93506140f5818560208601613cf1565b6140fe81613d1b565b840191505092915050565b6000610100830160008301516141226000860182614092565b50602083015161413560208601826140a1565b5060408301516141486040860182614092565b50606083015161415b6060860182614092565b50608083015161416e60808601826140b0565b5060a083015161418160a08601826140b0565b5060c083015161419460c08601826140b0565b5060e083015184820360e08601526141ac82826140d0565b9150508091505092915050565b600060208201905081810360008301526141d38184614109565b905092915050565b600081519050919050565b600082825260208201905092915050565b6000819050602082019050919050565b7f4e487b7100000000000000000000000000000000000000000000000000000000600052602160045260246000fd5b6006811061424757614246614207565b5b50565b600081905061425882614236565b919050565b60006142688261424a565b9050919050565b6142788161425d565b82525050565b60006101208301600083015161429760008601826140a1565b5060208301516142aa6020860182614092565b50604083015184820360408601526142c282826140d0565b915050606083015184820360608601526142dc82826140d0565b915050608083015184820360808601526142f682826140d0565b91505060a083015161430b60a0860182614092565b5060c083015161431e60c0860182614092565b5060e083015161433160e08601826140b0565b5061010083015161434661010086018261426f565b508091505092915050565b600061435d838361427e565b905092915050565b6000602082019050919050565b600061437d826141db565b61438781856141e6565b935083602082028501614399856141f7565b8060005b858110156143d557848403895281516143b68582614351565b94506143c183614365565b925060208a0199505060018101905061439d565b50829750879550505050505092915050565b600060208201905081810360008301526144018184614372565b905092915050565b60006020828403121561441f5761441e613bad565b5b600061442d84828501613dfa565b91505092915050565b61443f81613c72565b82525050565b600060208201905061445a6000830184614436565b92915050565b61446981613c3c565b811461447457600080fd5b50565b60008135905061448681614460565b92915050565b600080604083850312156144a3576144a2613bad565b5b60006144b185828601613dfa565b92505060206144c285828601614477565b9150509250929050565b600067ffffffffffffffff8211156144e7576144e6613eac565b5b6144f082613d1b565b9050602081019050919050565b600061451061450b846144cc565b613f0c565b90508281526020810184848401111561452c5761452b613ea7565b5b614537848285613f58565b509392505050565b600082601f83011261455457614553613ea2565b5b81356145648482602086016144fd565b91505092915050565b6000806000806080858703121561458757614586613bad565b5b600061459587828801613dfa565b94505060206145a687828801613dfa565b93505060406145b787828801613c93565b925050606085013567ffffffffffffffff8111156145d8576145d7613bb2565b5b6145e48782880161453f565b91505092959194509250565b6000806040838503121561460757614606613bad565b5b600061461585828601613dfa565b925050602061462685828601613dfa565b9150509250929050565b60006101208301600083015161464960008601826140a1565b50602083015161465c6020860182614092565b506040830151848203604086015261467482826140d0565b9150506060830151848203606086015261468e82826140d0565b915050608083015184820360808601526146a882826140d0565b91505060a08301516146bd60a0860182614092565b5060c08301516146d060c0860182614092565b5060e08301516146e360e08601826140b0565b506101008301516146f861010086018261426f565b508091505092915050565b6000602082019050818103600083015261471d8184614630565b905092915050565b600081519050919050565b600082825260208201905092915050565b6000819050602082019050919050565b60006101008301600083015161476a6000860182614092565b50602083015161477d60208601826140a1565b5060408301516147906040860182614092565b5060608301516147a36060860182614092565b5060808301516147b660808601826140b0565b5060a08301516147c960a08601826140b0565b5060c08301516147dc60c08601826140b0565b5060e083015184820360e08601526147f482826140d0565b9150508091505092915050565b600061480d8383614751565b905092915050565b6000602082019050919050565b600061482d82614725565b6148378185614730565b93508360208202850161484985614741565b8060005b8581101561488557848403895281516148668582614801565b945061487183614815565b925060208a0199505060018101905061484d565b50829750879550505050505092915050565b600060208201905081810360008301526148b18184614822565b905092915050565b7f4e487b7100000000000000000000000000000000000000000000000000000000600052603260045260246000fd5b7f4f6e6c79204f776e6572206861732074686520617574686f7269747920746f2060008201527f63616e2070726f62652041737365742c2050726f63657373205265766572736560208201527f6400000000000000000000000000000000000000000000000000000000000000604082015250565b600061496a604183613ce0565b9150614975826148e8565b606082019050919050565b600060208201905081810360008301526149998161495d565b9050919050565b7f4e487b7100000000000000000000000000000000000000000000000000000000600052602260045260246000fd5b600060028204905060018216806149e757607f821691505b6020821081036149fa576149f96149a0565b5b50919050565b7f4552433732313a20617070726f76616c20746f2063757272656e74206f776e6560008201527f7200000000000000000000000000000000000000000000000000000000000000602082015250565b6000614a5c602183613ce0565b9150614a6782614a00565b604082019050919050565b60006020820190508181036000830152614a8b81614a4f565b9050919050565b7f4552433732313a20617070726f76652063616c6c6572206973206e6f7420746f60008201527f6b656e206f776e6572206f7220617070726f76656420666f7220616c6c000000602082015250565b6000614aee603d83613ce0565b9150614af982614a92565b604082019050919050565b60006020820190508181036000830152614b1d81614ae1565b9050919050565b7f417373657420697320756e6465676f696e67204e65676f74696174696f6e0000600082015250565b6000614b5a601e83613ce0565b9150614b6582614b24565b602082019050919050565b60006020820190508181036000830152614b8981614b4d565b9050919050565b7f596f752063616e6e6f742062757920796f757220417373657400000000000000600082015250565b6000614bc6601983613ce0565b9150614bd182614b90565b602082019050919050565b60006020820190508181036000830152614bf581614bb9565b9050919050565b7f417373657420646f6573206e6f74204578697374000000000000000000000000600082015250565b6000614c32601483613ce0565b9150614c3d82614bfc565b602082019050919050565b60006020820190508181036000830152614c6181614c25565b9050919050565b7f496e636f7272656374207061796d656e7420616d6f756e740000000000000000600082015250565b6000614c9e601883613ce0565b9150614ca982614c68565b602082019050919050565b60006020820190508181036000830152614ccd81614c91565b9050919050565b600081549050614ce3816149cf565b9050919050565b60008190508160005260206000209050919050565b60006020601f8301049050919050565b600082821b905092915050565b600060088302614d4c7fffffffffffffffffffffffffffffffffffffffffffffffffffffffffffffffff82614d0f565b614d568683614d0f565b95508019841693508086168417925050509392505050565b6000819050919050565b6000614d93614d8e614d8984613c72565b614d6e565b613c72565b9050919050565b6000819050919050565b614dad83614d78565b614dc1614db982614d9a565b848454614d1c565b825550505050565b600090565b614dd6614dc9565b614de1818484614da4565b505050565b5b81811015614e0557614dfa600082614dce565b600181019050614de7565b5050565b601f821115614e4a57614e1b81614cea565b614e2484614cff565b81016020851015614e33578190505b614e47614e3f85614cff565b830182614de6565b50505b505050565b600082821c905092915050565b6000614e6d60001984600802614e4f565b1980831691505092915050565b6000614e868383614e5c565b9150826002028217905092915050565b818103614ea4575050614f7c565b614ead82614cd4565b67ffffffffffffffff811115614ec657614ec5613eac565b5b614ed082546149cf565b614edb828285614e09565b6000601f831160018114614f0a5760008415614ef8578287015490505b614f028582614e7a565b865550614f75565b601f198416614f1887614cea565b9650614f2386614cea565b60005b82811015614f4b57848901548255600182019150600185019450602081019050614f26565b86831015614f685784890154614f64601f891682614e5c565b8355505b6001600288020188555050505b5050505050505b565b600060a082019050614f936000830188613db9565b614fa06020830187613db9565b614fad6040830186614436565b614fba6060830185614436565b614fc76080830184613c48565b9695505050505050565b7f4552433732313a2063616c6c6572206973206e6f7420746f6b656e206f776e6560008201527f72206f7220617070726f76656400000000000000000000000000000000000000602082015250565b600061502d602d83613ce0565b915061503882614fd1565b604082019050919050565b6000602082019050818103600083015261505c81615020565b9050919050565b7f4f6e6c79207468652062757965722063616e2063616c6c20746869732066756e60008201527f6374696f6e000000000000000000000000000000000000000000000000000000602082015250565b60006150bf602583613ce0565b91506150ca82615063565b604082019050919050565b600060208201905081810360008301526150ee816150b2565b9050919050565b7f5469746c65206d7573742062652067726561746572207468616e203000000000600082015250565b600061512b601c83613ce0565b9150615136826150f5565b602082019050919050565b6000602082019050818103600083015261515a8161511e565b9050919050565b7f4465736372697074696f6e2063616e6e6f7420626520656d7074790000000000600082015250565b6000615197601b83613ce0565b91506151a282615161565b602082019050919050565b600060208201905081810360008301526151c68161518a565b9050919050565b7f496d6167652063616e6e6f7420626520656d7074790000000000000000000000600082015250565b6000615203601583613ce0565b915061520e826151cd565b602082019050919050565b60006020820190508181036000830152615232816151f6565b9050919050565b7f636f7374206d7573742062652067726561746572207468616e20300000000000600082015250565b600061526f601b83613ce0565b915061527a82615239565b602082019050919050565b6000602082019050818103600083015261529e81615262565b9050919050565b600081905092915050565b60006152bb82613cd5565b6152c581856152a5565b93506152d5818560208601613cf1565b80840191505092915050565b60006152ed82846152b0565b915081905092915050565b7f417373657420616c726561647920657869737400000000000000000000000000600082015250565b600061532e601383613ce0565b9150615339826152f8565b602082019050919050565b6000602082019050818103600083015261535d81615321565b9050919050565b7f4e487b7100000000000000000000000000000000000000000000000000000000600052601160045260246000fd5b600061539e82613c72565b91507fffffffffffffffffffffffffffffffffffffffffffffffffffffffffffffffff82036153d0576153cf615364565b5b600182019050919050565b6153e482613cd5565b67ffffffffffffffff8111156153fd576153fc613eac565b5b61540782546149cf565b615412828285614e09565b600060209050601f8311600181146154455760008415615433578287015190505b61543d8582614e7a565b8655506154a5565b601f19841661545386614cea565b60005b8281101561547b57848901518255600182019150602085019450602081019050615456565b868310156154985784890151615494601f891682614e5c565b8355505b6001600288020188555050505b505050505050565b60006080820190506154c26000830187613db9565b81810360208301526154d48186613d2c565b90506154e36040830185614436565b6154f06060830184614436565b95945050505050565b7f4552433732313a20696e76616c696420746f6b656e2049440000000000000000600082015250565b600061552f601883613ce0565b915061553a826154f9565b602082019050919050565b6000602082019050818103600083015261555e81615522565b9050919050565b7f4552433732313a2061646472657373207a65726f206973206e6f74206120766160008201527f6c6964206f776e65720000000000000000000000000000000000000000000000602082015250565b60006155c1602983613ce0565b91506155cc82615565565b604082019050919050565b600060208201905081810360008301526155f0816155b4565b9050919050565b7f6f6e6c7920746865206f776e65722063616e2072656c65617365204173736574600082015250565b600061562d602083613ce0565b9150615638826155f7565b602082019050919050565b6000602082019050818103600083015261565c81615620565b9050919050565b7f417373657420697320756e646572676f696e67204e65676f74696174696f6e00600082015250565b6000615699601f83613ce0565b91506156a482615663565b602082019050919050565b600060208201905081810360008301526156c88161568c565b9050919050565b7f596f75204861766520616c726561647920436f6e6669726d207468652041737360008201527f6573740000000000000000000000000000000000000000000000000000000000602082015250565b600061572b602383613ce0565b9150615736826156cf565b604082019050919050565b6000602082019050818103600083015261575a8161571e565b9050919050565b600061576c82613c72565b915061577783613c72565b925082820390508181111561578f5761578e615364565b5b92915050565b6000815490506157a4816149cf565b9050919050565b60008190508160005260206000209050919050565b8181036157ce5750506158a6565b6157d782615795565b67ffffffffffffffff8111156157f0576157ef613eac565b5b6157fa82546149cf565b615805828285614e09565b6000601f8311600181146158345760008415615822578287015490505b61582c8582614e7a565b86555061589f565b601f198416615842876157ab565b965061584d86614cea565b60005b8281101561587557848901548255600182019150600185019450602081019050615850565b86831015615892578489015461588e601f891682614e5c565b8355505b6001600288020188555050505b5050505050505b565b600081546158b5816149cf565b6158bf8186613ce0565b945060018216600081146158da57600181146158f057615923565b60ff198316865281151560200286019350615923565b6158f985614cea565b60005b8381101561591b578154818901526001820191506020810190506158fc565b808801955050505b50505092915050565b600060a0820190506159416000830188613db9565b61594e6020830187613db9565b61595b6040830186614436565b818103606083015261596d81856158a8565b905061597c6080830184614436565b9695505050505050565b61598f8161425d565b82525050565b60006040820190506159aa6000830185613c48565b6159b76020830184615986565b9392505050565b60006159ca82856152b0565b91506159d682846152b0565b91508190509392505050565b600081905092915050565b50565b60006159fd6000836159e2565b9150615a08826159ed565b600082019050919050565b6000615a1e826159f0565b9150819050919050565b7f4661696c656420746f2073656e64204574686572000000000000000000000000600082015250565b6000615a5e601483613ce0565b9150615a6982615a28565b602082019050919050565b60006020820190508181036000830152615a8d81615a51565b9050919050565b7f5265656e7472616e637947756172643a207265656e7472616e742063616c6c00600082015250565b6000615aca601f83613ce0565b9150615ad582615a94565b602082019050919050565b60006020820190508181036000830152615af981615abd565b9050919050565b7f4552433732313a207472616e736665722066726f6d20696e636f72726563742060008201527f6f776e6572000000000000000000000000000000000000000000000000000000602082015250565b6000615b5c602583613ce0565b9150615b6782615b00565b604082019050919050565b60006020820190508181036000830152615b8b81615b4f565b9050919050565b7f4552433732313a207472616e7366657220746f20746865207a65726f2061646460008201527f7265737300000000000000000000000000000000000000000000000000000000602082015250565b6000615bee602483613ce0565b9150615bf982615b92565b604082019050919050565b60006020820190508181036000830152615c1d81615be1565b9050919050565b7f4552433732313a20617070726f766520746f2063616c6c657200000000000000600082015250565b6000615c5a601983613ce0565b9150615c6582615c24565b602082019050919050565b60006020820190508181036000830152615c8981615c4d565b9050919050565b7f4552433732313a207472616e7366657220746f206e6f6e20455243373231526560008201527f63656976657220696d706c656d656e7465720000000000000000000000000000602082015250565b6000615cec603283613ce0565b9150615cf782615c90565b604082019050919050565b60006020820190508181036000830152615d1b81615cdf565b9050919050565b7f4e487b7100000000000000000000000000000000000000000000000000000000600052601260045260246000fd5b600081519050919050565b600082825260208201905092915050565b6000615d7882615d51565b615d828185615d5c565b9350615d92818560208601613cf1565b615d9b81613d1b565b840191505092915050565b6000608082019050615dbb6000830187613db9565b615dc86020830186613db9565b615dd56040830185614436565b8181036060830152615de78184615d6d565b905095945050505050565b600081519050615e0181613be3565b92915050565b600060208284031215615e1d57615e1c613bad565b5b6000615e2b84828501615df2565b91505092915050565b7f4552433732313a206d696e7420746f20746865207a65726f2061646472657373600082015250565b6000615e6a602083613ce0565b9150615e7582615e34565b602082019050919050565b60006020820190508181036000830152615e9981615e5d565b9050919050565b7f4552433732313a20746f6b656e20616c7265616479206d696e74656400000000600082015250565b6000615ed6601c83613ce0565b9150615ee182615ea0565b602082019050919050565b60006020820190508181036000830152615f0581615ec9565b905091905056fea2646970667358221220f16e1113d9200a583890c575aa373bca67dea7b7308cd34b2ab7d6d30c06622a64736f6c63430008110033",
  "linkReferences": {},
  "deployedLinkReferences": {}
}