{
  "_format": "hh-sol-artifact-1",
  "contractName": "EasyAsset",
  "sourceName": "contracts/EasyAsset.sol",
  "abi": [
    {
      "inputs": [
        {
          "internalType": "string",
          "name": "_name",
          "type": "string"
        },
        {
          "internalType": "string",
          "name": "_symbol",
          "type": "string"
        }
      ],
      "stateMutability": "nonpayable",
      "type": "constructor"
    },
    {
      "anonymous": false,
      "inputs": [
        {
          "indexed": false,
          "internalType": "address",
          "name": "buyer",
          "type": "address"
        },
        {
          "indexed": false,
          "internalType": "address",
          "name": "seller",
          "type": "address"
        },
        {
          "indexed": false,
          "internalType": "uint256",
          "name": "timestamp",
          "type": "uint256"
        },
        {
          "indexed": false,
          "internalType": "uint256",
          "name": "amount",
          "type": "uint256"
        },
        {
          "indexed": false,
          "internalType": "bool",
          "name": "paid",
          "type": "bool"
        }
      ],
      "name": "Action",
      "type": "event"
    },
    {
      "anonymous": false,
      "inputs": [
        {
          "indexed": true,
          "internalType": "address",
          "name": "owner",
          "type": "address"
        },
        {
          "indexed": true,
          "internalType": "address",
          "name": "approved",
          "type": "address"
        },
        {
          "indexed": true,
          "internalType": "uint256",
          "name": "tokenId",
          "type": "uint256"
        }
      ],
      "name": "Approval",
      "type": "event"
    },
    {
      "anonymous": false,
      "inputs": [
        {
          "indexed": true,
          "internalType": "address",
          "name": "owner",
          "type": "address"
        },
        {
          "indexed": true,
          "internalType": "address",
          "name": "operator",
          "type": "address"
        },
        {
          "indexed": false,
          "internalType": "bool",
          "name": "approved",
          "type": "bool"
        }
      ],
      "name": "ApprovalForAll",
      "type": "event"
    },
    {
      "anonymous": false,
      "inputs": [
        {
          "indexed": true,
          "internalType": "address",
          "name": "from",
          "type": "address"
        },
        {
          "indexed": true,
          "internalType": "address",
          "name": "to",
          "type": "address"
        },
        {
          "indexed": true,
          "internalType": "uint256",
          "name": "tokenId",
          "type": "uint256"
        }
      ],
      "name": "Transfer",
      "type": "event"
    },
    {
      "anonymous": false,
      "inputs": [
        {
          "indexed": false,
          "internalType": "address",
          "name": "owner",
          "type": "address"
        },
        {
          "indexed": true,
          "internalType": "uint256",
          "name": "id",
          "type": "uint256"
        },
        {
          "indexed": false,
          "internalType": "string",
          "name": "credential",
          "type": "string"
        },
        {
          "indexed": false,
          "internalType": "uint256",
          "name": "timestamp",
          "type": "uint256"
        },
        {
          "indexed": false,
          "internalType": "uint256",
          "name": "price",
          "type": "uint256"
        }
      ],
      "name": "assetCreation",
      "type": "event"
    },
    {
      "anonymous": false,
      "inputs": [
        {
          "indexed": false,
          "internalType": "address",
          "name": "from",
          "type": "address"
        },
        {
          "indexed": false,
          "internalType": "address",
          "name": "to",
          "type": "address"
        },
        {
          "indexed": false,
          "internalType": "uint256",
          "name": "tokenId",
          "type": "uint256"
        },
        {
          "indexed": false,
          "internalType": "string",
          "name": "credential",
          "type": "string"
        },
        {
          "indexed": false,
          "internalType": "uint256",
          "name": "timestamp",
          "type": "uint256"
        }
      ],
      "name": "assetTransfer",
      "type": "event"
    },
    {
      "anonymous": false,
      "inputs": [
        {
          "indexed": false,
          "internalType": "enum EasyAsset.assetStatus",
          "name": "",
          "type": "uint8"
        },
        {
          "indexed": false,
          "internalType": "enum EasyAsset.assetStatus",
          "name": "",
          "type": "uint8"
        }
      ],
      "name": "refundAction",
      "type": "event"
    },
    {
      "anonymous": false,
      "inputs": [
        {
          "indexed": false,
          "internalType": "bool",
          "name": "confirm",
          "type": "bool"
        },
        {
          "indexed": false,
          "internalType": "enum EasyAsset.assetStatus",
          "name": "status",
          "type": "uint8"
        }
      ],
      "name": "sold",
      "type": "event"
    },
    {
      "inputs": [
        {
          "internalType": "uint256",
          "name": "id",
          "type": "uint256"
        }
      ],
      "name": "Probe",
      "outputs": [],
      "stateMutability": "nonpayable",
      "type": "function"
    },
    {
      "inputs": [
        {
          "internalType": "address",
          "name": "to",
          "type": "address"
        },
        {
          "internalType": "uint256",
          "name": "tokenId",
          "type": "uint256"
        }
      ],
      "name": "approve",
      "outputs": [],
      "stateMutability": "nonpayable",
      "type": "function"
    },
    {
      "inputs": [
        {
          "internalType": "address",
          "name": "owner",
          "type": "address"
        }
      ],
      "name": "balanceOf",
      "outputs": [
        {
          "internalType": "uint256",
          "name": "",
          "type": "uint256"
        }
      ],
      "stateMutability": "view",
      "type": "function"
    },
    {
      "inputs": [
        {
          "internalType": "uint256",
          "name": "id",
          "type": "uint256"
        }
      ],
      "name": "buyAsset",
      "outputs": [],
      "stateMutability": "payable",
      "type": "function"
    },
    {
      "inputs": [
        {
          "internalType": "uint256",
          "name": "id",
          "type": "uint256"
        }
      ],
      "name": "confirm",
      "outputs": [],
      "stateMutability": "nonpayable",
      "type": "function"
    },
    {
      "inputs": [
        {
          "internalType": "string",
          "name": "title",
          "type": "string"
        },
        {
          "internalType": "string",
          "name": "description",
          "type": "string"
        },
        {
          "internalType": "string",
          "name": "credential",
          "type": "string"
        },
        {
          "internalType": "uint256",
          "name": "price",
          "type": "uint256"
        }
      ],
      "name": "createAsset",
      "outputs": [
        {
          "internalType": "bool",
          "name": "",
          "type": "bool"
        }
      ],
      "stateMutability": "nonpayable",
      "type": "function"
    },
    {
      "inputs": [
        {
          "internalType": "uint256",
          "name": "tokenId",
          "type": "uint256"
        }
      ],
      "name": "getApproved",
      "outputs": [
        {
          "internalType": "address",
          "name": "",
          "type": "address"
        }
      ],
      "stateMutability": "view",
      "type": "function"
    },
    {
      "inputs": [
        {
          "internalType": "uint256",
          "name": "_id",
          "type": "uint256"
        }
      ],
      "name": "getAsset",
      "outputs": [
        {
          "components": [
            {
              "internalType": "address",
              "name": "seller",
              "type": "address"
            },
            {
              "internalType": "uint256",
              "name": "id",
              "type": "uint256"
            },
            {
              "internalType": "string",
              "name": "title",
              "type": "string"
            },
            {
              "internalType": "string",
              "name": "description",
              "type": "string"
            },
            {
              "internalType": "string",
              "name": "credential",
              "type": "string"
            },
            {
              "internalType": "uint256",
              "name": "timestamp",
              "type": "uint256"
            },
            {
              "internalType": "uint256",
              "name": "price",
              "type": "uint256"
            },
            {
              "internalType": "bool",
              "name": "probe",
              "type": "bool"
            },
            {
              "internalType": "bool",
              "name": "bought",
              "type": "bool"
            },
            {
              "internalType": "enum EasyAsset.assetStatus",
              "name": "status",
              "type": "uint8"
            }
          ],
          "internalType": "struct EasyAsset.Asset",
          "name": "",
          "type": "tuple"
        }
      ],
      "stateMutability": "view",
      "type": "function"
    },
    {
      "inputs": [],
      "name": "getAssets",
      "outputs": [
        {
          "components": [
            {
              "internalType": "address",
              "name": "seller",
              "type": "address"
            },
            {
              "internalType": "uint256",
              "name": "id",
              "type": "uint256"
            },
            {
              "internalType": "string",
              "name": "title",
              "type": "string"
            },
            {
              "internalType": "string",
              "name": "description",
              "type": "string"
            },
            {
              "internalType": "string",
              "name": "credential",
              "type": "string"
            },
            {
              "internalType": "uint256",
              "name": "timestamp",
              "type": "uint256"
            },
            {
              "internalType": "uint256",
              "name": "price",
              "type": "uint256"
            },
            {
              "internalType": "bool",
              "name": "probe",
              "type": "bool"
            },
            {
              "internalType": "bool",
              "name": "bought",
              "type": "bool"
            },
            {
              "internalType": "enum EasyAsset.assetStatus",
              "name": "status",
              "type": "uint8"
            }
          ],
          "internalType": "struct EasyAsset.Asset[]",
          "name": "",
          "type": "tuple[]"
        }
      ],
      "stateMutability": "view",
      "type": "function"
    },
    {
      "inputs": [
        {
          "internalType": "uint256",
          "name": "buyerId",
          "type": "uint256"
        }
      ],
      "name": "getBuyer",
      "outputs": [
        {
          "components": [
            {
              "internalType": "uint256",
              "name": "id",
              "type": "uint256"
            },
            {
              "internalType": "address",
              "name": "owner",
              "type": "address"
            },
            {
              "internalType": "uint256",
              "name": "amountpaid",
              "type": "uint256"
            },
            {
              "internalType": "uint256",
              "name": "timestamp",
              "type": "uint256"
            },
            {
              "internalType": "bool",
              "name": "paid",
              "type": "bool"
            },
            {
              "internalType": "bool",
              "name": "checked",
              "type": "bool"
            },
            {
              "internalType": "string",
              "name": "credential",
              "type": "string"
            },
            {
              "internalType": "enum EasyAsset.assetStatus",
              "name": "status",
              "type": "uint8"
            }
          ],
          "internalType": "struct EasyAsset.buyer",
          "name": "",
          "type": "tuple"
        }
      ],
      "stateMutability": "view",
      "type": "function"
    },
    {
      "inputs": [
        {
          "internalType": "uint256",
          "name": "_id",
          "type": "uint256"
        }
      ],
      "name": "getRefundedBuyers",
      "outputs": [
        {
          "components": [
            {
              "internalType": "uint256",
              "name": "id",
              "type": "uint256"
            },
            {
              "internalType": "address",
              "name": "owner",
              "type": "address"
            },
            {
              "internalType": "uint256",
              "name": "amountpaid",
              "type": "uint256"
            },
            {
              "internalType": "uint256",
              "name": "timestamp",
              "type": "uint256"
            },
            {
              "internalType": "bool",
              "name": "paid",
              "type": "bool"
            },
            {
              "internalType": "bool",
              "name": "checked",
              "type": "bool"
            },
            {
              "internalType": "string",
              "name": "credential",
              "type": "string"
            },
            {
              "internalType": "enum EasyAsset.assetStatus",
              "name": "status",
              "type": "uint8"
            }
          ],
          "internalType": "struct EasyAsset.buyer",
          "name": "",
          "type": "tuple"
        }
      ],
      "stateMutability": "view",
      "type": "function"
    },
    {
      "inputs": [
        {
          "internalType": "address",
          "name": "owner",
          "type": "address"
        },
        {
          "internalType": "address",
          "name": "operator",
          "type": "address"
        }
      ],
      "name": "isApprovedForAll",
      "outputs": [
        {
          "internalType": "bool",
          "name": "",
          "type": "bool"
        }
      ],
      "stateMutability": "view",
      "type": "function"
    },
    {
      "inputs": [],
      "name": "name",
      "outputs": [
        {
          "internalType": "string",
          "name": "",
          "type": "string"
        }
      ],
      "stateMutability": "view",
      "type": "function"
    },
    {
      "inputs": [],
      "name": "owner",
      "outputs": [
        {
          "internalType": "address",
          "name": "",
          "type": "address"
        }
      ],
      "stateMutability": "view",
      "type": "function"
    },
    {
      "inputs": [
        {
          "internalType": "uint256",
          "name": "tokenId",
          "type": "uint256"
        }
      ],
      "name": "ownerOf",
      "outputs": [
        {
          "internalType": "address",
          "name": "",
          "type": "address"
        }
      ],
      "stateMutability": "view",
      "type": "function"
    },
    {
      "inputs": [
        {
          "internalType": "uint256",
          "name": "id",
          "type": "uint256"
        }
      ],
      "name": "refund",
      "outputs": [],
      "stateMutability": "nonpayable",
      "type": "function"
    },
    {
      "inputs": [
        {
          "internalType": "uint256",
          "name": "id",
          "type": "uint256"
        }
      ],
      "name": "releaseAsset",
      "outputs": [],
      "stateMutability": "nonpayable",
      "type": "function"
    },
    {
      "inputs": [
        {
          "internalType": "address",
          "name": "from",
          "type": "address"
        },
        {
          "internalType": "address",
          "name": "to",
          "type": "address"
        },
        {
          "internalType": "uint256",
          "name": "tokenId",
          "type": "uint256"
        }
      ],
      "name": "safeTransferFrom",
      "outputs": [],
      "stateMutability": "nonpayable",
      "type": "function"
    },
    {
      "inputs": [
        {
          "internalType": "address",
          "name": "from",
          "type": "address"
        },
        {
          "internalType": "address",
          "name": "to",
          "type": "address"
        },
        {
          "internalType": "uint256",
          "name": "tokenId",
          "type": "uint256"
        },
        {
          "internalType": "bytes",
          "name": "data",
          "type": "bytes"
        }
      ],
      "name": "safeTransferFrom",
      "outputs": [],
      "stateMutability": "nonpayable",
      "type": "function"
    },
    {
      "inputs": [
        {
          "internalType": "address",
          "name": "operator",
          "type": "address"
        },
        {
          "internalType": "bool",
          "name": "approved",
          "type": "bool"
        }
      ],
      "name": "setApprovalForAll",
      "outputs": [],
      "stateMutability": "nonpayable",
      "type": "function"
    },
    {
      "inputs": [
        {
          "internalType": "bytes4",
          "name": "interfaceId",
          "type": "bytes4"
        }
      ],
      "name": "supportsInterface",
      "outputs": [
        {
          "internalType": "bool",
          "name": "",
          "type": "bool"
        }
      ],
      "stateMutability": "view",
      "type": "function"
    },
    {
      "inputs": [],
      "name": "symbol",
      "outputs": [
        {
          "internalType": "string",
          "name": "",
          "type": "string"
        }
      ],
      "stateMutability": "view",
      "type": "function"
    },
    {
      "inputs": [
        {
          "internalType": "uint256",
          "name": "tokenId",
          "type": "uint256"
        }
      ],
      "name": "tokenURI",
      "outputs": [
        {
          "internalType": "string",
          "name": "",
          "type": "string"
        }
      ],
      "stateMutability": "view",
      "type": "function"
    },
    {
      "inputs": [
        {
          "internalType": "address",
          "name": "from",
          "type": "address"
        },
        {
          "internalType": "address",
          "name": "to",
          "type": "address"
        },
        {
          "internalType": "uint256",
          "name": "tokenId",
          "type": "uint256"
        }
      ],
      "name": "transferFrom",
      "outputs": [],
      "stateMutability": "nonpayable",
      "type": "function"
    }
  ],
  "bytecode": "0x60806040523480156200001157600080fd5b50604051620065bc380380620065bc83398181016040528101906200003791906200024b565b818181600090816200004a91906200051b565b5080600190816200005c91906200051b565b5050506001600681905550600060078190555033601060006101000a81548173ffffffffffffffffffffffffffffffffffffffff021916908373ffffffffffffffffffffffffffffffffffffffff160217905550505062000602565b6000604051905090565b600080fd5b600080fd5b600080fd5b600080fd5b6000601f19601f8301169050919050565b7f4e487b7100000000000000000000000000000000000000000000000000000000600052604160045260246000fd5b6200012182620000d6565b810181811067ffffffffffffffff82111715620001435762000142620000e7565b5b80604052505050565b600062000158620000b8565b905062000166828262000116565b919050565b600067ffffffffffffffff821115620001895762000188620000e7565b5b6200019482620000d6565b9050602081019050919050565b60005b83811015620001c1578082015181840152602081019050620001a4565b60008484015250505050565b6000620001e4620001de846200016b565b6200014c565b905082815260208101848484011115620002035762000202620000d1565b5b62000210848285620001a1565b509392505050565b600082601f83011262000230576200022f620000cc565b5b815162000242848260208601620001cd565b91505092915050565b60008060408385031215620002655762000264620000c2565b5b600083015167ffffffffffffffff811115620002865762000285620000c7565b5b620002948582860162000218565b925050602083015167ffffffffffffffff811115620002b857620002b7620000c7565b5b620002c68582860162000218565b9150509250929050565b600081519050919050565b7f4e487b7100000000000000000000000000000000000000000000000000000000600052602260045260246000fd5b600060028204905060018216806200032357607f821691505b602082108103620003395762000338620002db565b5b50919050565b60008190508160005260206000209050919050565b60006020601f8301049050919050565b600082821b905092915050565b600060088302620003a37fffffffffffffffffffffffffffffffffffffffffffffffffffffffffffffffff8262000364565b620003af868362000364565b95508019841693508086168417925050509392505050565b6000819050919050565b6000819050919050565b6000620003fc620003f6620003f084620003c7565b620003d1565b620003c7565b9050919050565b6000819050919050565b6200041883620003db565b62000430620004278262000403565b84845462000371565b825550505050565b600090565b6200044762000438565b620004548184846200040d565b505050565b5b818110156200047c57620004706000826200043d565b6001810190506200045a565b5050565b601f821115620004cb5762000495816200033f565b620004a08462000354565b81016020851015620004b0578190505b620004c8620004bf8562000354565b83018262000459565b50505b505050565b600082821c905092915050565b6000620004f060001984600802620004d0565b1980831691505092915050565b60006200050b8383620004dd565b9150826002028217905092915050565b6200052682620002d0565b67ffffffffffffffff811115620005425762000541620000e7565b5b6200054e82546200030a565b6200055b82828562000480565b600060209050601f8311600181146200059357600084156200057e578287015190505b6200058a8582620004fd565b865550620005fa565b601f198416620005a3866200033f565b60005b82811015620005cd57848901518255600182019150602085019450602081019050620005a6565b86831015620005ed5784890151620005e9601f891682620004dd565b8355505b6001600288020188555050505b505050505050565b615faa80620006126000396000f3fe60806040526004361061014b5760003560e01c80636352211e116100b6578063a22cb4651161006f578063a22cb465146104b9578063b88d4fde146104e2578063ba0179b51461050b578063c87b56dd14610534578063e985e9c514610571578063eac8f5b8146105ae5761014b565b80636352211e1461039557806367e4ac2c146103d257806370a08231146103fd5780638da5cb5b1461043a5780639010ce971461046557806395d89b411461048e5761014b565b806323b872dd1161010857806323b872dd14610263578063278ecde11461028c578063369d8138146102b557806342842e0e146102f25780634dcfd9451461031b5780635bf608b8146103585761014b565b806301ffc9a71461015057806304e98cef1461018d57806306fdde03146101b6578063081812fc146101e1578063095ea7b31461021e578063110d35b814610247575b600080fd5b34801561015c57600080fd5b5061017760048036038101906101729190613ec4565b6105eb565b6040516101849190613f0c565b60405180910390f35b34801561019957600080fd5b506101b460048036038101906101af9190613f5d565b6106cd565b005b3480156101c257600080fd5b506101cb6108ec565b6040516101d8919061401a565b60405180910390f35b3480156101ed57600080fd5b5061020860048036038101906102039190613f5d565b61097e565b604051610215919061407d565b60405180910390f35b34801561022a57600080fd5b50610245600480360381019061024091906140c4565b6109c4565b005b610261600480360381019061025c9190613f5d565b610adb565b005b34801561026f57600080fd5b5061028a60048036038101906102859190614104565b610f8b565b005b34801561029857600080fd5b506102b360048036038101906102ae9190613f5d565b610feb565b005b3480156102c157600080fd5b506102dc60048036038101906102d7919061428c565b611579565b6040516102e99190613f0c565b60405180910390f35b3480156102fe57600080fd5b5061031960048036038101906103149190614104565b611ab1565b005b34801561032757600080fd5b50610342600480360381019061033d9190613f5d565b611ad1565b60405161034f91906144e5565b60405180910390f35b34801561036457600080fd5b5061037f600480360381019061037a9190613f5d565b611c76565b60405161038c91906144e5565b60405180910390f35b3480156103a157600080fd5b506103bc60048036038101906103b79190613f5d565b611e1b565b6040516103c9919061407d565b60405180910390f35b3480156103de57600080fd5b506103e7611ea1565b6040516103f491906146b1565b60405180910390f35b34801561040957600080fd5b50610424600480360381019061041f91906146d3565b61219c565b604051610431919061470f565b60405180910390f35b34801561044657600080fd5b5061044f612253565b60405161045c919061407d565b60405180910390f35b34801561047157600080fd5b5061048c60048036038101906104879190613f5d565b612279565b005b34801561049a57600080fd5b506104a36123fa565b6040516104b0919061401a565b60405180910390f35b3480156104c557600080fd5b506104e060048036038101906104db9190614756565b61248c565b005b3480156104ee57600080fd5b5061050960048036038101906105049190614837565b6124a2565b005b34801561051757600080fd5b50610532600480360381019061052d9190613f5d565b612504565b005b34801561054057600080fd5b5061055b60048036038101906105569190613f5d565b612abc565b604051610568919061401a565b60405180910390f35b34801561057d57600080fd5b50610598600480360381019061059391906148ba565b612b24565b6040516105a59190613f0c565b60405180910390f35b3480156105ba57600080fd5b506105d560048036038101906105d09190613f5d565b612bb8565b6040516105e291906149e2565b60405180910390f35b60007f80ac58cd000000000000000000000000000000000000000000000000000000007bffffffffffffffffffffffffffffffffffffffffffffffffffffffff1916827bffffffffffffffffffffffffffffffffffffffffffffffffffffffff191614806106b657507f5b5e139f000000000000000000000000000000000000000000000000000000007bffffffffffffffffffffffffffffffffffffffffffffffffffffffff1916827bffffffffffffffffffffffffffffffffffffffffffffffffffffffff1916145b806106c657506106c582612e90565b5b9050919050565b601060009054906101000a900473ffffffffffffffffffffffffffffffffffffffff1673ffffffffffffffffffffffffffffffffffffffff163373ffffffffffffffffffffffffffffffffffffffff1614801561075a5750600c818154811061073957610738614a04565b5b906000526020600020906008020160070160009054906101000a900460ff16155b610799576040517f08c379a000000000000000000000000000000000000000000000000000000000815260040161079090614acb565b60405180910390fd5b6001600c82815481106107af576107ae614a04565b5b906000526020600020906008020160070160006101000a81548160ff021916908315150217905550600160048111156107eb576107ea6143be565b5b600c82815481106107ff576107fe614a04565b5b906000526020600020906008020160070160029054906101000a900460ff1660048111156108305761082f6143be565b5b0361089b5761089a600b600083815260200190815260200160002060010160009054906101000a900473ffffffffffffffffffffffffffffffffffffffff16600c838154811061088357610882614a04565b5b906000526020600020906008020160060154612efa565b5b6002600c82815481106108b1576108b0614a04565b5b906000526020600020906008020160070160026101000a81548160ff021916908360048111156108e4576108e36143be565b5b021790555050565b6060600080546108fb90614b1a565b80601f016020809104026020016040519081016040528092919081815260200182805461092790614b1a565b80156109745780601f1061094957610100808354040283529160200191610974565b820191906000526020600020905b81548152906001019060200180831161095757829003601f168201915b5050505050905090565b600061098982612fab565b6004600083815260200190815260200160002060009054906101000a900473ffffffffffffffffffffffffffffffffffffffff169050919050565b60006109cf82611e1b565b90508073ffffffffffffffffffffffffffffffffffffffff168373ffffffffffffffffffffffffffffffffffffffff1603610a3f576040517f08c379a0000000000000000000000000000000000000000000000000000000008152600401610a3690614bbd565b60405180910390fd5b8073ffffffffffffffffffffffffffffffffffffffff16610a5e612ff6565b73ffffffffffffffffffffffffffffffffffffffff161480610a8d5750610a8c81610a87612ff6565b612b24565b5b610acc576040517f08c379a0000000000000000000000000000000000000000000000000000000008152600401610ac390614c4f565b60405180910390fd5b610ad68383612ffe565b505050565b610ae36130b7565b60006004811115610af757610af66143be565b5b600c8281548110610b0b57610b0a614a04565b5b906000526020600020906008020160070160029054906101000a900460ff166004811115610b3c57610b3b6143be565b5b14610b7c576040517f08c379a0000000000000000000000000000000000000000000000000000000008152600401610b7390614cbb565b60405180910390fd5b600c8181548110610b9057610b8f614a04565b5b906000526020600020906008020160000160009054906101000a900473ffffffffffffffffffffffffffffffffffffffff1673ffffffffffffffffffffffffffffffffffffffff163373ffffffffffffffffffffffffffffffffffffffff1603610c2f576040517f08c379a0000000000000000000000000000000000000000000000000000000008152600401610c2690614d27565b60405180910390fd5b600f600082815260200190815260200160002060009054906101000a900460ff16610c8f576040517f08c379a0000000000000000000000000000000000000000000000000000000008152600401610c8690614d93565b60405180910390fd5b600c8181548110610ca357610ca2614a04565b5b9060005260206000209060080201600601543414610cf6576040517f08c379a0000000000000000000000000000000000000000000000000000000008152600401610ced90614dff565b60405180910390fd5b6040518061010001604052808281526020013373ffffffffffffffffffffffffffffffffffffffff16815260200134815260200142815260200160011515815260200160001515815260200160405180602001604052806000815250815260200160016004811115610d6b57610d6a6143be565b5b815250600b60008381526020019081526020016000206000820151816000015560208201518160010160006101000a81548173ffffffffffffffffffffffffffffffffffffffff021916908373ffffffffffffffffffffffffffffffffffffffff160217905550604082015181600201556060820151816003015560808201518160040160006101000a81548160ff02191690831515021790555060a08201518160040160016101000a81548160ff02191690831515021790555060c0820151816005019081610e3b9190614fcb565b5060e08201518160060160006101000a81548160ff02191690836004811115610e6757610e666143be565b5b02179055509050506001600c8281548110610e8557610e84614a04565b5b906000526020600020906008020160070160016101000a81548160ff0219169083151502179055507f2018a69277a3b64014d178d92da02c971e68f2f7d89f996327e9757f49c433ba33600c8381548110610ee357610ee2614a04565b5b906000526020600020906008020160000160009054906101000a900473ffffffffffffffffffffffffffffffffffffffff1642346001604051610f2a95949392919061509d565b60405180910390a16001600c8281548110610f4857610f47614a04565b5b906000526020600020906008020160070160026101000a81548160ff02191690836004811115610f7b57610f7a6143be565b5b0217905550610f88613106565b50565b610f9c610f96612ff6565b82613110565b610fdb576040517f08c379a0000000000000000000000000000000000000000000000000000000008152600401610fd290615162565b60405180910390fd5b610fe68383836131a5565b505050565b600b600082815260200190815260200160002060010160009054906101000a900473ffffffffffffffffffffffffffffffffffffffff1673ffffffffffffffffffffffffffffffffffffffff163373ffffffffffffffffffffffffffffffffffffffff161480156110a357506001600481111561106b5761106a6143be565b5b600b600083815260200190815260200160002060060160009054906101000a900460ff1660048111156110a1576110a06143be565b5b145b6110e2576040517f08c379a00000000000000000000000000000000000000000000000000000000081526004016110d9906151f4565b60405180910390fd5b6003600b600083815260200190815260200160002060060160006101000a81548160ff0219169083600481111561111c5761111b6143be565b5b0217905550600b6000828152602001908152602001600020600a6000838152602001908152602001600020600082015481600001556001820160009054906101000a900473ffffffffffffffffffffffffffffffffffffffff168160010160006101000a81548173ffffffffffffffffffffffffffffffffffffffff021916908373ffffffffffffffffffffffffffffffffffffffff16021790555060028201548160020155600382015481600301556004820160009054906101000a900460ff168160040160006101000a81548160ff0219169083151502179055506004820160019054906101000a900460ff168160040160016101000a81548160ff0219169083151502179055506005820181600501908161123a919061522a565b506006820160009054906101000a900460ff168160060160006101000a81548160ff02191690836004811115611273576112726143be565b5b021790555090505060405180610100016040528060008152602001600073ffffffffffffffffffffffffffffffffffffffff16815260200160008152602001428152602001600015158152602001600015158152602001604051806020016040528060008152508152602001600060048111156112f3576112f26143be565b5b815250600b60008381526020019081526020016000206000820151816000015560208201518160010160006101000a81548173ffffffffffffffffffffffffffffffffffffffff021916908373ffffffffffffffffffffffffffffffffffffffff160217905550604082015181600201556060820151816003015560808201518160040160006101000a81548160ff02191690831515021790555060a08201518160040160016101000a81548160ff02191690831515021790555060c08201518160050190816113c39190614fcb565b5060e08201518160060160006101000a81548160ff021916908360048111156113ef576113ee6143be565b5b021790555090505061145c600b600083815260200190815260200160002060010160009054906101000a900473ffffffffffffffffffffffffffffffffffffffff16600c838154811061144557611444614a04565b5b906000526020600020906008020160060154612efa565b6000600c828154811061147257611471614a04565b5b906000526020600020906008020160070160016101000a81548160ff0219169083151502179055506000600c82815481106114b0576114af614a04565b5b906000526020600020906008020160070160026101000a81548160ff021916908360048111156114e3576114e26143be565b5b02179055507f84d7f04dfb80e682ae7d14070ec2154d4184eae42887cb5fe7747d6ccbadc21c600c828154811061151d5761151c614a04565b5b906000526020600020906008020160070160029054906101000a900460ff16600b600084815260200190815260200160002060060160009054906101000a900460ff1660405161156e929190615321565b60405180910390a150565b600080855111801561158c575060008451115b6115cb576040517f08c379a00000000000000000000000000000000000000000000000000000000081526004016115c290615396565b60405180910390fd5b600083511180156115dc5750600082115b61161b576040517f08c379a000000000000000000000000000000000000000000000000000000000815260040161161290615402565b60405180910390fd5b600e8360405161162b919061545e565b908152602001604051809103902060009054906101000a900460ff1615611687576040517f08c379a000000000000000000000000000000000000000000000000000000000815260040161167e906154c1565b60405180910390fd5b60006007600081548092919061169c90615510565b9190505590506040518061014001604052803373ffffffffffffffffffffffffffffffffffffffff16815260200182815260200187815260200186815260200185815260200142815260200184815260200160001515815260200160001515815260200160006004811115611714576117136143be565b5b815250600d600083815260200190815260200160002060008201518160000160006101000a81548173ffffffffffffffffffffffffffffffffffffffff021916908373ffffffffffffffffffffffffffffffffffffffff1602179055506020820151816001015560408201518160020190816117909190614fcb565b5060608201518160030190816117a69190614fcb565b5060808201518160040190816117bc9190614fcb565b5060a0820151816005015560c0820151816006015560e08201518160070160006101000a81548160ff0219169083151502179055506101008201518160070160016101000a81548160ff0219169083151502179055506101208201518160070160026101000a81548160ff0219169083600481111561183e5761183d6143be565b5b0217905550905050600c600d600083815260200190815260200160002090806001815401808255809150506001900390600052602060002090600802016000909190919091506000820160009054906101000a900473ffffffffffffffffffffffffffffffffffffffff168160000160006101000a81548173ffffffffffffffffffffffffffffffffffffffff021916908373ffffffffffffffffffffffffffffffffffffffff1602179055506001820154816001015560028201816002019081611909919061522a565b506003820181600301908161191e919061522a565b5060048201816004019081611933919061522a565b5060058201548160050155600682015481600601556007820160009054906101000a900460ff168160070160006101000a81548160ff0219169083151502179055506007820160019054906101000a900460ff168160070160016101000a81548160ff0219169083151502179055506007820160029054906101000a900460ff168160070160026101000a81548160ff021916908360048111156119da576119d96143be565b5b021790555050506001600e856040516119f3919061545e565b908152602001604051809103902060006101000a81548160ff0219169083151502179055506001600f600083815260200190815260200160002060006101000a81548160ff021916908315150217905550807f1bd34f5070969faf7c075ecf37c24f973b7c3a11714bbb362e90c5284f96cf5b33864287604051611a7a9493929190615558565b60405180910390a2611a8c338261349e565b60086000815480929190611a9f90615510565b91905055506001915050949350505050565b611acc838383604051806020016040528060008152506124a2565b505050565b611ad9613d68565b600a600083815260200190815260200160002060405180610100016040529081600082015481526020016001820160009054906101000a900473ffffffffffffffffffffffffffffffffffffffff1673ffffffffffffffffffffffffffffffffffffffff1673ffffffffffffffffffffffffffffffffffffffff16815260200160028201548152602001600382015481526020016004820160009054906101000a900460ff161515151581526020016004820160019054906101000a900460ff16151515158152602001600582018054611bb290614b1a565b80601f0160208091040260200160405190810160405280929190818152602001828054611bde90614b1a565b8015611c2b5780601f10611c0057610100808354040283529160200191611c2b565b820191906000526020600020905b815481529060010190602001808311611c0e57829003601f168201915b505050505081526020016006820160009054906101000a900460ff166004811115611c5957611c586143be565b5b6004811115611c6b57611c6a6143be565b5b815250509050919050565b611c7e613d68565b600b600083815260200190815260200160002060405180610100016040529081600082015481526020016001820160009054906101000a900473ffffffffffffffffffffffffffffffffffffffff1673ffffffffffffffffffffffffffffffffffffffff1673ffffffffffffffffffffffffffffffffffffffff16815260200160028201548152602001600382015481526020016004820160009054906101000a900460ff161515151581526020016004820160019054906101000a900460ff16151515158152602001600582018054611d5790614b1a565b80601f0160208091040260200160405190810160405280929190818152602001828054611d8390614b1a565b8015611dd05780601f10611da557610100808354040283529160200191611dd0565b820191906000526020600020905b815481529060010190602001808311611db357829003601f168201915b505050505081526020016006820160009054906101000a900460ff166004811115611dfe57611dfd6143be565b5b6004811115611e1057611e0f6143be565b5b815250509050919050565b600080611e27836134bc565b9050600073ffffffffffffffffffffffffffffffffffffffff168173ffffffffffffffffffffffffffffffffffffffff1603611e98576040517f08c379a0000000000000000000000000000000000000000000000000000000008152600401611e8f906155f0565b60405180910390fd5b80915050919050565b6060600c805480602002602001604051908101604052809291908181526020016000905b828210156121935783829060005260206000209060080201604051806101400160405290816000820160009054906101000a900473ffffffffffffffffffffffffffffffffffffffff1673ffffffffffffffffffffffffffffffffffffffff1673ffffffffffffffffffffffffffffffffffffffff16815260200160018201548152602001600282018054611f5990614b1a565b80601f0160208091040260200160405190810160405280929190818152602001828054611f8590614b1a565b8015611fd25780601f10611fa757610100808354040283529160200191611fd2565b820191906000526020600020905b815481529060010190602001808311611fb557829003601f168201915b50505050508152602001600382018054611feb90614b1a565b80601f016020809104026020016040519081016040528092919081815260200182805461201790614b1a565b80156120645780601f1061203957610100808354040283529160200191612064565b820191906000526020600020905b81548152906001019060200180831161204757829003601f168201915b5050505050815260200160048201805461207d90614b1a565b80601f01602080910402602001604051908101604052809291908181526020018280546120a990614b1a565b80156120f65780601f106120cb576101008083540402835291602001916120f6565b820191906000526020600020905b8154815290600101906020018083116120d957829003601f168201915b5050505050815260200160058201548152602001600682015481526020016007820160009054906101000a900460ff161515151581526020016007820160019054906101000a900460ff161515151581526020016007820160029054906101000a900460ff16600481111561216e5761216d6143be565b5b60048111156121805761217f6143be565b5b8152505081526020019060010190611ec5565b50505050905090565b60008073ffffffffffffffffffffffffffffffffffffffff168273ffffffffffffffffffffffffffffffffffffffff160361220c576040517f08c379a000000000000000000000000000000000000000000000000000000000815260040161220390615682565b60405180910390fd5b600360008373ffffffffffffffffffffffffffffffffffffffff1673ffffffffffffffffffffffffffffffffffffffff168152602001908152602001600020549050919050565b601060009054906101000a900473ffffffffffffffffffffffffffffffffffffffff1681565b601060009054906101000a900473ffffffffffffffffffffffffffffffffffffffff1673ffffffffffffffffffffffffffffffffffffffff163373ffffffffffffffffffffffffffffffffffffffff1614801561232c5750600260048111156122e5576122e46143be565b5b600c82815481106122f9576122f8614a04565b5b906000526020600020906008020160070160029054906101000a900460ff16600481111561232a576123296143be565b5b145b61236b576040517f08c379a0000000000000000000000000000000000000000000000000000000008152600401612362906156ee565b60405180910390fd5b6000600c828154811061238157612380614a04565b5b906000526020600020906008020160070160006101000a81548160ff0219169083151502179055506000600c82815481106123bf576123be614a04565b5b906000526020600020906008020160070160026101000a81548160ff021916908360048111156123f2576123f16143be565b5b021790555050565b60606001805461240990614b1a565b80601f016020809104026020016040519081016040528092919081815260200182805461243590614b1a565b80156124825780601f1061245757610100808354040283529160200191612482565b820191906000526020600020905b81548152906001019060200180831161246557829003601f168201915b5050505050905090565b61249e612497612ff6565b83836134f9565b5050565b6124b36124ad612ff6565b83613110565b6124f2576040517f08c379a00000000000000000000000000000000000000000000000000000000081526004016124e990615162565b60405180910390fd5b6124fe84848484613665565b50505050565b600f600082815260200190815260200160002060009054906101000a900460ff16612564576040517f08c379a000000000000000000000000000000000000000000000000000000000815260040161255b90614d93565b60405180910390fd5b60016004811115612578576125776143be565b5b600c828154811061258c5761258b614a04565b5b906000526020600020906008020160070160029054906101000a900460ff1660048111156125bd576125bc6143be565b5b146125fd576040517f08c379a00000000000000000000000000000000000000000000000000000000081526004016125f49061575a565b60405180910390fd5b600b600082815260200190815260200160002060010160009054906101000a900473ffffffffffffffffffffffffffffffffffffffff1673ffffffffffffffffffffffffffffffffffffffff163373ffffffffffffffffffffffffffffffffffffffff1614801561268f5750600b600082815260200190815260200160002060040160019054906101000a900460ff16155b6126ce576040517f08c379a00000000000000000000000000000000000000000000000000000000081526004016126c5906157ec565b60405180910390fd5b6001600b600083815260200190815260200160002060040160016101000a81548160ff021916908315150217905550612771600c828154811061271457612713614a04565b5b906000526020600020906008020160000160009054906101000a900473ffffffffffffffffffffffffffffffffffffffff16600c838154811061275a57612759614a04565b5b906000526020600020906008020160060154612efa565b6004600c828154811061278757612786614a04565b5b906000526020600020906008020160070160026101000a81548160ff021916908360048111156127ba576127b96143be565b5b0217905550612834600c82815481106127d6576127d5614a04565b5b906000526020600020906008020160000160009054906101000a900473ffffffffffffffffffffffffffffffffffffffff1633600c848154811061281d5761281c614a04565b5b9060005260206000209060080201600101546131a5565b600c818154811061284857612847614a04565b5b9060005260206000209060080201600401600b6000838152602001908152602001600020600501908161287b9190615837565b5033600c828154811061289157612890614a04565b5b906000526020600020906008020160000160006101000a81548173ffffffffffffffffffffffffffffffffffffffff021916908373ffffffffffffffffffffffffffffffffffffffff160217905550600960008154809291906128f390615510565b91905055507f8eac340af35af673875d62f0b4eeaa6928b83ecb2f0f45ef9b6d1cba38b00661600c828154811061292d5761292c614a04565b5b906000526020600020906008020160000160009054906101000a900473ffffffffffffffffffffffffffffffffffffffff16600b600084815260200190815260200160002060010160009054906101000a900473ffffffffffffffffffffffffffffffffffffffff16600c84815481106129aa576129a9614a04565b5b906000526020600020906008020160010154600b6000868152602001908152602001600020600501426040516129e49594939291906159a3565b60405180910390a16004600b600083815260200190815260200160002060060160006101000a81548160ff02191690836004811115612a2657612a256143be565b5b02179055507f91530a5dd22aa84df44ea20c894ccdca804d5359f6f90d0f9eba007c27812265600b600083815260200190815260200160002060040160019054906101000a900460ff16600c8381548110612a8457612a83614a04565b5b906000526020600020906008020160070160029054906101000a900460ff16604051612ab19291906159fd565b60405180910390a150565b6060612ac782612fab565b6000612ad16136c1565b90506000815111612af15760405180602001604052806000815250612b1c565b80612afb846136d8565b604051602001612b0c929190615a26565b6040516020818303038152906040525b915050919050565b6000600560008473ffffffffffffffffffffffffffffffffffffffff1673ffffffffffffffffffffffffffffffffffffffff16815260200190815260200160002060008373ffffffffffffffffffffffffffffffffffffffff1673ffffffffffffffffffffffffffffffffffffffff16815260200190815260200160002060009054906101000a900460ff16905092915050565b612bc0613dd9565b600c8281548110612bd457612bd3614a04565b5b9060005260206000209060080201604051806101400160405290816000820160009054906101000a900473ffffffffffffffffffffffffffffffffffffffff1673ffffffffffffffffffffffffffffffffffffffff1673ffffffffffffffffffffffffffffffffffffffff16815260200160018201548152602001600282018054612c5e90614b1a565b80601f0160208091040260200160405190810160405280929190818152602001828054612c8a90614b1a565b8015612cd75780601f10612cac57610100808354040283529160200191612cd7565b820191906000526020600020905b815481529060010190602001808311612cba57829003601f168201915b50505050508152602001600382018054612cf090614b1a565b80601f0160208091040260200160405190810160405280929190818152602001828054612d1c90614b1a565b8015612d695780601f10612d3e57610100808354040283529160200191612d69565b820191906000526020600020905b815481529060010190602001808311612d4c57829003601f168201915b50505050508152602001600482018054612d8290614b1a565b80601f0160208091040260200160405190810160405280929190818152602001828054612dae90614b1a565b8015612dfb5780601f10612dd057610100808354040283529160200191612dfb565b820191906000526020600020905b815481529060010190602001808311612dde57829003601f168201915b5050505050815260200160058201548152602001600682015481526020016007820160009054906101000a900460ff161515151581526020016007820160019054906101000a900460ff161515151581526020016007820160029054906101000a900460ff166004811115612e7357612e726143be565b5b6004811115612e8557612e846143be565b5b815250509050919050565b60007f01ffc9a7000000000000000000000000000000000000000000000000000000007bffffffffffffffffffffffffffffffffffffffffffffffffffffffff1916827bffffffffffffffffffffffffffffffffffffffffffffffffffffffff1916149050919050565b60008273ffffffffffffffffffffffffffffffffffffffff1682604051612f2090615a7b565b60006040518083038185875af1925050503d8060008114612f5d576040519150601f19603f3d011682016040523d82523d6000602084013e612f62565b606091505b5050905080612fa6576040517f08c379a0000000000000000000000000000000000000000000000000000000008152600401612f9d90615adc565b60405180910390fd5b505050565b612fb4816137a6565b612ff3576040517f08c379a0000000000000000000000000000000000000000000000000000000008152600401612fea906155f0565b60405180910390fd5b50565b600033905090565b816004600083815260200190815260200160002060006101000a81548173ffffffffffffffffffffffffffffffffffffffff021916908373ffffffffffffffffffffffffffffffffffffffff160217905550808273ffffffffffffffffffffffffffffffffffffffff1661307183611e1b565b73ffffffffffffffffffffffffffffffffffffffff167f8c5be1e5ebec7d5bd14f71427d1e84f3dd0314c0f7b2291e5b200ac8c7c3b92560405160405180910390a45050565b6002600654036130fc576040517f08c379a00000000000000000000000000000000000000000000000000000000081526004016130f390615b48565b60405180910390fd5b6002600681905550565b6001600681905550565b60008061311c83611e1b565b90508073ffffffffffffffffffffffffffffffffffffffff168473ffffffffffffffffffffffffffffffffffffffff16148061315e575061315d8185612b24565b5b8061319c57508373ffffffffffffffffffffffffffffffffffffffff166131848461097e565b73ffffffffffffffffffffffffffffffffffffffff16145b91505092915050565b8273ffffffffffffffffffffffffffffffffffffffff166131c582611e1b565b73ffffffffffffffffffffffffffffffffffffffff161461321b576040517f08c379a000000000000000000000000000000000000000000000000000000000815260040161321290615bda565b60405180910390fd5b600073ffffffffffffffffffffffffffffffffffffffff168273ffffffffffffffffffffffffffffffffffffffff160361328a576040517f08c379a000000000000000000000000000000000000000000000000000000000815260040161328190615c6c565b60405180910390fd5b61329783838360016137e7565b8273ffffffffffffffffffffffffffffffffffffffff166132b782611e1b565b73ffffffffffffffffffffffffffffffffffffffff161461330d576040517f08c379a000000000000000000000000000000000000000000000000000000000815260040161330490615bda565b60405180910390fd5b6004600082815260200190815260200160002060006101000a81549073ffffffffffffffffffffffffffffffffffffffff02191690556001600360008573ffffffffffffffffffffffffffffffffffffffff1673ffffffffffffffffffffffffffffffffffffffff168152602001908152602001600020600082825403925050819055506001600360008473ffffffffffffffffffffffffffffffffffffffff1673ffffffffffffffffffffffffffffffffffffffff16815260200190815260200160002060008282540192505081905550816002600083815260200190815260200160002060006101000a81548173ffffffffffffffffffffffffffffffffffffffff021916908373ffffffffffffffffffffffffffffffffffffffff160217905550808273ffffffffffffffffffffffffffffffffffffffff168473ffffffffffffffffffffffffffffffffffffffff167fddf252ad1be2c89b69c2b068fc378daa952ba7f163c4a11628f55a4df523b3ef60405160405180910390a461349983838360016137ed565b505050565b6134b88282604051806020016040528060008152506137f3565b5050565b60006002600083815260200190815260200160002060009054906101000a900473ffffffffffffffffffffffffffffffffffffffff169050919050565b8173ffffffffffffffffffffffffffffffffffffffff168373ffffffffffffffffffffffffffffffffffffffff1603613567576040517f08c379a000000000000000000000000000000000000000000000000000000000815260040161355e90615cd8565b60405180910390fd5b80600560008573ffffffffffffffffffffffffffffffffffffffff1673ffffffffffffffffffffffffffffffffffffffff16815260200190815260200160002060008473ffffffffffffffffffffffffffffffffffffffff1673ffffffffffffffffffffffffffffffffffffffff16815260200190815260200160002060006101000a81548160ff0219169083151502179055508173ffffffffffffffffffffffffffffffffffffffff168373ffffffffffffffffffffffffffffffffffffffff167f17307eab39ab6107e8899845ad3d59bd9653f200f220920489ca2b5937696c31836040516136589190613f0c565b60405180910390a3505050565b6136708484846131a5565b61367c8484848461384e565b6136bb576040517f08c379a00000000000000000000000000000000000000000000000000000000081526004016136b290615d6a565b60405180910390fd5b50505050565b606060405180602001604052806000815250905090565b6060600060016136e7846139d5565b01905060008167ffffffffffffffff81111561370657613705614161565b5b6040519080825280601f01601f1916602001820160405280156137385781602001600182028036833780820191505090505b509050600082602001820190505b60011561379b578080600190039150507f3031323334353637383961626364656600000000000000000000000000000000600a86061a8153600a858161378f5761378e615d8a565b5b04945060008503613746575b819350505050919050565b60008073ffffffffffffffffffffffffffffffffffffffff166137c8836134bc565b73ffffffffffffffffffffffffffffffffffffffff1614159050919050565b50505050565b50505050565b6137fd8383613b28565b61380a600084848461384e565b613849576040517f08c379a000000000000000000000000000000000000000000000000000000000815260040161384090615d6a565b60405180910390fd5b505050565b600061386f8473ffffffffffffffffffffffffffffffffffffffff16613d45565b156139c8578373ffffffffffffffffffffffffffffffffffffffff1663150b7a02613898612ff6565b8786866040518563ffffffff1660e01b81526004016138ba9493929190615e0e565b6020604051808303816000875af19250505080156138f657506040513d601f19601f820116820180604052508101906138f39190615e6f565b60015b613978573d8060008114613926576040519150601f19603f3d011682016040523d82523d6000602084013e61392b565b606091505b506000815103613970576040517f08c379a000000000000000000000000000000000000000000000000000000000815260040161396790615d6a565b60405180910390fd5b805181602001fd5b63150b7a0260e01b7bffffffffffffffffffffffffffffffffffffffffffffffffffffffff1916817bffffffffffffffffffffffffffffffffffffffffffffffffffffffff1916149150506139cd565b600190505b949350505050565b600080600090507a184f03e93ff9f4daa797ed6e38ed64bf6a1f0100000000000000008310613a33577a184f03e93ff9f4daa797ed6e38ed64bf6a1f0100000000000000008381613a2957613a28615d8a565b5b0492506040810190505b6d04ee2d6d415b85acef81000000008310613a70576d04ee2d6d415b85acef81000000008381613a6657613a65615d8a565b5b0492506020810190505b662386f26fc100008310613a9f57662386f26fc100008381613a9557613a94615d8a565b5b0492506010810190505b6305f5e1008310613ac8576305f5e1008381613abe57613abd615d8a565b5b0492506008810190505b6127108310613aed576127108381613ae357613ae2615d8a565b5b0492506004810190505b60648310613b105760648381613b0657613b05615d8a565b5b0492506002810190505b600a8310613b1f576001810190505b80915050919050565b600073ffffffffffffffffffffffffffffffffffffffff168273ffffffffffffffffffffffffffffffffffffffff1603613b97576040517f08c379a0000000000000000000000000000000000000000000000000000000008152600401613b8e90615ee8565b60405180910390fd5b613ba0816137a6565b15613be0576040517f08c379a0000000000000000000000000000000000000000000000000000000008152600401613bd790615f54565b60405180910390fd5b613bee6000838360016137e7565b613bf7816137a6565b15613c37576040517f08c379a0000000000000000000000000000000000000000000000000000000008152600401613c2e90615f54565b60405180910390fd5b6001600360008473ffffffffffffffffffffffffffffffffffffffff1673ffffffffffffffffffffffffffffffffffffffff16815260200190815260200160002060008282540192505081905550816002600083815260200190815260200160002060006101000a81548173ffffffffffffffffffffffffffffffffffffffff021916908373ffffffffffffffffffffffffffffffffffffffff160217905550808273ffffffffffffffffffffffffffffffffffffffff16600073ffffffffffffffffffffffffffffffffffffffff167fddf252ad1be2c89b69c2b068fc378daa952ba7f163c4a11628f55a4df523b3ef60405160405180910390a4613d416000838360016137ed565b5050565b6000808273ffffffffffffffffffffffffffffffffffffffff163b119050919050565b60405180610100016040528060008152602001600073ffffffffffffffffffffffffffffffffffffffff16815260200160008152602001600081526020016000151581526020016000151581526020016060815260200160006004811115613dd357613dd26143be565b5b81525090565b604051806101400160405280600073ffffffffffffffffffffffffffffffffffffffff16815260200160008152602001606081526020016060815260200160608152602001600081526020016000815260200160001515815260200160001515815260200160006004811115613e5257613e516143be565b5b81525090565b6000604051905090565b600080fd5b600080fd5b60007fffffffff0000000000000000000000000000000000000000000000000000000082169050919050565b613ea181613e6c565b8114613eac57600080fd5b50565b600081359050613ebe81613e98565b92915050565b600060208284031215613eda57613ed9613e62565b5b6000613ee884828501613eaf565b91505092915050565b60008115159050919050565b613f0681613ef1565b82525050565b6000602082019050613f216000830184613efd565b92915050565b6000819050919050565b613f3a81613f27565b8114613f4557600080fd5b50565b600081359050613f5781613f31565b92915050565b600060208284031215613f7357613f72613e62565b5b6000613f8184828501613f48565b91505092915050565b600081519050919050565b600082825260208201905092915050565b60005b83811015613fc4578082015181840152602081019050613fa9565b60008484015250505050565b6000601f19601f8301169050919050565b6000613fec82613f8a565b613ff68185613f95565b9350614006818560208601613fa6565b61400f81613fd0565b840191505092915050565b600060208201905081810360008301526140348184613fe1565b905092915050565b600073ffffffffffffffffffffffffffffffffffffffff82169050919050565b60006140678261403c565b9050919050565b6140778161405c565b82525050565b6000602082019050614092600083018461406e565b92915050565b6140a18161405c565b81146140ac57600080fd5b50565b6000813590506140be81614098565b92915050565b600080604083850312156140db576140da613e62565b5b60006140e9858286016140af565b92505060206140fa85828601613f48565b9150509250929050565b60008060006060848603121561411d5761411c613e62565b5b600061412b868287016140af565b935050602061413c868287016140af565b925050604061414d86828701613f48565b9150509250925092565b600080fd5b600080fd5b7f4e487b7100000000000000000000000000000000000000000000000000000000600052604160045260246000fd5b61419982613fd0565b810181811067ffffffffffffffff821117156141b8576141b7614161565b5b80604052505050565b60006141cb613e58565b90506141d78282614190565b919050565b600067ffffffffffffffff8211156141f7576141f6614161565b5b61420082613fd0565b9050602081019050919050565b82818337600083830152505050565b600061422f61422a846141dc565b6141c1565b90508281526020810184848401111561424b5761424a61415c565b5b61425684828561420d565b509392505050565b600082601f83011261427357614272614157565b5b813561428384826020860161421c565b91505092915050565b600080600080608085870312156142a6576142a5613e62565b5b600085013567ffffffffffffffff8111156142c4576142c3613e67565b5b6142d08782880161425e565b945050602085013567ffffffffffffffff8111156142f1576142f0613e67565b5b6142fd8782880161425e565b935050604085013567ffffffffffffffff81111561431e5761431d613e67565b5b61432a8782880161425e565b925050606061433b87828801613f48565b91505092959194509250565b61435081613f27565b82525050565b61435f8161405c565b82525050565b61436e81613ef1565b82525050565b600082825260208201905092915050565b600061439082613f8a565b61439a8185614374565b93506143aa818560208601613fa6565b6143b381613fd0565b840191505092915050565b7f4e487b7100000000000000000000000000000000000000000000000000000000600052602160045260246000fd5b600581106143fe576143fd6143be565b5b50565b600081905061440f826143ed565b919050565b600061441f82614401565b9050919050565b61442f81614414565b82525050565b60006101008301600083015161444e6000860182614347565b5060208301516144616020860182614356565b5060408301516144746040860182614347565b5060608301516144876060860182614347565b50608083015161449a6080860182614365565b5060a08301516144ad60a0860182614365565b5060c083015184820360c08601526144c58282614385565b91505060e08301516144da60e0860182614426565b508091505092915050565b600060208201905081810360008301526144ff8184614435565b905092915050565b600081519050919050565b600082825260208201905092915050565b6000819050602082019050919050565b60006101408301600083015161454c6000860182614356565b50602083015161455f6020860182614347565b50604083015184820360408601526145778282614385565b915050606083015184820360608601526145918282614385565b915050608083015184820360808601526145ab8282614385565b91505060a08301516145c060a0860182614347565b5060c08301516145d360c0860182614347565b5060e08301516145e660e0860182614365565b506101008301516145fb610100860182614365565b50610120830151614610610120860182614426565b508091505092915050565b60006146278383614533565b905092915050565b6000602082019050919050565b600061464782614507565b6146518185614512565b93508360208202850161466385614523565b8060005b8581101561469f5784840389528151614680858261461b565b945061468b8361462f565b925060208a01995050600181019050614667565b50829750879550505050505092915050565b600060208201905081810360008301526146cb818461463c565b905092915050565b6000602082840312156146e9576146e8613e62565b5b60006146f7848285016140af565b91505092915050565b61470981613f27565b82525050565b60006020820190506147246000830184614700565b92915050565b61473381613ef1565b811461473e57600080fd5b50565b6000813590506147508161472a565b92915050565b6000806040838503121561476d5761476c613e62565b5b600061477b858286016140af565b925050602061478c85828601614741565b9150509250929050565b600067ffffffffffffffff8211156147b1576147b0614161565b5b6147ba82613fd0565b9050602081019050919050565b60006147da6147d584614796565b6141c1565b9050828152602081018484840111156147f6576147f561415c565b5b61480184828561420d565b509392505050565b600082601f83011261481e5761481d614157565b5b813561482e8482602086016147c7565b91505092915050565b6000806000806080858703121561485157614850613e62565b5b600061485f878288016140af565b9450506020614870878288016140af565b935050604061488187828801613f48565b925050606085013567ffffffffffffffff8111156148a2576148a1613e67565b5b6148ae87828801614809565b91505092959194509250565b600080604083850312156148d1576148d0613e62565b5b60006148df858286016140af565b92505060206148f0858286016140af565b9150509250929050565b6000610140830160008301516149136000860182614356565b5060208301516149266020860182614347565b506040830151848203604086015261493e8282614385565b915050606083015184820360608601526149588282614385565b915050608083015184820360808601526149728282614385565b91505060a083015161498760a0860182614347565b5060c083015161499a60c0860182614347565b5060e08301516149ad60e0860182614365565b506101008301516149c2610100860182614365565b506101208301516149d7610120860182614426565b508091505092915050565b600060208201905081810360008301526149fc81846148fa565b905092915050565b7f4e487b7100000000000000000000000000000000000000000000000000000000600052603260045260246000fd5b7f4f6e6c79204f776e6572206861732074686520617574686f7269747920746f2060008201527f63616e2070726f62652041737365742c2050726f63657373205265766572736560208201527f6400000000000000000000000000000000000000000000000000000000000000604082015250565b6000614ab5604183613f95565b9150614ac082614a33565b606082019050919050565b60006020820190508181036000830152614ae481614aa8565b9050919050565b7f4e487b7100000000000000000000000000000000000000000000000000000000600052602260045260246000fd5b60006002820490506001821680614b3257607f821691505b602082108103614b4557614b44614aeb565b5b50919050565b7f4552433732313a20617070726f76616c20746f2063757272656e74206f776e6560008201527f7200000000000000000000000000000000000000000000000000000000000000602082015250565b6000614ba7602183613f95565b9150614bb282614b4b565b604082019050919050565b60006020820190508181036000830152614bd681614b9a565b9050919050565b7f4552433732313a20617070726f76652063616c6c6572206973206e6f7420746f60008201527f6b656e206f776e6572206f7220617070726f76656420666f7220616c6c000000602082015250565b6000614c39603d83613f95565b9150614c4482614bdd565b604082019050919050565b60006020820190508181036000830152614c6881614c2c565b9050919050565b7f417373657420697320756e6465676f696e67204e65676f74696174696f6e0000600082015250565b6000614ca5601e83613f95565b9150614cb082614c6f565b602082019050919050565b60006020820190508181036000830152614cd481614c98565b9050919050565b7f596f752063616e6e6f742062757920796f757220417373657400000000000000600082015250565b6000614d11601983613f95565b9150614d1c82614cdb565b602082019050919050565b60006020820190508181036000830152614d4081614d04565b9050919050565b7f417373657420646f6573206e6f74204578697374000000000000000000000000600082015250565b6000614d7d601483613f95565b9150614d8882614d47565b602082019050919050565b60006020820190508181036000830152614dac81614d70565b9050919050565b7f496e636f7272656374207061796d656e7420616d6f756e740000000000000000600082015250565b6000614de9601883613f95565b9150614df482614db3565b602082019050919050565b60006020820190508181036000830152614e1881614ddc565b9050919050565b60008190508160005260206000209050919050565b60006020601f8301049050919050565b600082821b905092915050565b600060088302614e817fffffffffffffffffffffffffffffffffffffffffffffffffffffffffffffffff82614e44565b614e8b8683614e44565b95508019841693508086168417925050509392505050565b6000819050919050565b6000614ec8614ec3614ebe84613f27565b614ea3565b613f27565b9050919050565b6000819050919050565b614ee283614ead565b614ef6614eee82614ecf565b848454614e51565b825550505050565b600090565b614f0b614efe565b614f16818484614ed9565b505050565b5b81811015614f3a57614f2f600082614f03565b600181019050614f1c565b5050565b601f821115614f7f57614f5081614e1f565b614f5984614e34565b81016020851015614f68578190505b614f7c614f7485614e34565b830182614f1b565b50505b505050565b600082821c905092915050565b6000614fa260001984600802614f84565b1980831691505092915050565b6000614fbb8383614f91565b9150826002028217905092915050565b614fd482613f8a565b67ffffffffffffffff811115614fed57614fec614161565b5b614ff78254614b1a565b615002828285614f3e565b600060209050601f8311600181146150355760008415615023578287015190505b61502d8582614faf565b865550615095565b601f19841661504386614e1f565b60005b8281101561506b57848901518255600182019150602085019450602081019050615046565b868310156150885784890151615084601f891682614f91565b8355505b6001600288020188555050505b505050505050565b600060a0820190506150b2600083018861406e565b6150bf602083018761406e565b6150cc6040830186614700565b6150d96060830185614700565b6150e66080830184613efd565b9695505050505050565b7f4552433732313a2063616c6c6572206973206e6f7420746f6b656e206f776e6560008201527f72206f7220617070726f76656400000000000000000000000000000000000000602082015250565b600061514c602d83613f95565b9150615157826150f0565b604082019050919050565b6000602082019050818103600083015261517b8161513f565b9050919050565b7f596f7520617265206e6f7420746865206275796572206f66207468697320617360008201527f7365740000000000000000000000000000000000000000000000000000000000602082015250565b60006151de602383613f95565b91506151e982615182565b604082019050919050565b6000602082019050818103600083015261520d816151d1565b9050919050565b60008154905061522381614b1a565b9050919050565b818103615238575050615310565b61524182615214565b67ffffffffffffffff81111561525a57615259614161565b5b6152648254614b1a565b61526f828285614f3e565b6000601f83116001811461529e576000841561528c578287015490505b6152968582614faf565b865550615309565b601f1984166152ac87614e1f565b96506152b786614e1f565b60005b828110156152df578489015482556001820191506001850194506020810190506152ba565b868310156152fc57848901546152f8601f891682614f91565b8355505b6001600288020188555050505b5050505050505b565b61531b81614414565b82525050565b60006040820190506153366000830185615312565b6153436020830184615312565b9392505050565b7f5469746c65206d7573742062652067726561746572207468616e203000000000600082015250565b6000615380601c83613f95565b915061538b8261534a565b602082019050919050565b600060208201905081810360008301526153af81615373565b9050919050565b7f496d6167652063616e6e6f7420626520656d7074790000000000000000000000600082015250565b60006153ec601583613f95565b91506153f7826153b6565b602082019050919050565b6000602082019050818103600083015261541b816153df565b9050919050565b600081905092915050565b600061543882613f8a565b6154428185615422565b9350615452818560208601613fa6565b80840191505092915050565b600061546a828461542d565b915081905092915050565b7f417373657420616c726561647920657869737400000000000000000000000000600082015250565b60006154ab601383613f95565b91506154b682615475565b602082019050919050565b600060208201905081810360008301526154da8161549e565b9050919050565b7f4e487b7100000000000000000000000000000000000000000000000000000000600052601160045260246000fd5b600061551b82613f27565b91507fffffffffffffffffffffffffffffffffffffffffffffffffffffffffffffffff820361554d5761554c6154e1565b5b600182019050919050565b600060808201905061556d600083018761406e565b818103602083015261557f8186613fe1565b905061558e6040830185614700565b61559b6060830184614700565b95945050505050565b7f4552433732313a20696e76616c696420746f6b656e2049440000000000000000600082015250565b60006155da601883613f95565b91506155e5826155a4565b602082019050919050565b60006020820190508181036000830152615609816155cd565b9050919050565b7f4552433732313a2061646472657373207a65726f206973206e6f74206120766160008201527f6c6964206f776e65720000000000000000000000000000000000000000000000602082015250565b600061566c602983613f95565b915061567782615610565b604082019050919050565b6000602082019050818103600083015261569b8161565f565b9050919050565b7f6f6e6c7920746865206f776e65722063616e2072656c65617365204173736574600082015250565b60006156d8602083613f95565b91506156e3826156a2565b602082019050919050565b60006020820190508181036000830152615707816156cb565b9050919050565b7f417373657420697320756e646572676f696e67204e65676f74696174696f6e00600082015250565b6000615744601f83613f95565b915061574f8261570e565b602082019050919050565b6000602082019050818103600083015261577381615737565b9050919050565b7f4f6e6c79207468652062757965722063616e2063616c6c20746869732066756e60008201527f6374696f6e000000000000000000000000000000000000000000000000000000602082015250565b60006157d6602583613f95565b91506157e18261577a565b604082019050919050565b60006020820190508181036000830152615805816157c9565b9050919050565b60008154905061581b81614b1a565b9050919050565b60008190508160005260206000209050919050565b81810361584557505061591d565b61584e8261580c565b67ffffffffffffffff81111561586757615866614161565b5b6158718254614b1a565b61587c828285614f3e565b6000601f8311600181146158ab5760008415615899578287015490505b6158a38582614faf565b865550615916565b601f1984166158b987615822565b96506158c486614e1f565b60005b828110156158ec578489015482556001820191506001850194506020810190506158c7565b868310156159095784890154615905601f891682614f91565b8355505b6001600288020188555050505b5050505050505b565b6000815461592c81614b1a565b6159368186613f95565b9450600182166000811461595157600181146159675761599a565b60ff19831686528115156020028601935061599a565b61597085614e1f565b60005b8381101561599257815481890152600182019150602081019050615973565b808801955050505b50505092915050565b600060a0820190506159b8600083018861406e565b6159c5602083018761406e565b6159d26040830186614700565b81810360608301526159e4818561591f565b90506159f36080830184614700565b9695505050505050565b6000604082019050615a126000830185613efd565b615a1f6020830184615312565b9392505050565b6000615a32828561542d565b9150615a3e828461542d565b91508190509392505050565b600081905092915050565b50565b6000615a65600083615a4a565b9150615a7082615a55565b600082019050919050565b6000615a8682615a58565b9150819050919050565b7f4661696c656420746f2073656e64204574686572000000000000000000000000600082015250565b6000615ac6601483613f95565b9150615ad182615a90565b602082019050919050565b60006020820190508181036000830152615af581615ab9565b9050919050565b7f5265656e7472616e637947756172643a207265656e7472616e742063616c6c00600082015250565b6000615b32601f83613f95565b9150615b3d82615afc565b602082019050919050565b60006020820190508181036000830152615b6181615b25565b9050919050565b7f4552433732313a207472616e736665722066726f6d20696e636f72726563742060008201527f6f776e6572000000000000000000000000000000000000000000000000000000602082015250565b6000615bc4602583613f95565b9150615bcf82615b68565b604082019050919050565b60006020820190508181036000830152615bf381615bb7565b9050919050565b7f4552433732313a207472616e7366657220746f20746865207a65726f2061646460008201527f7265737300000000000000000000000000000000000000000000000000000000602082015250565b6000615c56602483613f95565b9150615c6182615bfa565b604082019050919050565b60006020820190508181036000830152615c8581615c49565b9050919050565b7f4552433732313a20617070726f766520746f2063616c6c657200000000000000600082015250565b6000615cc2601983613f95565b9150615ccd82615c8c565b602082019050919050565b60006020820190508181036000830152615cf181615cb5565b9050919050565b7f4552433732313a207472616e7366657220746f206e6f6e20455243373231526560008201527f63656976657220696d706c656d656e7465720000000000000000000000000000602082015250565b6000615d54603283613f95565b9150615d5f82615cf8565b604082019050919050565b60006020820190508181036000830152615d8381615d47565b9050919050565b7f4e487b7100000000000000000000000000000000000000000000000000000000600052601260045260246000fd5b600081519050919050565b600082825260208201905092915050565b6000615de082615db9565b615dea8185615dc4565b9350615dfa818560208601613fa6565b615e0381613fd0565b840191505092915050565b6000608082019050615e23600083018761406e565b615e30602083018661406e565b615e3d6040830185614700565b8181036060830152615e4f8184615dd5565b905095945050505050565b600081519050615e6981613e98565b92915050565b600060208284031215615e8557615e84613e62565b5b6000615e9384828501615e5a565b91505092915050565b7f4552433732313a206d696e7420746f20746865207a65726f2061646472657373600082015250565b6000615ed2602083613f95565b9150615edd82615e9c565b602082019050919050565b60006020820190508181036000830152615f0181615ec5565b9050919050565b7f4552433732313a20746f6b656e20616c7265616479206d696e74656400000000600082015250565b6000615f3e601c83613f95565b9150615f4982615f08565b602082019050919050565b60006020820190508181036000830152615f6d81615f31565b905091905056fea26469706673582212205ad6c23580a717c2c6a7ebdf233fb66207a4782a019052da68f8700697b06b6e64736f6c63430008110033",
  "linkReferences": {},
  "deployedLinkReferences": {}
}