{
  "_format": "hh-sol-artifact-1",
  "contractName": "EasyAsset",
  "sourceName": "contracts/EasyAsset.sol",
  "abi": [
    {
      "inputs": [
        {
          "internalType": "string",
          "name": "_name",
          "type": "string"
        },
        {
          "internalType": "string",
          "name": "_symbol",
          "type": "string"
        }
      ],
      "stateMutability": "nonpayable",
      "type": "constructor"
    },
    {
      "anonymous": false,
      "inputs": [
        {
          "indexed": false,
          "internalType": "address",
          "name": "buyer",
          "type": "address"
        },
        {
          "indexed": false,
          "internalType": "address",
          "name": "seller",
          "type": "address"
        },
        {
          "indexed": false,
          "internalType": "uint256",
          "name": "timestamp",
          "type": "uint256"
        },
        {
          "indexed": false,
          "internalType": "uint256",
          "name": "amount",
          "type": "uint256"
        },
        {
          "indexed": false,
          "internalType": "bool",
          "name": "paid",
          "type": "bool"
        }
      ],
      "name": "Action",
      "type": "event"
    },
    {
      "anonymous": false,
      "inputs": [
        {
          "indexed": true,
          "internalType": "address",
          "name": "owner",
          "type": "address"
        },
        {
          "indexed": true,
          "internalType": "address",
          "name": "approved",
          "type": "address"
        },
        {
          "indexed": true,
          "internalType": "uint256",
          "name": "tokenId",
          "type": "uint256"
        }
      ],
      "name": "Approval",
      "type": "event"
    },
    {
      "anonymous": false,
      "inputs": [
        {
          "indexed": true,
          "internalType": "address",
          "name": "owner",
          "type": "address"
        },
        {
          "indexed": true,
          "internalType": "address",
          "name": "operator",
          "type": "address"
        },
        {
          "indexed": false,
          "internalType": "bool",
          "name": "approved",
          "type": "bool"
        }
      ],
      "name": "ApprovalForAll",
      "type": "event"
    },
    {
      "anonymous": false,
      "inputs": [
        {
          "indexed": true,
          "internalType": "address",
          "name": "from",
          "type": "address"
        },
        {
          "indexed": true,
          "internalType": "address",
          "name": "to",
          "type": "address"
        },
        {
          "indexed": true,
          "internalType": "uint256",
          "name": "tokenId",
          "type": "uint256"
        }
      ],
      "name": "Transfer",
      "type": "event"
    },
    {
      "anonymous": false,
      "inputs": [
        {
          "indexed": false,
          "internalType": "address",
          "name": "owner",
          "type": "address"
        },
        {
          "indexed": true,
          "internalType": "uint256",
          "name": "id",
          "type": "uint256"
        },
        {
          "indexed": false,
          "internalType": "string",
          "name": "credential",
          "type": "string"
        },
        {
          "indexed": false,
          "internalType": "uint256",
          "name": "timestamp",
          "type": "uint256"
        },
        {
          "indexed": false,
          "internalType": "uint256",
          "name": "price",
          "type": "uint256"
        }
      ],
      "name": "assetCreation",
      "type": "event"
    },
    {
      "anonymous": false,
      "inputs": [
        {
          "indexed": false,
          "internalType": "address",
          "name": "from",
          "type": "address"
        },
        {
          "indexed": false,
          "internalType": "address",
          "name": "to",
          "type": "address"
        },
        {
          "indexed": false,
          "internalType": "uint256",
          "name": "tokenId",
          "type": "uint256"
        },
        {
          "indexed": false,
          "internalType": "string",
          "name": "credential",
          "type": "string"
        },
        {
          "indexed": false,
          "internalType": "uint256",
          "name": "timestamp",
          "type": "uint256"
        }
      ],
      "name": "assetTransfer",
      "type": "event"
    },
    {
      "anonymous": false,
      "inputs": [
        {
          "indexed": false,
          "internalType": "enum EasyAsset.assetStatus",
          "name": "",
          "type": "uint8"
        },
        {
          "indexed": false,
          "internalType": "enum EasyAsset.assetStatus",
          "name": "",
          "type": "uint8"
        }
      ],
      "name": "refundAction",
      "type": "event"
    },
    {
      "inputs": [
        {
          "internalType": "uint256",
          "name": "id",
          "type": "uint256"
        }
      ],
      "name": "Probe",
      "outputs": [],
      "stateMutability": "nonpayable",
      "type": "function"
    },
    {
      "inputs": [
        {
          "internalType": "address",
          "name": "to",
          "type": "address"
        },
        {
          "internalType": "uint256",
          "name": "tokenId",
          "type": "uint256"
        }
      ],
      "name": "approve",
      "outputs": [],
      "stateMutability": "nonpayable",
      "type": "function"
    },
    {
      "inputs": [
        {
          "internalType": "address",
          "name": "owner",
          "type": "address"
        }
      ],
      "name": "balanceOf",
      "outputs": [
        {
          "internalType": "uint256",
          "name": "",
          "type": "uint256"
        }
      ],
      "stateMutability": "view",
      "type": "function"
    },
    {
      "inputs": [
        {
          "internalType": "uint256",
          "name": "id",
          "type": "uint256"
        }
      ],
      "name": "buyAsset",
      "outputs": [],
      "stateMutability": "payable",
      "type": "function"
    },
    {
      "inputs": [
        {
          "internalType": "uint256",
          "name": "id",
          "type": "uint256"
        }
      ],
      "name": "confirm",
      "outputs": [],
      "stateMutability": "nonpayable",
      "type": "function"
    },
    {
      "inputs": [
        {
          "internalType": "string",
          "name": "title",
          "type": "string"
        },
        {
          "internalType": "string",
          "name": "description",
          "type": "string"
        },
        {
          "internalType": "string",
          "name": "credential",
          "type": "string"
        },
        {
          "internalType": "uint256",
          "name": "price",
          "type": "uint256"
        }
      ],
      "name": "createAsset",
      "outputs": [
        {
          "internalType": "bool",
          "name": "",
          "type": "bool"
        }
      ],
      "stateMutability": "nonpayable",
      "type": "function"
    },
    {
      "inputs": [
        {
          "internalType": "uint256",
          "name": "tokenId",
          "type": "uint256"
        }
      ],
      "name": "getApproved",
      "outputs": [
        {
          "internalType": "address",
          "name": "",
          "type": "address"
        }
      ],
      "stateMutability": "view",
      "type": "function"
    },
    {
      "inputs": [
        {
          "internalType": "uint256",
          "name": "_id",
          "type": "uint256"
        }
      ],
      "name": "getAsset",
      "outputs": [
        {
          "components": [
            {
              "internalType": "address",
              "name": "seller",
              "type": "address"
            },
            {
              "internalType": "uint256",
              "name": "id",
              "type": "uint256"
            },
            {
              "internalType": "string",
              "name": "title",
              "type": "string"
            },
            {
              "internalType": "string",
              "name": "description",
              "type": "string"
            },
            {
              "internalType": "string",
              "name": "credential",
              "type": "string"
            },
            {
              "internalType": "uint256",
              "name": "timestamp",
              "type": "uint256"
            },
            {
              "internalType": "uint256",
              "name": "price",
              "type": "uint256"
            },
            {
              "internalType": "bool",
              "name": "probe",
              "type": "bool"
            },
            {
              "internalType": "bool",
              "name": "bought",
              "type": "bool"
            },
            {
              "internalType": "enum EasyAsset.assetStatus",
              "name": "status",
              "type": "uint8"
            }
          ],
          "internalType": "struct EasyAsset.Asset",
          "name": "",
          "type": "tuple"
        }
      ],
      "stateMutability": "view",
      "type": "function"
    },
    {
      "inputs": [],
      "name": "getAssets",
      "outputs": [
        {
          "components": [
            {
              "internalType": "address",
              "name": "seller",
              "type": "address"
            },
            {
              "internalType": "uint256",
              "name": "id",
              "type": "uint256"
            },
            {
              "internalType": "string",
              "name": "title",
              "type": "string"
            },
            {
              "internalType": "string",
              "name": "description",
              "type": "string"
            },
            {
              "internalType": "string",
              "name": "credential",
              "type": "string"
            },
            {
              "internalType": "uint256",
              "name": "timestamp",
              "type": "uint256"
            },
            {
              "internalType": "uint256",
              "name": "price",
              "type": "uint256"
            },
            {
              "internalType": "bool",
              "name": "probe",
              "type": "bool"
            },
            {
              "internalType": "bool",
              "name": "bought",
              "type": "bool"
            },
            {
              "internalType": "enum EasyAsset.assetStatus",
              "name": "status",
              "type": "uint8"
            }
          ],
          "internalType": "struct EasyAsset.Asset[]",
          "name": "",
          "type": "tuple[]"
        }
      ],
      "stateMutability": "view",
      "type": "function"
    },
    {
      "inputs": [
        {
          "internalType": "uint256",
          "name": "buyerId",
          "type": "uint256"
        }
      ],
      "name": "getBuyer",
      "outputs": [
        {
          "components": [
            {
              "internalType": "uint256",
              "name": "id",
              "type": "uint256"
            },
            {
              "internalType": "address",
              "name": "owner",
              "type": "address"
            },
            {
              "internalType": "uint256",
              "name": "amountpaid",
              "type": "uint256"
            },
            {
              "internalType": "uint256",
              "name": "timestamp",
              "type": "uint256"
            },
            {
              "internalType": "bool",
              "name": "paid",
              "type": "bool"
            },
            {
              "internalType": "bool",
              "name": "checked",
              "type": "bool"
            },
            {
              "internalType": "string",
              "name": "credential",
              "type": "string"
            },
            {
              "internalType": "enum EasyAsset.assetStatus",
              "name": "status",
              "type": "uint8"
            }
          ],
          "internalType": "struct EasyAsset.buyer",
          "name": "",
          "type": "tuple"
        }
      ],
      "stateMutability": "view",
      "type": "function"
    },
    {
      "inputs": [
        {
          "internalType": "address",
          "name": "owner",
          "type": "address"
        },
        {
          "internalType": "address",
          "name": "operator",
          "type": "address"
        }
      ],
      "name": "isApprovedForAll",
      "outputs": [
        {
          "internalType": "bool",
          "name": "",
          "type": "bool"
        }
      ],
      "stateMutability": "view",
      "type": "function"
    },
    {
      "inputs": [],
      "name": "name",
      "outputs": [
        {
          "internalType": "string",
          "name": "",
          "type": "string"
        }
      ],
      "stateMutability": "view",
      "type": "function"
    },
    {
      "inputs": [],
      "name": "owner",
      "outputs": [
        {
          "internalType": "address",
          "name": "",
          "type": "address"
        }
      ],
      "stateMutability": "view",
      "type": "function"
    },
    {
      "inputs": [
        {
          "internalType": "uint256",
          "name": "tokenId",
          "type": "uint256"
        }
      ],
      "name": "ownerOf",
      "outputs": [
        {
          "internalType": "address",
          "name": "",
          "type": "address"
        }
      ],
      "stateMutability": "view",
      "type": "function"
    },
    {
      "inputs": [
        {
          "internalType": "uint256",
          "name": "id",
          "type": "uint256"
        }
      ],
      "name": "refund",
      "outputs": [],
      "stateMutability": "nonpayable",
      "type": "function"
    },
    {
      "inputs": [
        {
          "internalType": "uint256",
          "name": "id",
          "type": "uint256"
        }
      ],
      "name": "releaseAsset",
      "outputs": [],
      "stateMutability": "nonpayable",
      "type": "function"
    },
    {
      "inputs": [
        {
          "internalType": "address",
          "name": "from",
          "type": "address"
        },
        {
          "internalType": "address",
          "name": "to",
          "type": "address"
        },
        {
          "internalType": "uint256",
          "name": "tokenId",
          "type": "uint256"
        }
      ],
      "name": "safeTransferFrom",
      "outputs": [],
      "stateMutability": "nonpayable",
      "type": "function"
    },
    {
      "inputs": [
        {
          "internalType": "address",
          "name": "from",
          "type": "address"
        },
        {
          "internalType": "address",
          "name": "to",
          "type": "address"
        },
        {
          "internalType": "uint256",
          "name": "tokenId",
          "type": "uint256"
        },
        {
          "internalType": "bytes",
          "name": "data",
          "type": "bytes"
        }
      ],
      "name": "safeTransferFrom",
      "outputs": [],
      "stateMutability": "nonpayable",
      "type": "function"
    },
    {
      "inputs": [
        {
          "internalType": "address",
          "name": "operator",
          "type": "address"
        },
        {
          "internalType": "bool",
          "name": "approved",
          "type": "bool"
        }
      ],
      "name": "setApprovalForAll",
      "outputs": [],
      "stateMutability": "nonpayable",
      "type": "function"
    },
    {
      "inputs": [
        {
          "internalType": "bytes4",
          "name": "interfaceId",
          "type": "bytes4"
        }
      ],
      "name": "supportsInterface",
      "outputs": [
        {
          "internalType": "bool",
          "name": "",
          "type": "bool"
        }
      ],
      "stateMutability": "view",
      "type": "function"
    },
    {
      "inputs": [],
      "name": "symbol",
      "outputs": [
        {
          "internalType": "string",
          "name": "",
          "type": "string"
        }
      ],
      "stateMutability": "view",
      "type": "function"
    },
    {
      "inputs": [
        {
          "internalType": "uint256",
          "name": "tokenId",
          "type": "uint256"
        }
      ],
      "name": "tokenURI",
      "outputs": [
        {
          "internalType": "string",
          "name": "",
          "type": "string"
        }
      ],
      "stateMutability": "view",
      "type": "function"
    },
    {
      "inputs": [
        {
          "internalType": "address",
          "name": "from",
          "type": "address"
        },
        {
          "internalType": "address",
          "name": "to",
          "type": "address"
        },
        {
          "internalType": "uint256",
          "name": "tokenId",
          "type": "uint256"
        }
      ],
      "name": "transferFrom",
      "outputs": [],
      "stateMutability": "nonpayable",
      "type": "function"
    }
  ],
  "bytecode": "0x60806040523480156200001157600080fd5b506040516200606c3803806200606c833981810160405281019062000037919062000243565b818181600090816200004a919062000513565b5080600190816200005c919062000513565b505050600160068190555033600f60006101000a81548173ffffffffffffffffffffffffffffffffffffffff021916908373ffffffffffffffffffffffffffffffffffffffff1602179055505050620005fa565b6000604051905090565b600080fd5b600080fd5b600080fd5b600080fd5b6000601f19601f8301169050919050565b7f4e487b7100000000000000000000000000000000000000000000000000000000600052604160045260246000fd5b6200011982620000ce565b810181811067ffffffffffffffff821117156200013b576200013a620000df565b5b80604052505050565b600062000150620000b0565b90506200015e82826200010e565b919050565b600067ffffffffffffffff821115620001815762000180620000df565b5b6200018c82620000ce565b9050602081019050919050565b60005b83811015620001b95780820151818401526020810190506200019c565b60008484015250505050565b6000620001dc620001d68462000163565b62000144565b905082815260208101848484011115620001fb57620001fa620000c9565b5b6200020884828562000199565b509392505050565b600082601f830112620002285762000227620000c4565b5b81516200023a848260208601620001c5565b91505092915050565b600080604083850312156200025d576200025c620000ba565b5b600083015167ffffffffffffffff8111156200027e576200027d620000bf565b5b6200028c8582860162000210565b925050602083015167ffffffffffffffff811115620002b057620002af620000bf565b5b620002be8582860162000210565b9150509250929050565b600081519050919050565b7f4e487b7100000000000000000000000000000000000000000000000000000000600052602260045260246000fd5b600060028204905060018216806200031b57607f821691505b602082108103620003315762000330620002d3565b5b50919050565b60008190508160005260206000209050919050565b60006020601f8301049050919050565b600082821b905092915050565b6000600883026200039b7fffffffffffffffffffffffffffffffffffffffffffffffffffffffffffffffff826200035c565b620003a786836200035c565b95508019841693508086168417925050509392505050565b6000819050919050565b6000819050919050565b6000620003f4620003ee620003e884620003bf565b620003c9565b620003bf565b9050919050565b6000819050919050565b6200041083620003d3565b620004286200041f82620003fb565b84845462000369565b825550505050565b600090565b6200043f62000430565b6200044c81848462000405565b505050565b5b8181101562000474576200046860008262000435565b60018101905062000452565b5050565b601f821115620004c3576200048d8162000337565b62000498846200034c565b81016020851015620004a8578190505b620004c0620004b7856200034c565b83018262000451565b50505b505050565b600082821c905092915050565b6000620004e860001984600802620004c8565b1980831691505092915050565b6000620005038383620004d5565b9150826002028217905092915050565b6200051e82620002c8565b67ffffffffffffffff8111156200053a5762000539620000df565b5b62000546825462000302565b6200055382828562000478565b600060209050601f8311600181146200058b576000841562000576578287015190505b620005828582620004f5565b865550620005f2565b601f1984166200059b8662000337565b60005b82811015620005c5578489015182556001820191506020850194506020810190506200059e565b86831015620005e55784890151620005e1601f891682620004d5565b8355505b6001600288020188555050505b505050505050565b615a62806200060a6000396000f3fe6080604052600436106101405760003560e01c80636352211e116100b6578063a22cb4651161006f578063a22cb46514610471578063b88d4fde1461049a578063ba0179b5146104c3578063c87b56dd146104ec578063e985e9c514610529578063eac8f5b81461056657610140565b80636352211e1461034d57806367e4ac2c1461038a57806370a08231146103b55780638da5cb5b146103f25780639010ce971461041d57806395d89b411461044657610140565b8063110d35b811610108578063110d35b81461023c57806323b872dd14610258578063278ecde114610281578063369d8138146102aa57806342842e0e146102e75780635bf608b81461031057610140565b806301ffc9a71461014557806304e98cef1461018257806306fdde03146101ab578063081812fc146101d6578063095ea7b314610213575b600080fd5b34801561015157600080fd5b5061016c60048036038101906101679190613853565b6105a3565b604051610179919061389b565b60405180910390f35b34801561018e57600080fd5b506101a960048036038101906101a491906138ec565b610685565b005b3480156101b757600080fd5b506101c06108a4565b6040516101cd91906139a9565b60405180910390f35b3480156101e257600080fd5b506101fd60048036038101906101f891906138ec565b610936565b60405161020a9190613a0c565b60405180910390f35b34801561021f57600080fd5b5061023a60048036038101906102359190613a53565b61097c565b005b610256600480360381019061025191906138ec565b610a93565b005b34801561026457600080fd5b5061027f600480360381019061027a9190613a93565b610f43565b005b34801561028d57600080fd5b506102a860048036038101906102a391906138ec565b610fa3565b005b3480156102b657600080fd5b506102d160048036038101906102cc9190613c1b565b611254565b6040516102de919061389b565b60405180910390f35b3480156102f357600080fd5b5061030e60048036038101906103099190613a93565b6116d8565b005b34801561031c57600080fd5b50610337600480360381019061033291906138ec565b6116f8565b6040516103449190613e74565b60405180910390f35b34801561035957600080fd5b50610374600480360381019061036f91906138ec565b61189d565b6040516103819190613a0c565b60405180910390f35b34801561039657600080fd5b5061039f611923565b6040516103ac9190614040565b60405180910390f35b3480156103c157600080fd5b506103dc60048036038101906103d79190614062565b611c1e565b6040516103e9919061409e565b60405180910390f35b3480156103fe57600080fd5b50610407611cd5565b6040516104149190613a0c565b60405180910390f35b34801561042957600080fd5b50610444600480360381019061043f91906138ec565b611cfb565b005b34801561045257600080fd5b5061045b611e7c565b60405161046891906139a9565b60405180910390f35b34801561047d57600080fd5b50610498600480360381019061049391906140e5565b611f0e565b005b3480156104a657600080fd5b506104c160048036038101906104bc91906141c6565b611f24565b005b3480156104cf57600080fd5b506104ea60048036038101906104e591906138ec565b611f86565b005b3480156104f857600080fd5b50610513600480360381019061050e91906138ec565b61244b565b60405161052091906139a9565b60405180910390f35b34801561053557600080fd5b50610550600480360381019061054b9190614249565b6124b3565b60405161055d919061389b565b60405180910390f35b34801561057257600080fd5b5061058d600480360381019061058891906138ec565b612547565b60405161059a9190614371565b60405180910390f35b60007f80ac58cd000000000000000000000000000000000000000000000000000000007bffffffffffffffffffffffffffffffffffffffffffffffffffffffff1916827bffffffffffffffffffffffffffffffffffffffffffffffffffffffff1916148061066e57507f5b5e139f000000000000000000000000000000000000000000000000000000007bffffffffffffffffffffffffffffffffffffffffffffffffffffffff1916827bffffffffffffffffffffffffffffffffffffffffffffffffffffffff1916145b8061067e575061067d8261281f565b5b9050919050565b600f60009054906101000a900473ffffffffffffffffffffffffffffffffffffffff1673ffffffffffffffffffffffffffffffffffffffff163373ffffffffffffffffffffffffffffffffffffffff161480156107125750600a81815481106106f1576106f0614393565b5b906000526020600020906008020160070160009054906101000a900460ff16155b610751576040517f08c379a00000000000000000000000000000000000000000000000000000000081526004016107489061445a565b60405180910390fd5b6001600a828154811061076757610766614393565b5b906000526020600020906008020160070160006101000a81548160ff021916908315150217905550600160048111156107a3576107a2613d4d565b5b600a82815481106107b7576107b6614393565b5b906000526020600020906008020160070160029054906101000a900460ff1660048111156107e8576107e7613d4d565b5b03610853576108526009600083815260200190815260200160002060010160009054906101000a900473ffffffffffffffffffffffffffffffffffffffff16600a838154811061083b5761083a614393565b5b906000526020600020906008020160060154612889565b5b6002600a828154811061086957610868614393565b5b906000526020600020906008020160070160026101000a81548160ff0219169083600481111561089c5761089b613d4d565b5b021790555050565b6060600080546108b3906144a9565b80601f01602080910402602001604051908101604052809291908181526020018280546108df906144a9565b801561092c5780601f106109015761010080835404028352916020019161092c565b820191906000526020600020905b81548152906001019060200180831161090f57829003601f168201915b5050505050905090565b60006109418261293a565b6004600083815260200190815260200160002060009054906101000a900473ffffffffffffffffffffffffffffffffffffffff169050919050565b60006109878261189d565b90508073ffffffffffffffffffffffffffffffffffffffff168373ffffffffffffffffffffffffffffffffffffffff16036109f7576040517f08c379a00000000000000000000000000000000000000000000000000000000081526004016109ee9061454c565b60405180910390fd5b8073ffffffffffffffffffffffffffffffffffffffff16610a16612985565b73ffffffffffffffffffffffffffffffffffffffff161480610a455750610a4481610a3f612985565b6124b3565b5b610a84576040517f08c379a0000000000000000000000000000000000000000000000000000000008152600401610a7b906145de565b60405180910390fd5b610a8e838361298d565b505050565b610a9b612a46565b60006004811115610aaf57610aae613d4d565b5b600a8281548110610ac357610ac2614393565b5b906000526020600020906008020160070160029054906101000a900460ff166004811115610af457610af3613d4d565b5b14610b34576040517f08c379a0000000000000000000000000000000000000000000000000000000008152600401610b2b9061464a565b60405180910390fd5b600a8181548110610b4857610b47614393565b5b906000526020600020906008020160000160009054906101000a900473ffffffffffffffffffffffffffffffffffffffff1673ffffffffffffffffffffffffffffffffffffffff163373ffffffffffffffffffffffffffffffffffffffff1603610be7576040517f08c379a0000000000000000000000000000000000000000000000000000000008152600401610bde906146b6565b60405180910390fd5b600e600082815260200190815260200160002060009054906101000a900460ff16610c47576040517f08c379a0000000000000000000000000000000000000000000000000000000008152600401610c3e90614722565b60405180910390fd5b600a8181548110610c5b57610c5a614393565b5b9060005260206000209060080201600601543414610cae576040517f08c379a0000000000000000000000000000000000000000000000000000000008152600401610ca59061478e565b60405180910390fd5b6040518061010001604052808281526020013373ffffffffffffffffffffffffffffffffffffffff16815260200134815260200142815260200160011515815260200160001515815260200160405180602001604052806000815250815260200160006004811115610d2357610d22613d4d565b5b815250600960008381526020019081526020016000206000820151816000015560208201518160010160006101000a81548173ffffffffffffffffffffffffffffffffffffffff021916908373ffffffffffffffffffffffffffffffffffffffff160217905550604082015181600201556060820151816003015560808201518160040160006101000a81548160ff02191690831515021790555060a08201518160040160016101000a81548160ff02191690831515021790555060c0820151816005019081610df3919061495a565b5060e08201518160060160006101000a81548160ff02191690836004811115610e1f57610e1e613d4d565b5b02179055509050506001600a8281548110610e3d57610e3c614393565b5b906000526020600020906008020160070160016101000a81548160ff0219169083151502179055507f2018a69277a3b64014d178d92da02c971e68f2f7d89f996327e9757f49c433ba33600a8381548110610e9b57610e9a614393565b5b906000526020600020906008020160000160009054906101000a900473ffffffffffffffffffffffffffffffffffffffff1642346001604051610ee2959493929190614a2c565b60405180910390a16001600a8281548110610f0057610eff614393565b5b906000526020600020906008020160070160026101000a81548160ff02191690836004811115610f3357610f32613d4d565b5b0217905550610f40612a95565b50565b610f54610f4e612985565b82612a9f565b610f93576040517f08c379a0000000000000000000000000000000000000000000000000000000008152600401610f8a90614af1565b60405180910390fd5b610f9e838383612b34565b505050565b6009600082815260200190815260200160002060010160009054906101000a900473ffffffffffffffffffffffffffffffffffffffff1673ffffffffffffffffffffffffffffffffffffffff163373ffffffffffffffffffffffffffffffffffffffff1614611047576040517f08c379a000000000000000000000000000000000000000000000000000000000815260040161103e90614b5d565b60405180910390fd5b6000600481111561105b5761105a613d4d565b5b6009600083815260200190815260200160002060060160009054906101000a900460ff16600481111561109157611090613d4d565b5b146110d1576040517f08c379a00000000000000000000000000000000000000000000000000000000081526004016110c890614bc9565b60405180910390fd5b6111366009600083815260200190815260200160002060010160009054906101000a900473ffffffffffffffffffffffffffffffffffffffff16600a838154811061111f5761111e614393565b5b906000526020600020906008020160060154612889565b6000600a828154811061114c5761114b614393565b5b906000526020600020906008020160070160026101000a81548160ff0219169083600481111561117f5761117e613d4d565b5b021790555060036009600083815260200190815260200160002060060160006101000a81548160ff021916908360048111156111be576111bd613d4d565b5b02179055507f84d7f04dfb80e682ae7d14070ec2154d4184eae42887cb5fe7747d6ccbadc21c600a82815481106111f8576111f7614393565b5b906000526020600020906008020160070160029054906101000a900460ff166009600084815260200190815260200160002060060160009054906101000a900460ff16604051611249929190614bf8565b60405180910390a150565b600080855111611299576040517f08c379a000000000000000000000000000000000000000000000000000000000815260040161129090614c6d565b60405180910390fd5b60008451116112dd576040517f08c379a00000000000000000000000000000000000000000000000000000000081526004016112d490614cd9565b60405180910390fd5b6000835111611321576040517f08c379a000000000000000000000000000000000000000000000000000000000815260040161131890614d45565b60405180910390fd5b60008211611364576040517f08c379a000000000000000000000000000000000000000000000000000000000815260040161135b90614db1565b60405180910390fd5b600d836040516113749190614e0d565b908152602001604051809103902060009054906101000a900460ff16156113d0576040517f08c379a00000000000000000000000000000000000000000000000000000000081526004016113c790614e70565b60405180910390fd5b6000600760008154809291906113e590614ebf565b9190505590506000600b60008381526020019081526020016000209050338160000160006101000a81548173ffffffffffffffffffffffffffffffffffffffff021916908373ffffffffffffffffffffffffffffffffffffffff1602179055508181600101819055508681600201908161145f919061495a565b5085816003019081611471919061495a565b5084816004019081611483919061495a565b50428160050181905550838160060181905550600a8190806001815401808255809150506001900390600052602060002090600802016000909190919091506000820160009054906101000a900473ffffffffffffffffffffffffffffffffffffffff168160000160006101000a81548173ffffffffffffffffffffffffffffffffffffffff021916908373ffffffffffffffffffffffffffffffffffffffff16021790555060018201548160010155600282018160020190816115479190614f1d565b506003820181600301908161155c9190614f1d565b50600482018160040190816115719190614f1d565b5060058201548160050155600682015481600601556007820160009054906101000a900460ff168160070160006101000a81548160ff0219169083151502179055506007820160019054906101000a900460ff168160070160016101000a81548160ff0219169083151502179055506007820160029054906101000a900460ff168160070160026101000a81548160ff0219169083600481111561161857611617613d4d565b5b021790555050506001600d866040516116319190614e0d565b908152602001604051809103902060006101000a81548160ff0219169083151502179055506001600e600084815260200190815260200160002060006101000a81548160ff021916908315150217905550817f1bd34f5070969faf7c075ecf37c24f973b7c3a11714bbb362e90c5284f96cf5b338742886040516116b89493929190615005565b60405180910390a26116ca3383612e2d565b600192505050949350505050565b6116f383838360405180602001604052806000815250611f24565b505050565b6117006136f7565b6009600083815260200190815260200160002060405180610100016040529081600082015481526020016001820160009054906101000a900473ffffffffffffffffffffffffffffffffffffffff1673ffffffffffffffffffffffffffffffffffffffff1673ffffffffffffffffffffffffffffffffffffffff16815260200160028201548152602001600382015481526020016004820160009054906101000a900460ff161515151581526020016004820160019054906101000a900460ff161515151581526020016005820180546117d9906144a9565b80601f0160208091040260200160405190810160405280929190818152602001828054611805906144a9565b80156118525780601f1061182757610100808354040283529160200191611852565b820191906000526020600020905b81548152906001019060200180831161183557829003601f168201915b505050505081526020016006820160009054906101000a900460ff1660048111156118805761187f613d4d565b5b600481111561189257611891613d4d565b5b815250509050919050565b6000806118a983612e4b565b9050600073ffffffffffffffffffffffffffffffffffffffff168173ffffffffffffffffffffffffffffffffffffffff160361191a576040517f08c379a00000000000000000000000000000000000000000000000000000000081526004016119119061509d565b60405180910390fd5b80915050919050565b6060600a805480602002602001604051908101604052809291908181526020016000905b82821015611c155783829060005260206000209060080201604051806101400160405290816000820160009054906101000a900473ffffffffffffffffffffffffffffffffffffffff1673ffffffffffffffffffffffffffffffffffffffff1673ffffffffffffffffffffffffffffffffffffffff168152602001600182015481526020016002820180546119db906144a9565b80601f0160208091040260200160405190810160405280929190818152602001828054611a07906144a9565b8015611a545780601f10611a2957610100808354040283529160200191611a54565b820191906000526020600020905b815481529060010190602001808311611a3757829003601f168201915b50505050508152602001600382018054611a6d906144a9565b80601f0160208091040260200160405190810160405280929190818152602001828054611a99906144a9565b8015611ae65780601f10611abb57610100808354040283529160200191611ae6565b820191906000526020600020905b815481529060010190602001808311611ac957829003601f168201915b50505050508152602001600482018054611aff906144a9565b80601f0160208091040260200160405190810160405280929190818152602001828054611b2b906144a9565b8015611b785780601f10611b4d57610100808354040283529160200191611b78565b820191906000526020600020905b815481529060010190602001808311611b5b57829003601f168201915b5050505050815260200160058201548152602001600682015481526020016007820160009054906101000a900460ff161515151581526020016007820160019054906101000a900460ff161515151581526020016007820160029054906101000a900460ff166004811115611bf057611bef613d4d565b5b6004811115611c0257611c01613d4d565b5b8152505081526020019060010190611947565b50505050905090565b60008073ffffffffffffffffffffffffffffffffffffffff168273ffffffffffffffffffffffffffffffffffffffff1603611c8e576040517f08c379a0000000000000000000000000000000000000000000000000000000008152600401611c859061512f565b60405180910390fd5b600360008373ffffffffffffffffffffffffffffffffffffffff1673ffffffffffffffffffffffffffffffffffffffff168152602001908152602001600020549050919050565b600f60009054906101000a900473ffffffffffffffffffffffffffffffffffffffff1681565b600f60009054906101000a900473ffffffffffffffffffffffffffffffffffffffff1673ffffffffffffffffffffffffffffffffffffffff163373ffffffffffffffffffffffffffffffffffffffff16148015611dae575060026004811115611d6757611d66613d4d565b5b600a8281548110611d7b57611d7a614393565b5b906000526020600020906008020160070160029054906101000a900460ff166004811115611dac57611dab613d4d565b5b145b611ded576040517f08c379a0000000000000000000000000000000000000000000000000000000008152600401611de49061519b565b60405180910390fd5b6000600a8281548110611e0357611e02614393565b5b906000526020600020906008020160070160006101000a81548160ff0219169083151502179055506000600a8281548110611e4157611e40614393565b5b906000526020600020906008020160070160026101000a81548160ff02191690836004811115611e7457611e73613d4d565b5b021790555050565b606060018054611e8b906144a9565b80601f0160208091040260200160405190810160405280929190818152602001828054611eb7906144a9565b8015611f045780601f10611ed957610100808354040283529160200191611f04565b820191906000526020600020905b815481529060010190602001808311611ee757829003601f168201915b5050505050905090565b611f20611f19612985565b8383612e88565b5050565b611f35611f2f612985565b83612a9f565b611f74576040517f08c379a0000000000000000000000000000000000000000000000000000000008152600401611f6b90614af1565b60405180910390fd5b611f8084848484612ff4565b50505050565b60016004811115611f9a57611f99613d4d565b5b600a8281548110611fae57611fad614393565b5b906000526020600020906008020160070160029054906101000a900460ff166004811115611fdf57611fde613d4d565b5b1461201f576040517f08c379a000000000000000000000000000000000000000000000000000000000815260040161201690615207565b60405180910390fd5b6009600082815260200190815260200160002060010160009054906101000a900473ffffffffffffffffffffffffffffffffffffffff1673ffffffffffffffffffffffffffffffffffffffff163373ffffffffffffffffffffffffffffffffffffffff161480156120b157506009600082815260200190815260200160002060040160019054906101000a900460ff16155b6120f0576040517f08c379a00000000000000000000000000000000000000000000000000000000081526004016120e790615299565b60405180910390fd5b60016009600083815260200190815260200160002060040160016101000a81548160ff021916908315150217905550612193600a828154811061213657612135614393565b5b906000526020600020906008020160000160009054906101000a900473ffffffffffffffffffffffffffffffffffffffff16600a838154811061217c5761217b614393565b5b906000526020600020906008020160060154612889565b6009600082815260200190815260200160002060020154600a82815481106121be576121bd614393565b5b906000526020600020906008020160060160008282546121de91906152b9565b925050819055506004600a82815481106121fb576121fa614393565b5b906000526020600020906008020160070160026101000a81548160ff0219169083600481111561222e5761222d613d4d565b5b02179055506122a8600a828154811061224a57612249614393565b5b906000526020600020906008020160000160009054906101000a900473ffffffffffffffffffffffffffffffffffffffff1633600a848154811061229157612290614393565b5b906000526020600020906008020160010154612b34565b600a81815481106122bc576122bb614393565b5b90600052602060002090600802016004016009600083815260200190815260200160002060050190816122ef9190615318565b5033600a828154811061230557612304614393565b5b906000526020600020906008020160000160006101000a81548173ffffffffffffffffffffffffffffffffffffffff021916908373ffffffffffffffffffffffffffffffffffffffff1602179055507f8eac340af35af673875d62f0b4eeaa6928b83ecb2f0f45ef9b6d1cba38b00661600a828154811061238957612388614393565b5b906000526020600020906008020160000160009054906101000a900473ffffffffffffffffffffffffffffffffffffffff166009600084815260200190815260200160002060010160009054906101000a900473ffffffffffffffffffffffffffffffffffffffff16600a848154811061240657612405614393565b5b9060005260206000209060080201600101546009600086815260200190815260200160002060050142604051612440959493929190615484565b60405180910390a150565b60606124568261293a565b6000612460613050565b9050600081511161248057604051806020016040528060008152506124ab565b8061248a84613067565b60405160200161249b9291906154de565b6040516020818303038152906040525b915050919050565b6000600560008473ffffffffffffffffffffffffffffffffffffffff1673ffffffffffffffffffffffffffffffffffffffff16815260200190815260200160002060008373ffffffffffffffffffffffffffffffffffffffff1673ffffffffffffffffffffffffffffffffffffffff16815260200190815260200160002060009054906101000a900460ff16905092915050565b61254f613768565b600a828154811061256357612562614393565b5b9060005260206000209060080201604051806101400160405290816000820160009054906101000a900473ffffffffffffffffffffffffffffffffffffffff1673ffffffffffffffffffffffffffffffffffffffff1673ffffffffffffffffffffffffffffffffffffffff168152602001600182015481526020016002820180546125ed906144a9565b80601f0160208091040260200160405190810160405280929190818152602001828054612619906144a9565b80156126665780601f1061263b57610100808354040283529160200191612666565b820191906000526020600020905b81548152906001019060200180831161264957829003601f168201915b5050505050815260200160038201805461267f906144a9565b80601f01602080910402602001604051908101604052809291908181526020018280546126ab906144a9565b80156126f85780601f106126cd576101008083540402835291602001916126f8565b820191906000526020600020905b8154815290600101906020018083116126db57829003601f168201915b50505050508152602001600482018054612711906144a9565b80601f016020809104026020016040519081016040528092919081815260200182805461273d906144a9565b801561278a5780601f1061275f5761010080835404028352916020019161278a565b820191906000526020600020905b81548152906001019060200180831161276d57829003601f168201915b5050505050815260200160058201548152602001600682015481526020016007820160009054906101000a900460ff161515151581526020016007820160019054906101000a900460ff161515151581526020016007820160029054906101000a900460ff16600481111561280257612801613d4d565b5b600481111561281457612813613d4d565b5b815250509050919050565b60007f01ffc9a7000000000000000000000000000000000000000000000000000000007bffffffffffffffffffffffffffffffffffffffffffffffffffffffff1916827bffffffffffffffffffffffffffffffffffffffffffffffffffffffff1916149050919050565b60008273ffffffffffffffffffffffffffffffffffffffff16826040516128af90615533565b60006040518083038185875af1925050503d80600081146128ec576040519150601f19603f3d011682016040523d82523d6000602084013e6128f1565b606091505b5050905080612935576040517f08c379a000000000000000000000000000000000000000000000000000000000815260040161292c90615594565b60405180910390fd5b505050565b61294381613135565b612982576040517f08c379a00000000000000000000000000000000000000000000000000000000081526004016129799061509d565b60405180910390fd5b50565b600033905090565b816004600083815260200190815260200160002060006101000a81548173ffffffffffffffffffffffffffffffffffffffff021916908373ffffffffffffffffffffffffffffffffffffffff160217905550808273ffffffffffffffffffffffffffffffffffffffff16612a008361189d565b73ffffffffffffffffffffffffffffffffffffffff167f8c5be1e5ebec7d5bd14f71427d1e84f3dd0314c0f7b2291e5b200ac8c7c3b92560405160405180910390a45050565b600260065403612a8b576040517f08c379a0000000000000000000000000000000000000000000000000000000008152600401612a8290615600565b60405180910390fd5b6002600681905550565b6001600681905550565b600080612aab8361189d565b90508073ffffffffffffffffffffffffffffffffffffffff168473ffffffffffffffffffffffffffffffffffffffff161480612aed5750612aec81856124b3565b5b80612b2b57508373ffffffffffffffffffffffffffffffffffffffff16612b1384610936565b73ffffffffffffffffffffffffffffffffffffffff16145b91505092915050565b8273ffffffffffffffffffffffffffffffffffffffff16612b548261189d565b73ffffffffffffffffffffffffffffffffffffffff1614612baa576040517f08c379a0000000000000000000000000000000000000000000000000000000008152600401612ba190615692565b60405180910390fd5b600073ffffffffffffffffffffffffffffffffffffffff168273ffffffffffffffffffffffffffffffffffffffff1603612c19576040517f08c379a0000000000000000000000000000000000000000000000000000000008152600401612c1090615724565b60405180910390fd5b612c268383836001613176565b8273ffffffffffffffffffffffffffffffffffffffff16612c468261189d565b73ffffffffffffffffffffffffffffffffffffffff1614612c9c576040517f08c379a0000000000000000000000000000000000000000000000000000000008152600401612c9390615692565b60405180910390fd5b6004600082815260200190815260200160002060006101000a81549073ffffffffffffffffffffffffffffffffffffffff02191690556001600360008573ffffffffffffffffffffffffffffffffffffffff1673ffffffffffffffffffffffffffffffffffffffff168152602001908152602001600020600082825403925050819055506001600360008473ffffffffffffffffffffffffffffffffffffffff1673ffffffffffffffffffffffffffffffffffffffff16815260200190815260200160002060008282540192505081905550816002600083815260200190815260200160002060006101000a81548173ffffffffffffffffffffffffffffffffffffffff021916908373ffffffffffffffffffffffffffffffffffffffff160217905550808273ffffffffffffffffffffffffffffffffffffffff168473ffffffffffffffffffffffffffffffffffffffff167fddf252ad1be2c89b69c2b068fc378daa952ba7f163c4a11628f55a4df523b3ef60405160405180910390a4612e28838383600161317c565b505050565b612e47828260405180602001604052806000815250613182565b5050565b60006002600083815260200190815260200160002060009054906101000a900473ffffffffffffffffffffffffffffffffffffffff169050919050565b8173ffffffffffffffffffffffffffffffffffffffff168373ffffffffffffffffffffffffffffffffffffffff1603612ef6576040517f08c379a0000000000000000000000000000000000000000000000000000000008152600401612eed90615790565b60405180910390fd5b80600560008573ffffffffffffffffffffffffffffffffffffffff1673ffffffffffffffffffffffffffffffffffffffff16815260200190815260200160002060008473ffffffffffffffffffffffffffffffffffffffff1673ffffffffffffffffffffffffffffffffffffffff16815260200190815260200160002060006101000a81548160ff0219169083151502179055508173ffffffffffffffffffffffffffffffffffffffff168373ffffffffffffffffffffffffffffffffffffffff167f17307eab39ab6107e8899845ad3d59bd9653f200f220920489ca2b5937696c3183604051612fe7919061389b565b60405180910390a3505050565b612fff848484612b34565b61300b848484846131dd565b61304a576040517f08c379a000000000000000000000000000000000000000000000000000000000815260040161304190615822565b60405180910390fd5b50505050565b606060405180602001604052806000815250905090565b60606000600161307684613364565b01905060008167ffffffffffffffff81111561309557613094613af0565b5b6040519080825280601f01601f1916602001820160405280156130c75781602001600182028036833780820191505090505b509050600082602001820190505b60011561312a578080600190039150507f3031323334353637383961626364656600000000000000000000000000000000600a86061a8153600a858161311e5761311d615842565b5b049450600085036130d5575b819350505050919050565b60008073ffffffffffffffffffffffffffffffffffffffff1661315783612e4b565b73ffffffffffffffffffffffffffffffffffffffff1614159050919050565b50505050565b50505050565b61318c83836134b7565b61319960008484846131dd565b6131d8576040517f08c379a00000000000000000000000000000000000000000000000000000000081526004016131cf90615822565b60405180910390fd5b505050565b60006131fe8473ffffffffffffffffffffffffffffffffffffffff166136d4565b15613357578373ffffffffffffffffffffffffffffffffffffffff1663150b7a02613227612985565b8786866040518563ffffffff1660e01b815260040161324994939291906158c6565b6020604051808303816000875af192505050801561328557506040513d601f19601f820116820180604052508101906132829190615927565b60015b613307573d80600081146132b5576040519150601f19603f3d011682016040523d82523d6000602084013e6132ba565b606091505b5060008151036132ff576040517f08c379a00000000000000000000000000000000000000000000000000000000081526004016132f690615822565b60405180910390fd5b805181602001fd5b63150b7a0260e01b7bffffffffffffffffffffffffffffffffffffffffffffffffffffffff1916817bffffffffffffffffffffffffffffffffffffffffffffffffffffffff19161491505061335c565b600190505b949350505050565b600080600090507a184f03e93ff9f4daa797ed6e38ed64bf6a1f01000000000000000083106133c2577a184f03e93ff9f4daa797ed6e38ed64bf6a1f01000000000000000083816133b8576133b7615842565b5b0492506040810190505b6d04ee2d6d415b85acef810000000083106133ff576d04ee2d6d415b85acef810000000083816133f5576133f4615842565b5b0492506020810190505b662386f26fc10000831061342e57662386f26fc10000838161342457613423615842565b5b0492506010810190505b6305f5e1008310613457576305f5e100838161344d5761344c615842565b5b0492506008810190505b612710831061347c57612710838161347257613471615842565b5b0492506004810190505b6064831061349f576064838161349557613494615842565b5b0492506002810190505b600a83106134ae576001810190505b80915050919050565b600073ffffffffffffffffffffffffffffffffffffffff168273ffffffffffffffffffffffffffffffffffffffff1603613526576040517f08c379a000000000000000000000000000000000000000000000000000000000815260040161351d906159a0565b60405180910390fd5b61352f81613135565b1561356f576040517f08c379a000000000000000000000000000000000000000000000000000000000815260040161356690615a0c565b60405180910390fd5b61357d600083836001613176565b61358681613135565b156135c6576040517f08c379a00000000000000000000000000000000000000000000000000000000081526004016135bd90615a0c565b60405180910390fd5b6001600360008473ffffffffffffffffffffffffffffffffffffffff1673ffffffffffffffffffffffffffffffffffffffff16815260200190815260200160002060008282540192505081905550816002600083815260200190815260200160002060006101000a81548173ffffffffffffffffffffffffffffffffffffffff021916908373ffffffffffffffffffffffffffffffffffffffff160217905550808273ffffffffffffffffffffffffffffffffffffffff16600073ffffffffffffffffffffffffffffffffffffffff167fddf252ad1be2c89b69c2b068fc378daa952ba7f163c4a11628f55a4df523b3ef60405160405180910390a46136d060008383600161317c565b5050565b6000808273ffffffffffffffffffffffffffffffffffffffff163b119050919050565b60405180610100016040528060008152602001600073ffffffffffffffffffffffffffffffffffffffff1681526020016000815260200160008152602001600015158152602001600015158152602001606081526020016000600481111561376257613761613d4d565b5b81525090565b604051806101400160405280600073ffffffffffffffffffffffffffffffffffffffff168152602001600081526020016060815260200160608152602001606081526020016000815260200160008152602001600015158152602001600015158152602001600060048111156137e1576137e0613d4d565b5b81525090565b6000604051905090565b600080fd5b600080fd5b60007fffffffff0000000000000000000000000000000000000000000000000000000082169050919050565b613830816137fb565b811461383b57600080fd5b50565b60008135905061384d81613827565b92915050565b600060208284031215613869576138686137f1565b5b60006138778482850161383e565b91505092915050565b60008115159050919050565b61389581613880565b82525050565b60006020820190506138b0600083018461388c565b92915050565b6000819050919050565b6138c9816138b6565b81146138d457600080fd5b50565b6000813590506138e6816138c0565b92915050565b600060208284031215613902576139016137f1565b5b6000613910848285016138d7565b91505092915050565b600081519050919050565b600082825260208201905092915050565b60005b83811015613953578082015181840152602081019050613938565b60008484015250505050565b6000601f19601f8301169050919050565b600061397b82613919565b6139858185613924565b9350613995818560208601613935565b61399e8161395f565b840191505092915050565b600060208201905081810360008301526139c38184613970565b905092915050565b600073ffffffffffffffffffffffffffffffffffffffff82169050919050565b60006139f6826139cb565b9050919050565b613a06816139eb565b82525050565b6000602082019050613a2160008301846139fd565b92915050565b613a30816139eb565b8114613a3b57600080fd5b50565b600081359050613a4d81613a27565b92915050565b60008060408385031215613a6a57613a696137f1565b5b6000613a7885828601613a3e565b9250506020613a89858286016138d7565b9150509250929050565b600080600060608486031215613aac57613aab6137f1565b5b6000613aba86828701613a3e565b9350506020613acb86828701613a3e565b9250506040613adc868287016138d7565b9150509250925092565b600080fd5b600080fd5b7f4e487b7100000000000000000000000000000000000000000000000000000000600052604160045260246000fd5b613b288261395f565b810181811067ffffffffffffffff82111715613b4757613b46613af0565b5b80604052505050565b6000613b5a6137e7565b9050613b668282613b1f565b919050565b600067ffffffffffffffff821115613b8657613b85613af0565b5b613b8f8261395f565b9050602081019050919050565b82818337600083830152505050565b6000613bbe613bb984613b6b565b613b50565b905082815260208101848484011115613bda57613bd9613aeb565b5b613be5848285613b9c565b509392505050565b600082601f830112613c0257613c01613ae6565b5b8135613c12848260208601613bab565b91505092915050565b60008060008060808587031215613c3557613c346137f1565b5b600085013567ffffffffffffffff811115613c5357613c526137f6565b5b613c5f87828801613bed565b945050602085013567ffffffffffffffff811115613c8057613c7f6137f6565b5b613c8c87828801613bed565b935050604085013567ffffffffffffffff811115613cad57613cac6137f6565b5b613cb987828801613bed565b9250506060613cca878288016138d7565b91505092959194509250565b613cdf816138b6565b82525050565b613cee816139eb565b82525050565b613cfd81613880565b82525050565b600082825260208201905092915050565b6000613d1f82613919565b613d298185613d03565b9350613d39818560208601613935565b613d428161395f565b840191505092915050565b7f4e487b7100000000000000000000000000000000000000000000000000000000600052602160045260246000fd5b60058110613d8d57613d8c613d4d565b5b50565b6000819050613d9e82613d7c565b919050565b6000613dae82613d90565b9050919050565b613dbe81613da3565b82525050565b600061010083016000830151613ddd6000860182613cd6565b506020830151613df06020860182613ce5565b506040830151613e036040860182613cd6565b506060830151613e166060860182613cd6565b506080830151613e296080860182613cf4565b5060a0830151613e3c60a0860182613cf4565b5060c083015184820360c0860152613e548282613d14565b91505060e0830151613e6960e0860182613db5565b508091505092915050565b60006020820190508181036000830152613e8e8184613dc4565b905092915050565b600081519050919050565b600082825260208201905092915050565b6000819050602082019050919050565b600061014083016000830151613edb6000860182613ce5565b506020830151613eee6020860182613cd6565b5060408301518482036040860152613f068282613d14565b91505060608301518482036060860152613f208282613d14565b91505060808301518482036080860152613f3a8282613d14565b91505060a0830151613f4f60a0860182613cd6565b5060c0830151613f6260c0860182613cd6565b5060e0830151613f7560e0860182613cf4565b50610100830151613f8a610100860182613cf4565b50610120830151613f9f610120860182613db5565b508091505092915050565b6000613fb68383613ec2565b905092915050565b6000602082019050919050565b6000613fd682613e96565b613fe08185613ea1565b935083602082028501613ff285613eb2565b8060005b8581101561402e578484038952815161400f8582613faa565b945061401a83613fbe565b925060208a01995050600181019050613ff6565b50829750879550505050505092915050565b6000602082019050818103600083015261405a8184613fcb565b905092915050565b600060208284031215614078576140776137f1565b5b600061408684828501613a3e565b91505092915050565b614098816138b6565b82525050565b60006020820190506140b3600083018461408f565b92915050565b6140c281613880565b81146140cd57600080fd5b50565b6000813590506140df816140b9565b92915050565b600080604083850312156140fc576140fb6137f1565b5b600061410a85828601613a3e565b925050602061411b858286016140d0565b9150509250929050565b600067ffffffffffffffff8211156141405761413f613af0565b5b6141498261395f565b9050602081019050919050565b600061416961416484614125565b613b50565b90508281526020810184848401111561418557614184613aeb565b5b614190848285613b9c565b509392505050565b600082601f8301126141ad576141ac613ae6565b5b81356141bd848260208601614156565b91505092915050565b600080600080608085870312156141e0576141df6137f1565b5b60006141ee87828801613a3e565b94505060206141ff87828801613a3e565b9350506040614210878288016138d7565b925050606085013567ffffffffffffffff811115614231576142306137f6565b5b61423d87828801614198565b91505092959194509250565b600080604083850312156142605761425f6137f1565b5b600061426e85828601613a3e565b925050602061427f85828601613a3e565b9150509250929050565b6000610140830160008301516142a26000860182613ce5565b5060208301516142b56020860182613cd6565b50604083015184820360408601526142cd8282613d14565b915050606083015184820360608601526142e78282613d14565b915050608083015184820360808601526143018282613d14565b91505060a083015161431660a0860182613cd6565b5060c083015161432960c0860182613cd6565b5060e083015161433c60e0860182613cf4565b50610100830151614351610100860182613cf4565b50610120830151614366610120860182613db5565b508091505092915050565b6000602082019050818103600083015261438b8184614289565b905092915050565b7f4e487b7100000000000000000000000000000000000000000000000000000000600052603260045260246000fd5b7f4f6e6c79204f776e6572206861732074686520617574686f7269747920746f2060008201527f63616e2070726f62652041737365742c2050726f63657373205265766572736560208201527f6400000000000000000000000000000000000000000000000000000000000000604082015250565b6000614444604183613924565b915061444f826143c2565b606082019050919050565b6000602082019050818103600083015261447381614437565b9050919050565b7f4e487b7100000000000000000000000000000000000000000000000000000000600052602260045260246000fd5b600060028204905060018216806144c157607f821691505b6020821081036144d4576144d361447a565b5b50919050565b7f4552433732313a20617070726f76616c20746f2063757272656e74206f776e6560008201527f7200000000000000000000000000000000000000000000000000000000000000602082015250565b6000614536602183613924565b9150614541826144da565b604082019050919050565b6000602082019050818103600083015261456581614529565b9050919050565b7f4552433732313a20617070726f76652063616c6c6572206973206e6f7420746f60008201527f6b656e206f776e6572206f7220617070726f76656420666f7220616c6c000000602082015250565b60006145c8603d83613924565b91506145d38261456c565b604082019050919050565b600060208201905081810360008301526145f7816145bb565b9050919050565b7f417373657420697320756e6465676f696e67204e65676f74696174696f6e0000600082015250565b6000614634601e83613924565b915061463f826145fe565b602082019050919050565b6000602082019050818103600083015261466381614627565b9050919050565b7f596f752063616e6e6f742062757920796f757220417373657400000000000000600082015250565b60006146a0601983613924565b91506146ab8261466a565b602082019050919050565b600060208201905081810360008301526146cf81614693565b9050919050565b7f417373657420646f6573206e6f74204578697374000000000000000000000000600082015250565b600061470c601483613924565b9150614717826146d6565b602082019050919050565b6000602082019050818103600083015261473b816146ff565b9050919050565b7f496e636f7272656374207061796d656e7420616d6f756e740000000000000000600082015250565b6000614778601883613924565b915061478382614742565b602082019050919050565b600060208201905081810360008301526147a78161476b565b9050919050565b60008190508160005260206000209050919050565b60006020601f8301049050919050565b600082821b905092915050565b6000600883026148107fffffffffffffffffffffffffffffffffffffffffffffffffffffffffffffffff826147d3565b61481a86836147d3565b95508019841693508086168417925050509392505050565b6000819050919050565b600061485761485261484d846138b6565b614832565b6138b6565b9050919050565b6000819050919050565b6148718361483c565b61488561487d8261485e565b8484546147e0565b825550505050565b600090565b61489a61488d565b6148a5818484614868565b505050565b5b818110156148c9576148be600082614892565b6001810190506148ab565b5050565b601f82111561490e576148df816147ae565b6148e8846147c3565b810160208510156148f7578190505b61490b614903856147c3565b8301826148aa565b50505b505050565b600082821c905092915050565b600061493160001984600802614913565b1980831691505092915050565b600061494a8383614920565b9150826002028217905092915050565b61496382613919565b67ffffffffffffffff81111561497c5761497b613af0565b5b61498682546144a9565b6149918282856148cd565b600060209050601f8311600181146149c457600084156149b2578287015190505b6149bc858261493e565b865550614a24565b601f1984166149d2866147ae565b60005b828110156149fa578489015182556001820191506020850194506020810190506149d5565b86831015614a175784890151614a13601f891682614920565b8355505b6001600288020188555050505b505050505050565b600060a082019050614a4160008301886139fd565b614a4e60208301876139fd565b614a5b604083018661408f565b614a68606083018561408f565b614a75608083018461388c565b9695505050505050565b7f4552433732313a2063616c6c6572206973206e6f7420746f6b656e206f776e6560008201527f72206f7220617070726f76656400000000000000000000000000000000000000602082015250565b6000614adb602d83613924565b9150614ae682614a7f565b604082019050919050565b60006020820190508181036000830152614b0a81614ace565b9050919050565b7f796f7520617265206e6f74207468652062757965720000000000000000000000600082015250565b6000614b47601583613924565b9150614b5282614b11565b602082019050919050565b60006020820190508181036000830152614b7681614b3a565b9050919050565b7f6173736574206e6f74206f70656e656420666f722073656c6c696e6700000000600082015250565b6000614bb3601c83613924565b9150614bbe82614b7d565b602082019050919050565b60006020820190508181036000830152614be281614ba6565b9050919050565b614bf281613da3565b82525050565b6000604082019050614c0d6000830185614be9565b614c1a6020830184614be9565b9392505050565b7f5469746c65206d7573742062652067726561746572207468616e203000000000600082015250565b6000614c57601c83613924565b9150614c6282614c21565b602082019050919050565b60006020820190508181036000830152614c8681614c4a565b9050919050565b7f4465736372697074696f6e2063616e6e6f7420626520656d7074790000000000600082015250565b6000614cc3601b83613924565b9150614cce82614c8d565b602082019050919050565b60006020820190508181036000830152614cf281614cb6565b9050919050565b7f496d6167652063616e6e6f7420626520656d7074790000000000000000000000600082015250565b6000614d2f601583613924565b9150614d3a82614cf9565b602082019050919050565b60006020820190508181036000830152614d5e81614d22565b9050919050565b7f636f7374206d7573742062652067726561746572207468616e20300000000000600082015250565b6000614d9b601b83613924565b9150614da682614d65565b602082019050919050565b60006020820190508181036000830152614dca81614d8e565b9050919050565b600081905092915050565b6000614de782613919565b614df18185614dd1565b9350614e01818560208601613935565b80840191505092915050565b6000614e198284614ddc565b915081905092915050565b7f417373657420616c726561647920657869737400000000000000000000000000600082015250565b6000614e5a601383613924565b9150614e6582614e24565b602082019050919050565b60006020820190508181036000830152614e8981614e4d565b9050919050565b7f4e487b7100000000000000000000000000000000000000000000000000000000600052601160045260246000fd5b6000614eca826138b6565b91507fffffffffffffffffffffffffffffffffffffffffffffffffffffffffffffffff8203614efc57614efb614e90565b5b600182019050919050565b600081549050614f16816144a9565b9050919050565b818103614f2b575050615003565b614f3482614f07565b67ffffffffffffffff811115614f4d57614f4c613af0565b5b614f5782546144a9565b614f628282856148cd565b6000601f831160018114614f915760008415614f7f578287015490505b614f89858261493e565b865550614ffc565b601f198416614f9f876147ae565b9650614faa866147ae565b60005b82811015614fd257848901548255600182019150600185019450602081019050614fad565b86831015614fef5784890154614feb601f891682614920565b8355505b6001600288020188555050505b5050505050505b565b600060808201905061501a60008301876139fd565b818103602083015261502c8186613970565b905061503b604083018561408f565b615048606083018461408f565b95945050505050565b7f4552433732313a20696e76616c696420746f6b656e2049440000000000000000600082015250565b6000615087601883613924565b915061509282615051565b602082019050919050565b600060208201905081810360008301526150b68161507a565b9050919050565b7f4552433732313a2061646472657373207a65726f206973206e6f74206120766160008201527f6c6964206f776e65720000000000000000000000000000000000000000000000602082015250565b6000615119602983613924565b9150615124826150bd565b604082019050919050565b600060208201905081810360008301526151488161510c565b9050919050565b7f6f6e6c7920746865206f776e65722063616e2072656c65617365204173736574600082015250565b6000615185602083613924565b91506151908261514f565b602082019050919050565b600060208201905081810360008301526151b481615178565b9050919050565b7f417373657420697320756e646572676f696e67204e65676f74696174696f6e00600082015250565b60006151f1601f83613924565b91506151fc826151bb565b602082019050919050565b60006020820190508181036000830152615220816151e4565b9050919050565b7f4f6e6c79207468652062757965722063616e2063616c6c20746869732066756e60008201527f6374696f6e000000000000000000000000000000000000000000000000000000602082015250565b6000615283602583613924565b915061528e82615227565b604082019050919050565b600060208201905081810360008301526152b281615276565b9050919050565b60006152c4826138b6565b91506152cf836138b6565b92508282039050818111156152e7576152e6614e90565b5b92915050565b6000815490506152fc816144a9565b9050919050565b60008190508160005260206000209050919050565b8181036153265750506153fe565b61532f826152ed565b67ffffffffffffffff81111561534857615347613af0565b5b61535282546144a9565b61535d8282856148cd565b6000601f83116001811461538c576000841561537a578287015490505b615384858261493e565b8655506153f7565b601f19841661539a87615303565b96506153a5866147ae565b60005b828110156153cd578489015482556001820191506001850194506020810190506153a8565b868310156153ea57848901546153e6601f891682614920565b8355505b6001600288020188555050505b5050505050505b565b6000815461540d816144a9565b6154178186613924565b9450600182166000811461543257600181146154485761547b565b60ff19831686528115156020028601935061547b565b615451856147ae565b60005b8381101561547357815481890152600182019150602081019050615454565b808801955050505b50505092915050565b600060a08201905061549960008301886139fd565b6154a660208301876139fd565b6154b3604083018661408f565b81810360608301526154c58185615400565b90506154d4608083018461408f565b9695505050505050565b60006154ea8285614ddc565b91506154f68284614ddc565b91508190509392505050565b600081905092915050565b50565b600061551d600083615502565b91506155288261550d565b600082019050919050565b600061553e82615510565b9150819050919050565b7f4661696c656420746f2073656e64204574686572000000000000000000000000600082015250565b600061557e601483613924565b915061558982615548565b602082019050919050565b600060208201905081810360008301526155ad81615571565b9050919050565b7f5265656e7472616e637947756172643a207265656e7472616e742063616c6c00600082015250565b60006155ea601f83613924565b91506155f5826155b4565b602082019050919050565b60006020820190508181036000830152615619816155dd565b9050919050565b7f4552433732313a207472616e736665722066726f6d20696e636f72726563742060008201527f6f776e6572000000000000000000000000000000000000000000000000000000602082015250565b600061567c602583613924565b915061568782615620565b604082019050919050565b600060208201905081810360008301526156ab8161566f565b9050919050565b7f4552433732313a207472616e7366657220746f20746865207a65726f2061646460008201527f7265737300000000000000000000000000000000000000000000000000000000602082015250565b600061570e602483613924565b9150615719826156b2565b604082019050919050565b6000602082019050818103600083015261573d81615701565b9050919050565b7f4552433732313a20617070726f766520746f2063616c6c657200000000000000600082015250565b600061577a601983613924565b915061578582615744565b602082019050919050565b600060208201905081810360008301526157a98161576d565b9050919050565b7f4552433732313a207472616e7366657220746f206e6f6e20455243373231526560008201527f63656976657220696d706c656d656e7465720000000000000000000000000000602082015250565b600061580c603283613924565b9150615817826157b0565b604082019050919050565b6000602082019050818103600083015261583b816157ff565b9050919050565b7f4e487b7100000000000000000000000000000000000000000000000000000000600052601260045260246000fd5b600081519050919050565b600082825260208201905092915050565b600061589882615871565b6158a2818561587c565b93506158b2818560208601613935565b6158bb8161395f565b840191505092915050565b60006080820190506158db60008301876139fd565b6158e860208301866139fd565b6158f5604083018561408f565b8181036060830152615907818461588d565b905095945050505050565b60008151905061592181613827565b92915050565b60006020828403121561593d5761593c6137f1565b5b600061594b84828501615912565b91505092915050565b7f4552433732313a206d696e7420746f20746865207a65726f2061646472657373600082015250565b600061598a602083613924565b915061599582615954565b602082019050919050565b600060208201905081810360008301526159b98161597d565b9050919050565b7f4552433732313a20746f6b656e20616c7265616479206d696e74656400000000600082015250565b60006159f6601c83613924565b9150615a01826159c0565b602082019050919050565b60006020820190508181036000830152615a25816159e9565b905091905056fea26469706673582212208656916a8bb8528b2fd1dbec7a91337d7b1369eef2db408eeb935e672667839864736f6c63430008110033",
  "linkReferences": {},
  "deployedLinkReferences": {}
}