{
  "_format": "hh-sol-artifact-1",
  "contractName": "EasyAsset",
  "sourceName": "contracts/EasyAsset.sol",
  "abi": [
    {
      "inputs": [
        {
          "internalType": "string",
          "name": "_name",
          "type": "string"
        },
        {
          "internalType": "string",
          "name": "_symbol",
          "type": "string"
        }
      ],
      "stateMutability": "nonpayable",
      "type": "constructor"
    },
    {
      "anonymous": false,
      "inputs": [
        {
          "indexed": false,
          "internalType": "address",
          "name": "buyer",
          "type": "address"
        },
        {
          "indexed": false,
          "internalType": "address",
          "name": "seller",
          "type": "address"
        },
        {
          "indexed": false,
          "internalType": "uint256",
          "name": "timestamp",
          "type": "uint256"
        },
        {
          "indexed": false,
          "internalType": "uint256",
          "name": "amount",
          "type": "uint256"
        },
        {
          "indexed": false,
          "internalType": "bool",
          "name": "paid",
          "type": "bool"
        }
      ],
      "name": "Action",
      "type": "event"
    },
    {
      "anonymous": false,
      "inputs": [
        {
          "indexed": true,
          "internalType": "address",
          "name": "owner",
          "type": "address"
        },
        {
          "indexed": true,
          "internalType": "address",
          "name": "approved",
          "type": "address"
        },
        {
          "indexed": true,
          "internalType": "uint256",
          "name": "tokenId",
          "type": "uint256"
        }
      ],
      "name": "Approval",
      "type": "event"
    },
    {
      "anonymous": false,
      "inputs": [
        {
          "indexed": true,
          "internalType": "address",
          "name": "owner",
          "type": "address"
        },
        {
          "indexed": true,
          "internalType": "address",
          "name": "operator",
          "type": "address"
        },
        {
          "indexed": false,
          "internalType": "bool",
          "name": "approved",
          "type": "bool"
        }
      ],
      "name": "ApprovalForAll",
      "type": "event"
    },
    {
      "anonymous": false,
      "inputs": [
        {
          "indexed": true,
          "internalType": "address",
          "name": "from",
          "type": "address"
        },
        {
          "indexed": true,
          "internalType": "address",
          "name": "to",
          "type": "address"
        },
        {
          "indexed": true,
          "internalType": "uint256",
          "name": "tokenId",
          "type": "uint256"
        }
      ],
      "name": "Transfer",
      "type": "event"
    },
    {
      "anonymous": false,
      "inputs": [
        {
          "indexed": false,
          "internalType": "address",
          "name": "owner",
          "type": "address"
        },
        {
          "indexed": true,
          "internalType": "uint256",
          "name": "id",
          "type": "uint256"
        },
        {
          "indexed": false,
          "internalType": "string",
          "name": "credential",
          "type": "string"
        },
        {
          "indexed": false,
          "internalType": "uint256",
          "name": "timestamp",
          "type": "uint256"
        },
        {
          "indexed": false,
          "internalType": "uint256",
          "name": "price",
          "type": "uint256"
        }
      ],
      "name": "assetCreation",
      "type": "event"
    },
    {
      "anonymous": false,
      "inputs": [
        {
          "indexed": false,
          "internalType": "address",
          "name": "from",
          "type": "address"
        },
        {
          "indexed": false,
          "internalType": "address",
          "name": "to",
          "type": "address"
        },
        {
          "indexed": false,
          "internalType": "uint256",
          "name": "tokenId",
          "type": "uint256"
        },
        {
          "indexed": false,
          "internalType": "string",
          "name": "credential",
          "type": "string"
        },
        {
          "indexed": false,
          "internalType": "uint256",
          "name": "timestamp",
          "type": "uint256"
        }
      ],
      "name": "assetTransfer",
      "type": "event"
    },
    {
      "anonymous": false,
      "inputs": [
        {
          "indexed": false,
          "internalType": "enum EasyAsset.assetStatus",
          "name": "",
          "type": "uint8"
        },
        {
          "indexed": false,
          "internalType": "bool",
          "name": "",
          "type": "bool"
        }
      ],
      "name": "refundAction",
      "type": "event"
    },
    {
      "inputs": [
        {
          "internalType": "uint256",
          "name": "id",
          "type": "uint256"
        }
      ],
      "name": "Probe",
      "outputs": [],
      "stateMutability": "nonpayable",
      "type": "function"
    },
    {
      "inputs": [
        {
          "internalType": "address",
          "name": "to",
          "type": "address"
        },
        {
          "internalType": "uint256",
          "name": "tokenId",
          "type": "uint256"
        }
      ],
      "name": "approve",
      "outputs": [],
      "stateMutability": "nonpayable",
      "type": "function"
    },
    {
      "inputs": [
        {
          "internalType": "address",
          "name": "owner",
          "type": "address"
        }
      ],
      "name": "balanceOf",
      "outputs": [
        {
          "internalType": "uint256",
          "name": "",
          "type": "uint256"
        }
      ],
      "stateMutability": "view",
      "type": "function"
    },
    {
      "inputs": [
        {
          "internalType": "uint256",
          "name": "id",
          "type": "uint256"
        }
      ],
      "name": "buyAsset",
      "outputs": [],
      "stateMutability": "payable",
      "type": "function"
    },
    {
      "inputs": [
        {
          "internalType": "uint256",
          "name": "id",
          "type": "uint256"
        }
      ],
      "name": "confirm",
      "outputs": [],
      "stateMutability": "nonpayable",
      "type": "function"
    },
    {
      "inputs": [
        {
          "internalType": "string",
          "name": "title",
          "type": "string"
        },
        {
          "internalType": "string",
          "name": "description",
          "type": "string"
        },
        {
          "internalType": "string",
          "name": "credential",
          "type": "string"
        },
        {
          "internalType": "uint256",
          "name": "price",
          "type": "uint256"
        }
      ],
      "name": "createAsset",
      "outputs": [
        {
          "internalType": "bool",
          "name": "",
          "type": "bool"
        }
      ],
      "stateMutability": "nonpayable",
      "type": "function"
    },
    {
      "inputs": [
        {
          "internalType": "uint256",
          "name": "tokenId",
          "type": "uint256"
        }
      ],
      "name": "getApproved",
      "outputs": [
        {
          "internalType": "address",
          "name": "",
          "type": "address"
        }
      ],
      "stateMutability": "view",
      "type": "function"
    },
    {
      "inputs": [
        {
          "internalType": "uint256",
          "name": "_id",
          "type": "uint256"
        }
      ],
      "name": "getAsset",
      "outputs": [
        {
          "components": [
            {
              "internalType": "address",
              "name": "seller",
              "type": "address"
            },
            {
              "internalType": "uint256",
              "name": "id",
              "type": "uint256"
            },
            {
              "internalType": "string",
              "name": "title",
              "type": "string"
            },
            {
              "internalType": "string",
              "name": "description",
              "type": "string"
            },
            {
              "internalType": "string",
              "name": "credential",
              "type": "string"
            },
            {
              "internalType": "uint256",
              "name": "timestamp",
              "type": "uint256"
            },
            {
              "internalType": "uint256",
              "name": "price",
              "type": "uint256"
            },
            {
              "internalType": "bool",
              "name": "probe",
              "type": "bool"
            },
            {
              "internalType": "bool",
              "name": "bought",
              "type": "bool"
            },
            {
              "internalType": "enum EasyAsset.assetStatus",
              "name": "status",
              "type": "uint8"
            }
          ],
          "internalType": "struct EasyAsset.Asset",
          "name": "",
          "type": "tuple"
        }
      ],
      "stateMutability": "view",
      "type": "function"
    },
    {
      "inputs": [],
      "name": "getAssets",
      "outputs": [
        {
          "components": [
            {
              "internalType": "address",
              "name": "seller",
              "type": "address"
            },
            {
              "internalType": "uint256",
              "name": "id",
              "type": "uint256"
            },
            {
              "internalType": "string",
              "name": "title",
              "type": "string"
            },
            {
              "internalType": "string",
              "name": "description",
              "type": "string"
            },
            {
              "internalType": "string",
              "name": "credential",
              "type": "string"
            },
            {
              "internalType": "uint256",
              "name": "timestamp",
              "type": "uint256"
            },
            {
              "internalType": "uint256",
              "name": "price",
              "type": "uint256"
            },
            {
              "internalType": "bool",
              "name": "probe",
              "type": "bool"
            },
            {
              "internalType": "bool",
              "name": "bought",
              "type": "bool"
            },
            {
              "internalType": "enum EasyAsset.assetStatus",
              "name": "status",
              "type": "uint8"
            }
          ],
          "internalType": "struct EasyAsset.Asset[]",
          "name": "",
          "type": "tuple[]"
        }
      ],
      "stateMutability": "view",
      "type": "function"
    },
    {
      "inputs": [
        {
          "internalType": "uint256",
          "name": "buyerId",
          "type": "uint256"
        }
      ],
      "name": "getBuyer",
      "outputs": [
        {
          "components": [
            {
              "internalType": "uint256",
              "name": "id",
              "type": "uint256"
            },
            {
              "internalType": "address",
              "name": "owner",
              "type": "address"
            },
            {
              "internalType": "uint256",
              "name": "amountpaid",
              "type": "uint256"
            },
            {
              "internalType": "uint256",
              "name": "timestamp",
              "type": "uint256"
            },
            {
              "internalType": "bool",
              "name": "refunded",
              "type": "bool"
            },
            {
              "internalType": "bool",
              "name": "paid",
              "type": "bool"
            },
            {
              "internalType": "bool",
              "name": "checked",
              "type": "bool"
            },
            {
              "internalType": "string",
              "name": "credential",
              "type": "string"
            }
          ],
          "internalType": "struct EasyAsset.buyer",
          "name": "",
          "type": "tuple"
        }
      ],
      "stateMutability": "view",
      "type": "function"
    },
    {
      "inputs": [],
      "name": "getBuyers",
      "outputs": [
        {
          "components": [
            {
              "internalType": "uint256",
              "name": "id",
              "type": "uint256"
            },
            {
              "internalType": "address",
              "name": "owner",
              "type": "address"
            },
            {
              "internalType": "uint256",
              "name": "amountpaid",
              "type": "uint256"
            },
            {
              "internalType": "uint256",
              "name": "timestamp",
              "type": "uint256"
            },
            {
              "internalType": "bool",
              "name": "refunded",
              "type": "bool"
            },
            {
              "internalType": "bool",
              "name": "paid",
              "type": "bool"
            },
            {
              "internalType": "bool",
              "name": "checked",
              "type": "bool"
            },
            {
              "internalType": "string",
              "name": "credential",
              "type": "string"
            }
          ],
          "internalType": "struct EasyAsset.buyer[]",
          "name": "",
          "type": "tuple[]"
        }
      ],
      "stateMutability": "view",
      "type": "function"
    },
    {
      "inputs": [
        {
          "internalType": "address",
          "name": "owner",
          "type": "address"
        },
        {
          "internalType": "address",
          "name": "operator",
          "type": "address"
        }
      ],
      "name": "isApprovedForAll",
      "outputs": [
        {
          "internalType": "bool",
          "name": "",
          "type": "bool"
        }
      ],
      "stateMutability": "view",
      "type": "function"
    },
    {
      "inputs": [],
      "name": "name",
      "outputs": [
        {
          "internalType": "string",
          "name": "",
          "type": "string"
        }
      ],
      "stateMutability": "view",
      "type": "function"
    },
    {
      "inputs": [],
      "name": "owner",
      "outputs": [
        {
          "internalType": "address",
          "name": "",
          "type": "address"
        }
      ],
      "stateMutability": "view",
      "type": "function"
    },
    {
      "inputs": [
        {
          "internalType": "uint256",
          "name": "tokenId",
          "type": "uint256"
        }
      ],
      "name": "ownerOf",
      "outputs": [
        {
          "internalType": "address",
          "name": "",
          "type": "address"
        }
      ],
      "stateMutability": "view",
      "type": "function"
    },
    {
      "inputs": [
        {
          "internalType": "uint256",
          "name": "id",
          "type": "uint256"
        }
      ],
      "name": "refund",
      "outputs": [],
      "stateMutability": "nonpayable",
      "type": "function"
    },
    {
      "inputs": [
        {
          "internalType": "uint256",
          "name": "id",
          "type": "uint256"
        }
      ],
      "name": "releaseAsset",
      "outputs": [],
      "stateMutability": "nonpayable",
      "type": "function"
    },
    {
      "inputs": [
        {
          "internalType": "address",
          "name": "from",
          "type": "address"
        },
        {
          "internalType": "address",
          "name": "to",
          "type": "address"
        },
        {
          "internalType": "uint256",
          "name": "tokenId",
          "type": "uint256"
        }
      ],
      "name": "safeTransferFrom",
      "outputs": [],
      "stateMutability": "nonpayable",
      "type": "function"
    },
    {
      "inputs": [
        {
          "internalType": "address",
          "name": "from",
          "type": "address"
        },
        {
          "internalType": "address",
          "name": "to",
          "type": "address"
        },
        {
          "internalType": "uint256",
          "name": "tokenId",
          "type": "uint256"
        },
        {
          "internalType": "bytes",
          "name": "data",
          "type": "bytes"
        }
      ],
      "name": "safeTransferFrom",
      "outputs": [],
      "stateMutability": "nonpayable",
      "type": "function"
    },
    {
      "inputs": [
        {
          "internalType": "address",
          "name": "operator",
          "type": "address"
        },
        {
          "internalType": "bool",
          "name": "approved",
          "type": "bool"
        }
      ],
      "name": "setApprovalForAll",
      "outputs": [],
      "stateMutability": "nonpayable",
      "type": "function"
    },
    {
      "inputs": [
        {
          "internalType": "bytes4",
          "name": "interfaceId",
          "type": "bytes4"
        }
      ],
      "name": "supportsInterface",
      "outputs": [
        {
          "internalType": "bool",
          "name": "",
          "type": "bool"
        }
      ],
      "stateMutability": "view",
      "type": "function"
    },
    {
      "inputs": [],
      "name": "symbol",
      "outputs": [
        {
          "internalType": "string",
          "name": "",
          "type": "string"
        }
      ],
      "stateMutability": "view",
      "type": "function"
    },
    {
      "inputs": [
        {
          "internalType": "uint256",
          "name": "tokenId",
          "type": "uint256"
        }
      ],
      "name": "tokenURI",
      "outputs": [
        {
          "internalType": "string",
          "name": "",
          "type": "string"
        }
      ],
      "stateMutability": "view",
      "type": "function"
    },
    {
      "inputs": [
        {
          "internalType": "address",
          "name": "from",
          "type": "address"
        },
        {
          "internalType": "address",
          "name": "to",
          "type": "address"
        },
        {
          "internalType": "uint256",
          "name": "tokenId",
          "type": "uint256"
        }
      ],
      "name": "transferFrom",
      "outputs": [],
      "stateMutability": "nonpayable",
      "type": "function"
    }
  ],
  "bytecode": "0x60806040523480156200001157600080fd5b506040516200652e3803806200652e833981810160405281019062000037919062000243565b818181600090816200004a919062000513565b5080600190816200005c919062000513565b505050600160068190555033600f60006101000a81548173ffffffffffffffffffffffffffffffffffffffff021916908373ffffffffffffffffffffffffffffffffffffffff1602179055505050620005fa565b6000604051905090565b600080fd5b600080fd5b600080fd5b600080fd5b6000601f19601f8301169050919050565b7f4e487b7100000000000000000000000000000000000000000000000000000000600052604160045260246000fd5b6200011982620000ce565b810181811067ffffffffffffffff821117156200013b576200013a620000df565b5b80604052505050565b600062000150620000b0565b90506200015e82826200010e565b919050565b600067ffffffffffffffff821115620001815762000180620000df565b5b6200018c82620000ce565b9050602081019050919050565b60005b83811015620001b95780820151818401526020810190506200019c565b60008484015250505050565b6000620001dc620001d68462000163565b62000144565b905082815260208101848484011115620001fb57620001fa620000c9565b5b6200020884828562000199565b509392505050565b600082601f830112620002285762000227620000c4565b5b81516200023a848260208601620001c5565b91505092915050565b600080604083850312156200025d576200025c620000ba565b5b600083015167ffffffffffffffff8111156200027e576200027d620000bf565b5b6200028c8582860162000210565b925050602083015167ffffffffffffffff811115620002b057620002af620000bf565b5b620002be8582860162000210565b9150509250929050565b600081519050919050565b7f4e487b7100000000000000000000000000000000000000000000000000000000600052602260045260246000fd5b600060028204905060018216806200031b57607f821691505b602082108103620003315762000330620002d3565b5b50919050565b60008190508160005260206000209050919050565b60006020601f8301049050919050565b600082821b905092915050565b6000600883026200039b7fffffffffffffffffffffffffffffffffffffffffffffffffffffffffffffffff826200035c565b620003a786836200035c565b95508019841693508086168417925050509392505050565b6000819050919050565b6000819050919050565b6000620003f4620003ee620003e884620003bf565b620003c9565b620003bf565b9050919050565b6000819050919050565b6200041083620003d3565b620004286200041f82620003fb565b84845462000369565b825550505050565b600090565b6200043f62000430565b6200044c81848462000405565b505050565b5b8181101562000474576200046860008262000435565b60018101905062000452565b5050565b601f821115620004c3576200048d8162000337565b62000498846200034c565b81016020851015620004a8578190505b620004c0620004b7856200034c565b83018262000451565b50505b505050565b600082821c905092915050565b6000620004e860001984600802620004c8565b1980831691505092915050565b6000620005038383620004d5565b9150826002028217905092915050565b6200051e82620002c8565b67ffffffffffffffff8111156200053a5762000539620000df565b5b62000546825462000302565b6200055382828562000478565b600060209050601f8311600181146200058b576000841562000576578287015190505b620005828582620004f5565b865550620005f2565b601f1984166200059b8662000337565b60005b82811015620005c5578489015182556001820191506020850194506020810190506200059e565b86831015620005e55784890151620005e1601f891682620004d5565b8355505b6001600288020188555050505b505050505050565b615f24806200060a6000396000f3fe60806040526004361061014b5760003560e01c806367e4ac2c116100b6578063b88d4fde1161006f578063b88d4fde146104a5578063ba0179b5146104ce578063c87b56dd146104f7578063e985e9c514610534578063eac8f5b814610571578063f64bfaba146105ae5761014b565b806367e4ac2c1461039557806370a08231146103c05780638da5cb5b146103fd5780639010ce971461042857806395d89b4114610451578063a22cb4651461047c5761014b565b806323b872dd1161010857806323b872dd14610263578063278ecde11461028c578063369d8138146102b557806342842e0e146102f25780635bf608b81461031b5780636352211e146103585761014b565b806301ffc9a71461015057806304e98cef1461018d57806306fdde03146101b6578063081812fc146101e1578063095ea7b31461021e578063110d35b814610247575b600080fd5b34801561015c57600080fd5b5061017760048036038101906101729190613bc7565b6105d9565b6040516101849190613c0f565b60405180910390f35b34801561019957600080fd5b506101b460048036038101906101af9190613c60565b6106bb565b005b3480156101c257600080fd5b506101cb6108e9565b6040516101d89190613d1d565b60405180910390f35b3480156101ed57600080fd5b5061020860048036038101906102039190613c60565b61097b565b6040516102159190613d80565b60405180910390f35b34801561022a57600080fd5b5061024560048036038101906102409190613dc7565b6109c1565b005b610261600480360381019061025c9190613c60565b610ad8565b005b34801561026f57600080fd5b5061028a60048036038101906102859190613e07565b610ff1565b005b34801561029857600080fd5b506102b360048036038101906102ae9190613c60565b611051565b005b3480156102c157600080fd5b506102dc60048036038101906102d79190613f8f565b611342565b6040516102e99190613c0f565b60405180910390f35b3480156102fe57600080fd5b5061031960048036038101906103149190613e07565b6117c6565b005b34801561032757600080fd5b50610342600480360381019061033d9190613c60565b6117e6565b60405161034f9190614171565b60405180910390f35b34801561036457600080fd5b5061037f600480360381019061037a9190613c60565b61196b565b60405161038c9190613d80565b60405180910390f35b3480156103a157600080fd5b506103aa6119f1565b6040516103b791906143b4565b60405180910390f35b3480156103cc57600080fd5b506103e760048036038101906103e291906143d6565b611cec565b6040516103f49190614412565b60405180910390f35b34801561040957600080fd5b50610412611da3565b60405161041f9190613d80565b60405180910390f35b34801561043457600080fd5b5061044f600480360381019061044a9190613c60565b611dc9565b005b34801561045d57600080fd5b50610466611f49565b6040516104739190613d1d565b60405180910390f35b34801561048857600080fd5b506104a3600480360381019061049e9190614459565b611fdb565b005b3480156104b157600080fd5b506104cc60048036038101906104c7919061453a565b611ff1565b005b3480156104da57600080fd5b506104f560048036038101906104f09190613c60565b612053565b005b34801561050357600080fd5b5061051e60048036038101906105199190613c60565b612618565b60405161052b9190613d1d565b60405180910390f35b34801561054057600080fd5b5061055b600480360381019061055691906145bd565b612680565b6040516105689190613c0f565b60405180910390f35b34801561057d57600080fd5b5061059860048036038101906105939190613c60565b612714565b6040516105a591906146e5565b60405180910390f35b3480156105ba57600080fd5b506105c36129ec565b6040516105d09190614879565b60405180910390f35b60007f80ac58cd000000000000000000000000000000000000000000000000000000007bffffffffffffffffffffffffffffffffffffffffffffffffffffffff1916827bffffffffffffffffffffffffffffffffffffffffffffffffffffffff191614806106a457507f5b5e139f000000000000000000000000000000000000000000000000000000007bffffffffffffffffffffffffffffffffffffffffffffffffffffffff1916827bffffffffffffffffffffffffffffffffffffffffffffffffffffffff1916145b806106b457506106b382612ba3565b5b9050919050565b600f60009054906101000a900473ffffffffffffffffffffffffffffffffffffffff1673ffffffffffffffffffffffffffffffffffffffff163373ffffffffffffffffffffffffffffffffffffffff161480156107485750600a81815481106107275761072661489b565b5b906000526020600020906008020160070160009054906101000a900460ff16155b610787576040517f08c379a000000000000000000000000000000000000000000000000000000000815260040161077e90614962565b60405180910390fd5b6001600a828154811061079d5761079c61489b565b5b906000526020600020906008020160070160006101000a81548160ff021916908315150217905550600160038111156107d9576107d86141bf565b5b600a82815481106107ed576107ec61489b565b5b906000526020600020906008020160070160029054906101000a900460ff16600381111561081e5761081d6141bf565b5b03610898576108976008828154811061083a5761083961489b565b5b906000526020600020906006020160010160009054906101000a900473ffffffffffffffffffffffffffffffffffffffff16600a83815481106108805761087f61489b565b5b906000526020600020906008020160060154612c0d565b5b6003600a82815481106108ae576108ad61489b565b5b906000526020600020906008020160070160026101000a81548160ff021916908360038111156108e1576108e06141bf565b5b021790555050565b6060600080546108f8906149b1565b80601f0160208091040260200160405190810160405280929190818152602001828054610924906149b1565b80156109715780601f1061094657610100808354040283529160200191610971565b820191906000526020600020905b81548152906001019060200180831161095457829003601f168201915b5050505050905090565b600061098682612cbe565b6004600083815260200190815260200160002060009054906101000a900473ffffffffffffffffffffffffffffffffffffffff169050919050565b60006109cc8261196b565b90508073ffffffffffffffffffffffffffffffffffffffff168373ffffffffffffffffffffffffffffffffffffffff1603610a3c576040517f08c379a0000000000000000000000000000000000000000000000000000000008152600401610a3390614a54565b60405180910390fd5b8073ffffffffffffffffffffffffffffffffffffffff16610a5b612d09565b73ffffffffffffffffffffffffffffffffffffffff161480610a8a5750610a8981610a84612d09565b612680565b5b610ac9576040517f08c379a0000000000000000000000000000000000000000000000000000000008152600401610ac090614ae6565b60405180910390fd5b610ad38383612d11565b505050565b610ae0612dca565b60006003811115610af457610af36141bf565b5b600a8281548110610b0857610b0761489b565b5b906000526020600020906008020160070160029054906101000a900460ff166003811115610b3957610b386141bf565b5b14610b79576040517f08c379a0000000000000000000000000000000000000000000000000000000008152600401610b7090614b52565b60405180910390fd5b600a8181548110610b8d57610b8c61489b565b5b906000526020600020906008020160000160009054906101000a900473ffffffffffffffffffffffffffffffffffffffff1673ffffffffffffffffffffffffffffffffffffffff163373ffffffffffffffffffffffffffffffffffffffff1603610c2c576040517f08c379a0000000000000000000000000000000000000000000000000000000008152600401610c2390614bbe565b60405180910390fd5b600e600082815260200190815260200160002060009054906101000a900460ff16610c8c576040517f08c379a0000000000000000000000000000000000000000000000000000000008152600401610c8390614c2a565b60405180910390fd5b600a8181548110610ca057610c9f61489b565b5b9060005260206000209060080201600601543414610cf3576040517f08c379a0000000000000000000000000000000000000000000000000000000008152600401610cea90614c96565b60405180910390fd5b6000600960008381526020019081526020016000209050818160000181905550338160010160006101000a81548173ffffffffffffffffffffffffffffffffffffffff021916908373ffffffffffffffffffffffffffffffffffffffff16021790555034816002018190555042816003018190555060018160040160016101000a81548160ff0219169083151502179055506008819080600181540180825580915050600190039060005260206000209060060201600090919091909150600082015481600001556001820160009054906101000a900473ffffffffffffffffffffffffffffffffffffffff168160010160006101000a81548173ffffffffffffffffffffffffffffffffffffffff021916908373ffffffffffffffffffffffffffffffffffffffff16021790555060028201548160020155600382015481600301556004820160009054906101000a900460ff168160040160006101000a81548160ff0219169083151502179055506004820160019054906101000a900460ff168160040160016101000a81548160ff0219169083151502179055506004820160029054906101000a900460ff168160040160026101000a81548160ff02191690831515021790555060058201816005019081610ed19190614e78565b5050506001600a8381548110610eea57610ee961489b565b5b906000526020600020906008020160070160016101000a81548160ff0219169083151502179055507f2018a69277a3b64014d178d92da02c971e68f2f7d89f996327e9757f49c433ba33600a8481548110610f4857610f4761489b565b5b906000526020600020906008020160000160009054906101000a900473ffffffffffffffffffffffffffffffffffffffff1642346001604051610f8f959493929190614f60565b60405180910390a16001600a8381548110610fad57610fac61489b565b5b906000526020600020906008020160070160026101000a81548160ff02191690836003811115610fe057610fdf6141bf565b5b021790555050610fee612e19565b50565b611002610ffc612d09565b82612e23565b611041576040517f08c379a000000000000000000000000000000000000000000000000000000000815260040161103890615025565b60405180910390fd5b61104c838383612eb8565b505050565b60016003811115611065576110646141bf565b5b600a82815481106110795761107861489b565b5b906000526020600020906008020160070160029054906101000a900460ff1660038111156110aa576110a96141bf565b5b1480156111275750600881815481106110c6576110c561489b565b5b906000526020600020906006020160010160009054906101000a900473ffffffffffffffffffffffffffffffffffffffff1673ffffffffffffffffffffffffffffffffffffffff163373ffffffffffffffffffffffffffffffffffffffff16145b80156111635750600881815481106111425761114161489b565b5b906000526020600020906006020160040160009054906101000a900460ff16155b6111a2576040517f08c379a0000000000000000000000000000000000000000000000000000000008152600401611199906150b7565b60405180910390fd5b611216600882815481106111b9576111b861489b565b5b906000526020600020906006020160010160009054906101000a900473ffffffffffffffffffffffffffffffffffffffff16600a83815481106111ff576111fe61489b565b5b906000526020600020906008020160060154612c0d565b6000600a828154811061122c5761122b61489b565b5b906000526020600020906008020160070160026101000a81548160ff0219169083600381111561125f5761125e6141bf565b5b021790555060016008828154811061127a5761127961489b565b5b906000526020600020906006020160040160006101000a81548160ff0219169083151502179055507f90275f985e775513095ffb56164a8175c3ec79a6827416e63758045ff7ed52f0600a82815481106112d7576112d661489b565b5b906000526020600020906008020160070160029054906101000a900460ff166008838154811061130a5761130961489b565b5b906000526020600020906006020160040160009054906101000a900460ff166040516113379291906150e6565b60405180910390a150565b600080855111611387576040517f08c379a000000000000000000000000000000000000000000000000000000000815260040161137e9061515b565b60405180910390fd5b60008451116113cb576040517f08c379a00000000000000000000000000000000000000000000000000000000081526004016113c2906151c7565b60405180910390fd5b600083511161140f576040517f08c379a000000000000000000000000000000000000000000000000000000000815260040161140690615233565b60405180910390fd5b60008211611452576040517f08c379a00000000000000000000000000000000000000000000000000000000081526004016114499061529f565b60405180910390fd5b600d8360405161146291906152fb565b908152602001604051809103902060009054906101000a900460ff16156114be576040517f08c379a00000000000000000000000000000000000000000000000000000000081526004016114b59061535e565b60405180910390fd5b6000600760008154809291906114d3906153ad565b9190505590506000600b60008381526020019081526020016000209050338160000160006101000a81548173ffffffffffffffffffffffffffffffffffffffff021916908373ffffffffffffffffffffffffffffffffffffffff1602179055508181600101819055508681600201908161154d91906153f5565b508581600301908161155f91906153f5565b508481600401908161157191906153f5565b50428160050181905550838160060181905550600a8190806001815401808255809150506001900390600052602060002090600802016000909190919091506000820160009054906101000a900473ffffffffffffffffffffffffffffffffffffffff168160000160006101000a81548173ffffffffffffffffffffffffffffffffffffffff021916908373ffffffffffffffffffffffffffffffffffffffff16021790555060018201548160010155600282018160020190816116359190614e78565b506003820181600301908161164a9190614e78565b506004820181600401908161165f9190614e78565b5060058201548160050155600682015481600601556007820160009054906101000a900460ff168160070160006101000a81548160ff0219169083151502179055506007820160019054906101000a900460ff168160070160016101000a81548160ff0219169083151502179055506007820160029054906101000a900460ff168160070160026101000a81548160ff02191690836003811115611706576117056141bf565b5b021790555050506001600d8660405161171f91906152fb565b908152602001604051809103902060006101000a81548160ff0219169083151502179055506001600e600084815260200190815260200160002060006101000a81548160ff021916908315150217905550817f1bd34f5070969faf7c075ecf37c24f973b7c3a11714bbb362e90c5284f96cf5b338742886040516117a694939291906154c7565b60405180910390a26117b833836131b1565b600192505050949350505050565b6117e183838360405180602001604052806000815250611ff1565b505050565b6117ee613a7b565b6009600083815260200190815260200160002060405180610100016040529081600082015481526020016001820160009054906101000a900473ffffffffffffffffffffffffffffffffffffffff1673ffffffffffffffffffffffffffffffffffffffff1673ffffffffffffffffffffffffffffffffffffffff16815260200160028201548152602001600382015481526020016004820160009054906101000a900460ff161515151581526020016004820160019054906101000a900460ff161515151581526020016004820160029054906101000a900460ff161515151581526020016005820180546118e2906149b1565b80601f016020809104026020016040519081016040528092919081815260200182805461190e906149b1565b801561195b5780601f106119305761010080835404028352916020019161195b565b820191906000526020600020905b81548152906001019060200180831161193e57829003601f168201915b5050505050815250509050919050565b600080611977836131cf565b9050600073ffffffffffffffffffffffffffffffffffffffff168173ffffffffffffffffffffffffffffffffffffffff16036119e8576040517f08c379a00000000000000000000000000000000000000000000000000000000081526004016119df9061555f565b60405180910390fd5b80915050919050565b6060600a805480602002602001604051908101604052809291908181526020016000905b82821015611ce35783829060005260206000209060080201604051806101400160405290816000820160009054906101000a900473ffffffffffffffffffffffffffffffffffffffff1673ffffffffffffffffffffffffffffffffffffffff1673ffffffffffffffffffffffffffffffffffffffff16815260200160018201548152602001600282018054611aa9906149b1565b80601f0160208091040260200160405190810160405280929190818152602001828054611ad5906149b1565b8015611b225780601f10611af757610100808354040283529160200191611b22565b820191906000526020600020905b815481529060010190602001808311611b0557829003601f168201915b50505050508152602001600382018054611b3b906149b1565b80601f0160208091040260200160405190810160405280929190818152602001828054611b67906149b1565b8015611bb45780601f10611b8957610100808354040283529160200191611bb4565b820191906000526020600020905b815481529060010190602001808311611b9757829003601f168201915b50505050508152602001600482018054611bcd906149b1565b80601f0160208091040260200160405190810160405280929190818152602001828054611bf9906149b1565b8015611c465780601f10611c1b57610100808354040283529160200191611c46565b820191906000526020600020905b815481529060010190602001808311611c2957829003601f168201915b5050505050815260200160058201548152602001600682015481526020016007820160009054906101000a900460ff161515151581526020016007820160019054906101000a900460ff161515151581526020016007820160029054906101000a900460ff166003811115611cbe57611cbd6141bf565b5b6003811115611cd057611ccf6141bf565b5b8152505081526020019060010190611a15565b50505050905090565b60008073ffffffffffffffffffffffffffffffffffffffff168273ffffffffffffffffffffffffffffffffffffffff1603611d5c576040517f08c379a0000000000000000000000000000000000000000000000000000000008152600401611d53906155f1565b60405180910390fd5b600360008373ffffffffffffffffffffffffffffffffffffffff1673ffffffffffffffffffffffffffffffffffffffff168152602001908152602001600020549050919050565b600f60009054906101000a900473ffffffffffffffffffffffffffffffffffffffff1681565b600f60009054906101000a900473ffffffffffffffffffffffffffffffffffffffff1673ffffffffffffffffffffffffffffffffffffffff163373ffffffffffffffffffffffffffffffffffffffff16148015611e7b5750600380811115611e3457611e336141bf565b5b600a8281548110611e4857611e4761489b565b5b906000526020600020906008020160070160029054906101000a900460ff166003811115611e7957611e786141bf565b5b145b611eba576040517f08c379a0000000000000000000000000000000000000000000000000000000008152600401611eb19061565d565b60405180910390fd5b6000600a8281548110611ed057611ecf61489b565b5b906000526020600020906008020160070160006101000a81548160ff0219169083151502179055506000600a8281548110611f0e57611f0d61489b565b5b906000526020600020906008020160070160026101000a81548160ff02191690836003811115611f4157611f406141bf565b5b021790555050565b606060018054611f58906149b1565b80601f0160208091040260200160405190810160405280929190818152602001828054611f84906149b1565b8015611fd15780601f10611fa657610100808354040283529160200191611fd1565b820191906000526020600020905b815481529060010190602001808311611fb457829003601f168201915b5050505050905090565b611fed611fe6612d09565b838361320c565b5050565b612002611ffc612d09565b83612e23565b612041576040517f08c379a000000000000000000000000000000000000000000000000000000000815260040161203890615025565b60405180910390fd5b61204d84848484613378565b50505050565b600e600082815260200190815260200160002060009054906101000a900460ff166120b3576040517f08c379a00000000000000000000000000000000000000000000000000000000081526004016120aa90614c2a565b60405180910390fd5b600160038111156120c7576120c66141bf565b5b600a82815481106120db576120da61489b565b5b906000526020600020906008020160070160029054906101000a900460ff16600381111561210c5761210b6141bf565b5b1461214c576040517f08c379a0000000000000000000000000000000000000000000000000000000008152600401612143906156c9565b60405180910390fd5b600881815481106121605761215f61489b565b5b906000526020600020906006020160010160009054906101000a900473ffffffffffffffffffffffffffffffffffffffff1673ffffffffffffffffffffffffffffffffffffffff163373ffffffffffffffffffffffffffffffffffffffff16146121ff576040517f08c379a00000000000000000000000000000000000000000000000000000000081526004016121f6906150b7565b60405180910390fd5b600881815481106122135761221261489b565b5b906000526020600020906006020160040160029054906101000a900460ff1615612272576040517f08c379a00000000000000000000000000000000000000000000000000000000081526004016122699061575b565b60405180910390fd5b6001600882815481106122885761228761489b565b5b906000526020600020906006020160040160026101000a81548160ff021916908315150217905550612324600a82815481106122c7576122c661489b565b5b906000526020600020906008020160000160009054906101000a900473ffffffffffffffffffffffffffffffffffffffff16600a838154811061230d5761230c61489b565b5b906000526020600020906008020160060154612c0d565b600881815481106123385761233761489b565b5b906000526020600020906006020160020154600a828154811061235e5761235d61489b565b5b9060005260206000209060080201600601600082825461237e919061577b565b925050819055506002600a828154811061239b5761239a61489b565b5b906000526020600020906008020160070160026101000a81548160ff021916908360038111156123ce576123cd6141bf565b5b0217905550612448600a82815481106123ea576123e961489b565b5b906000526020600020906008020160000160009054906101000a900473ffffffffffffffffffffffffffffffffffffffff1633600a84815481106124315761243061489b565b5b906000526020600020906008020160010154612eb8565b600a818154811061245c5761245b61489b565b5b9060005260206000209060080201600401600882815481106124815761248061489b565b5b9060005260206000209060060201600501908161249e91906157da565b5033600a82815481106124b4576124b361489b565b5b906000526020600020906008020160000160006101000a81548173ffffffffffffffffffffffffffffffffffffffff021916908373ffffffffffffffffffffffffffffffffffffffff1602179055507f8eac340af35af673875d62f0b4eeaa6928b83ecb2f0f45ef9b6d1cba38b00661600a82815481106125385761253761489b565b5b906000526020600020906008020160000160009054906101000a900473ffffffffffffffffffffffffffffffffffffffff166008838154811061257e5761257d61489b565b5b906000526020600020906006020160010160009054906101000a900473ffffffffffffffffffffffffffffffffffffffff16600a84815481106125c4576125c361489b565b5b906000526020600020906008020160010154600885815481106125ea576125e961489b565b5b90600052602060002090600602016005014260405161260d959493929190615946565b60405180910390a150565b606061262382612cbe565b600061262d6133d4565b9050600081511161264d5760405180602001604052806000815250612678565b80612657846133eb565b6040516020016126689291906159a0565b6040516020818303038152906040525b915050919050565b6000600560008473ffffffffffffffffffffffffffffffffffffffff1673ffffffffffffffffffffffffffffffffffffffff16815260200190815260200160002060008373ffffffffffffffffffffffffffffffffffffffff1673ffffffffffffffffffffffffffffffffffffffff16815260200190815260200160002060009054906101000a900460ff16905092915050565b61271c613adc565b600a82815481106127305761272f61489b565b5b9060005260206000209060080201604051806101400160405290816000820160009054906101000a900473ffffffffffffffffffffffffffffffffffffffff1673ffffffffffffffffffffffffffffffffffffffff1673ffffffffffffffffffffffffffffffffffffffff168152602001600182015481526020016002820180546127ba906149b1565b80601f01602080910402602001604051908101604052809291908181526020018280546127e6906149b1565b80156128335780601f1061280857610100808354040283529160200191612833565b820191906000526020600020905b81548152906001019060200180831161281657829003601f168201915b5050505050815260200160038201805461284c906149b1565b80601f0160208091040260200160405190810160405280929190818152602001828054612878906149b1565b80156128c55780601f1061289a576101008083540402835291602001916128c5565b820191906000526020600020905b8154815290600101906020018083116128a857829003601f168201915b505050505081526020016004820180546128de906149b1565b80601f016020809104026020016040519081016040528092919081815260200182805461290a906149b1565b80156129575780601f1061292c57610100808354040283529160200191612957565b820191906000526020600020905b81548152906001019060200180831161293a57829003601f168201915b5050505050815260200160058201548152602001600682015481526020016007820160009054906101000a900460ff161515151581526020016007820160019054906101000a900460ff161515151581526020016007820160029054906101000a900460ff1660038111156129cf576129ce6141bf565b5b60038111156129e1576129e06141bf565b5b815250509050919050565b60606008805480602002602001604051908101604052809291908181526020016000905b82821015612b9a578382906000526020600020906006020160405180610100016040529081600082015481526020016001820160009054906101000a900473ffffffffffffffffffffffffffffffffffffffff1673ffffffffffffffffffffffffffffffffffffffff1673ffffffffffffffffffffffffffffffffffffffff16815260200160028201548152602001600382015481526020016004820160009054906101000a900460ff161515151581526020016004820160019054906101000a900460ff161515151581526020016004820160029054906101000a900460ff16151515158152602001600582018054612b09906149b1565b80601f0160208091040260200160405190810160405280929190818152602001828054612b35906149b1565b8015612b825780601f10612b5757610100808354040283529160200191612b82565b820191906000526020600020905b815481529060010190602001808311612b6557829003601f168201915b50505050508152505081526020019060010190612a10565b50505050905090565b60007f01ffc9a7000000000000000000000000000000000000000000000000000000007bffffffffffffffffffffffffffffffffffffffffffffffffffffffff1916827bffffffffffffffffffffffffffffffffffffffffffffffffffffffff1916149050919050565b60008273ffffffffffffffffffffffffffffffffffffffff1682604051612c33906159f5565b60006040518083038185875af1925050503d8060008114612c70576040519150601f19603f3d011682016040523d82523d6000602084013e612c75565b606091505b5050905080612cb9576040517f08c379a0000000000000000000000000000000000000000000000000000000008152600401612cb090615a56565b60405180910390fd5b505050565b612cc7816134b9565b612d06576040517f08c379a0000000000000000000000000000000000000000000000000000000008152600401612cfd9061555f565b60405180910390fd5b50565b600033905090565b816004600083815260200190815260200160002060006101000a81548173ffffffffffffffffffffffffffffffffffffffff021916908373ffffffffffffffffffffffffffffffffffffffff160217905550808273ffffffffffffffffffffffffffffffffffffffff16612d848361196b565b73ffffffffffffffffffffffffffffffffffffffff167f8c5be1e5ebec7d5bd14f71427d1e84f3dd0314c0f7b2291e5b200ac8c7c3b92560405160405180910390a45050565b600260065403612e0f576040517f08c379a0000000000000000000000000000000000000000000000000000000008152600401612e0690615ac2565b60405180910390fd5b6002600681905550565b6001600681905550565b600080612e2f8361196b565b90508073ffffffffffffffffffffffffffffffffffffffff168473ffffffffffffffffffffffffffffffffffffffff161480612e715750612e708185612680565b5b80612eaf57508373ffffffffffffffffffffffffffffffffffffffff16612e978461097b565b73ffffffffffffffffffffffffffffffffffffffff16145b91505092915050565b8273ffffffffffffffffffffffffffffffffffffffff16612ed88261196b565b73ffffffffffffffffffffffffffffffffffffffff1614612f2e576040517f08c379a0000000000000000000000000000000000000000000000000000000008152600401612f2590615b54565b60405180910390fd5b600073ffffffffffffffffffffffffffffffffffffffff168273ffffffffffffffffffffffffffffffffffffffff1603612f9d576040517f08c379a0000000000000000000000000000000000000000000000000000000008152600401612f9490615be6565b60405180910390fd5b612faa83838360016134fa565b8273ffffffffffffffffffffffffffffffffffffffff16612fca8261196b565b73ffffffffffffffffffffffffffffffffffffffff1614613020576040517f08c379a000000000000000000000000000000000000000000000000000000000815260040161301790615b54565b60405180910390fd5b6004600082815260200190815260200160002060006101000a81549073ffffffffffffffffffffffffffffffffffffffff02191690556001600360008573ffffffffffffffffffffffffffffffffffffffff1673ffffffffffffffffffffffffffffffffffffffff168152602001908152602001600020600082825403925050819055506001600360008473ffffffffffffffffffffffffffffffffffffffff1673ffffffffffffffffffffffffffffffffffffffff16815260200190815260200160002060008282540192505081905550816002600083815260200190815260200160002060006101000a81548173ffffffffffffffffffffffffffffffffffffffff021916908373ffffffffffffffffffffffffffffffffffffffff160217905550808273ffffffffffffffffffffffffffffffffffffffff168473ffffffffffffffffffffffffffffffffffffffff167fddf252ad1be2c89b69c2b068fc378daa952ba7f163c4a11628f55a4df523b3ef60405160405180910390a46131ac8383836001613500565b505050565b6131cb828260405180602001604052806000815250613506565b5050565b60006002600083815260200190815260200160002060009054906101000a900473ffffffffffffffffffffffffffffffffffffffff169050919050565b8173ffffffffffffffffffffffffffffffffffffffff168373ffffffffffffffffffffffffffffffffffffffff160361327a576040517f08c379a000000000000000000000000000000000000000000000000000000000815260040161327190615c52565b60405180910390fd5b80600560008573ffffffffffffffffffffffffffffffffffffffff1673ffffffffffffffffffffffffffffffffffffffff16815260200190815260200160002060008473ffffffffffffffffffffffffffffffffffffffff1673ffffffffffffffffffffffffffffffffffffffff16815260200190815260200160002060006101000a81548160ff0219169083151502179055508173ffffffffffffffffffffffffffffffffffffffff168373ffffffffffffffffffffffffffffffffffffffff167f17307eab39ab6107e8899845ad3d59bd9653f200f220920489ca2b5937696c318360405161336b9190613c0f565b60405180910390a3505050565b613383848484612eb8565b61338f84848484613561565b6133ce576040517f08c379a00000000000000000000000000000000000000000000000000000000081526004016133c590615ce4565b60405180910390fd5b50505050565b606060405180602001604052806000815250905090565b6060600060016133fa846136e8565b01905060008167ffffffffffffffff81111561341957613418613e64565b5b6040519080825280601f01601f19166020018201604052801561344b5781602001600182028036833780820191505090505b509050600082602001820190505b6001156134ae578080600190039150507f3031323334353637383961626364656600000000000000000000000000000000600a86061a8153600a85816134a2576134a1615d04565b5b04945060008503613459575b819350505050919050565b60008073ffffffffffffffffffffffffffffffffffffffff166134db836131cf565b73ffffffffffffffffffffffffffffffffffffffff1614159050919050565b50505050565b50505050565b613510838361383b565b61351d6000848484613561565b61355c576040517f08c379a000000000000000000000000000000000000000000000000000000000815260040161355390615ce4565b60405180910390fd5b505050565b60006135828473ffffffffffffffffffffffffffffffffffffffff16613a58565b156136db578373ffffffffffffffffffffffffffffffffffffffff1663150b7a026135ab612d09565b8786866040518563ffffffff1660e01b81526004016135cd9493929190615d88565b6020604051808303816000875af192505050801561360957506040513d601f19601f820116820180604052508101906136069190615de9565b60015b61368b573d8060008114613639576040519150601f19603f3d011682016040523d82523d6000602084013e61363e565b606091505b506000815103613683576040517f08c379a000000000000000000000000000000000000000000000000000000000815260040161367a90615ce4565b60405180910390fd5b805181602001fd5b63150b7a0260e01b7bffffffffffffffffffffffffffffffffffffffffffffffffffffffff1916817bffffffffffffffffffffffffffffffffffffffffffffffffffffffff1916149150506136e0565b600190505b949350505050565b600080600090507a184f03e93ff9f4daa797ed6e38ed64bf6a1f0100000000000000008310613746577a184f03e93ff9f4daa797ed6e38ed64bf6a1f010000000000000000838161373c5761373b615d04565b5b0492506040810190505b6d04ee2d6d415b85acef81000000008310613783576d04ee2d6d415b85acef8100000000838161377957613778615d04565b5b0492506020810190505b662386f26fc1000083106137b257662386f26fc1000083816137a8576137a7615d04565b5b0492506010810190505b6305f5e10083106137db576305f5e10083816137d1576137d0615d04565b5b0492506008810190505b61271083106138005761271083816137f6576137f5615d04565b5b0492506004810190505b60648310613823576064838161381957613818615d04565b5b0492506002810190505b600a8310613832576001810190505b80915050919050565b600073ffffffffffffffffffffffffffffffffffffffff168273ffffffffffffffffffffffffffffffffffffffff16036138aa576040517f08c379a00000000000000000000000000000000000000000000000000000000081526004016138a190615e62565b60405180910390fd5b6138b3816134b9565b156138f3576040517f08c379a00000000000000000000000000000000000000000000000000000000081526004016138ea90615ece565b60405180910390fd5b6139016000838360016134fa565b61390a816134b9565b1561394a576040517f08c379a000000000000000000000000000000000000000000000000000000000815260040161394190615ece565b60405180910390fd5b6001600360008473ffffffffffffffffffffffffffffffffffffffff1673ffffffffffffffffffffffffffffffffffffffff16815260200190815260200160002060008282540192505081905550816002600083815260200190815260200160002060006101000a81548173ffffffffffffffffffffffffffffffffffffffff021916908373ffffffffffffffffffffffffffffffffffffffff160217905550808273ffffffffffffffffffffffffffffffffffffffff16600073ffffffffffffffffffffffffffffffffffffffff167fddf252ad1be2c89b69c2b068fc378daa952ba7f163c4a11628f55a4df523b3ef60405160405180910390a4613a54600083836001613500565b5050565b6000808273ffffffffffffffffffffffffffffffffffffffff163b119050919050565b60405180610100016040528060008152602001600073ffffffffffffffffffffffffffffffffffffffff1681526020016000815260200160008152602001600015158152602001600015158152602001600015158152602001606081525090565b604051806101400160405280600073ffffffffffffffffffffffffffffffffffffffff16815260200160008152602001606081526020016060815260200160608152602001600081526020016000815260200160001515815260200160001515815260200160006003811115613b5557613b546141bf565b5b81525090565b6000604051905090565b600080fd5b600080fd5b60007fffffffff0000000000000000000000000000000000000000000000000000000082169050919050565b613ba481613b6f565b8114613baf57600080fd5b50565b600081359050613bc181613b9b565b92915050565b600060208284031215613bdd57613bdc613b65565b5b6000613beb84828501613bb2565b91505092915050565b60008115159050919050565b613c0981613bf4565b82525050565b6000602082019050613c246000830184613c00565b92915050565b6000819050919050565b613c3d81613c2a565b8114613c4857600080fd5b50565b600081359050613c5a81613c34565b92915050565b600060208284031215613c7657613c75613b65565b5b6000613c8484828501613c4b565b91505092915050565b600081519050919050565b600082825260208201905092915050565b60005b83811015613cc7578082015181840152602081019050613cac565b60008484015250505050565b6000601f19601f8301169050919050565b6000613cef82613c8d565b613cf98185613c98565b9350613d09818560208601613ca9565b613d1281613cd3565b840191505092915050565b60006020820190508181036000830152613d378184613ce4565b905092915050565b600073ffffffffffffffffffffffffffffffffffffffff82169050919050565b6000613d6a82613d3f565b9050919050565b613d7a81613d5f565b82525050565b6000602082019050613d956000830184613d71565b92915050565b613da481613d5f565b8114613daf57600080fd5b50565b600081359050613dc181613d9b565b92915050565b60008060408385031215613dde57613ddd613b65565b5b6000613dec85828601613db2565b9250506020613dfd85828601613c4b565b9150509250929050565b600080600060608486031215613e2057613e1f613b65565b5b6000613e2e86828701613db2565b9350506020613e3f86828701613db2565b9250506040613e5086828701613c4b565b9150509250925092565b600080fd5b600080fd5b7f4e487b7100000000000000000000000000000000000000000000000000000000600052604160045260246000fd5b613e9c82613cd3565b810181811067ffffffffffffffff82111715613ebb57613eba613e64565b5b80604052505050565b6000613ece613b5b565b9050613eda8282613e93565b919050565b600067ffffffffffffffff821115613efa57613ef9613e64565b5b613f0382613cd3565b9050602081019050919050565b82818337600083830152505050565b6000613f32613f2d84613edf565b613ec4565b905082815260208101848484011115613f4e57613f4d613e5f565b5b613f59848285613f10565b509392505050565b600082601f830112613f7657613f75613e5a565b5b8135613f86848260208601613f1f565b91505092915050565b60008060008060808587031215613fa957613fa8613b65565b5b600085013567ffffffffffffffff811115613fc757613fc6613b6a565b5b613fd387828801613f61565b945050602085013567ffffffffffffffff811115613ff457613ff3613b6a565b5b61400087828801613f61565b935050604085013567ffffffffffffffff81111561402157614020613b6a565b5b61402d87828801613f61565b925050606061403e87828801613c4b565b91505092959194509250565b61405381613c2a565b82525050565b61406281613d5f565b82525050565b61407181613bf4565b82525050565b600082825260208201905092915050565b600061409382613c8d565b61409d8185614077565b93506140ad818560208601613ca9565b6140b681613cd3565b840191505092915050565b6000610100830160008301516140da600086018261404a565b5060208301516140ed6020860182614059565b506040830151614100604086018261404a565b506060830151614113606086018261404a565b5060808301516141266080860182614068565b5060a083015161413960a0860182614068565b5060c083015161414c60c0860182614068565b5060e083015184820360e08601526141648282614088565b9150508091505092915050565b6000602082019050818103600083015261418b81846140c1565b905092915050565b600081519050919050565b600082825260208201905092915050565b6000819050602082019050919050565b7f4e487b7100000000000000000000000000000000000000000000000000000000600052602160045260246000fd5b600481106141ff576141fe6141bf565b5b50565b6000819050614210826141ee565b919050565b600061422082614202565b9050919050565b61423081614215565b82525050565b60006101408301600083015161424f6000860182614059565b506020830151614262602086018261404a565b506040830151848203604086015261427a8282614088565b915050606083015184820360608601526142948282614088565b915050608083015184820360808601526142ae8282614088565b91505060a08301516142c360a086018261404a565b5060c08301516142d660c086018261404a565b5060e08301516142e960e0860182614068565b506101008301516142fe610100860182614068565b50610120830151614313610120860182614227565b508091505092915050565b600061432a8383614236565b905092915050565b6000602082019050919050565b600061434a82614193565b614354818561419e565b935083602082028501614366856141af565b8060005b858110156143a25784840389528151614383858261431e565b945061438e83614332565b925060208a0199505060018101905061436a565b50829750879550505050505092915050565b600060208201905081810360008301526143ce818461433f565b905092915050565b6000602082840312156143ec576143eb613b65565b5b60006143fa84828501613db2565b91505092915050565b61440c81613c2a565b82525050565b60006020820190506144276000830184614403565b92915050565b61443681613bf4565b811461444157600080fd5b50565b6000813590506144538161442d565b92915050565b600080604083850312156144705761446f613b65565b5b600061447e85828601613db2565b925050602061448f85828601614444565b9150509250929050565b600067ffffffffffffffff8211156144b4576144b3613e64565b5b6144bd82613cd3565b9050602081019050919050565b60006144dd6144d884614499565b613ec4565b9050828152602081018484840111156144f9576144f8613e5f565b5b614504848285613f10565b509392505050565b600082601f83011261452157614520613e5a565b5b81356145318482602086016144ca565b91505092915050565b6000806000806080858703121561455457614553613b65565b5b600061456287828801613db2565b945050602061457387828801613db2565b935050604061458487828801613c4b565b925050606085013567ffffffffffffffff8111156145a5576145a4613b6a565b5b6145b18782880161450c565b91505092959194509250565b600080604083850312156145d4576145d3613b65565b5b60006145e285828601613db2565b92505060206145f385828601613db2565b9150509250929050565b6000610140830160008301516146166000860182614059565b506020830151614629602086018261404a565b50604083015184820360408601526146418282614088565b9150506060830151848203606086015261465b8282614088565b915050608083015184820360808601526146758282614088565b91505060a083015161468a60a086018261404a565b5060c083015161469d60c086018261404a565b5060e08301516146b060e0860182614068565b506101008301516146c5610100860182614068565b506101208301516146da610120860182614227565b508091505092915050565b600060208201905081810360008301526146ff81846145fd565b905092915050565b600081519050919050565b600082825260208201905092915050565b6000819050602082019050919050565b60006101008301600083015161474c600086018261404a565b50602083015161475f6020860182614059565b506040830151614772604086018261404a565b506060830151614785606086018261404a565b5060808301516147986080860182614068565b5060a08301516147ab60a0860182614068565b5060c08301516147be60c0860182614068565b5060e083015184820360e08601526147d68282614088565b9150508091505092915050565b60006147ef8383614733565b905092915050565b6000602082019050919050565b600061480f82614707565b6148198185614712565b93508360208202850161482b85614723565b8060005b85811015614867578484038952815161484885826147e3565b9450614853836147f7565b925060208a0199505060018101905061482f565b50829750879550505050505092915050565b600060208201905081810360008301526148938184614804565b905092915050565b7f4e487b7100000000000000000000000000000000000000000000000000000000600052603260045260246000fd5b7f4f6e6c79204f776e6572206861732074686520617574686f7269747920746f2060008201527f63616e2070726f62652041737365742c2050726f63657373205265766572736560208201527f6400000000000000000000000000000000000000000000000000000000000000604082015250565b600061494c604183613c98565b9150614957826148ca565b606082019050919050565b6000602082019050818103600083015261497b8161493f565b9050919050565b7f4e487b7100000000000000000000000000000000000000000000000000000000600052602260045260246000fd5b600060028204905060018216806149c957607f821691505b6020821081036149dc576149db614982565b5b50919050565b7f4552433732313a20617070726f76616c20746f2063757272656e74206f776e6560008201527f7200000000000000000000000000000000000000000000000000000000000000602082015250565b6000614a3e602183613c98565b9150614a49826149e2565b604082019050919050565b60006020820190508181036000830152614a6d81614a31565b9050919050565b7f4552433732313a20617070726f76652063616c6c6572206973206e6f7420746f60008201527f6b656e206f776e6572206f7220617070726f76656420666f7220616c6c000000602082015250565b6000614ad0603d83613c98565b9150614adb82614a74565b604082019050919050565b60006020820190508181036000830152614aff81614ac3565b9050919050565b7f417373657420697320756e6465676f696e67204e65676f74696174696f6e0000600082015250565b6000614b3c601e83613c98565b9150614b4782614b06565b602082019050919050565b60006020820190508181036000830152614b6b81614b2f565b9050919050565b7f596f752063616e6e6f742062757920796f757220417373657400000000000000600082015250565b6000614ba8601983613c98565b9150614bb382614b72565b602082019050919050565b60006020820190508181036000830152614bd781614b9b565b9050919050565b7f417373657420646f6573206e6f74204578697374000000000000000000000000600082015250565b6000614c14601483613c98565b9150614c1f82614bde565b602082019050919050565b60006020820190508181036000830152614c4381614c07565b9050919050565b7f496e636f7272656374207061796d656e7420616d6f756e740000000000000000600082015250565b6000614c80601883613c98565b9150614c8b82614c4a565b602082019050919050565b60006020820190508181036000830152614caf81614c73565b9050919050565b600081549050614cc5816149b1565b9050919050565b60008190508160005260206000209050919050565b60006020601f8301049050919050565b600082821b905092915050565b600060088302614d2e7fffffffffffffffffffffffffffffffffffffffffffffffffffffffffffffffff82614cf1565b614d388683614cf1565b95508019841693508086168417925050509392505050565b6000819050919050565b6000614d75614d70614d6b84613c2a565b614d50565b613c2a565b9050919050565b6000819050919050565b614d8f83614d5a565b614da3614d9b82614d7c565b848454614cfe565b825550505050565b600090565b614db8614dab565b614dc3818484614d86565b505050565b5b81811015614de757614ddc600082614db0565b600181019050614dc9565b5050565b601f821115614e2c57614dfd81614ccc565b614e0684614ce1565b81016020851015614e15578190505b614e29614e2185614ce1565b830182614dc8565b50505b505050565b600082821c905092915050565b6000614e4f60001984600802614e31565b1980831691505092915050565b6000614e688383614e3e565b9150826002028217905092915050565b818103614e86575050614f5e565b614e8f82614cb6565b67ffffffffffffffff811115614ea857614ea7613e64565b5b614eb282546149b1565b614ebd828285614deb565b6000601f831160018114614eec5760008415614eda578287015490505b614ee48582614e5c565b865550614f57565b601f198416614efa87614ccc565b9650614f0586614ccc565b60005b82811015614f2d57848901548255600182019150600185019450602081019050614f08565b86831015614f4a5784890154614f46601f891682614e3e565b8355505b6001600288020188555050505b5050505050505b565b600060a082019050614f756000830188613d71565b614f826020830187613d71565b614f8f6040830186614403565b614f9c6060830185614403565b614fa96080830184613c00565b9695505050505050565b7f4552433732313a2063616c6c6572206973206e6f7420746f6b656e206f776e6560008201527f72206f7220617070726f76656400000000000000000000000000000000000000602082015250565b600061500f602d83613c98565b915061501a82614fb3565b604082019050919050565b6000602082019050818103600083015261503e81615002565b9050919050565b7f4f6e6c79207468652062757965722063616e2063616c6c20746869732066756e60008201527f6374696f6e000000000000000000000000000000000000000000000000000000602082015250565b60006150a1602583613c98565b91506150ac82615045565b604082019050919050565b600060208201905081810360008301526150d081615094565b9050919050565b6150e081614215565b82525050565b60006040820190506150fb60008301856150d7565b6151086020830184613c00565b9392505050565b7f5469746c65206d7573742062652067726561746572207468616e203000000000600082015250565b6000615145601c83613c98565b91506151508261510f565b602082019050919050565b6000602082019050818103600083015261517481615138565b9050919050565b7f4465736372697074696f6e2063616e6e6f7420626520656d7074790000000000600082015250565b60006151b1601b83613c98565b91506151bc8261517b565b602082019050919050565b600060208201905081810360008301526151e0816151a4565b9050919050565b7f496d6167652063616e6e6f7420626520656d7074790000000000000000000000600082015250565b600061521d601583613c98565b9150615228826151e7565b602082019050919050565b6000602082019050818103600083015261524c81615210565b9050919050565b7f636f7374206d7573742062652067726561746572207468616e20300000000000600082015250565b6000615289601b83613c98565b915061529482615253565b602082019050919050565b600060208201905081810360008301526152b88161527c565b9050919050565b600081905092915050565b60006152d582613c8d565b6152df81856152bf565b93506152ef818560208601613ca9565b80840191505092915050565b600061530782846152ca565b915081905092915050565b7f417373657420616c726561647920657869737400000000000000000000000000600082015250565b6000615348601383613c98565b915061535382615312565b602082019050919050565b600060208201905081810360008301526153778161533b565b9050919050565b7f4e487b7100000000000000000000000000000000000000000000000000000000600052601160045260246000fd5b60006153b882613c2a565b91507fffffffffffffffffffffffffffffffffffffffffffffffffffffffffffffffff82036153ea576153e961537e565b5b600182019050919050565b6153fe82613c8d565b67ffffffffffffffff81111561541757615416613e64565b5b61542182546149b1565b61542c828285614deb565b600060209050601f83116001811461545f576000841561544d578287015190505b6154578582614e5c565b8655506154bf565b601f19841661546d86614ccc565b60005b8281101561549557848901518255600182019150602085019450602081019050615470565b868310156154b257848901516154ae601f891682614e3e565b8355505b6001600288020188555050505b505050505050565b60006080820190506154dc6000830187613d71565b81810360208301526154ee8186613ce4565b90506154fd6040830185614403565b61550a6060830184614403565b95945050505050565b7f4552433732313a20696e76616c696420746f6b656e2049440000000000000000600082015250565b6000615549601883613c98565b915061555482615513565b602082019050919050565b600060208201905081810360008301526155788161553c565b9050919050565b7f4552433732313a2061646472657373207a65726f206973206e6f74206120766160008201527f6c6964206f776e65720000000000000000000000000000000000000000000000602082015250565b60006155db602983613c98565b91506155e68261557f565b604082019050919050565b6000602082019050818103600083015261560a816155ce565b9050919050565b7f6f6e6c7920746865206f776e65722063616e2072656c65617365204173736574600082015250565b6000615647602083613c98565b915061565282615611565b602082019050919050565b600060208201905081810360008301526156768161563a565b9050919050565b7f417373657420697320756e646572676f696e67204e65676f74696174696f6e00600082015250565b60006156b3601f83613c98565b91506156be8261567d565b602082019050919050565b600060208201905081810360008301526156e2816156a6565b9050919050565b7f596f75204861766520616c726561647920436f6e6669726d207468652041737360008201527f6573740000000000000000000000000000000000000000000000000000000000602082015250565b6000615745602383613c98565b9150615750826156e9565b604082019050919050565b6000602082019050818103600083015261577481615738565b9050919050565b600061578682613c2a565b915061579183613c2a565b92508282039050818111156157a9576157a861537e565b5b92915050565b6000815490506157be816149b1565b9050919050565b60008190508160005260206000209050919050565b8181036157e85750506158c0565b6157f1826157af565b67ffffffffffffffff81111561580a57615809613e64565b5b61581482546149b1565b61581f828285614deb565b6000601f83116001811461584e576000841561583c578287015490505b6158468582614e5c565b8655506158b9565b601f19841661585c876157c5565b965061586786614ccc565b60005b8281101561588f5784890154825560018201915060018501945060208101905061586a565b868310156158ac57848901546158a8601f891682614e3e565b8355505b6001600288020188555050505b5050505050505b565b600081546158cf816149b1565b6158d98186613c98565b945060018216600081146158f4576001811461590a5761593d565b60ff19831686528115156020028601935061593d565b61591385614ccc565b60005b8381101561593557815481890152600182019150602081019050615916565b808801955050505b50505092915050565b600060a08201905061595b6000830188613d71565b6159686020830187613d71565b6159756040830186614403565b818103606083015261598781856158c2565b90506159966080830184614403565b9695505050505050565b60006159ac82856152ca565b91506159b882846152ca565b91508190509392505050565b600081905092915050565b50565b60006159df6000836159c4565b91506159ea826159cf565b600082019050919050565b6000615a00826159d2565b9150819050919050565b7f4661696c656420746f2073656e64204574686572000000000000000000000000600082015250565b6000615a40601483613c98565b9150615a4b82615a0a565b602082019050919050565b60006020820190508181036000830152615a6f81615a33565b9050919050565b7f5265656e7472616e637947756172643a207265656e7472616e742063616c6c00600082015250565b6000615aac601f83613c98565b9150615ab782615a76565b602082019050919050565b60006020820190508181036000830152615adb81615a9f565b9050919050565b7f4552433732313a207472616e736665722066726f6d20696e636f72726563742060008201527f6f776e6572000000000000000000000000000000000000000000000000000000602082015250565b6000615b3e602583613c98565b9150615b4982615ae2565b604082019050919050565b60006020820190508181036000830152615b6d81615b31565b9050919050565b7f4552433732313a207472616e7366657220746f20746865207a65726f2061646460008201527f7265737300000000000000000000000000000000000000000000000000000000602082015250565b6000615bd0602483613c98565b9150615bdb82615b74565b604082019050919050565b60006020820190508181036000830152615bff81615bc3565b9050919050565b7f4552433732313a20617070726f766520746f2063616c6c657200000000000000600082015250565b6000615c3c601983613c98565b9150615c4782615c06565b602082019050919050565b60006020820190508181036000830152615c6b81615c2f565b9050919050565b7f4552433732313a207472616e7366657220746f206e6f6e20455243373231526560008201527f63656976657220696d706c656d656e7465720000000000000000000000000000602082015250565b6000615cce603283613c98565b9150615cd982615c72565b604082019050919050565b60006020820190508181036000830152615cfd81615cc1565b9050919050565b7f4e487b7100000000000000000000000000000000000000000000000000000000600052601260045260246000fd5b600081519050919050565b600082825260208201905092915050565b6000615d5a82615d33565b615d648185615d3e565b9350615d74818560208601613ca9565b615d7d81613cd3565b840191505092915050565b6000608082019050615d9d6000830187613d71565b615daa6020830186613d71565b615db76040830185614403565b8181036060830152615dc98184615d4f565b905095945050505050565b600081519050615de381613b9b565b92915050565b600060208284031215615dff57615dfe613b65565b5b6000615e0d84828501615dd4565b91505092915050565b7f4552433732313a206d696e7420746f20746865207a65726f2061646472657373600082015250565b6000615e4c602083613c98565b9150615e5782615e16565b602082019050919050565b60006020820190508181036000830152615e7b81615e3f565b9050919050565b7f4552433732313a20746f6b656e20616c7265616479206d696e74656400000000600082015250565b6000615eb8601c83613c98565b9150615ec382615e82565b602082019050919050565b60006020820190508181036000830152615ee781615eab565b905091905056fea264697066735822122077d30fe8a7c1ccec43076790cecc54adfed20b0d9e8d29cacb9db2f542f2bb1664736f6c63430008110033",
  "linkReferences": {},
  "deployedLinkReferences": {}
}