{
  "_format": "hh-sol-artifact-1",
  "contractName": "EasyAsset",
  "sourceName": "contracts/EasyAsset.sol",
  "abi": [
    {
      "inputs": [
        {
          "internalType": "string",
          "name": "_name",
          "type": "string"
        },
        {
          "internalType": "string",
          "name": "_symbol",
          "type": "string"
        }
      ],
      "stateMutability": "nonpayable",
      "type": "constructor"
    },
    {
      "anonymous": false,
      "inputs": [
        {
          "indexed": false,
          "internalType": "address",
          "name": "buyer",
          "type": "address"
        },
        {
          "indexed": false,
          "internalType": "address",
          "name": "seller",
          "type": "address"
        },
        {
          "indexed": false,
          "internalType": "uint256",
          "name": "timestamp",
          "type": "uint256"
        },
        {
          "indexed": false,
          "internalType": "uint256",
          "name": "amount",
          "type": "uint256"
        },
        {
          "indexed": false,
          "internalType": "bool",
          "name": "paid",
          "type": "bool"
        }
      ],
      "name": "Action",
      "type": "event"
    },
    {
      "anonymous": false,
      "inputs": [
        {
          "indexed": true,
          "internalType": "address",
          "name": "owner",
          "type": "address"
        },
        {
          "indexed": true,
          "internalType": "address",
          "name": "approved",
          "type": "address"
        },
        {
          "indexed": true,
          "internalType": "uint256",
          "name": "tokenId",
          "type": "uint256"
        }
      ],
      "name": "Approval",
      "type": "event"
    },
    {
      "anonymous": false,
      "inputs": [
        {
          "indexed": true,
          "internalType": "address",
          "name": "owner",
          "type": "address"
        },
        {
          "indexed": true,
          "internalType": "address",
          "name": "operator",
          "type": "address"
        },
        {
          "indexed": false,
          "internalType": "bool",
          "name": "approved",
          "type": "bool"
        }
      ],
      "name": "ApprovalForAll",
      "type": "event"
    },
    {
      "anonymous": false,
      "inputs": [
        {
          "indexed": true,
          "internalType": "address",
          "name": "from",
          "type": "address"
        },
        {
          "indexed": true,
          "internalType": "address",
          "name": "to",
          "type": "address"
        },
        {
          "indexed": true,
          "internalType": "uint256",
          "name": "tokenId",
          "type": "uint256"
        }
      ],
      "name": "Transfer",
      "type": "event"
    },
    {
      "anonymous": false,
      "inputs": [
        {
          "indexed": false,
          "internalType": "address",
          "name": "owner",
          "type": "address"
        },
        {
          "indexed": true,
          "internalType": "uint256",
          "name": "id",
          "type": "uint256"
        },
        {
          "indexed": false,
          "internalType": "string",
          "name": "credential",
          "type": "string"
        },
        {
          "indexed": false,
          "internalType": "uint256",
          "name": "timestamp",
          "type": "uint256"
        },
        {
          "indexed": false,
          "internalType": "uint256",
          "name": "price",
          "type": "uint256"
        }
      ],
      "name": "assetCreation",
      "type": "event"
    },
    {
      "anonymous": false,
      "inputs": [
        {
          "indexed": false,
          "internalType": "address",
          "name": "from",
          "type": "address"
        },
        {
          "indexed": false,
          "internalType": "address",
          "name": "to",
          "type": "address"
        },
        {
          "indexed": false,
          "internalType": "uint256",
          "name": "tokenId",
          "type": "uint256"
        },
        {
          "indexed": false,
          "internalType": "string",
          "name": "credential",
          "type": "string"
        },
        {
          "indexed": false,
          "internalType": "uint256",
          "name": "timestamp",
          "type": "uint256"
        }
      ],
      "name": "assetTransfer",
      "type": "event"
    },
    {
      "anonymous": false,
      "inputs": [
        {
          "indexed": false,
          "internalType": "bool",
          "name": "confirm",
          "type": "bool"
        },
        {
          "indexed": false,
          "internalType": "enum EasyAsset.assetStatus",
          "name": "status",
          "type": "uint8"
        }
      ],
      "name": "sold",
      "type": "event"
    },
    {
      "inputs": [
        {
          "internalType": "uint256",
          "name": "id",
          "type": "uint256"
        }
      ],
      "name": "Probe",
      "outputs": [],
      "stateMutability": "nonpayable",
      "type": "function"
    },
    {
      "inputs": [
        {
          "internalType": "address",
          "name": "to",
          "type": "address"
        },
        {
          "internalType": "uint256",
          "name": "tokenId",
          "type": "uint256"
        }
      ],
      "name": "approve",
      "outputs": [],
      "stateMutability": "nonpayable",
      "type": "function"
    },
    {
      "inputs": [],
      "name": "balance",
      "outputs": [
        {
          "internalType": "uint256",
          "name": "",
          "type": "uint256"
        }
      ],
      "stateMutability": "view",
      "type": "function"
    },
    {
      "inputs": [
        {
          "internalType": "address",
          "name": "owner",
          "type": "address"
        }
      ],
      "name": "balanceOf",
      "outputs": [
        {
          "internalType": "uint256",
          "name": "",
          "type": "uint256"
        }
      ],
      "stateMutability": "view",
      "type": "function"
    },
    {
      "inputs": [
        {
          "internalType": "uint256",
          "name": "id",
          "type": "uint256"
        }
      ],
      "name": "buyAsset",
      "outputs": [],
      "stateMutability": "payable",
      "type": "function"
    },
    {
      "inputs": [
        {
          "internalType": "uint256",
          "name": "id",
          "type": "uint256"
        }
      ],
      "name": "confirm",
      "outputs": [],
      "stateMutability": "nonpayable",
      "type": "function"
    },
    {
      "inputs": [
        {
          "internalType": "string",
          "name": "title",
          "type": "string"
        },
        {
          "internalType": "string",
          "name": "description",
          "type": "string"
        },
        {
          "internalType": "string",
          "name": "credential",
          "type": "string"
        },
        {
          "internalType": "uint256",
          "name": "price",
          "type": "uint256"
        }
      ],
      "name": "createAsset",
      "outputs": [
        {
          "internalType": "bool",
          "name": "",
          "type": "bool"
        }
      ],
      "stateMutability": "nonpayable",
      "type": "function"
    },
    {
      "inputs": [
        {
          "internalType": "uint256",
          "name": "tokenId",
          "type": "uint256"
        }
      ],
      "name": "getApproved",
      "outputs": [
        {
          "internalType": "address",
          "name": "",
          "type": "address"
        }
      ],
      "stateMutability": "view",
      "type": "function"
    },
    {
      "inputs": [
        {
          "internalType": "uint256",
          "name": "_id",
          "type": "uint256"
        }
      ],
      "name": "getAsset",
      "outputs": [
        {
          "components": [
            {
              "internalType": "address",
              "name": "holder",
              "type": "address"
            },
            {
              "internalType": "uint256",
              "name": "id",
              "type": "uint256"
            },
            {
              "internalType": "string",
              "name": "title",
              "type": "string"
            },
            {
              "internalType": "string",
              "name": "description",
              "type": "string"
            },
            {
              "internalType": "string",
              "name": "credential",
              "type": "string"
            },
            {
              "internalType": "uint256",
              "name": "timestamp",
              "type": "uint256"
            },
            {
              "internalType": "uint256",
              "name": "price",
              "type": "uint256"
            },
            {
              "internalType": "bool",
              "name": "probe",
              "type": "bool"
            },
            {
              "internalType": "enum EasyAsset.assetStatus",
              "name": "status",
              "type": "uint8"
            }
          ],
          "internalType": "struct EasyAsset.Asset",
          "name": "",
          "type": "tuple"
        }
      ],
      "stateMutability": "view",
      "type": "function"
    },
    {
      "inputs": [],
      "name": "getAssets",
      "outputs": [
        {
          "components": [
            {
              "internalType": "address",
              "name": "holder",
              "type": "address"
            },
            {
              "internalType": "uint256",
              "name": "id",
              "type": "uint256"
            },
            {
              "internalType": "string",
              "name": "title",
              "type": "string"
            },
            {
              "internalType": "string",
              "name": "description",
              "type": "string"
            },
            {
              "internalType": "string",
              "name": "credential",
              "type": "string"
            },
            {
              "internalType": "uint256",
              "name": "timestamp",
              "type": "uint256"
            },
            {
              "internalType": "uint256",
              "name": "price",
              "type": "uint256"
            },
            {
              "internalType": "bool",
              "name": "probe",
              "type": "bool"
            },
            {
              "internalType": "enum EasyAsset.assetStatus",
              "name": "status",
              "type": "uint8"
            }
          ],
          "internalType": "struct EasyAsset.Asset[]",
          "name": "",
          "type": "tuple[]"
        }
      ],
      "stateMutability": "view",
      "type": "function"
    },
    {
      "inputs": [
        {
          "internalType": "uint256",
          "name": "buyerId",
          "type": "uint256"
        }
      ],
      "name": "getBuyer",
      "outputs": [
        {
          "components": [
            {
              "internalType": "uint256",
              "name": "id",
              "type": "uint256"
            },
            {
              "internalType": "address",
              "name": "owner",
              "type": "address"
            },
            {
              "internalType": "uint256",
              "name": "amountpaid",
              "type": "uint256"
            },
            {
              "internalType": "uint256",
              "name": "timestamp",
              "type": "uint256"
            },
            {
              "internalType": "bool",
              "name": "refunded",
              "type": "bool"
            },
            {
              "internalType": "bool",
              "name": "paid",
              "type": "bool"
            },
            {
              "internalType": "bool",
              "name": "checked",
              "type": "bool"
            },
            {
              "internalType": "string",
              "name": "credential",
              "type": "string"
            }
          ],
          "internalType": "struct EasyAsset.buyer",
          "name": "",
          "type": "tuple"
        }
      ],
      "stateMutability": "view",
      "type": "function"
    },
    {
      "inputs": [],
      "name": "getBuyers",
      "outputs": [
        {
          "components": [
            {
              "internalType": "uint256",
              "name": "id",
              "type": "uint256"
            },
            {
              "internalType": "address",
              "name": "owner",
              "type": "address"
            },
            {
              "internalType": "uint256",
              "name": "amountpaid",
              "type": "uint256"
            },
            {
              "internalType": "uint256",
              "name": "timestamp",
              "type": "uint256"
            },
            {
              "internalType": "bool",
              "name": "refunded",
              "type": "bool"
            },
            {
              "internalType": "bool",
              "name": "paid",
              "type": "bool"
            },
            {
              "internalType": "bool",
              "name": "checked",
              "type": "bool"
            },
            {
              "internalType": "string",
              "name": "credential",
              "type": "string"
            }
          ],
          "internalType": "struct EasyAsset.buyer[]",
          "name": "",
          "type": "tuple[]"
        }
      ],
      "stateMutability": "view",
      "type": "function"
    },
    {
      "inputs": [
        {
          "internalType": "address",
          "name": "owner",
          "type": "address"
        },
        {
          "internalType": "address",
          "name": "operator",
          "type": "address"
        }
      ],
      "name": "isApprovedForAll",
      "outputs": [
        {
          "internalType": "bool",
          "name": "",
          "type": "bool"
        }
      ],
      "stateMutability": "view",
      "type": "function"
    },
    {
      "inputs": [],
      "name": "name",
      "outputs": [
        {
          "internalType": "string",
          "name": "",
          "type": "string"
        }
      ],
      "stateMutability": "view",
      "type": "function"
    },
    {
      "inputs": [],
      "name": "owner",
      "outputs": [
        {
          "internalType": "address",
          "name": "",
          "type": "address"
        }
      ],
      "stateMutability": "view",
      "type": "function"
    },
    {
      "inputs": [
        {
          "internalType": "uint256",
          "name": "tokenId",
          "type": "uint256"
        }
      ],
      "name": "ownerOf",
      "outputs": [
        {
          "internalType": "address",
          "name": "",
          "type": "address"
        }
      ],
      "stateMutability": "view",
      "type": "function"
    },
    {
      "inputs": [
        {
          "internalType": "uint256",
          "name": "id",
          "type": "uint256"
        }
      ],
      "name": "refund",
      "outputs": [],
      "stateMutability": "nonpayable",
      "type": "function"
    },
    {
      "inputs": [
        {
          "internalType": "uint256",
          "name": "id",
          "type": "uint256"
        }
      ],
      "name": "releaseAsset",
      "outputs": [],
      "stateMutability": "nonpayable",
      "type": "function"
    },
    {
      "inputs": [
        {
          "internalType": "address",
          "name": "from",
          "type": "address"
        },
        {
          "internalType": "address",
          "name": "to",
          "type": "address"
        },
        {
          "internalType": "uint256",
          "name": "tokenId",
          "type": "uint256"
        }
      ],
      "name": "safeTransferFrom",
      "outputs": [],
      "stateMutability": "nonpayable",
      "type": "function"
    },
    {
      "inputs": [
        {
          "internalType": "address",
          "name": "from",
          "type": "address"
        },
        {
          "internalType": "address",
          "name": "to",
          "type": "address"
        },
        {
          "internalType": "uint256",
          "name": "tokenId",
          "type": "uint256"
        },
        {
          "internalType": "bytes",
          "name": "data",
          "type": "bytes"
        }
      ],
      "name": "safeTransferFrom",
      "outputs": [],
      "stateMutability": "nonpayable",
      "type": "function"
    },
    {
      "inputs": [
        {
          "internalType": "address",
          "name": "operator",
          "type": "address"
        },
        {
          "internalType": "bool",
          "name": "approved",
          "type": "bool"
        }
      ],
      "name": "setApprovalForAll",
      "outputs": [],
      "stateMutability": "nonpayable",
      "type": "function"
    },
    {
      "inputs": [
        {
          "internalType": "bytes4",
          "name": "interfaceId",
          "type": "bytes4"
        }
      ],
      "name": "supportsInterface",
      "outputs": [
        {
          "internalType": "bool",
          "name": "",
          "type": "bool"
        }
      ],
      "stateMutability": "view",
      "type": "function"
    },
    {
      "inputs": [],
      "name": "symbol",
      "outputs": [
        {
          "internalType": "string",
          "name": "",
          "type": "string"
        }
      ],
      "stateMutability": "view",
      "type": "function"
    },
    {
      "inputs": [
        {
          "internalType": "uint256",
          "name": "tokenId",
          "type": "uint256"
        }
      ],
      "name": "tokenURI",
      "outputs": [
        {
          "internalType": "string",
          "name": "",
          "type": "string"
        }
      ],
      "stateMutability": "view",
      "type": "function"
    },
    {
      "inputs": [
        {
          "internalType": "address",
          "name": "from",
          "type": "address"
        },
        {
          "internalType": "address",
          "name": "to",
          "type": "address"
        },
        {
          "internalType": "uint256",
          "name": "tokenId",
          "type": "uint256"
        }
      ],
      "name": "transferFrom",
      "outputs": [],
      "stateMutability": "nonpayable",
      "type": "function"
    },
    {
      "stateMutability": "payable",
      "type": "receive"
    }
  ],
  "bytecode": "0x60806040523480156200001157600080fd5b506040516200653d3803806200653d833981810160405281019062000037919062000243565b818181600090816200004a919062000513565b5080600190816200005c919062000513565b505050600160068190555033600f60006101000a81548173ffffffffffffffffffffffffffffffffffffffff021916908373ffffffffffffffffffffffffffffffffffffffff1602179055505050620005fa565b6000604051905090565b600080fd5b600080fd5b600080fd5b600080fd5b6000601f19601f8301169050919050565b7f4e487b7100000000000000000000000000000000000000000000000000000000600052604160045260246000fd5b6200011982620000ce565b810181811067ffffffffffffffff821117156200013b576200013a620000df565b5b80604052505050565b600062000150620000b0565b90506200015e82826200010e565b919050565b600067ffffffffffffffff821115620001815762000180620000df565b5b6200018c82620000ce565b9050602081019050919050565b60005b83811015620001b95780820151818401526020810190506200019c565b60008484015250505050565b6000620001dc620001d68462000163565b62000144565b905082815260208101848484011115620001fb57620001fa620000c9565b5b6200020884828562000199565b509392505050565b600082601f830112620002285762000227620000c4565b5b81516200023a848260208601620001c5565b91505092915050565b600080604083850312156200025d576200025c620000ba565b5b600083015167ffffffffffffffff8111156200027e576200027d620000bf565b5b6200028c8582860162000210565b925050602083015167ffffffffffffffff811115620002b057620002af620000bf565b5b620002be8582860162000210565b9150509250929050565b600081519050919050565b7f4e487b7100000000000000000000000000000000000000000000000000000000600052602260045260246000fd5b600060028204905060018216806200031b57607f821691505b602082108103620003315762000330620002d3565b5b50919050565b60008190508160005260206000209050919050565b60006020601f8301049050919050565b600082821b905092915050565b6000600883026200039b7fffffffffffffffffffffffffffffffffffffffffffffffffffffffffffffffff826200035c565b620003a786836200035c565b95508019841693508086168417925050509392505050565b6000819050919050565b6000819050919050565b6000620003f4620003ee620003e884620003bf565b620003c9565b620003bf565b9050919050565b6000819050919050565b6200041083620003d3565b620004286200041f82620003fb565b84845462000369565b825550505050565b600090565b6200043f62000430565b6200044c81848462000405565b505050565b5b8181101562000474576200046860008262000435565b60018101905062000452565b5050565b601f821115620004c3576200048d8162000337565b62000498846200034c565b81016020851015620004a8578190505b620004c0620004b7856200034c565b83018262000451565b50505b505050565b600082821c905092915050565b6000620004e860001984600802620004c8565b1980831691505092915050565b6000620005038383620004d5565b9150826002028217905092915050565b6200051e82620002c8565b67ffffffffffffffff8111156200053a5762000539620000df565b5b62000546825462000302565b6200055382828562000478565b600060209050601f8311600181146200058b576000841562000576578287015190505b620005828582620004f5565b865550620005f2565b601f1984166200059b8662000337565b60005b82811015620005c5578489015182556001820191506020850194506020810190506200059e565b86831015620005e55784890151620005e1601f891682620004d5565b8355505b6001600288020188555050505b505050505050565b615f33806200060a6000396000f3fe60806040526004361061016a5760003560e01c806367e4ac2c116100d1578063b69ef8a81161008a578063c87b56dd11610064578063c87b56dd14610548578063e985e9c514610585578063eac8f5b8146105c2578063f64bfaba146105ff57610171565b8063b69ef8a8146104cb578063b88d4fde146104f6578063ba0179b51461051f57610171565b806367e4ac2c146103bb57806370a08231146103e65780638da5cb5b146104235780639010ce971461044e57806395d89b4114610477578063a22cb465146104a257610171565b806323b872dd1161012357806323b872dd14610289578063278ecde1146102b2578063369d8138146102db57806342842e0e146103185780635bf608b8146103415780636352211e1461037e57610171565b806301ffc9a71461017657806304e98cef146101b357806306fdde03146101dc578063081812fc14610207578063095ea7b314610244578063110d35b81461026d57610171565b3661017157005b600080fd5b34801561018257600080fd5b5061019d60048036038101906101989190613c00565b61062a565b6040516101aa9190613c48565b60405180910390f35b3480156101bf57600080fd5b506101da60048036038101906101d59190613c99565b61070c565b005b3480156101e857600080fd5b506101f161093a565b6040516101fe9190613d56565b60405180910390f35b34801561021357600080fd5b5061022e60048036038101906102299190613c99565b6109cc565b60405161023b9190613db9565b60405180910390f35b34801561025057600080fd5b5061026b60048036038101906102669190613e00565b610a12565b005b61028760048036038101906102829190613c99565b610b29565b005b34801561029557600080fd5b506102b060048036038101906102ab9190613e40565b611088565b005b3480156102be57600080fd5b506102d960048036038101906102d49190613c99565b6110e8565b005b3480156102e757600080fd5b5061030260048036038101906102fd9190613fc8565b61133c565b60405161030f9190613c48565b60405180910390f35b34801561032457600080fd5b5061033f600480360381019061033a9190613e40565b611793565b005b34801561034d57600080fd5b5061036860048036038101906103639190613c99565b6117b3565b60405161037591906141aa565b60405180910390f35b34801561038a57600080fd5b506103a560048036038101906103a09190613c99565b611938565b6040516103b29190613db9565b60405180910390f35b3480156103c757600080fd5b506103d06119be565b6040516103dd91906143d8565b60405180910390f35b3480156103f257600080fd5b5061040d600480360381019061040891906143fa565b611c9e565b60405161041a9190614436565b60405180910390f35b34801561042f57600080fd5b50610438611d55565b6040516104459190613db9565b60405180910390f35b34801561045a57600080fd5b5061047560048036038101906104709190613c99565b611d7b565b005b34801561048357600080fd5b5061048c611efb565b6040516104999190613d56565b60405180910390f35b3480156104ae57600080fd5b506104c960048036038101906104c4919061447d565b611f8d565b005b3480156104d757600080fd5b506104e0611fa3565b6040516104ed9190614436565b60405180910390f35b34801561050257600080fd5b5061051d6004803603810190610518919061455e565b611fab565b005b34801561052b57600080fd5b5061054660048036038101906105419190613c99565b61200d565b005b34801561055457600080fd5b5061056f600480360381019061056a9190613c99565b612675565b60405161057c9190613d56565b60405180910390f35b34801561059157600080fd5b506105ac60048036038101906105a791906145e1565b6126dd565b6040516105b99190613c48565b60405180910390f35b3480156105ce57600080fd5b506105e960048036038101906105e49190613c99565b612771565b6040516105f691906146f4565b60405180910390f35b34801561060b57600080fd5b50610614612a2e565b6040516106219190614888565b60405180910390f35b60007f80ac58cd000000000000000000000000000000000000000000000000000000007bffffffffffffffffffffffffffffffffffffffffffffffffffffffff1916827bffffffffffffffffffffffffffffffffffffffffffffffffffffffff191614806106f557507f5b5e139f000000000000000000000000000000000000000000000000000000007bffffffffffffffffffffffffffffffffffffffffffffffffffffffff1916827bffffffffffffffffffffffffffffffffffffffffffffffffffffffff1916145b80610705575061070482612be5565b5b9050919050565b600f60009054906101000a900473ffffffffffffffffffffffffffffffffffffffff1673ffffffffffffffffffffffffffffffffffffffff163373ffffffffffffffffffffffffffffffffffffffff161480156107995750600a8181548110610778576107776148aa565b5b906000526020600020906008020160070160009054906101000a900460ff16155b6107d8576040517f08c379a00000000000000000000000000000000000000000000000000000000081526004016107cf90614971565b60405180910390fd5b6001600a82815481106107ee576107ed6148aa565b5b906000526020600020906008020160070160006101000a81548160ff0219169083151502179055506001600581111561082a576108296141f8565b5b600a828154811061083e5761083d6148aa565b5b906000526020600020906008020160070160019054906101000a900460ff16600581111561086f5761086e6141f8565b5b036108e9576108e86008828154811061088b5761088a6148aa565b5b906000526020600020906006020160010160009054906101000a900473ffffffffffffffffffffffffffffffffffffffff16600a83815481106108d1576108d06148aa565b5b906000526020600020906008020160060154612c4f565b5b6005600a82815481106108ff576108fe6148aa565b5b906000526020600020906008020160070160016101000a81548160ff02191690836005811115610932576109316141f8565b5b021790555050565b606060008054610949906149c0565b80601f0160208091040260200160405190810160405280929190818152602001828054610975906149c0565b80156109c25780601f10610997576101008083540402835291602001916109c2565b820191906000526020600020905b8154815290600101906020018083116109a557829003601f168201915b5050505050905090565b60006109d782612d00565b6004600083815260200190815260200160002060009054906101000a900473ffffffffffffffffffffffffffffffffffffffff169050919050565b6000610a1d82611938565b90508073ffffffffffffffffffffffffffffffffffffffff168373ffffffffffffffffffffffffffffffffffffffff1603610a8d576040517f08c379a0000000000000000000000000000000000000000000000000000000008152600401610a8490614a63565b60405180910390fd5b8073ffffffffffffffffffffffffffffffffffffffff16610aac612d4b565b73ffffffffffffffffffffffffffffffffffffffff161480610adb5750610ada81610ad5612d4b565b6126dd565b5b610b1a576040517f08c379a0000000000000000000000000000000000000000000000000000000008152600401610b1190614af5565b60405180910390fd5b610b248383612d53565b505050565b610b31612e0c565b60006005811115610b4557610b446141f8565b5b600a8281548110610b5957610b586148aa565b5b906000526020600020906008020160070160019054906101000a900460ff166005811115610b8a57610b896141f8565b5b14610bca576040517f08c379a0000000000000000000000000000000000000000000000000000000008152600401610bc190614b61565b60405180910390fd5b600a8181548110610bde57610bdd6148aa565b5b906000526020600020906008020160000160009054906101000a900473ffffffffffffffffffffffffffffffffffffffff1673ffffffffffffffffffffffffffffffffffffffff163373ffffffffffffffffffffffffffffffffffffffff1603610c7d576040517f08c379a0000000000000000000000000000000000000000000000000000000008152600401610c7490614bcd565b60405180910390fd5b600e600082815260200190815260200160002060009054906101000a900460ff16610cdd576040517f08c379a0000000000000000000000000000000000000000000000000000000008152600401610cd490614c39565b60405180910390fd5b600a8181548110610cf157610cf06148aa565b5b9060005260206000209060080201600601543414610d44576040517f08c379a0000000000000000000000000000000000000000000000000000000008152600401610d3b90614ca5565b60405180910390fd5b600060096000600a8481548110610d5e57610d5d6148aa565b5b90600052602060002090600802016001015481526020019081526020016000209050600a8281548110610d9457610d936148aa565b5b9060005260206000209060080201600101548160000181905550338160010160006101000a81548173ffffffffffffffffffffffffffffffffffffffff021916908373ffffffffffffffffffffffffffffffffffffffff16021790555034816002018190555042816003018190555060008160040160006101000a81548160ff02191690831515021790555060018160040160016101000a81548160ff02191690831515021790555060008160040160026101000a81548160ff0219169083151502179055506008819080600181540180825580915050600190039060005260206000209060060201600090919091909150600082015481600001556001820160009054906101000a900473ffffffffffffffffffffffffffffffffffffffff168160010160006101000a81548173ffffffffffffffffffffffffffffffffffffffff021916908373ffffffffffffffffffffffffffffffffffffffff16021790555060028201548160020155600382015481600301556004820160009054906101000a900460ff168160040160006101000a81548160ff0219169083151502179055506004820160019054906101000a900460ff168160040160016101000a81548160ff0219169083151502179055506004820160029054906101000a900460ff168160040160026101000a81548160ff02191690831515021790555060058201816005019081610fa69190614e87565b5050507f2018a69277a3b64014d178d92da02c971e68f2f7d89f996327e9757f49c433ba33600a8481548110610fdf57610fde6148aa565b5b906000526020600020906008020160000160009054906101000a900473ffffffffffffffffffffffffffffffffffffffff1642346001604051611026959493929190614f6f565b60405180910390a16001600a8381548110611044576110436148aa565b5b906000526020600020906008020160070160016101000a81548160ff02191690836005811115611077576110766141f8565b5b021790555050611085612e5b565b50565b611099611093612d4b565b82612e65565b6110d8576040517f08c379a00000000000000000000000000000000000000000000000000000000081526004016110cf90615034565b60405180910390fd5b6110e3838383612efa565b505050565b600160058111156110fc576110fb6141f8565b5b600a82815481106111105761110f6148aa565b5b906000526020600020906008020160070160019054906101000a900460ff166005811115611141576111406141f8565b5b1480156111be57506008818154811061115d5761115c6148aa565b5b906000526020600020906006020160010160009054906101000a900473ffffffffffffffffffffffffffffffffffffffff1673ffffffffffffffffffffffffffffffffffffffff163373ffffffffffffffffffffffffffffffffffffffff16145b80156111fa5750600881815481106111d9576111d86148aa565b5b906000526020600020906006020160040160009054906101000a900460ff16155b611239576040517f08c379a0000000000000000000000000000000000000000000000000000000008152600401611230906150c6565b60405180910390fd5b6112ad600882815481106112505761124f6148aa565b5b906000526020600020906006020160010160009054906101000a900473ffffffffffffffffffffffffffffffffffffffff16600a8381548110611296576112956148aa565b5b906000526020600020906008020160060154612c4f565b6000600a82815481106112c3576112c26148aa565b5b906000526020600020906008020160070160016101000a81548160ff021916908360058111156112f6576112f56141f8565b5b0217905550600160088281548110611311576113106148aa565b5b906000526020600020906006020160040160006101000a81548160ff02191690831515021790555050565b600080855111611381576040517f08c379a000000000000000000000000000000000000000000000000000000000815260040161137890615132565b60405180910390fd5b60008451116113c5576040517f08c379a00000000000000000000000000000000000000000000000000000000081526004016113bc9061519e565b60405180910390fd5b6000835111611409576040517f08c379a00000000000000000000000000000000000000000000000000000000081526004016114009061520a565b60405180910390fd5b6000821161144c576040517f08c379a000000000000000000000000000000000000000000000000000000000815260040161144390615276565b60405180910390fd5b600d8360405161145c91906152d2565b908152602001604051809103902060009054906101000a900460ff16156114b8576040517f08c379a00000000000000000000000000000000000000000000000000000000081526004016114af90615335565b60405180910390fd5b6000600760008154809291906114cd90615384565b9190505590506000600b60008381526020019081526020016000209050338160000160006101000a81548173ffffffffffffffffffffffffffffffffffffffff021916908373ffffffffffffffffffffffffffffffffffffffff1602179055508181600101819055508681600201908161154791906153cc565b508581600301908161155991906153cc565b508481600401908161156b91906153cc565b50428160050181905550838160060181905550600a8190806001815401808255809150506001900390600052602060002090600802016000909190919091506000820160009054906101000a900473ffffffffffffffffffffffffffffffffffffffff168160000160006101000a81548173ffffffffffffffffffffffffffffffffffffffff021916908373ffffffffffffffffffffffffffffffffffffffff160217905550600182015481600101556002820181600201908161162f9190614e87565b50600382018160030190816116449190614e87565b50600482018160040190816116599190614e87565b5060058201548160050155600682015481600601556007820160009054906101000a900460ff168160070160006101000a81548160ff0219169083151502179055506007820160019054906101000a900460ff168160070160016101000a81548160ff021916908360058111156116d3576116d26141f8565b5b021790555050506001600d866040516116ec91906152d2565b908152602001604051809103902060006101000a81548160ff0219169083151502179055506001600e600084815260200190815260200160002060006101000a81548160ff021916908315150217905550817f1bd34f5070969faf7c075ecf37c24f973b7c3a11714bbb362e90c5284f96cf5b33874288604051611773949392919061549e565b60405180910390a261178533836131f3565b600192505050949350505050565b6117ae83838360405180602001604052806000815250611fab565b505050565b6117bb613abd565b6009600083815260200190815260200160002060405180610100016040529081600082015481526020016001820160009054906101000a900473ffffffffffffffffffffffffffffffffffffffff1673ffffffffffffffffffffffffffffffffffffffff1673ffffffffffffffffffffffffffffffffffffffff16815260200160028201548152602001600382015481526020016004820160009054906101000a900460ff161515151581526020016004820160019054906101000a900460ff161515151581526020016004820160029054906101000a900460ff161515151581526020016005820180546118af906149c0565b80601f01602080910402602001604051908101604052809291908181526020018280546118db906149c0565b80156119285780601f106118fd57610100808354040283529160200191611928565b820191906000526020600020905b81548152906001019060200180831161190b57829003601f168201915b5050505050815250509050919050565b60008061194483613211565b9050600073ffffffffffffffffffffffffffffffffffffffff168173ffffffffffffffffffffffffffffffffffffffff16036119b5576040517f08c379a00000000000000000000000000000000000000000000000000000000081526004016119ac90615536565b60405180910390fd5b80915050919050565b6060600a805480602002602001604051908101604052809291908181526020016000905b82821015611c955783829060005260206000209060080201604051806101200160405290816000820160009054906101000a900473ffffffffffffffffffffffffffffffffffffffff1673ffffffffffffffffffffffffffffffffffffffff1673ffffffffffffffffffffffffffffffffffffffff16815260200160018201548152602001600282018054611a76906149c0565b80601f0160208091040260200160405190810160405280929190818152602001828054611aa2906149c0565b8015611aef5780601f10611ac457610100808354040283529160200191611aef565b820191906000526020600020905b815481529060010190602001808311611ad257829003601f168201915b50505050508152602001600382018054611b08906149c0565b80601f0160208091040260200160405190810160405280929190818152602001828054611b34906149c0565b8015611b815780601f10611b5657610100808354040283529160200191611b81565b820191906000526020600020905b815481529060010190602001808311611b6457829003601f168201915b50505050508152602001600482018054611b9a906149c0565b80601f0160208091040260200160405190810160405280929190818152602001828054611bc6906149c0565b8015611c135780601f10611be857610100808354040283529160200191611c13565b820191906000526020600020905b815481529060010190602001808311611bf657829003601f168201915b5050505050815260200160058201548152602001600682015481526020016007820160009054906101000a900460ff161515151581526020016007820160019054906101000a900460ff166005811115611c7057611c6f6141f8565b5b6005811115611c8257611c816141f8565b5b81525050815260200190600101906119e2565b50505050905090565b60008073ffffffffffffffffffffffffffffffffffffffff168273ffffffffffffffffffffffffffffffffffffffff1603611d0e576040517f08c379a0000000000000000000000000000000000000000000000000000000008152600401611d05906155c8565b60405180910390fd5b600360008373ffffffffffffffffffffffffffffffffffffffff1673ffffffffffffffffffffffffffffffffffffffff168152602001908152602001600020549050919050565b600f60009054906101000a900473ffffffffffffffffffffffffffffffffffffffff1681565b600f60009054906101000a900473ffffffffffffffffffffffffffffffffffffffff1673ffffffffffffffffffffffffffffffffffffffff163373ffffffffffffffffffffffffffffffffffffffff16148015611e2d5750600580811115611de657611de56141f8565b5b600a8281548110611dfa57611df96148aa565b5b906000526020600020906008020160070160019054906101000a900460ff166005811115611e2b57611e2a6141f8565b5b145b611e6c576040517f08c379a0000000000000000000000000000000000000000000000000000000008152600401611e6390615634565b60405180910390fd5b6000600a8281548110611e8257611e816148aa565b5b906000526020600020906008020160070160006101000a81548160ff0219169083151502179055506000600a8281548110611ec057611ebf6148aa565b5b906000526020600020906008020160070160016101000a81548160ff02191690836005811115611ef357611ef26141f8565b5b021790555050565b606060018054611f0a906149c0565b80601f0160208091040260200160405190810160405280929190818152602001828054611f36906149c0565b8015611f835780601f10611f5857610100808354040283529160200191611f83565b820191906000526020600020905b815481529060010190602001808311611f6657829003601f168201915b5050505050905090565b611f9f611f98612d4b565b838361324e565b5050565b600047905090565b611fbc611fb6612d4b565b83612e65565b611ffb576040517f08c379a0000000000000000000000000000000000000000000000000000000008152600401611ff290615034565b60405180910390fd5b612007848484846133ba565b50505050565b600e600082815260200190815260200160002060009054906101000a900460ff1661206d576040517f08c379a000000000000000000000000000000000000000000000000000000000815260040161206490614c39565b60405180910390fd5b60016005811115612081576120806141f8565b5b600a8281548110612095576120946148aa565b5b906000526020600020906008020160070160019054906101000a900460ff1660058111156120c6576120c56141f8565b5b14612106576040517f08c379a00000000000000000000000000000000000000000000000000000000081526004016120fd906156a0565b60405180910390fd5b6008818154811061211a576121196148aa565b5b906000526020600020906006020160010160009054906101000a900473ffffffffffffffffffffffffffffffffffffffff1673ffffffffffffffffffffffffffffffffffffffff163373ffffffffffffffffffffffffffffffffffffffff16146121b9576040517f08c379a00000000000000000000000000000000000000000000000000000000081526004016121b0906150c6565b60405180910390fd5b600881815481106121cd576121cc6148aa565b5b906000526020600020906006020160040160029054906101000a900460ff161561222c576040517f08c379a000000000000000000000000000000000000000000000000000000000815260040161222390615732565b60405180910390fd5b600160088281548110612242576122416148aa565b5b906000526020600020906006020160040160026101000a81548160ff0219169083151502179055506000600a82815481106122805761227f6148aa565b5b90600052602060002090600802016006015490506122e3600a83815481106122ab576122aa6148aa565b5b906000526020600020906008020160000160009054906101000a900473ffffffffffffffffffffffffffffffffffffffff1682612c4f565b600882815481106122f7576122f66148aa565b5b906000526020600020906006020160020154600a838154811061231d5761231c6148aa565b5b9060005260206000209060080201600601600082825461233d9190615752565b925050819055506004600a838154811061235a576123596148aa565b5b906000526020600020906008020160070160016101000a81548160ff0219169083600581111561238d5761238c6141f8565b5b0217905550612407600a83815481106123a9576123a86148aa565b5b906000526020600020906008020160000160009054906101000a900473ffffffffffffffffffffffffffffffffffffffff1633600a85815481106123f0576123ef6148aa565b5b906000526020600020906008020160010154612efa565b600a828154811061241b5761241a6148aa565b5b9060005260206000209060080201600401600883815481106124405761243f6148aa565b5b9060005260206000209060060201600501908161245d91906157b1565b5033600a8381548110612473576124726148aa565b5b906000526020600020906008020160000160006101000a81548173ffffffffffffffffffffffffffffffffffffffff021916908373ffffffffffffffffffffffffffffffffffffffff1602179055507f8eac340af35af673875d62f0b4eeaa6928b83ecb2f0f45ef9b6d1cba38b00661600a83815481106124f7576124f66148aa565b5b906000526020600020906008020160000160009054906101000a900473ffffffffffffffffffffffffffffffffffffffff166008848154811061253d5761253c6148aa565b5b906000526020600020906006020160010160009054906101000a900473ffffffffffffffffffffffffffffffffffffffff16600a8581548110612583576125826148aa565b5b906000526020600020906008020160010154600886815481106125a9576125a86148aa565b5b9060005260206000209060060201600501426040516125cc95949392919061591d565b60405180910390a17f91530a5dd22aa84df44ea20c894ccdca804d5359f6f90d0f9eba007c2781226560088381548110612609576126086148aa565b5b906000526020600020906006020160040160029054906101000a900460ff16600a848154811061263c5761263b6148aa565b5b906000526020600020906008020160070160019054906101000a900460ff16604051612669929190615986565b60405180910390a15050565b606061268082612d00565b600061268a613416565b905060008151116126aa57604051806020016040528060008152506126d5565b806126b48461342d565b6040516020016126c59291906159af565b6040516020818303038152906040525b915050919050565b6000600560008473ffffffffffffffffffffffffffffffffffffffff1673ffffffffffffffffffffffffffffffffffffffff16815260200190815260200160002060008373ffffffffffffffffffffffffffffffffffffffff1673ffffffffffffffffffffffffffffffffffffffff16815260200190815260200160002060009054906101000a900460ff16905092915050565b612779613b1e565b600a828154811061278d5761278c6148aa565b5b9060005260206000209060080201604051806101200160405290816000820160009054906101000a900473ffffffffffffffffffffffffffffffffffffffff1673ffffffffffffffffffffffffffffffffffffffff1673ffffffffffffffffffffffffffffffffffffffff16815260200160018201548152602001600282018054612817906149c0565b80601f0160208091040260200160405190810160405280929190818152602001828054612843906149c0565b80156128905780601f1061286557610100808354040283529160200191612890565b820191906000526020600020905b81548152906001019060200180831161287357829003601f168201915b505050505081526020016003820180546128a9906149c0565b80601f01602080910402602001604051908101604052809291908181526020018280546128d5906149c0565b80156129225780601f106128f757610100808354040283529160200191612922565b820191906000526020600020905b81548152906001019060200180831161290557829003601f168201915b5050505050815260200160048201805461293b906149c0565b80601f0160208091040260200160405190810160405280929190818152602001828054612967906149c0565b80156129b45780601f10612989576101008083540402835291602001916129b4565b820191906000526020600020905b81548152906001019060200180831161299757829003601f168201915b5050505050815260200160058201548152602001600682015481526020016007820160009054906101000a900460ff161515151581526020016007820160019054906101000a900460ff166005811115612a1157612a106141f8565b5b6005811115612a2357612a226141f8565b5b815250509050919050565b60606008805480602002602001604051908101604052809291908181526020016000905b82821015612bdc578382906000526020600020906006020160405180610100016040529081600082015481526020016001820160009054906101000a900473ffffffffffffffffffffffffffffffffffffffff1673ffffffffffffffffffffffffffffffffffffffff1673ffffffffffffffffffffffffffffffffffffffff16815260200160028201548152602001600382015481526020016004820160009054906101000a900460ff161515151581526020016004820160019054906101000a900460ff161515151581526020016004820160029054906101000a900460ff16151515158152602001600582018054612b4b906149c0565b80601f0160208091040260200160405190810160405280929190818152602001828054612b77906149c0565b8015612bc45780601f10612b9957610100808354040283529160200191612bc4565b820191906000526020600020905b815481529060010190602001808311612ba757829003601f168201915b50505050508152505081526020019060010190612a52565b50505050905090565b60007f01ffc9a7000000000000000000000000000000000000000000000000000000007bffffffffffffffffffffffffffffffffffffffffffffffffffffffff1916827bffffffffffffffffffffffffffffffffffffffffffffffffffffffff1916149050919050565b60008273ffffffffffffffffffffffffffffffffffffffff1682604051612c7590615a04565b60006040518083038185875af1925050503d8060008114612cb2576040519150601f19603f3d011682016040523d82523d6000602084013e612cb7565b606091505b5050905080612cfb576040517f08c379a0000000000000000000000000000000000000000000000000000000008152600401612cf290615a65565b60405180910390fd5b505050565b612d09816134fb565b612d48576040517f08c379a0000000000000000000000000000000000000000000000000000000008152600401612d3f90615536565b60405180910390fd5b50565b600033905090565b816004600083815260200190815260200160002060006101000a81548173ffffffffffffffffffffffffffffffffffffffff021916908373ffffffffffffffffffffffffffffffffffffffff160217905550808273ffffffffffffffffffffffffffffffffffffffff16612dc683611938565b73ffffffffffffffffffffffffffffffffffffffff167f8c5be1e5ebec7d5bd14f71427d1e84f3dd0314c0f7b2291e5b200ac8c7c3b92560405160405180910390a45050565b600260065403612e51576040517f08c379a0000000000000000000000000000000000000000000000000000000008152600401612e4890615ad1565b60405180910390fd5b6002600681905550565b6001600681905550565b600080612e7183611938565b90508073ffffffffffffffffffffffffffffffffffffffff168473ffffffffffffffffffffffffffffffffffffffff161480612eb35750612eb281856126dd565b5b80612ef157508373ffffffffffffffffffffffffffffffffffffffff16612ed9846109cc565b73ffffffffffffffffffffffffffffffffffffffff16145b91505092915050565b8273ffffffffffffffffffffffffffffffffffffffff16612f1a82611938565b73ffffffffffffffffffffffffffffffffffffffff1614612f70576040517f08c379a0000000000000000000000000000000000000000000000000000000008152600401612f6790615b63565b60405180910390fd5b600073ffffffffffffffffffffffffffffffffffffffff168273ffffffffffffffffffffffffffffffffffffffff1603612fdf576040517f08c379a0000000000000000000000000000000000000000000000000000000008152600401612fd690615bf5565b60405180910390fd5b612fec838383600161353c565b8273ffffffffffffffffffffffffffffffffffffffff1661300c82611938565b73ffffffffffffffffffffffffffffffffffffffff1614613062576040517f08c379a000000000000000000000000000000000000000000000000000000000815260040161305990615b63565b60405180910390fd5b6004600082815260200190815260200160002060006101000a81549073ffffffffffffffffffffffffffffffffffffffff02191690556001600360008573ffffffffffffffffffffffffffffffffffffffff1673ffffffffffffffffffffffffffffffffffffffff168152602001908152602001600020600082825403925050819055506001600360008473ffffffffffffffffffffffffffffffffffffffff1673ffffffffffffffffffffffffffffffffffffffff16815260200190815260200160002060008282540192505081905550816002600083815260200190815260200160002060006101000a81548173ffffffffffffffffffffffffffffffffffffffff021916908373ffffffffffffffffffffffffffffffffffffffff160217905550808273ffffffffffffffffffffffffffffffffffffffff168473ffffffffffffffffffffffffffffffffffffffff167fddf252ad1be2c89b69c2b068fc378daa952ba7f163c4a11628f55a4df523b3ef60405160405180910390a46131ee8383836001613542565b505050565b61320d828260405180602001604052806000815250613548565b5050565b60006002600083815260200190815260200160002060009054906101000a900473ffffffffffffffffffffffffffffffffffffffff169050919050565b8173ffffffffffffffffffffffffffffffffffffffff168373ffffffffffffffffffffffffffffffffffffffff16036132bc576040517f08c379a00000000000000000000000000000000000000000000000000000000081526004016132b390615c61565b60405180910390fd5b80600560008573ffffffffffffffffffffffffffffffffffffffff1673ffffffffffffffffffffffffffffffffffffffff16815260200190815260200160002060008473ffffffffffffffffffffffffffffffffffffffff1673ffffffffffffffffffffffffffffffffffffffff16815260200190815260200160002060006101000a81548160ff0219169083151502179055508173ffffffffffffffffffffffffffffffffffffffff168373ffffffffffffffffffffffffffffffffffffffff167f17307eab39ab6107e8899845ad3d59bd9653f200f220920489ca2b5937696c31836040516133ad9190613c48565b60405180910390a3505050565b6133c5848484612efa565b6133d1848484846135a3565b613410576040517f08c379a000000000000000000000000000000000000000000000000000000000815260040161340790615cf3565b60405180910390fd5b50505050565b606060405180602001604052806000815250905090565b60606000600161343c8461372a565b01905060008167ffffffffffffffff81111561345b5761345a613e9d565b5b6040519080825280601f01601f19166020018201604052801561348d5781602001600182028036833780820191505090505b509050600082602001820190505b6001156134f0578080600190039150507f3031323334353637383961626364656600000000000000000000000000000000600a86061a8153600a85816134e4576134e3615d13565b5b0494506000850361349b575b819350505050919050565b60008073ffffffffffffffffffffffffffffffffffffffff1661351d83613211565b73ffffffffffffffffffffffffffffffffffffffff1614159050919050565b50505050565b50505050565b613552838361387d565b61355f60008484846135a3565b61359e576040517f08c379a000000000000000000000000000000000000000000000000000000000815260040161359590615cf3565b60405180910390fd5b505050565b60006135c48473ffffffffffffffffffffffffffffffffffffffff16613a9a565b1561371d578373ffffffffffffffffffffffffffffffffffffffff1663150b7a026135ed612d4b565b8786866040518563ffffffff1660e01b815260040161360f9493929190615d97565b6020604051808303816000875af192505050801561364b57506040513d601f19601f820116820180604052508101906136489190615df8565b60015b6136cd573d806000811461367b576040519150601f19603f3d011682016040523d82523d6000602084013e613680565b606091505b5060008151036136c5576040517f08c379a00000000000000000000000000000000000000000000000000000000081526004016136bc90615cf3565b60405180910390fd5b805181602001fd5b63150b7a0260e01b7bffffffffffffffffffffffffffffffffffffffffffffffffffffffff1916817bffffffffffffffffffffffffffffffffffffffffffffffffffffffff191614915050613722565b600190505b949350505050565b600080600090507a184f03e93ff9f4daa797ed6e38ed64bf6a1f0100000000000000008310613788577a184f03e93ff9f4daa797ed6e38ed64bf6a1f010000000000000000838161377e5761377d615d13565b5b0492506040810190505b6d04ee2d6d415b85acef810000000083106137c5576d04ee2d6d415b85acef810000000083816137bb576137ba615d13565b5b0492506020810190505b662386f26fc1000083106137f457662386f26fc1000083816137ea576137e9615d13565b5b0492506010810190505b6305f5e100831061381d576305f5e100838161381357613812615d13565b5b0492506008810190505b612710831061384257612710838161383857613837615d13565b5b0492506004810190505b60648310613865576064838161385b5761385a615d13565b5b0492506002810190505b600a8310613874576001810190505b80915050919050565b600073ffffffffffffffffffffffffffffffffffffffff168273ffffffffffffffffffffffffffffffffffffffff16036138ec576040517f08c379a00000000000000000000000000000000000000000000000000000000081526004016138e390615e71565b60405180910390fd5b6138f5816134fb565b15613935576040517f08c379a000000000000000000000000000000000000000000000000000000000815260040161392c90615edd565b60405180910390fd5b61394360008383600161353c565b61394c816134fb565b1561398c576040517f08c379a000000000000000000000000000000000000000000000000000000000815260040161398390615edd565b60405180910390fd5b6001600360008473ffffffffffffffffffffffffffffffffffffffff1673ffffffffffffffffffffffffffffffffffffffff16815260200190815260200160002060008282540192505081905550816002600083815260200190815260200160002060006101000a81548173ffffffffffffffffffffffffffffffffffffffff021916908373ffffffffffffffffffffffffffffffffffffffff160217905550808273ffffffffffffffffffffffffffffffffffffffff16600073ffffffffffffffffffffffffffffffffffffffff167fddf252ad1be2c89b69c2b068fc378daa952ba7f163c4a11628f55a4df523b3ef60405160405180910390a4613a96600083836001613542565b5050565b6000808273ffffffffffffffffffffffffffffffffffffffff163b119050919050565b60405180610100016040528060008152602001600073ffffffffffffffffffffffffffffffffffffffff1681526020016000815260200160008152602001600015158152602001600015158152602001600015158152602001606081525090565b604051806101200160405280600073ffffffffffffffffffffffffffffffffffffffff16815260200160008152602001606081526020016060815260200160608152602001600081526020016000815260200160001515815260200160006005811115613b8e57613b8d6141f8565b5b81525090565b6000604051905090565b600080fd5b600080fd5b60007fffffffff0000000000000000000000000000000000000000000000000000000082169050919050565b613bdd81613ba8565b8114613be857600080fd5b50565b600081359050613bfa81613bd4565b92915050565b600060208284031215613c1657613c15613b9e565b5b6000613c2484828501613beb565b91505092915050565b60008115159050919050565b613c4281613c2d565b82525050565b6000602082019050613c5d6000830184613c39565b92915050565b6000819050919050565b613c7681613c63565b8114613c8157600080fd5b50565b600081359050613c9381613c6d565b92915050565b600060208284031215613caf57613cae613b9e565b5b6000613cbd84828501613c84565b91505092915050565b600081519050919050565b600082825260208201905092915050565b60005b83811015613d00578082015181840152602081019050613ce5565b60008484015250505050565b6000601f19601f8301169050919050565b6000613d2882613cc6565b613d328185613cd1565b9350613d42818560208601613ce2565b613d4b81613d0c565b840191505092915050565b60006020820190508181036000830152613d708184613d1d565b905092915050565b600073ffffffffffffffffffffffffffffffffffffffff82169050919050565b6000613da382613d78565b9050919050565b613db381613d98565b82525050565b6000602082019050613dce6000830184613daa565b92915050565b613ddd81613d98565b8114613de857600080fd5b50565b600081359050613dfa81613dd4565b92915050565b60008060408385031215613e1757613e16613b9e565b5b6000613e2585828601613deb565b9250506020613e3685828601613c84565b9150509250929050565b600080600060608486031215613e5957613e58613b9e565b5b6000613e6786828701613deb565b9350506020613e7886828701613deb565b9250506040613e8986828701613c84565b9150509250925092565b600080fd5b600080fd5b7f4e487b7100000000000000000000000000000000000000000000000000000000600052604160045260246000fd5b613ed582613d0c565b810181811067ffffffffffffffff82111715613ef457613ef3613e9d565b5b80604052505050565b6000613f07613b94565b9050613f138282613ecc565b919050565b600067ffffffffffffffff821115613f3357613f32613e9d565b5b613f3c82613d0c565b9050602081019050919050565b82818337600083830152505050565b6000613f6b613f6684613f18565b613efd565b905082815260208101848484011115613f8757613f86613e98565b5b613f92848285613f49565b509392505050565b600082601f830112613faf57613fae613e93565b5b8135613fbf848260208601613f58565b91505092915050565b60008060008060808587031215613fe257613fe1613b9e565b5b600085013567ffffffffffffffff81111561400057613fff613ba3565b5b61400c87828801613f9a565b945050602085013567ffffffffffffffff81111561402d5761402c613ba3565b5b61403987828801613f9a565b935050604085013567ffffffffffffffff81111561405a57614059613ba3565b5b61406687828801613f9a565b925050606061407787828801613c84565b91505092959194509250565b61408c81613c63565b82525050565b61409b81613d98565b82525050565b6140aa81613c2d565b82525050565b600082825260208201905092915050565b60006140cc82613cc6565b6140d681856140b0565b93506140e6818560208601613ce2565b6140ef81613d0c565b840191505092915050565b6000610100830160008301516141136000860182614083565b5060208301516141266020860182614092565b5060408301516141396040860182614083565b50606083015161414c6060860182614083565b50608083015161415f60808601826140a1565b5060a083015161417260a08601826140a1565b5060c083015161418560c08601826140a1565b5060e083015184820360e086015261419d82826140c1565b9150508091505092915050565b600060208201905081810360008301526141c481846140fa565b905092915050565b600081519050919050565b600082825260208201905092915050565b6000819050602082019050919050565b7f4e487b7100000000000000000000000000000000000000000000000000000000600052602160045260246000fd5b60068110614238576142376141f8565b5b50565b600081905061424982614227565b919050565b60006142598261423b565b9050919050565b6142698161424e565b82525050565b6000610120830160008301516142886000860182614092565b50602083015161429b6020860182614083565b50604083015184820360408601526142b382826140c1565b915050606083015184820360608601526142cd82826140c1565b915050608083015184820360808601526142e782826140c1565b91505060a08301516142fc60a0860182614083565b5060c083015161430f60c0860182614083565b5060e083015161432260e08601826140a1565b50610100830151614337610100860182614260565b508091505092915050565b600061434e838361426f565b905092915050565b6000602082019050919050565b600061436e826141cc565b61437881856141d7565b93508360208202850161438a856141e8565b8060005b858110156143c657848403895281516143a78582614342565b94506143b283614356565b925060208a0199505060018101905061438e565b50829750879550505050505092915050565b600060208201905081810360008301526143f28184614363565b905092915050565b6000602082840312156144105761440f613b9e565b5b600061441e84828501613deb565b91505092915050565b61443081613c63565b82525050565b600060208201905061444b6000830184614427565b92915050565b61445a81613c2d565b811461446557600080fd5b50565b60008135905061447781614451565b92915050565b6000806040838503121561449457614493613b9e565b5b60006144a285828601613deb565b92505060206144b385828601614468565b9150509250929050565b600067ffffffffffffffff8211156144d8576144d7613e9d565b5b6144e182613d0c565b9050602081019050919050565b60006145016144fc846144bd565b613efd565b90508281526020810184848401111561451d5761451c613e98565b5b614528848285613f49565b509392505050565b600082601f83011261454557614544613e93565b5b81356145558482602086016144ee565b91505092915050565b6000806000806080858703121561457857614577613b9e565b5b600061458687828801613deb565b945050602061459787828801613deb565b93505060406145a887828801613c84565b925050606085013567ffffffffffffffff8111156145c9576145c8613ba3565b5b6145d587828801614530565b91505092959194509250565b600080604083850312156145f8576145f7613b9e565b5b600061460685828601613deb565b925050602061461785828601613deb565b9150509250929050565b60006101208301600083015161463a6000860182614092565b50602083015161464d6020860182614083565b506040830151848203604086015261466582826140c1565b9150506060830151848203606086015261467f82826140c1565b9150506080830151848203608086015261469982826140c1565b91505060a08301516146ae60a0860182614083565b5060c08301516146c160c0860182614083565b5060e08301516146d460e08601826140a1565b506101008301516146e9610100860182614260565b508091505092915050565b6000602082019050818103600083015261470e8184614621565b905092915050565b600081519050919050565b600082825260208201905092915050565b6000819050602082019050919050565b60006101008301600083015161475b6000860182614083565b50602083015161476e6020860182614092565b5060408301516147816040860182614083565b5060608301516147946060860182614083565b5060808301516147a760808601826140a1565b5060a08301516147ba60a08601826140a1565b5060c08301516147cd60c08601826140a1565b5060e083015184820360e08601526147e582826140c1565b9150508091505092915050565b60006147fe8383614742565b905092915050565b6000602082019050919050565b600061481e82614716565b6148288185614721565b93508360208202850161483a85614732565b8060005b85811015614876578484038952815161485785826147f2565b945061486283614806565b925060208a0199505060018101905061483e565b50829750879550505050505092915050565b600060208201905081810360008301526148a28184614813565b905092915050565b7f4e487b7100000000000000000000000000000000000000000000000000000000600052603260045260246000fd5b7f4f6e6c79204f776e6572206861732074686520617574686f7269747920746f2060008201527f63616e2070726f62652041737365742c2050726f63657373205265766572736560208201527f6400000000000000000000000000000000000000000000000000000000000000604082015250565b600061495b604183613cd1565b9150614966826148d9565b606082019050919050565b6000602082019050818103600083015261498a8161494e565b9050919050565b7f4e487b7100000000000000000000000000000000000000000000000000000000600052602260045260246000fd5b600060028204905060018216806149d857607f821691505b6020821081036149eb576149ea614991565b5b50919050565b7f4552433732313a20617070726f76616c20746f2063757272656e74206f776e6560008201527f7200000000000000000000000000000000000000000000000000000000000000602082015250565b6000614a4d602183613cd1565b9150614a58826149f1565b604082019050919050565b60006020820190508181036000830152614a7c81614a40565b9050919050565b7f4552433732313a20617070726f76652063616c6c6572206973206e6f7420746f60008201527f6b656e206f776e6572206f7220617070726f76656420666f7220616c6c000000602082015250565b6000614adf603d83613cd1565b9150614aea82614a83565b604082019050919050565b60006020820190508181036000830152614b0e81614ad2565b9050919050565b7f417373657420697320756e6465676f696e67204e65676f74696174696f6e0000600082015250565b6000614b4b601e83613cd1565b9150614b5682614b15565b602082019050919050565b60006020820190508181036000830152614b7a81614b3e565b9050919050565b7f596f752063616e6e6f742062757920796f757220417373657400000000000000600082015250565b6000614bb7601983613cd1565b9150614bc282614b81565b602082019050919050565b60006020820190508181036000830152614be681614baa565b9050919050565b7f417373657420646f6573206e6f74204578697374000000000000000000000000600082015250565b6000614c23601483613cd1565b9150614c2e82614bed565b602082019050919050565b60006020820190508181036000830152614c5281614c16565b9050919050565b7f496e636f7272656374207061796d656e7420616d6f756e740000000000000000600082015250565b6000614c8f601883613cd1565b9150614c9a82614c59565b602082019050919050565b60006020820190508181036000830152614cbe81614c82565b9050919050565b600081549050614cd4816149c0565b9050919050565b60008190508160005260206000209050919050565b60006020601f8301049050919050565b600082821b905092915050565b600060088302614d3d7fffffffffffffffffffffffffffffffffffffffffffffffffffffffffffffffff82614d00565b614d478683614d00565b95508019841693508086168417925050509392505050565b6000819050919050565b6000614d84614d7f614d7a84613c63565b614d5f565b613c63565b9050919050565b6000819050919050565b614d9e83614d69565b614db2614daa82614d8b565b848454614d0d565b825550505050565b600090565b614dc7614dba565b614dd2818484614d95565b505050565b5b81811015614df657614deb600082614dbf565b600181019050614dd8565b5050565b601f821115614e3b57614e0c81614cdb565b614e1584614cf0565b81016020851015614e24578190505b614e38614e3085614cf0565b830182614dd7565b50505b505050565b600082821c905092915050565b6000614e5e60001984600802614e40565b1980831691505092915050565b6000614e778383614e4d565b9150826002028217905092915050565b818103614e95575050614f6d565b614e9e82614cc5565b67ffffffffffffffff811115614eb757614eb6613e9d565b5b614ec182546149c0565b614ecc828285614dfa565b6000601f831160018114614efb5760008415614ee9578287015490505b614ef38582614e6b565b865550614f66565b601f198416614f0987614cdb565b9650614f1486614cdb565b60005b82811015614f3c57848901548255600182019150600185019450602081019050614f17565b86831015614f595784890154614f55601f891682614e4d565b8355505b6001600288020188555050505b5050505050505b565b600060a082019050614f846000830188613daa565b614f916020830187613daa565b614f9e6040830186614427565b614fab6060830185614427565b614fb86080830184613c39565b9695505050505050565b7f4552433732313a2063616c6c6572206973206e6f7420746f6b656e206f776e6560008201527f72206f7220617070726f76656400000000000000000000000000000000000000602082015250565b600061501e602d83613cd1565b915061502982614fc2565b604082019050919050565b6000602082019050818103600083015261504d81615011565b9050919050565b7f4f6e6c79207468652062757965722063616e2063616c6c20746869732066756e60008201527f6374696f6e000000000000000000000000000000000000000000000000000000602082015250565b60006150b0602583613cd1565b91506150bb82615054565b604082019050919050565b600060208201905081810360008301526150df816150a3565b9050919050565b7f5469746c65206d7573742062652067726561746572207468616e203000000000600082015250565b600061511c601c83613cd1565b9150615127826150e6565b602082019050919050565b6000602082019050818103600083015261514b8161510f565b9050919050565b7f4465736372697074696f6e2063616e6e6f7420626520656d7074790000000000600082015250565b6000615188601b83613cd1565b915061519382615152565b602082019050919050565b600060208201905081810360008301526151b78161517b565b9050919050565b7f496d6167652063616e6e6f7420626520656d7074790000000000000000000000600082015250565b60006151f4601583613cd1565b91506151ff826151be565b602082019050919050565b60006020820190508181036000830152615223816151e7565b9050919050565b7f636f7374206d7573742062652067726561746572207468616e20300000000000600082015250565b6000615260601b83613cd1565b915061526b8261522a565b602082019050919050565b6000602082019050818103600083015261528f81615253565b9050919050565b600081905092915050565b60006152ac82613cc6565b6152b68185615296565b93506152c6818560208601613ce2565b80840191505092915050565b60006152de82846152a1565b915081905092915050565b7f417373657420616c726561647920657869737400000000000000000000000000600082015250565b600061531f601383613cd1565b915061532a826152e9565b602082019050919050565b6000602082019050818103600083015261534e81615312565b9050919050565b7f4e487b7100000000000000000000000000000000000000000000000000000000600052601160045260246000fd5b600061538f82613c63565b91507fffffffffffffffffffffffffffffffffffffffffffffffffffffffffffffffff82036153c1576153c0615355565b5b600182019050919050565b6153d582613cc6565b67ffffffffffffffff8111156153ee576153ed613e9d565b5b6153f882546149c0565b615403828285614dfa565b600060209050601f8311600181146154365760008415615424578287015190505b61542e8582614e6b565b865550615496565b601f19841661544486614cdb565b60005b8281101561546c57848901518255600182019150602085019450602081019050615447565b868310156154895784890151615485601f891682614e4d565b8355505b6001600288020188555050505b505050505050565b60006080820190506154b36000830187613daa565b81810360208301526154c58186613d1d565b90506154d46040830185614427565b6154e16060830184614427565b95945050505050565b7f4552433732313a20696e76616c696420746f6b656e2049440000000000000000600082015250565b6000615520601883613cd1565b915061552b826154ea565b602082019050919050565b6000602082019050818103600083015261554f81615513565b9050919050565b7f4552433732313a2061646472657373207a65726f206973206e6f74206120766160008201527f6c6964206f776e65720000000000000000000000000000000000000000000000602082015250565b60006155b2602983613cd1565b91506155bd82615556565b604082019050919050565b600060208201905081810360008301526155e1816155a5565b9050919050565b7f6f6e6c7920746865206f776e65722063616e2072656c65617365204173736574600082015250565b600061561e602083613cd1565b9150615629826155e8565b602082019050919050565b6000602082019050818103600083015261564d81615611565b9050919050565b7f417373657420697320756e646572676f696e67204e65676f74696174696f6e00600082015250565b600061568a601f83613cd1565b915061569582615654565b602082019050919050565b600060208201905081810360008301526156b98161567d565b9050919050565b7f596f75204861766520616c726561647920436f6e6669726d207468652041737360008201527f6573740000000000000000000000000000000000000000000000000000000000602082015250565b600061571c602383613cd1565b9150615727826156c0565b604082019050919050565b6000602082019050818103600083015261574b8161570f565b9050919050565b600061575d82613c63565b915061576883613c63565b92508282039050818111156157805761577f615355565b5b92915050565b600081549050615795816149c0565b9050919050565b60008190508160005260206000209050919050565b8181036157bf575050615897565b6157c882615786565b67ffffffffffffffff8111156157e1576157e0613e9d565b5b6157eb82546149c0565b6157f6828285614dfa565b6000601f8311600181146158255760008415615813578287015490505b61581d8582614e6b565b865550615890565b601f1984166158338761579c565b965061583e86614cdb565b60005b8281101561586657848901548255600182019150600185019450602081019050615841565b86831015615883578489015461587f601f891682614e4d565b8355505b6001600288020188555050505b5050505050505b565b600081546158a6816149c0565b6158b08186613cd1565b945060018216600081146158cb57600181146158e157615914565b60ff198316865281151560200286019350615914565b6158ea85614cdb565b60005b8381101561590c578154818901526001820191506020810190506158ed565b808801955050505b50505092915050565b600060a0820190506159326000830188613daa565b61593f6020830187613daa565b61594c6040830186614427565b818103606083015261595e8185615899565b905061596d6080830184614427565b9695505050505050565b6159808161424e565b82525050565b600060408201905061599b6000830185613c39565b6159a86020830184615977565b9392505050565b60006159bb82856152a1565b91506159c782846152a1565b91508190509392505050565b600081905092915050565b50565b60006159ee6000836159d3565b91506159f9826159de565b600082019050919050565b6000615a0f826159e1565b9150819050919050565b7f4661696c656420746f2073656e64204574686572000000000000000000000000600082015250565b6000615a4f601483613cd1565b9150615a5a82615a19565b602082019050919050565b60006020820190508181036000830152615a7e81615a42565b9050919050565b7f5265656e7472616e637947756172643a207265656e7472616e742063616c6c00600082015250565b6000615abb601f83613cd1565b9150615ac682615a85565b602082019050919050565b60006020820190508181036000830152615aea81615aae565b9050919050565b7f4552433732313a207472616e736665722066726f6d20696e636f72726563742060008201527f6f776e6572000000000000000000000000000000000000000000000000000000602082015250565b6000615b4d602583613cd1565b9150615b5882615af1565b604082019050919050565b60006020820190508181036000830152615b7c81615b40565b9050919050565b7f4552433732313a207472616e7366657220746f20746865207a65726f2061646460008201527f7265737300000000000000000000000000000000000000000000000000000000602082015250565b6000615bdf602483613cd1565b9150615bea82615b83565b604082019050919050565b60006020820190508181036000830152615c0e81615bd2565b9050919050565b7f4552433732313a20617070726f766520746f2063616c6c657200000000000000600082015250565b6000615c4b601983613cd1565b9150615c5682615c15565b602082019050919050565b60006020820190508181036000830152615c7a81615c3e565b9050919050565b7f4552433732313a207472616e7366657220746f206e6f6e20455243373231526560008201527f63656976657220696d706c656d656e7465720000000000000000000000000000602082015250565b6000615cdd603283613cd1565b9150615ce882615c81565b604082019050919050565b60006020820190508181036000830152615d0c81615cd0565b9050919050565b7f4e487b7100000000000000000000000000000000000000000000000000000000600052601260045260246000fd5b600081519050919050565b600082825260208201905092915050565b6000615d6982615d42565b615d738185615d4d565b9350615d83818560208601613ce2565b615d8c81613d0c565b840191505092915050565b6000608082019050615dac6000830187613daa565b615db96020830186613daa565b615dc66040830185614427565b8181036060830152615dd88184615d5e565b905095945050505050565b600081519050615df281613bd4565b92915050565b600060208284031215615e0e57615e0d613b9e565b5b6000615e1c84828501615de3565b91505092915050565b7f4552433732313a206d696e7420746f20746865207a65726f2061646472657373600082015250565b6000615e5b602083613cd1565b9150615e6682615e25565b602082019050919050565b60006020820190508181036000830152615e8a81615e4e565b9050919050565b7f4552433732313a20746f6b656e20616c7265616479206d696e74656400000000600082015250565b6000615ec7601c83613cd1565b9150615ed282615e91565b602082019050919050565b60006020820190508181036000830152615ef681615eba565b905091905056fea26469706673582212201ab973d0c4e54b3eb81b8be746facca2dc768660680c692e4e56509a536d123b64736f6c63430008110033",
  "linkReferences": {},
  "deployedLinkReferences": {}
}