{
  "_format": "hh-sol-artifact-1",
  "contractName": "EasyAsset",
  "sourceName": "contracts/EasyAsset.sol",
  "abi": [
    {
      "inputs": [
        {
          "internalType": "string",
          "name": "_name",
          "type": "string"
        },
        {
          "internalType": "string",
          "name": "_symbol",
          "type": "string"
        }
      ],
      "stateMutability": "nonpayable",
      "type": "constructor"
    },
    {
      "anonymous": false,
      "inputs": [
        {
          "indexed": false,
          "internalType": "address",
          "name": "buyer",
          "type": "address"
        },
        {
          "indexed": false,
          "internalType": "address",
          "name": "seller",
          "type": "address"
        },
        {
          "indexed": false,
          "internalType": "uint256",
          "name": "timestamp",
          "type": "uint256"
        },
        {
          "indexed": false,
          "internalType": "uint256",
          "name": "amount",
          "type": "uint256"
        },
        {
          "indexed": false,
          "internalType": "bool",
          "name": "paid",
          "type": "bool"
        }
      ],
      "name": "Action",
      "type": "event"
    },
    {
      "anonymous": false,
      "inputs": [
        {
          "indexed": true,
          "internalType": "address",
          "name": "owner",
          "type": "address"
        },
        {
          "indexed": true,
          "internalType": "address",
          "name": "approved",
          "type": "address"
        },
        {
          "indexed": true,
          "internalType": "uint256",
          "name": "tokenId",
          "type": "uint256"
        }
      ],
      "name": "Approval",
      "type": "event"
    },
    {
      "anonymous": false,
      "inputs": [
        {
          "indexed": true,
          "internalType": "address",
          "name": "owner",
          "type": "address"
        },
        {
          "indexed": true,
          "internalType": "address",
          "name": "operator",
          "type": "address"
        },
        {
          "indexed": false,
          "internalType": "bool",
          "name": "approved",
          "type": "bool"
        }
      ],
      "name": "ApprovalForAll",
      "type": "event"
    },
    {
      "anonymous": false,
      "inputs": [
        {
          "indexed": true,
          "internalType": "address",
          "name": "from",
          "type": "address"
        },
        {
          "indexed": true,
          "internalType": "address",
          "name": "to",
          "type": "address"
        },
        {
          "indexed": true,
          "internalType": "uint256",
          "name": "tokenId",
          "type": "uint256"
        }
      ],
      "name": "Transfer",
      "type": "event"
    },
    {
      "anonymous": false,
      "inputs": [
        {
          "indexed": false,
          "internalType": "address",
          "name": "owner",
          "type": "address"
        },
        {
          "indexed": true,
          "internalType": "uint256",
          "name": "id",
          "type": "uint256"
        },
        {
          "indexed": false,
          "internalType": "string",
          "name": "credential",
          "type": "string"
        },
        {
          "indexed": false,
          "internalType": "uint256",
          "name": "timestamp",
          "type": "uint256"
        },
        {
          "indexed": false,
          "internalType": "uint256",
          "name": "price",
          "type": "uint256"
        }
      ],
      "name": "assetCreation",
      "type": "event"
    },
    {
      "anonymous": false,
      "inputs": [
        {
          "indexed": false,
          "internalType": "address",
          "name": "from",
          "type": "address"
        },
        {
          "indexed": false,
          "internalType": "address",
          "name": "to",
          "type": "address"
        },
        {
          "indexed": false,
          "internalType": "uint256",
          "name": "tokenId",
          "type": "uint256"
        },
        {
          "indexed": false,
          "internalType": "string",
          "name": "credential",
          "type": "string"
        },
        {
          "indexed": false,
          "internalType": "uint256",
          "name": "timestamp",
          "type": "uint256"
        }
      ],
      "name": "assetTransfer",
      "type": "event"
    },
    {
      "anonymous": false,
      "inputs": [
        {
          "indexed": false,
          "internalType": "enum EasyAsset.assetStatus",
          "name": "",
          "type": "uint8"
        },
        {
          "indexed": false,
          "internalType": "enum EasyAsset.assetStatus",
          "name": "",
          "type": "uint8"
        }
      ],
      "name": "refundAction",
      "type": "event"
    },
    {
      "inputs": [
        {
          "internalType": "uint256",
          "name": "id",
          "type": "uint256"
        }
      ],
      "name": "Probe",
      "outputs": [],
      "stateMutability": "nonpayable",
      "type": "function"
    },
    {
      "inputs": [
        {
          "internalType": "address",
          "name": "to",
          "type": "address"
        },
        {
          "internalType": "uint256",
          "name": "tokenId",
          "type": "uint256"
        }
      ],
      "name": "approve",
      "outputs": [],
      "stateMutability": "nonpayable",
      "type": "function"
    },
    {
      "inputs": [
        {
          "internalType": "address",
          "name": "owner",
          "type": "address"
        }
      ],
      "name": "balanceOf",
      "outputs": [
        {
          "internalType": "uint256",
          "name": "",
          "type": "uint256"
        }
      ],
      "stateMutability": "view",
      "type": "function"
    },
    {
      "inputs": [
        {
          "internalType": "uint256",
          "name": "id",
          "type": "uint256"
        }
      ],
      "name": "buyAsset",
      "outputs": [],
      "stateMutability": "payable",
      "type": "function"
    },
    {
      "inputs": [
        {
          "internalType": "uint256",
          "name": "id",
          "type": "uint256"
        }
      ],
      "name": "confirm",
      "outputs": [],
      "stateMutability": "nonpayable",
      "type": "function"
    },
    {
      "inputs": [
        {
          "internalType": "string",
          "name": "title",
          "type": "string"
        },
        {
          "internalType": "string",
          "name": "description",
          "type": "string"
        },
        {
          "internalType": "string",
          "name": "credential",
          "type": "string"
        },
        {
          "internalType": "uint256",
          "name": "price",
          "type": "uint256"
        }
      ],
      "name": "createAsset",
      "outputs": [
        {
          "internalType": "bool",
          "name": "",
          "type": "bool"
        }
      ],
      "stateMutability": "nonpayable",
      "type": "function"
    },
    {
      "inputs": [
        {
          "internalType": "uint256",
          "name": "tokenId",
          "type": "uint256"
        }
      ],
      "name": "getApproved",
      "outputs": [
        {
          "internalType": "address",
          "name": "",
          "type": "address"
        }
      ],
      "stateMutability": "view",
      "type": "function"
    },
    {
      "inputs": [
        {
          "internalType": "uint256",
          "name": "_id",
          "type": "uint256"
        }
      ],
      "name": "getAsset",
      "outputs": [
        {
          "components": [
            {
              "internalType": "address",
              "name": "seller",
              "type": "address"
            },
            {
              "internalType": "uint256",
              "name": "id",
              "type": "uint256"
            },
            {
              "internalType": "string",
              "name": "title",
              "type": "string"
            },
            {
              "internalType": "string",
              "name": "description",
              "type": "string"
            },
            {
              "internalType": "string",
              "name": "credential",
              "type": "string"
            },
            {
              "internalType": "uint256",
              "name": "timestamp",
              "type": "uint256"
            },
            {
              "internalType": "uint256",
              "name": "price",
              "type": "uint256"
            },
            {
              "internalType": "bool",
              "name": "probe",
              "type": "bool"
            },
            {
              "internalType": "bool",
              "name": "bought",
              "type": "bool"
            },
            {
              "internalType": "enum EasyAsset.assetStatus",
              "name": "status",
              "type": "uint8"
            }
          ],
          "internalType": "struct EasyAsset.Asset",
          "name": "",
          "type": "tuple"
        }
      ],
      "stateMutability": "view",
      "type": "function"
    },
    {
      "inputs": [],
      "name": "getAssets",
      "outputs": [
        {
          "components": [
            {
              "internalType": "address",
              "name": "seller",
              "type": "address"
            },
            {
              "internalType": "uint256",
              "name": "id",
              "type": "uint256"
            },
            {
              "internalType": "string",
              "name": "title",
              "type": "string"
            },
            {
              "internalType": "string",
              "name": "description",
              "type": "string"
            },
            {
              "internalType": "string",
              "name": "credential",
              "type": "string"
            },
            {
              "internalType": "uint256",
              "name": "timestamp",
              "type": "uint256"
            },
            {
              "internalType": "uint256",
              "name": "price",
              "type": "uint256"
            },
            {
              "internalType": "bool",
              "name": "probe",
              "type": "bool"
            },
            {
              "internalType": "bool",
              "name": "bought",
              "type": "bool"
            },
            {
              "internalType": "enum EasyAsset.assetStatus",
              "name": "status",
              "type": "uint8"
            }
          ],
          "internalType": "struct EasyAsset.Asset[]",
          "name": "",
          "type": "tuple[]"
        }
      ],
      "stateMutability": "view",
      "type": "function"
    },
    {
      "inputs": [
        {
          "internalType": "uint256",
          "name": "buyerId",
          "type": "uint256"
        }
      ],
      "name": "getBuyer",
      "outputs": [
        {
          "components": [
            {
              "internalType": "uint256",
              "name": "id",
              "type": "uint256"
            },
            {
              "internalType": "address",
              "name": "owner",
              "type": "address"
            },
            {
              "internalType": "uint256",
              "name": "amountpaid",
              "type": "uint256"
            },
            {
              "internalType": "uint256",
              "name": "timestamp",
              "type": "uint256"
            },
            {
              "internalType": "bool",
              "name": "paid",
              "type": "bool"
            },
            {
              "internalType": "bool",
              "name": "checked",
              "type": "bool"
            },
            {
              "internalType": "string",
              "name": "credential",
              "type": "string"
            },
            {
              "internalType": "enum EasyAsset.assetStatus",
              "name": "status",
              "type": "uint8"
            }
          ],
          "internalType": "struct EasyAsset.buyer",
          "name": "",
          "type": "tuple"
        }
      ],
      "stateMutability": "view",
      "type": "function"
    },
    {
      "inputs": [],
      "name": "getBuyers",
      "outputs": [
        {
          "components": [
            {
              "internalType": "uint256",
              "name": "id",
              "type": "uint256"
            },
            {
              "internalType": "address",
              "name": "owner",
              "type": "address"
            },
            {
              "internalType": "uint256",
              "name": "amountpaid",
              "type": "uint256"
            },
            {
              "internalType": "uint256",
              "name": "timestamp",
              "type": "uint256"
            },
            {
              "internalType": "bool",
              "name": "paid",
              "type": "bool"
            },
            {
              "internalType": "bool",
              "name": "checked",
              "type": "bool"
            },
            {
              "internalType": "string",
              "name": "credential",
              "type": "string"
            },
            {
              "internalType": "enum EasyAsset.assetStatus",
              "name": "status",
              "type": "uint8"
            }
          ],
          "internalType": "struct EasyAsset.buyer[]",
          "name": "",
          "type": "tuple[]"
        }
      ],
      "stateMutability": "view",
      "type": "function"
    },
    {
      "inputs": [
        {
          "internalType": "address",
          "name": "owner",
          "type": "address"
        },
        {
          "internalType": "address",
          "name": "operator",
          "type": "address"
        }
      ],
      "name": "isApprovedForAll",
      "outputs": [
        {
          "internalType": "bool",
          "name": "",
          "type": "bool"
        }
      ],
      "stateMutability": "view",
      "type": "function"
    },
    {
      "inputs": [],
      "name": "name",
      "outputs": [
        {
          "internalType": "string",
          "name": "",
          "type": "string"
        }
      ],
      "stateMutability": "view",
      "type": "function"
    },
    {
      "inputs": [],
      "name": "owner",
      "outputs": [
        {
          "internalType": "address",
          "name": "",
          "type": "address"
        }
      ],
      "stateMutability": "view",
      "type": "function"
    },
    {
      "inputs": [
        {
          "internalType": "uint256",
          "name": "tokenId",
          "type": "uint256"
        }
      ],
      "name": "ownerOf",
      "outputs": [
        {
          "internalType": "address",
          "name": "",
          "type": "address"
        }
      ],
      "stateMutability": "view",
      "type": "function"
    },
    {
      "inputs": [
        {
          "internalType": "uint256",
          "name": "id",
          "type": "uint256"
        }
      ],
      "name": "refund",
      "outputs": [],
      "stateMutability": "nonpayable",
      "type": "function"
    },
    {
      "inputs": [
        {
          "internalType": "uint256",
          "name": "id",
          "type": "uint256"
        }
      ],
      "name": "releaseAsset",
      "outputs": [],
      "stateMutability": "nonpayable",
      "type": "function"
    },
    {
      "inputs": [
        {
          "internalType": "address",
          "name": "from",
          "type": "address"
        },
        {
          "internalType": "address",
          "name": "to",
          "type": "address"
        },
        {
          "internalType": "uint256",
          "name": "tokenId",
          "type": "uint256"
        }
      ],
      "name": "safeTransferFrom",
      "outputs": [],
      "stateMutability": "nonpayable",
      "type": "function"
    },
    {
      "inputs": [
        {
          "internalType": "address",
          "name": "from",
          "type": "address"
        },
        {
          "internalType": "address",
          "name": "to",
          "type": "address"
        },
        {
          "internalType": "uint256",
          "name": "tokenId",
          "type": "uint256"
        },
        {
          "internalType": "bytes",
          "name": "data",
          "type": "bytes"
        }
      ],
      "name": "safeTransferFrom",
      "outputs": [],
      "stateMutability": "nonpayable",
      "type": "function"
    },
    {
      "inputs": [
        {
          "internalType": "address",
          "name": "operator",
          "type": "address"
        },
        {
          "internalType": "bool",
          "name": "approved",
          "type": "bool"
        }
      ],
      "name": "setApprovalForAll",
      "outputs": [],
      "stateMutability": "nonpayable",
      "type": "function"
    },
    {
      "inputs": [
        {
          "internalType": "bytes4",
          "name": "interfaceId",
          "type": "bytes4"
        }
      ],
      "name": "supportsInterface",
      "outputs": [
        {
          "internalType": "bool",
          "name": "",
          "type": "bool"
        }
      ],
      "stateMutability": "view",
      "type": "function"
    },
    {
      "inputs": [],
      "name": "symbol",
      "outputs": [
        {
          "internalType": "string",
          "name": "",
          "type": "string"
        }
      ],
      "stateMutability": "view",
      "type": "function"
    },
    {
      "inputs": [
        {
          "internalType": "uint256",
          "name": "tokenId",
          "type": "uint256"
        }
      ],
      "name": "tokenURI",
      "outputs": [
        {
          "internalType": "string",
          "name": "",
          "type": "string"
        }
      ],
      "stateMutability": "view",
      "type": "function"
    },
    {
      "inputs": [
        {
          "internalType": "address",
          "name": "from",
          "type": "address"
        },
        {
          "internalType": "address",
          "name": "to",
          "type": "address"
        },
        {
          "internalType": "uint256",
          "name": "tokenId",
          "type": "uint256"
        }
      ],
      "name": "transferFrom",
      "outputs": [],
      "stateMutability": "nonpayable",
      "type": "function"
    }
  ],
  "bytecode": "0x60806040523480156200001157600080fd5b506040516200659738038062006597833981810160405281019062000037919062000243565b818181600090816200004a919062000513565b5080600190816200005c919062000513565b505050600160068190555033600f60006101000a81548173ffffffffffffffffffffffffffffffffffffffff021916908373ffffffffffffffffffffffffffffffffffffffff1602179055505050620005fa565b6000604051905090565b600080fd5b600080fd5b600080fd5b600080fd5b6000601f19601f8301169050919050565b7f4e487b7100000000000000000000000000000000000000000000000000000000600052604160045260246000fd5b6200011982620000ce565b810181811067ffffffffffffffff821117156200013b576200013a620000df565b5b80604052505050565b600062000150620000b0565b90506200015e82826200010e565b919050565b600067ffffffffffffffff821115620001815762000180620000df565b5b6200018c82620000ce565b9050602081019050919050565b60005b83811015620001b95780820151818401526020810190506200019c565b60008484015250505050565b6000620001dc620001d68462000163565b62000144565b905082815260208101848484011115620001fb57620001fa620000c9565b5b6200020884828562000199565b509392505050565b600082601f830112620002285762000227620000c4565b5b81516200023a848260208601620001c5565b91505092915050565b600080604083850312156200025d576200025c620000ba565b5b600083015167ffffffffffffffff8111156200027e576200027d620000bf565b5b6200028c8582860162000210565b925050602083015167ffffffffffffffff811115620002b057620002af620000bf565b5b620002be8582860162000210565b9150509250929050565b600081519050919050565b7f4e487b7100000000000000000000000000000000000000000000000000000000600052602260045260246000fd5b600060028204905060018216806200031b57607f821691505b602082108103620003315762000330620002d3565b5b50919050565b60008190508160005260206000209050919050565b60006020601f8301049050919050565b600082821b905092915050565b6000600883026200039b7fffffffffffffffffffffffffffffffffffffffffffffffffffffffffffffffff826200035c565b620003a786836200035c565b95508019841693508086168417925050509392505050565b6000819050919050565b6000819050919050565b6000620003f4620003ee620003e884620003bf565b620003c9565b620003bf565b9050919050565b6000819050919050565b6200041083620003d3565b620004286200041f82620003fb565b84845462000369565b825550505050565b600090565b6200043f62000430565b6200044c81848462000405565b505050565b5b8181101562000474576200046860008262000435565b60018101905062000452565b5050565b601f821115620004c3576200048d8162000337565b62000498846200034c565b81016020851015620004a8578190505b620004c0620004b7856200034c565b83018262000451565b50505b505050565b600082821c905092915050565b6000620004e860001984600802620004c8565b1980831691505092915050565b6000620005038383620004d5565b9150826002028217905092915050565b6200051e82620002c8565b67ffffffffffffffff8111156200053a5762000539620000df565b5b62000546825462000302565b6200055382828562000478565b600060209050601f8311600181146200058b576000841562000576578287015190505b620005828582620004f5565b865550620005f2565b601f1984166200059b8662000337565b60005b82811015620005c5578489015182556001820191506020850194506020810190506200059e565b86831015620005e55784890151620005e1601f891682620004d5565b8355505b6001600288020188555050505b505050505050565b615f8d806200060a6000396000f3fe60806040526004361061014b5760003560e01c806367e4ac2c116100b6578063b88d4fde1161006f578063b88d4fde146104a5578063ba0179b5146104ce578063c87b56dd146104f7578063e985e9c514610534578063eac8f5b814610571578063f64bfaba146105ae5761014b565b806367e4ac2c1461039557806370a08231146103c05780638da5cb5b146103fd5780639010ce971461042857806395d89b4114610451578063a22cb4651461047c5761014b565b806323b872dd1161010857806323b872dd14610263578063278ecde11461028c578063369d8138146102b557806342842e0e146102f25780635bf608b81461031b5780636352211e146103585761014b565b806301ffc9a71461015057806304e98cef1461018d57806306fdde03146101b6578063081812fc146101e1578063095ea7b31461021e578063110d35b814610247575b600080fd5b34801561015c57600080fd5b5061017760048036038101906101729190613bea565b6105d9565b6040516101849190613c32565b60405180910390f35b34801561019957600080fd5b506101b460048036038101906101af9190613c83565b6106bb565b005b3480156101c257600080fd5b506101cb6108e9565b6040516101d89190613d40565b60405180910390f35b3480156101ed57600080fd5b5061020860048036038101906102039190613c83565b61097b565b6040516102159190613da3565b60405180910390f35b34801561022a57600080fd5b5061024560048036038101906102409190613dea565b6109c1565b005b610261600480360381019061025c9190613c83565b610ad8565b005b34801561026f57600080fd5b5061028a60048036038101906102859190613e2a565b61104f565b005b34801561029857600080fd5b506102b360048036038101906102ae9190613c83565b6110af565b005b3480156102c157600080fd5b506102dc60048036038101906102d79190613fb2565b6113ab565b6040516102e99190613c32565b60405180910390f35b3480156102fe57600080fd5b5061031960048036038101906103149190613e2a565b61182f565b005b34801561032757600080fd5b50610342600480360381019061033d9190613c83565b61184f565b60405161034f919061420b565b60405180910390f35b34801561036457600080fd5b5061037f600480360381019061037a9190613c83565b6119f4565b60405161038c9190613da3565b60405180910390f35b3480156103a157600080fd5b506103aa611a7a565b6040516103b791906143d7565b60405180910390f35b3480156103cc57600080fd5b506103e760048036038101906103e291906143f9565b611d75565b6040516103f49190614435565b60405180910390f35b34801561040957600080fd5b50610412611e2c565b60405161041f9190613da3565b60405180910390f35b34801561043457600080fd5b5061044f600480360381019061044a9190613c83565b611e52565b005b34801561045d57600080fd5b50610466611fd3565b6040516104739190613d40565b60405180910390f35b34801561048857600080fd5b506104a3600480360381019061049e919061447c565b612065565b005b3480156104b157600080fd5b506104cc60048036038101906104c7919061455d565b61207b565b005b3480156104da57600080fd5b506104f560048036038101906104f09190613c83565b6120dd565b005b34801561050357600080fd5b5061051e60048036038101906105199190613c83565b61260b565b60405161052b9190613d40565b60405180910390f35b34801561054057600080fd5b5061055b600480360381019061055691906145e0565b612673565b6040516105689190613c32565b60405180910390f35b34801561057d57600080fd5b5061059860048036038101906105939190613c83565b612707565b6040516105a59190614708565b60405180910390f35b3480156105ba57600080fd5b506105c36129df565b6040516105d0919061489c565b60405180910390f35b60007f80ac58cd000000000000000000000000000000000000000000000000000000007bffffffffffffffffffffffffffffffffffffffffffffffffffffffff1916827bffffffffffffffffffffffffffffffffffffffffffffffffffffffff191614806106a457507f5b5e139f000000000000000000000000000000000000000000000000000000007bffffffffffffffffffffffffffffffffffffffffffffffffffffffff1916827bffffffffffffffffffffffffffffffffffffffffffffffffffffffff1916145b806106b457506106b382612bb6565b5b9050919050565b600f60009054906101000a900473ffffffffffffffffffffffffffffffffffffffff1673ffffffffffffffffffffffffffffffffffffffff163373ffffffffffffffffffffffffffffffffffffffff161480156107485750600a8181548110610727576107266148be565b5b906000526020600020906008020160070160009054906101000a900460ff16155b610787576040517f08c379a000000000000000000000000000000000000000000000000000000000815260040161077e90614985565b60405180910390fd5b6001600a828154811061079d5761079c6148be565b5b906000526020600020906008020160070160006101000a81548160ff021916908315150217905550600160048111156107d9576107d86140e4565b5b600a82815481106107ed576107ec6148be565b5b906000526020600020906008020160070160029054906101000a900460ff16600481111561081e5761081d6140e4565b5b03610898576108976008828154811061083a576108396148be565b5b906000526020600020906007020160010160009054906101000a900473ffffffffffffffffffffffffffffffffffffffff16600a83815481106108805761087f6148be565b5b906000526020600020906008020160060154612c20565b5b6002600a82815481106108ae576108ad6148be565b5b906000526020600020906008020160070160026101000a81548160ff021916908360048111156108e1576108e06140e4565b5b021790555050565b6060600080546108f8906149d4565b80601f0160208091040260200160405190810160405280929190818152602001828054610924906149d4565b80156109715780601f1061094657610100808354040283529160200191610971565b820191906000526020600020905b81548152906001019060200180831161095457829003601f168201915b5050505050905090565b600061098682612cd1565b6004600083815260200190815260200160002060009054906101000a900473ffffffffffffffffffffffffffffffffffffffff169050919050565b60006109cc826119f4565b90508073ffffffffffffffffffffffffffffffffffffffff168373ffffffffffffffffffffffffffffffffffffffff1603610a3c576040517f08c379a0000000000000000000000000000000000000000000000000000000008152600401610a3390614a77565b60405180910390fd5b8073ffffffffffffffffffffffffffffffffffffffff16610a5b612d1c565b73ffffffffffffffffffffffffffffffffffffffff161480610a8a5750610a8981610a84612d1c565b612673565b5b610ac9576040517f08c379a0000000000000000000000000000000000000000000000000000000008152600401610ac090614b09565b60405180910390fd5b610ad38383612d24565b505050565b610ae0612ddd565b60006004811115610af457610af36140e4565b5b600a8281548110610b0857610b076148be565b5b906000526020600020906008020160070160029054906101000a900460ff166004811115610b3957610b386140e4565b5b14610b79576040517f08c379a0000000000000000000000000000000000000000000000000000000008152600401610b7090614b75565b60405180910390fd5b600a8181548110610b8d57610b8c6148be565b5b906000526020600020906008020160000160009054906101000a900473ffffffffffffffffffffffffffffffffffffffff1673ffffffffffffffffffffffffffffffffffffffff163373ffffffffffffffffffffffffffffffffffffffff1603610c2c576040517f08c379a0000000000000000000000000000000000000000000000000000000008152600401610c2390614be1565b60405180910390fd5b600e600082815260200190815260200160002060009054906101000a900460ff16610c8c576040517f08c379a0000000000000000000000000000000000000000000000000000000008152600401610c8390614c4d565b60405180910390fd5b600a8181548110610ca057610c9f6148be565b5b9060005260206000209060080201600601543414610cf3576040517f08c379a0000000000000000000000000000000000000000000000000000000008152600401610cea90614cb9565b60405180910390fd5b6000600960008381526020019081526020016000209050818160000181905550338160010160006101000a81548173ffffffffffffffffffffffffffffffffffffffff021916908373ffffffffffffffffffffffffffffffffffffffff16021790555034816002018190555042816003018190555060018160040160006101000a81548160ff0219169083151502179055506008819080600181540180825580915050600190039060005260206000209060070201600090919091909150600082015481600001556001820160009054906101000a900473ffffffffffffffffffffffffffffffffffffffff168160010160006101000a81548173ffffffffffffffffffffffffffffffffffffffff021916908373ffffffffffffffffffffffffffffffffffffffff16021790555060028201548160020155600382015481600301556004820160009054906101000a900460ff168160040160006101000a81548160ff0219169083151502179055506004820160019054906101000a900460ff168160040160016101000a81548160ff02191690831515021790555060058201816005019081610ea49190614e9b565b506006820160009054906101000a900460ff168160060160006101000a81548160ff02191690836004811115610edd57610edc6140e4565b5b021790555050506001600a8381548110610efa57610ef96148be565b5b906000526020600020906008020160070160016101000a81548160ff0219169083151502179055507f2018a69277a3b64014d178d92da02c971e68f2f7d89f996327e9757f49c433ba33600a8481548110610f5857610f576148be565b5b906000526020600020906008020160000160009054906101000a900473ffffffffffffffffffffffffffffffffffffffff1642346001604051610f9f959493929190614f83565b60405180910390a16001600a8381548110610fbd57610fbc6148be565b5b906000526020600020906008020160070160026101000a81548160ff02191690836004811115610ff057610fef6140e4565b5b021790555060006008838154811061100b5761100a6148be565b5b906000526020600020906007020160060160006101000a81548160ff0219169083600481111561103e5761103d6140e4565b5b02179055505061104c612e2c565b50565b61106061105a612d1c565b82612e36565b61109f576040517f08c379a000000000000000000000000000000000000000000000000000000000815260040161109690615048565b60405180910390fd5b6110aa838383612ecb565b505050565b600881815481106110c3576110c26148be565b5b906000526020600020906007020160010160009054906101000a900473ffffffffffffffffffffffffffffffffffffffff1673ffffffffffffffffffffffffffffffffffffffff163373ffffffffffffffffffffffffffffffffffffffff1614611162576040517f08c379a0000000000000000000000000000000000000000000000000000000008152600401611159906150b4565b60405180910390fd5b60006004811115611176576111756140e4565b5b6008828154811061118a576111896148be565b5b906000526020600020906007020160060160009054906101000a900460ff1660048111156111bb576111ba6140e4565b5b146111fb576040517f08c379a00000000000000000000000000000000000000000000000000000000081526004016111f290615120565b60405180910390fd5b61126f60088281548110611212576112116148be565b5b906000526020600020906007020160010160009054906101000a900473ffffffffffffffffffffffffffffffffffffffff16600a8381548110611258576112576148be565b5b906000526020600020906008020160060154612c20565b6000600a8281548110611285576112846148be565b5b906000526020600020906008020160070160026101000a81548160ff021916908360048111156112b8576112b76140e4565b5b02179055506003600882815481106112d3576112d26148be565b5b906000526020600020906007020160060160006101000a81548160ff02191690836004811115611306576113056140e4565b5b02179055507f84d7f04dfb80e682ae7d14070ec2154d4184eae42887cb5fe7747d6ccbadc21c600a82815481106113405761133f6148be565b5b906000526020600020906008020160070160029054906101000a900460ff1660088381548110611373576113726148be565b5b906000526020600020906007020160060160009054906101000a900460ff166040516113a092919061514f565b60405180910390a150565b6000808551116113f0576040517f08c379a00000000000000000000000000000000000000000000000000000000081526004016113e7906151c4565b60405180910390fd5b6000845111611434576040517f08c379a000000000000000000000000000000000000000000000000000000000815260040161142b90615230565b60405180910390fd5b6000835111611478576040517f08c379a000000000000000000000000000000000000000000000000000000000815260040161146f9061529c565b60405180910390fd5b600082116114bb576040517f08c379a00000000000000000000000000000000000000000000000000000000081526004016114b290615308565b60405180910390fd5b600d836040516114cb9190615364565b908152602001604051809103902060009054906101000a900460ff1615611527576040517f08c379a000000000000000000000000000000000000000000000000000000000815260040161151e906153c7565b60405180910390fd5b60006007600081548092919061153c90615416565b9190505590506000600b60008381526020019081526020016000209050338160000160006101000a81548173ffffffffffffffffffffffffffffffffffffffff021916908373ffffffffffffffffffffffffffffffffffffffff160217905550818160010181905550868160020190816115b6919061545e565b50858160030190816115c8919061545e565b50848160040190816115da919061545e565b50428160050181905550838160060181905550600a8190806001815401808255809150506001900390600052602060002090600802016000909190919091506000820160009054906101000a900473ffffffffffffffffffffffffffffffffffffffff168160000160006101000a81548173ffffffffffffffffffffffffffffffffffffffff021916908373ffffffffffffffffffffffffffffffffffffffff160217905550600182015481600101556002820181600201908161169e9190614e9b565b50600382018160030190816116b39190614e9b565b50600482018160040190816116c89190614e9b565b5060058201548160050155600682015481600601556007820160009054906101000a900460ff168160070160006101000a81548160ff0219169083151502179055506007820160019054906101000a900460ff168160070160016101000a81548160ff0219169083151502179055506007820160029054906101000a900460ff168160070160026101000a81548160ff0219169083600481111561176f5761176e6140e4565b5b021790555050506001600d866040516117889190615364565b908152602001604051809103902060006101000a81548160ff0219169083151502179055506001600e600084815260200190815260200160002060006101000a81548160ff021916908315150217905550817f1bd34f5070969faf7c075ecf37c24f973b7c3a11714bbb362e90c5284f96cf5b3387428860405161180f9493929190615530565b60405180910390a261182133836131c4565b600192505050949350505050565b61184a8383836040518060200160405280600081525061207b565b505050565b611857613a8e565b6009600083815260200190815260200160002060405180610100016040529081600082015481526020016001820160009054906101000a900473ffffffffffffffffffffffffffffffffffffffff1673ffffffffffffffffffffffffffffffffffffffff1673ffffffffffffffffffffffffffffffffffffffff16815260200160028201548152602001600382015481526020016004820160009054906101000a900460ff161515151581526020016004820160019054906101000a900460ff16151515158152602001600582018054611930906149d4565b80601f016020809104026020016040519081016040528092919081815260200182805461195c906149d4565b80156119a95780601f1061197e576101008083540402835291602001916119a9565b820191906000526020600020905b81548152906001019060200180831161198c57829003601f168201915b505050505081526020016006820160009054906101000a900460ff1660048111156119d7576119d66140e4565b5b60048111156119e9576119e86140e4565b5b815250509050919050565b600080611a00836131e2565b9050600073ffffffffffffffffffffffffffffffffffffffff168173ffffffffffffffffffffffffffffffffffffffff1603611a71576040517f08c379a0000000000000000000000000000000000000000000000000000000008152600401611a68906155c8565b60405180910390fd5b80915050919050565b6060600a805480602002602001604051908101604052809291908181526020016000905b82821015611d6c5783829060005260206000209060080201604051806101400160405290816000820160009054906101000a900473ffffffffffffffffffffffffffffffffffffffff1673ffffffffffffffffffffffffffffffffffffffff1673ffffffffffffffffffffffffffffffffffffffff16815260200160018201548152602001600282018054611b32906149d4565b80601f0160208091040260200160405190810160405280929190818152602001828054611b5e906149d4565b8015611bab5780601f10611b8057610100808354040283529160200191611bab565b820191906000526020600020905b815481529060010190602001808311611b8e57829003601f168201915b50505050508152602001600382018054611bc4906149d4565b80601f0160208091040260200160405190810160405280929190818152602001828054611bf0906149d4565b8015611c3d5780601f10611c1257610100808354040283529160200191611c3d565b820191906000526020600020905b815481529060010190602001808311611c2057829003601f168201915b50505050508152602001600482018054611c56906149d4565b80601f0160208091040260200160405190810160405280929190818152602001828054611c82906149d4565b8015611ccf5780601f10611ca457610100808354040283529160200191611ccf565b820191906000526020600020905b815481529060010190602001808311611cb257829003601f168201915b5050505050815260200160058201548152602001600682015481526020016007820160009054906101000a900460ff161515151581526020016007820160019054906101000a900460ff161515151581526020016007820160029054906101000a900460ff166004811115611d4757611d466140e4565b5b6004811115611d5957611d586140e4565b5b8152505081526020019060010190611a9e565b50505050905090565b60008073ffffffffffffffffffffffffffffffffffffffff168273ffffffffffffffffffffffffffffffffffffffff1603611de5576040517f08c379a0000000000000000000000000000000000000000000000000000000008152600401611ddc9061565a565b60405180910390fd5b600360008373ffffffffffffffffffffffffffffffffffffffff1673ffffffffffffffffffffffffffffffffffffffff168152602001908152602001600020549050919050565b600f60009054906101000a900473ffffffffffffffffffffffffffffffffffffffff1681565b600f60009054906101000a900473ffffffffffffffffffffffffffffffffffffffff1673ffffffffffffffffffffffffffffffffffffffff163373ffffffffffffffffffffffffffffffffffffffff16148015611f05575060026004811115611ebe57611ebd6140e4565b5b600a8281548110611ed257611ed16148be565b5b906000526020600020906008020160070160029054906101000a900460ff166004811115611f0357611f026140e4565b5b145b611f44576040517f08c379a0000000000000000000000000000000000000000000000000000000008152600401611f3b906156c6565b60405180910390fd5b6000600a8281548110611f5a57611f596148be565b5b906000526020600020906008020160070160006101000a81548160ff0219169083151502179055506000600a8281548110611f9857611f976148be565b5b906000526020600020906008020160070160026101000a81548160ff02191690836004811115611fcb57611fca6140e4565b5b021790555050565b606060018054611fe2906149d4565b80601f016020809104026020016040519081016040528092919081815260200182805461200e906149d4565b801561205b5780601f106120305761010080835404028352916020019161205b565b820191906000526020600020905b81548152906001019060200180831161203e57829003601f168201915b5050505050905090565b612077612070612d1c565b838361321f565b5050565b61208c612086612d1c565b83612e36565b6120cb576040517f08c379a00000000000000000000000000000000000000000000000000000000081526004016120c290615048565b60405180910390fd5b6120d78484848461338b565b50505050565b600160048111156120f1576120f06140e4565b5b600a8281548110612105576121046148be565b5b906000526020600020906008020160070160029054906101000a900460ff166004811115612136576121356140e4565b5b14612176576040517f08c379a000000000000000000000000000000000000000000000000000000000815260040161216d90615732565b60405180910390fd5b6008818154811061218a576121896148be565b5b906000526020600020906007020160010160009054906101000a900473ffffffffffffffffffffffffffffffffffffffff1673ffffffffffffffffffffffffffffffffffffffff163373ffffffffffffffffffffffffffffffffffffffff16148015612226575060088181548110612205576122046148be565b5b906000526020600020906007020160040160019054906101000a900460ff16155b612265576040517f08c379a000000000000000000000000000000000000000000000000000000000815260040161225c906157c4565b60405180910390fd5b60016008828154811061227b5761227a6148be565b5b906000526020600020906007020160040160016101000a81548160ff021916908315150217905550612317600a82815481106122ba576122b96148be565b5b906000526020600020906008020160000160009054906101000a900473ffffffffffffffffffffffffffffffffffffffff16600a8381548110612300576122ff6148be565b5b906000526020600020906008020160060154612c20565b6008818154811061232b5761232a6148be565b5b906000526020600020906007020160020154600a8281548110612351576123506148be565b5b9060005260206000209060080201600601600082825461237191906157e4565b925050819055506004600a828154811061238e5761238d6148be565b5b906000526020600020906008020160070160026101000a81548160ff021916908360048111156123c1576123c06140e4565b5b021790555061243b600a82815481106123dd576123dc6148be565b5b906000526020600020906008020160000160009054906101000a900473ffffffffffffffffffffffffffffffffffffffff1633600a8481548110612424576124236148be565b5b906000526020600020906008020160010154612ecb565b600a818154811061244f5761244e6148be565b5b906000526020600020906008020160040160088281548110612474576124736148be565b5b906000526020600020906007020160050190816124919190615843565b5033600a82815481106124a7576124a66148be565b5b906000526020600020906008020160000160006101000a81548173ffffffffffffffffffffffffffffffffffffffff021916908373ffffffffffffffffffffffffffffffffffffffff1602179055507f8eac340af35af673875d62f0b4eeaa6928b83ecb2f0f45ef9b6d1cba38b00661600a828154811061252b5761252a6148be565b5b906000526020600020906008020160000160009054906101000a900473ffffffffffffffffffffffffffffffffffffffff1660088381548110612571576125706148be565b5b906000526020600020906007020160010160009054906101000a900473ffffffffffffffffffffffffffffffffffffffff16600a84815481106125b7576125b66148be565b5b906000526020600020906008020160010154600885815481106125dd576125dc6148be565b5b9060005260206000209060070201600501426040516126009594939291906159af565b60405180910390a150565b606061261682612cd1565b60006126206133e7565b90506000815111612640576040518060200160405280600081525061266b565b8061264a846133fe565b60405160200161265b929190615a09565b6040516020818303038152906040525b915050919050565b6000600560008473ffffffffffffffffffffffffffffffffffffffff1673ffffffffffffffffffffffffffffffffffffffff16815260200190815260200160002060008373ffffffffffffffffffffffffffffffffffffffff1673ffffffffffffffffffffffffffffffffffffffff16815260200190815260200160002060009054906101000a900460ff16905092915050565b61270f613aff565b600a8281548110612723576127226148be565b5b9060005260206000209060080201604051806101400160405290816000820160009054906101000a900473ffffffffffffffffffffffffffffffffffffffff1673ffffffffffffffffffffffffffffffffffffffff1673ffffffffffffffffffffffffffffffffffffffff168152602001600182015481526020016002820180546127ad906149d4565b80601f01602080910402602001604051908101604052809291908181526020018280546127d9906149d4565b80156128265780601f106127fb57610100808354040283529160200191612826565b820191906000526020600020905b81548152906001019060200180831161280957829003601f168201915b5050505050815260200160038201805461283f906149d4565b80601f016020809104026020016040519081016040528092919081815260200182805461286b906149d4565b80156128b85780601f1061288d576101008083540402835291602001916128b8565b820191906000526020600020905b81548152906001019060200180831161289b57829003601f168201915b505050505081526020016004820180546128d1906149d4565b80601f01602080910402602001604051908101604052809291908181526020018280546128fd906149d4565b801561294a5780601f1061291f5761010080835404028352916020019161294a565b820191906000526020600020905b81548152906001019060200180831161292d57829003601f168201915b5050505050815260200160058201548152602001600682015481526020016007820160009054906101000a900460ff161515151581526020016007820160019054906101000a900460ff161515151581526020016007820160029054906101000a900460ff1660048111156129c2576129c16140e4565b5b60048111156129d4576129d36140e4565b5b815250509050919050565b60606008805480602002602001604051908101604052809291908181526020016000905b82821015612bad578382906000526020600020906007020160405180610100016040529081600082015481526020016001820160009054906101000a900473ffffffffffffffffffffffffffffffffffffffff1673ffffffffffffffffffffffffffffffffffffffff1673ffffffffffffffffffffffffffffffffffffffff16815260200160028201548152602001600382015481526020016004820160009054906101000a900460ff161515151581526020016004820160019054906101000a900460ff16151515158152602001600582018054612ae1906149d4565b80601f0160208091040260200160405190810160405280929190818152602001828054612b0d906149d4565b8015612b5a5780601f10612b2f57610100808354040283529160200191612b5a565b820191906000526020600020905b815481529060010190602001808311612b3d57829003601f168201915b505050505081526020016006820160009054906101000a900460ff166004811115612b8857612b876140e4565b5b6004811115612b9a57612b996140e4565b5b8152505081526020019060010190612a03565b50505050905090565b60007f01ffc9a7000000000000000000000000000000000000000000000000000000007bffffffffffffffffffffffffffffffffffffffffffffffffffffffff1916827bffffffffffffffffffffffffffffffffffffffffffffffffffffffff1916149050919050565b60008273ffffffffffffffffffffffffffffffffffffffff1682604051612c4690615a5e565b60006040518083038185875af1925050503d8060008114612c83576040519150601f19603f3d011682016040523d82523d6000602084013e612c88565b606091505b5050905080612ccc576040517f08c379a0000000000000000000000000000000000000000000000000000000008152600401612cc390615abf565b60405180910390fd5b505050565b612cda816134cc565b612d19576040517f08c379a0000000000000000000000000000000000000000000000000000000008152600401612d10906155c8565b60405180910390fd5b50565b600033905090565b816004600083815260200190815260200160002060006101000a81548173ffffffffffffffffffffffffffffffffffffffff021916908373ffffffffffffffffffffffffffffffffffffffff160217905550808273ffffffffffffffffffffffffffffffffffffffff16612d97836119f4565b73ffffffffffffffffffffffffffffffffffffffff167f8c5be1e5ebec7d5bd14f71427d1e84f3dd0314c0f7b2291e5b200ac8c7c3b92560405160405180910390a45050565b600260065403612e22576040517f08c379a0000000000000000000000000000000000000000000000000000000008152600401612e1990615b2b565b60405180910390fd5b6002600681905550565b6001600681905550565b600080612e42836119f4565b90508073ffffffffffffffffffffffffffffffffffffffff168473ffffffffffffffffffffffffffffffffffffffff161480612e845750612e838185612673565b5b80612ec257508373ffffffffffffffffffffffffffffffffffffffff16612eaa8461097b565b73ffffffffffffffffffffffffffffffffffffffff16145b91505092915050565b8273ffffffffffffffffffffffffffffffffffffffff16612eeb826119f4565b73ffffffffffffffffffffffffffffffffffffffff1614612f41576040517f08c379a0000000000000000000000000000000000000000000000000000000008152600401612f3890615bbd565b60405180910390fd5b600073ffffffffffffffffffffffffffffffffffffffff168273ffffffffffffffffffffffffffffffffffffffff1603612fb0576040517f08c379a0000000000000000000000000000000000000000000000000000000008152600401612fa790615c4f565b60405180910390fd5b612fbd838383600161350d565b8273ffffffffffffffffffffffffffffffffffffffff16612fdd826119f4565b73ffffffffffffffffffffffffffffffffffffffff1614613033576040517f08c379a000000000000000000000000000000000000000000000000000000000815260040161302a90615bbd565b60405180910390fd5b6004600082815260200190815260200160002060006101000a81549073ffffffffffffffffffffffffffffffffffffffff02191690556001600360008573ffffffffffffffffffffffffffffffffffffffff1673ffffffffffffffffffffffffffffffffffffffff168152602001908152602001600020600082825403925050819055506001600360008473ffffffffffffffffffffffffffffffffffffffff1673ffffffffffffffffffffffffffffffffffffffff16815260200190815260200160002060008282540192505081905550816002600083815260200190815260200160002060006101000a81548173ffffffffffffffffffffffffffffffffffffffff021916908373ffffffffffffffffffffffffffffffffffffffff160217905550808273ffffffffffffffffffffffffffffffffffffffff168473ffffffffffffffffffffffffffffffffffffffff167fddf252ad1be2c89b69c2b068fc378daa952ba7f163c4a11628f55a4df523b3ef60405160405180910390a46131bf8383836001613513565b505050565b6131de828260405180602001604052806000815250613519565b5050565b60006002600083815260200190815260200160002060009054906101000a900473ffffffffffffffffffffffffffffffffffffffff169050919050565b8173ffffffffffffffffffffffffffffffffffffffff168373ffffffffffffffffffffffffffffffffffffffff160361328d576040517f08c379a000000000000000000000000000000000000000000000000000000000815260040161328490615cbb565b60405180910390fd5b80600560008573ffffffffffffffffffffffffffffffffffffffff1673ffffffffffffffffffffffffffffffffffffffff16815260200190815260200160002060008473ffffffffffffffffffffffffffffffffffffffff1673ffffffffffffffffffffffffffffffffffffffff16815260200190815260200160002060006101000a81548160ff0219169083151502179055508173ffffffffffffffffffffffffffffffffffffffff168373ffffffffffffffffffffffffffffffffffffffff167f17307eab39ab6107e8899845ad3d59bd9653f200f220920489ca2b5937696c318360405161337e9190613c32565b60405180910390a3505050565b613396848484612ecb565b6133a284848484613574565b6133e1576040517f08c379a00000000000000000000000000000000000000000000000000000000081526004016133d890615d4d565b60405180910390fd5b50505050565b606060405180602001604052806000815250905090565b60606000600161340d846136fb565b01905060008167ffffffffffffffff81111561342c5761342b613e87565b5b6040519080825280601f01601f19166020018201604052801561345e5781602001600182028036833780820191505090505b509050600082602001820190505b6001156134c1578080600190039150507f3031323334353637383961626364656600000000000000000000000000000000600a86061a8153600a85816134b5576134b4615d6d565b5b0494506000850361346c575b819350505050919050565b60008073ffffffffffffffffffffffffffffffffffffffff166134ee836131e2565b73ffffffffffffffffffffffffffffffffffffffff1614159050919050565b50505050565b50505050565b613523838361384e565b6135306000848484613574565b61356f576040517f08c379a000000000000000000000000000000000000000000000000000000000815260040161356690615d4d565b60405180910390fd5b505050565b60006135958473ffffffffffffffffffffffffffffffffffffffff16613a6b565b156136ee578373ffffffffffffffffffffffffffffffffffffffff1663150b7a026135be612d1c565b8786866040518563ffffffff1660e01b81526004016135e09493929190615df1565b6020604051808303816000875af192505050801561361c57506040513d601f19601f820116820180604052508101906136199190615e52565b60015b61369e573d806000811461364c576040519150601f19603f3d011682016040523d82523d6000602084013e613651565b606091505b506000815103613696576040517f08c379a000000000000000000000000000000000000000000000000000000000815260040161368d90615d4d565b60405180910390fd5b805181602001fd5b63150b7a0260e01b7bffffffffffffffffffffffffffffffffffffffffffffffffffffffff1916817bffffffffffffffffffffffffffffffffffffffffffffffffffffffff1916149150506136f3565b600190505b949350505050565b600080600090507a184f03e93ff9f4daa797ed6e38ed64bf6a1f0100000000000000008310613759577a184f03e93ff9f4daa797ed6e38ed64bf6a1f010000000000000000838161374f5761374e615d6d565b5b0492506040810190505b6d04ee2d6d415b85acef81000000008310613796576d04ee2d6d415b85acef8100000000838161378c5761378b615d6d565b5b0492506020810190505b662386f26fc1000083106137c557662386f26fc1000083816137bb576137ba615d6d565b5b0492506010810190505b6305f5e10083106137ee576305f5e10083816137e4576137e3615d6d565b5b0492506008810190505b612710831061381357612710838161380957613808615d6d565b5b0492506004810190505b60648310613836576064838161382c5761382b615d6d565b5b0492506002810190505b600a8310613845576001810190505b80915050919050565b600073ffffffffffffffffffffffffffffffffffffffff168273ffffffffffffffffffffffffffffffffffffffff16036138bd576040517f08c379a00000000000000000000000000000000000000000000000000000000081526004016138b490615ecb565b60405180910390fd5b6138c6816134cc565b15613906576040517f08c379a00000000000000000000000000000000000000000000000000000000081526004016138fd90615f37565b60405180910390fd5b61391460008383600161350d565b61391d816134cc565b1561395d576040517f08c379a000000000000000000000000000000000000000000000000000000000815260040161395490615f37565b60405180910390fd5b6001600360008473ffffffffffffffffffffffffffffffffffffffff1673ffffffffffffffffffffffffffffffffffffffff16815260200190815260200160002060008282540192505081905550816002600083815260200190815260200160002060006101000a81548173ffffffffffffffffffffffffffffffffffffffff021916908373ffffffffffffffffffffffffffffffffffffffff160217905550808273ffffffffffffffffffffffffffffffffffffffff16600073ffffffffffffffffffffffffffffffffffffffff167fddf252ad1be2c89b69c2b068fc378daa952ba7f163c4a11628f55a4df523b3ef60405160405180910390a4613a67600083836001613513565b5050565b6000808273ffffffffffffffffffffffffffffffffffffffff163b119050919050565b60405180610100016040528060008152602001600073ffffffffffffffffffffffffffffffffffffffff16815260200160008152602001600081526020016000151581526020016000151581526020016060815260200160006004811115613af957613af86140e4565b5b81525090565b604051806101400160405280600073ffffffffffffffffffffffffffffffffffffffff16815260200160008152602001606081526020016060815260200160608152602001600081526020016000815260200160001515815260200160001515815260200160006004811115613b7857613b776140e4565b5b81525090565b6000604051905090565b600080fd5b600080fd5b60007fffffffff0000000000000000000000000000000000000000000000000000000082169050919050565b613bc781613b92565b8114613bd257600080fd5b50565b600081359050613be481613bbe565b92915050565b600060208284031215613c0057613bff613b88565b5b6000613c0e84828501613bd5565b91505092915050565b60008115159050919050565b613c2c81613c17565b82525050565b6000602082019050613c476000830184613c23565b92915050565b6000819050919050565b613c6081613c4d565b8114613c6b57600080fd5b50565b600081359050613c7d81613c57565b92915050565b600060208284031215613c9957613c98613b88565b5b6000613ca784828501613c6e565b91505092915050565b600081519050919050565b600082825260208201905092915050565b60005b83811015613cea578082015181840152602081019050613ccf565b60008484015250505050565b6000601f19601f8301169050919050565b6000613d1282613cb0565b613d1c8185613cbb565b9350613d2c818560208601613ccc565b613d3581613cf6565b840191505092915050565b60006020820190508181036000830152613d5a8184613d07565b905092915050565b600073ffffffffffffffffffffffffffffffffffffffff82169050919050565b6000613d8d82613d62565b9050919050565b613d9d81613d82565b82525050565b6000602082019050613db86000830184613d94565b92915050565b613dc781613d82565b8114613dd257600080fd5b50565b600081359050613de481613dbe565b92915050565b60008060408385031215613e0157613e00613b88565b5b6000613e0f85828601613dd5565b9250506020613e2085828601613c6e565b9150509250929050565b600080600060608486031215613e4357613e42613b88565b5b6000613e5186828701613dd5565b9350506020613e6286828701613dd5565b9250506040613e7386828701613c6e565b9150509250925092565b600080fd5b600080fd5b7f4e487b7100000000000000000000000000000000000000000000000000000000600052604160045260246000fd5b613ebf82613cf6565b810181811067ffffffffffffffff82111715613ede57613edd613e87565b5b80604052505050565b6000613ef1613b7e565b9050613efd8282613eb6565b919050565b600067ffffffffffffffff821115613f1d57613f1c613e87565b5b613f2682613cf6565b9050602081019050919050565b82818337600083830152505050565b6000613f55613f5084613f02565b613ee7565b905082815260208101848484011115613f7157613f70613e82565b5b613f7c848285613f33565b509392505050565b600082601f830112613f9957613f98613e7d565b5b8135613fa9848260208601613f42565b91505092915050565b60008060008060808587031215613fcc57613fcb613b88565b5b600085013567ffffffffffffffff811115613fea57613fe9613b8d565b5b613ff687828801613f84565b945050602085013567ffffffffffffffff81111561401757614016613b8d565b5b61402387828801613f84565b935050604085013567ffffffffffffffff81111561404457614043613b8d565b5b61405087828801613f84565b925050606061406187828801613c6e565b91505092959194509250565b61407681613c4d565b82525050565b61408581613d82565b82525050565b61409481613c17565b82525050565b600082825260208201905092915050565b60006140b682613cb0565b6140c0818561409a565b93506140d0818560208601613ccc565b6140d981613cf6565b840191505092915050565b7f4e487b7100000000000000000000000000000000000000000000000000000000600052602160045260246000fd5b60058110614124576141236140e4565b5b50565b600081905061413582614113565b919050565b600061414582614127565b9050919050565b6141558161413a565b82525050565b600061010083016000830151614174600086018261406d565b506020830151614187602086018261407c565b50604083015161419a604086018261406d565b5060608301516141ad606086018261406d565b5060808301516141c0608086018261408b565b5060a08301516141d360a086018261408b565b5060c083015184820360c08601526141eb82826140ab565b91505060e083015161420060e086018261414c565b508091505092915050565b60006020820190508181036000830152614225818461415b565b905092915050565b600081519050919050565b600082825260208201905092915050565b6000819050602082019050919050565b600061014083016000830151614272600086018261407c565b506020830151614285602086018261406d565b506040830151848203604086015261429d82826140ab565b915050606083015184820360608601526142b782826140ab565b915050608083015184820360808601526142d182826140ab565b91505060a08301516142e660a086018261406d565b5060c08301516142f960c086018261406d565b5060e083015161430c60e086018261408b565b5061010083015161432161010086018261408b565b5061012083015161433661012086018261414c565b508091505092915050565b600061434d8383614259565b905092915050565b6000602082019050919050565b600061436d8261422d565b6143778185614238565b93508360208202850161438985614249565b8060005b858110156143c557848403895281516143a68582614341565b94506143b183614355565b925060208a0199505060018101905061438d565b50829750879550505050505092915050565b600060208201905081810360008301526143f18184614362565b905092915050565b60006020828403121561440f5761440e613b88565b5b600061441d84828501613dd5565b91505092915050565b61442f81613c4d565b82525050565b600060208201905061444a6000830184614426565b92915050565b61445981613c17565b811461446457600080fd5b50565b60008135905061447681614450565b92915050565b6000806040838503121561449357614492613b88565b5b60006144a185828601613dd5565b92505060206144b285828601614467565b9150509250929050565b600067ffffffffffffffff8211156144d7576144d6613e87565b5b6144e082613cf6565b9050602081019050919050565b60006145006144fb846144bc565b613ee7565b90508281526020810184848401111561451c5761451b613e82565b5b614527848285613f33565b509392505050565b600082601f83011261454457614543613e7d565b5b81356145548482602086016144ed565b91505092915050565b6000806000806080858703121561457757614576613b88565b5b600061458587828801613dd5565b945050602061459687828801613dd5565b93505060406145a787828801613c6e565b925050606085013567ffffffffffffffff8111156145c8576145c7613b8d565b5b6145d48782880161452f565b91505092959194509250565b600080604083850312156145f7576145f6613b88565b5b600061460585828601613dd5565b925050602061461685828601613dd5565b9150509250929050565b600061014083016000830151614639600086018261407c565b50602083015161464c602086018261406d565b506040830151848203604086015261466482826140ab565b9150506060830151848203606086015261467e82826140ab565b9150506080830151848203608086015261469882826140ab565b91505060a08301516146ad60a086018261406d565b5060c08301516146c060c086018261406d565b5060e08301516146d360e086018261408b565b506101008301516146e861010086018261408b565b506101208301516146fd61012086018261414c565b508091505092915050565b600060208201905081810360008301526147228184614620565b905092915050565b600081519050919050565b600082825260208201905092915050565b6000819050602082019050919050565b60006101008301600083015161476f600086018261406d565b506020830151614782602086018261407c565b506040830151614795604086018261406d565b5060608301516147a8606086018261406d565b5060808301516147bb608086018261408b565b5060a08301516147ce60a086018261408b565b5060c083015184820360c08601526147e682826140ab565b91505060e08301516147fb60e086018261414c565b508091505092915050565b60006148128383614756565b905092915050565b6000602082019050919050565b60006148328261472a565b61483c8185614735565b93508360208202850161484e85614746565b8060005b8581101561488a578484038952815161486b8582614806565b94506148768361481a565b925060208a01995050600181019050614852565b50829750879550505050505092915050565b600060208201905081810360008301526148b68184614827565b905092915050565b7f4e487b7100000000000000000000000000000000000000000000000000000000600052603260045260246000fd5b7f4f6e6c79204f776e6572206861732074686520617574686f7269747920746f2060008201527f63616e2070726f62652041737365742c2050726f63657373205265766572736560208201527f6400000000000000000000000000000000000000000000000000000000000000604082015250565b600061496f604183613cbb565b915061497a826148ed565b606082019050919050565b6000602082019050818103600083015261499e81614962565b9050919050565b7f4e487b7100000000000000000000000000000000000000000000000000000000600052602260045260246000fd5b600060028204905060018216806149ec57607f821691505b6020821081036149ff576149fe6149a5565b5b50919050565b7f4552433732313a20617070726f76616c20746f2063757272656e74206f776e6560008201527f7200000000000000000000000000000000000000000000000000000000000000602082015250565b6000614a61602183613cbb565b9150614a6c82614a05565b604082019050919050565b60006020820190508181036000830152614a9081614a54565b9050919050565b7f4552433732313a20617070726f76652063616c6c6572206973206e6f7420746f60008201527f6b656e206f776e6572206f7220617070726f76656420666f7220616c6c000000602082015250565b6000614af3603d83613cbb565b9150614afe82614a97565b604082019050919050565b60006020820190508181036000830152614b2281614ae6565b9050919050565b7f417373657420697320756e6465676f696e67204e65676f74696174696f6e0000600082015250565b6000614b5f601e83613cbb565b9150614b6a82614b29565b602082019050919050565b60006020820190508181036000830152614b8e81614b52565b9050919050565b7f596f752063616e6e6f742062757920796f757220417373657400000000000000600082015250565b6000614bcb601983613cbb565b9150614bd682614b95565b602082019050919050565b60006020820190508181036000830152614bfa81614bbe565b9050919050565b7f417373657420646f6573206e6f74204578697374000000000000000000000000600082015250565b6000614c37601483613cbb565b9150614c4282614c01565b602082019050919050565b60006020820190508181036000830152614c6681614c2a565b9050919050565b7f496e636f7272656374207061796d656e7420616d6f756e740000000000000000600082015250565b6000614ca3601883613cbb565b9150614cae82614c6d565b602082019050919050565b60006020820190508181036000830152614cd281614c96565b9050919050565b600081549050614ce8816149d4565b9050919050565b60008190508160005260206000209050919050565b60006020601f8301049050919050565b600082821b905092915050565b600060088302614d517fffffffffffffffffffffffffffffffffffffffffffffffffffffffffffffffff82614d14565b614d5b8683614d14565b95508019841693508086168417925050509392505050565b6000819050919050565b6000614d98614d93614d8e84613c4d565b614d73565b613c4d565b9050919050565b6000819050919050565b614db283614d7d565b614dc6614dbe82614d9f565b848454614d21565b825550505050565b600090565b614ddb614dce565b614de6818484614da9565b505050565b5b81811015614e0a57614dff600082614dd3565b600181019050614dec565b5050565b601f821115614e4f57614e2081614cef565b614e2984614d04565b81016020851015614e38578190505b614e4c614e4485614d04565b830182614deb565b50505b505050565b600082821c905092915050565b6000614e7260001984600802614e54565b1980831691505092915050565b6000614e8b8383614e61565b9150826002028217905092915050565b818103614ea9575050614f81565b614eb282614cd9565b67ffffffffffffffff811115614ecb57614eca613e87565b5b614ed582546149d4565b614ee0828285614e0e565b6000601f831160018114614f0f5760008415614efd578287015490505b614f078582614e7f565b865550614f7a565b601f198416614f1d87614cef565b9650614f2886614cef565b60005b82811015614f5057848901548255600182019150600185019450602081019050614f2b565b86831015614f6d5784890154614f69601f891682614e61565b8355505b6001600288020188555050505b5050505050505b565b600060a082019050614f986000830188613d94565b614fa56020830187613d94565b614fb26040830186614426565b614fbf6060830185614426565b614fcc6080830184613c23565b9695505050505050565b7f4552433732313a2063616c6c6572206973206e6f7420746f6b656e206f776e6560008201527f72206f7220617070726f76656400000000000000000000000000000000000000602082015250565b6000615032602d83613cbb565b915061503d82614fd6565b604082019050919050565b6000602082019050818103600083015261506181615025565b9050919050565b7f796f7520617265206e6f74207468652062757965720000000000000000000000600082015250565b600061509e601583613cbb565b91506150a982615068565b602082019050919050565b600060208201905081810360008301526150cd81615091565b9050919050565b7f6173736574206e6f74206f70656e656420666f722073656c6c696e6700000000600082015250565b600061510a601c83613cbb565b9150615115826150d4565b602082019050919050565b60006020820190508181036000830152615139816150fd565b9050919050565b6151498161413a565b82525050565b60006040820190506151646000830185615140565b6151716020830184615140565b9392505050565b7f5469746c65206d7573742062652067726561746572207468616e203000000000600082015250565b60006151ae601c83613cbb565b91506151b982615178565b602082019050919050565b600060208201905081810360008301526151dd816151a1565b9050919050565b7f4465736372697074696f6e2063616e6e6f7420626520656d7074790000000000600082015250565b600061521a601b83613cbb565b9150615225826151e4565b602082019050919050565b600060208201905081810360008301526152498161520d565b9050919050565b7f496d6167652063616e6e6f7420626520656d7074790000000000000000000000600082015250565b6000615286601583613cbb565b915061529182615250565b602082019050919050565b600060208201905081810360008301526152b581615279565b9050919050565b7f636f7374206d7573742062652067726561746572207468616e20300000000000600082015250565b60006152f2601b83613cbb565b91506152fd826152bc565b602082019050919050565b60006020820190508181036000830152615321816152e5565b9050919050565b600081905092915050565b600061533e82613cb0565b6153488185615328565b9350615358818560208601613ccc565b80840191505092915050565b60006153708284615333565b915081905092915050565b7f417373657420616c726561647920657869737400000000000000000000000000600082015250565b60006153b1601383613cbb565b91506153bc8261537b565b602082019050919050565b600060208201905081810360008301526153e0816153a4565b9050919050565b7f4e487b7100000000000000000000000000000000000000000000000000000000600052601160045260246000fd5b600061542182613c4d565b91507fffffffffffffffffffffffffffffffffffffffffffffffffffffffffffffffff8203615453576154526153e7565b5b600182019050919050565b61546782613cb0565b67ffffffffffffffff8111156154805761547f613e87565b5b61548a82546149d4565b615495828285614e0e565b600060209050601f8311600181146154c857600084156154b6578287015190505b6154c08582614e7f565b865550615528565b601f1984166154d686614cef565b60005b828110156154fe578489015182556001820191506020850194506020810190506154d9565b8683101561551b5784890151615517601f891682614e61565b8355505b6001600288020188555050505b505050505050565b60006080820190506155456000830187613d94565b81810360208301526155578186613d07565b90506155666040830185614426565b6155736060830184614426565b95945050505050565b7f4552433732313a20696e76616c696420746f6b656e2049440000000000000000600082015250565b60006155b2601883613cbb565b91506155bd8261557c565b602082019050919050565b600060208201905081810360008301526155e1816155a5565b9050919050565b7f4552433732313a2061646472657373207a65726f206973206e6f74206120766160008201527f6c6964206f776e65720000000000000000000000000000000000000000000000602082015250565b6000615644602983613cbb565b915061564f826155e8565b604082019050919050565b6000602082019050818103600083015261567381615637565b9050919050565b7f6f6e6c7920746865206f776e65722063616e2072656c65617365204173736574600082015250565b60006156b0602083613cbb565b91506156bb8261567a565b602082019050919050565b600060208201905081810360008301526156df816156a3565b9050919050565b7f417373657420697320756e646572676f696e67204e65676f74696174696f6e00600082015250565b600061571c601f83613cbb565b9150615727826156e6565b602082019050919050565b6000602082019050818103600083015261574b8161570f565b9050919050565b7f4f6e6c79207468652062757965722063616e2063616c6c20746869732066756e60008201527f6374696f6e000000000000000000000000000000000000000000000000000000602082015250565b60006157ae602583613cbb565b91506157b982615752565b604082019050919050565b600060208201905081810360008301526157dd816157a1565b9050919050565b60006157ef82613c4d565b91506157fa83613c4d565b9250828203905081811115615812576158116153e7565b5b92915050565b600081549050615827816149d4565b9050919050565b60008190508160005260206000209050919050565b818103615851575050615929565b61585a82615818565b67ffffffffffffffff81111561587357615872613e87565b5b61587d82546149d4565b615888828285614e0e565b6000601f8311600181146158b757600084156158a5578287015490505b6158af8582614e7f565b865550615922565b601f1984166158c58761582e565b96506158d086614cef565b60005b828110156158f8578489015482556001820191506001850194506020810190506158d3565b868310156159155784890154615911601f891682614e61565b8355505b6001600288020188555050505b5050505050505b565b60008154615938816149d4565b6159428186613cbb565b9450600182166000811461595d5760018114615973576159a6565b60ff1983168652811515602002860193506159a6565b61597c85614cef565b60005b8381101561599e5781548189015260018201915060208101905061597f565b808801955050505b50505092915050565b600060a0820190506159c46000830188613d94565b6159d16020830187613d94565b6159de6040830186614426565b81810360608301526159f0818561592b565b90506159ff6080830184614426565b9695505050505050565b6000615a158285615333565b9150615a218284615333565b91508190509392505050565b600081905092915050565b50565b6000615a48600083615a2d565b9150615a5382615a38565b600082019050919050565b6000615a6982615a3b565b9150819050919050565b7f4661696c656420746f2073656e64204574686572000000000000000000000000600082015250565b6000615aa9601483613cbb565b9150615ab482615a73565b602082019050919050565b60006020820190508181036000830152615ad881615a9c565b9050919050565b7f5265656e7472616e637947756172643a207265656e7472616e742063616c6c00600082015250565b6000615b15601f83613cbb565b9150615b2082615adf565b602082019050919050565b60006020820190508181036000830152615b4481615b08565b9050919050565b7f4552433732313a207472616e736665722066726f6d20696e636f72726563742060008201527f6f776e6572000000000000000000000000000000000000000000000000000000602082015250565b6000615ba7602583613cbb565b9150615bb282615b4b565b604082019050919050565b60006020820190508181036000830152615bd681615b9a565b9050919050565b7f4552433732313a207472616e7366657220746f20746865207a65726f2061646460008201527f7265737300000000000000000000000000000000000000000000000000000000602082015250565b6000615c39602483613cbb565b9150615c4482615bdd565b604082019050919050565b60006020820190508181036000830152615c6881615c2c565b9050919050565b7f4552433732313a20617070726f766520746f2063616c6c657200000000000000600082015250565b6000615ca5601983613cbb565b9150615cb082615c6f565b602082019050919050565b60006020820190508181036000830152615cd481615c98565b9050919050565b7f4552433732313a207472616e7366657220746f206e6f6e20455243373231526560008201527f63656976657220696d706c656d656e7465720000000000000000000000000000602082015250565b6000615d37603283613cbb565b9150615d4282615cdb565b604082019050919050565b60006020820190508181036000830152615d6681615d2a565b9050919050565b7f4e487b7100000000000000000000000000000000000000000000000000000000600052601260045260246000fd5b600081519050919050565b600082825260208201905092915050565b6000615dc382615d9c565b615dcd8185615da7565b9350615ddd818560208601613ccc565b615de681613cf6565b840191505092915050565b6000608082019050615e066000830187613d94565b615e136020830186613d94565b615e206040830185614426565b8181036060830152615e328184615db8565b905095945050505050565b600081519050615e4c81613bbe565b92915050565b600060208284031215615e6857615e67613b88565b5b6000615e7684828501615e3d565b91505092915050565b7f4552433732313a206d696e7420746f20746865207a65726f2061646472657373600082015250565b6000615eb5602083613cbb565b9150615ec082615e7f565b602082019050919050565b60006020820190508181036000830152615ee481615ea8565b9050919050565b7f4552433732313a20746f6b656e20616c7265616479206d696e74656400000000600082015250565b6000615f21601c83613cbb565b9150615f2c82615eeb565b602082019050919050565b60006020820190508181036000830152615f5081615f14565b905091905056fea26469706673582212205cb1fcc7fe75d63e16423f57a2b365f2785f8861862354966fd4eec96f4532a564736f6c63430008110033",
  "linkReferences": {},
  "deployedLinkReferences": {}
}